{
  "contracts/oracletests/oracleTests.sol": {
    "pricetest": {
      "abi": [
        {
          "inputs": [],
          "name": "getLatestPrice",
          "outputs": [
            {
              "internalType": "int256",
              "name": "",
              "type": "int256"
            }
          ],
          "stateMutability": "view",
          "type": "function"
        },
        {
          "inputs": [
            {
              "internalType": "address",
              "name": "_aggregatorAdress",
              "type": "address"
            }
          ],
          "name": "setPriceFeed",
          "outputs": [],
          "stateMutability": "nonpayable",
          "type": "function"
        }
      ],
      "evm": {
        "bytecode": {
          "linkReferences": {},
          "object": "608060405234801561001057600080fd5b50610370806100206000396000f3fe608060405234801561001057600080fd5b50600436106100365760003560e01c8063724e78da1461003b5780638e15f47314610057575b600080fd5b610055600480360381019061005091906101ba565b610075565b005b61005f6100b8565b60405161006c9190610200565b60405180910390f35b806000806101000a81548173ffffffffffffffffffffffffffffffffffffffff021916908373ffffffffffffffffffffffffffffffffffffffff16021790555050565b60008060008054906101000a900473ffffffffffffffffffffffffffffffffffffffff1673ffffffffffffffffffffffffffffffffffffffff1663feaf968c6040518163ffffffff1660e01b815260040160a060405180830381865afa158015610126573d6000803e3d6000fd5b505050506040513d601f19601f8201168201806040525081019061014a91906102bf565b5050509150508091505090565b600080fd5b600073ffffffffffffffffffffffffffffffffffffffff82169050919050565b60006101878261015c565b9050919050565b6101978161017c565b81146101a257600080fd5b50565b6000813590506101b48161018e565b92915050565b6000602082840312156101d0576101cf610157565b5b60006101de848285016101a5565b91505092915050565b6000819050919050565b6101fa816101e7565b82525050565b600060208201905061021560008301846101f1565b92915050565b600069ffffffffffffffffffff82169050919050565b61023a8161021b565b811461024557600080fd5b50565b60008151905061025781610231565b92915050565b610266816101e7565b811461027157600080fd5b50565b6000815190506102838161025d565b92915050565b6000819050919050565b61029c81610289565b81146102a757600080fd5b50565b6000815190506102b981610293565b92915050565b600080600080600060a086880312156102db576102da610157565b5b60006102e988828901610248565b95505060206102fa88828901610274565b945050604061030b888289016102aa565b935050606061031c888289016102aa565b925050608061032d88828901610248565b915050929550929590935056fea2646970667358221220d864178e4029a5fc2eb3827551c76af512ce2960874285de40d69fc52c9cd61f64736f6c634300080a0033",
          "opcodes": "PUSH1 0x80 PUSH1 0x40 MSTORE CALLVALUE DUP1 ISZERO PUSH2 0x10 JUMPI PUSH1 0x0 DUP1 REVERT JUMPDEST POP PUSH2 0x370 DUP1 PUSH2 0x20 PUSH1 0x0 CODECOPY PUSH1 0x0 RETURN INVALID PUSH1 0x80 PUSH1 0x40 MSTORE CALLVALUE DUP1 ISZERO PUSH2 0x10 JUMPI PUSH1 0x0 DUP1 REVERT JUMPDEST POP PUSH1 0x4 CALLDATASIZE LT PUSH2 0x36 JUMPI PUSH1 0x0 CALLDATALOAD PUSH1 0xE0 SHR DUP1 PUSH4 0x724E78DA EQ PUSH2 0x3B JUMPI DUP1 PUSH4 0x8E15F473 EQ PUSH2 0x57 JUMPI JUMPDEST PUSH1 0x0 DUP1 REVERT JUMPDEST PUSH2 0x55 PUSH1 0x4 DUP1 CALLDATASIZE SUB DUP2 ADD SWAP1 PUSH2 0x50 SWAP2 SWAP1 PUSH2 0x1BA JUMP JUMPDEST PUSH2 0x75 JUMP JUMPDEST STOP JUMPDEST PUSH2 0x5F PUSH2 0xB8 JUMP JUMPDEST PUSH1 0x40 MLOAD PUSH2 0x6C SWAP2 SWAP1 PUSH2 0x200 JUMP JUMPDEST PUSH1 0x40 MLOAD DUP1 SWAP2 SUB SWAP1 RETURN JUMPDEST DUP1 PUSH1 0x0 DUP1 PUSH2 0x100 EXP DUP2 SLOAD DUP2 PUSH20 0xFFFFFFFFFFFFFFFFFFFFFFFFFFFFFFFFFFFFFFFF MUL NOT AND SWAP1 DUP4 PUSH20 0xFFFFFFFFFFFFFFFFFFFFFFFFFFFFFFFFFFFFFFFF AND MUL OR SWAP1 SSTORE POP POP JUMP JUMPDEST PUSH1 0x0 DUP1 PUSH1 0x0 DUP1 SLOAD SWAP1 PUSH2 0x100 EXP SWAP1 DIV PUSH20 0xFFFFFFFFFFFFFFFFFFFFFFFFFFFFFFFFFFFFFFFF AND PUSH20 0xFFFFFFFFFFFFFFFFFFFFFFFFFFFFFFFFFFFFFFFF AND PUSH4 0xFEAF968C PUSH1 0x40 MLOAD DUP2 PUSH4 0xFFFFFFFF AND PUSH1 0xE0 SHL DUP2 MSTORE PUSH1 0x4 ADD PUSH1 0xA0 PUSH1 0x40 MLOAD DUP1 DUP4 SUB DUP2 DUP7 GAS STATICCALL ISZERO DUP1 ISZERO PUSH2 0x126 JUMPI RETURNDATASIZE PUSH1 0x0 DUP1 RETURNDATACOPY RETURNDATASIZE PUSH1 0x0 REVERT JUMPDEST POP POP POP POP PUSH1 0x40 MLOAD RETURNDATASIZE PUSH1 0x1F NOT PUSH1 0x1F DUP3 ADD AND DUP3 ADD DUP1 PUSH1 0x40 MSTORE POP DUP2 ADD SWAP1 PUSH2 0x14A SWAP2 SWAP1 PUSH2 0x2BF JUMP JUMPDEST POP POP POP SWAP2 POP POP DUP1 SWAP2 POP POP SWAP1 JUMP JUMPDEST PUSH1 0x0 DUP1 REVERT JUMPDEST PUSH1 0x0 PUSH20 0xFFFFFFFFFFFFFFFFFFFFFFFFFFFFFFFFFFFFFFFF DUP3 AND SWAP1 POP SWAP2 SWAP1 POP JUMP JUMPDEST PUSH1 0x0 PUSH2 0x187 DUP3 PUSH2 0x15C JUMP JUMPDEST SWAP1 POP SWAP2 SWAP1 POP JUMP JUMPDEST PUSH2 0x197 DUP2 PUSH2 0x17C JUMP JUMPDEST DUP2 EQ PUSH2 0x1A2 JUMPI PUSH1 0x0 DUP1 REVERT JUMPDEST POP JUMP JUMPDEST PUSH1 0x0 DUP2 CALLDATALOAD SWAP1 POP PUSH2 0x1B4 DUP2 PUSH2 0x18E JUMP JUMPDEST SWAP3 SWAP2 POP POP JUMP JUMPDEST PUSH1 0x0 PUSH1 0x20 DUP3 DUP5 SUB SLT ISZERO PUSH2 0x1D0 JUMPI PUSH2 0x1CF PUSH2 0x157 JUMP JUMPDEST JUMPDEST PUSH1 0x0 PUSH2 0x1DE DUP5 DUP3 DUP6 ADD PUSH2 0x1A5 JUMP JUMPDEST SWAP2 POP POP SWAP3 SWAP2 POP POP JUMP JUMPDEST PUSH1 0x0 DUP2 SWAP1 POP SWAP2 SWAP1 POP JUMP JUMPDEST PUSH2 0x1FA DUP2 PUSH2 0x1E7 JUMP JUMPDEST DUP3 MSTORE POP POP JUMP JUMPDEST PUSH1 0x0 PUSH1 0x20 DUP3 ADD SWAP1 POP PUSH2 0x215 PUSH1 0x0 DUP4 ADD DUP5 PUSH2 0x1F1 JUMP JUMPDEST SWAP3 SWAP2 POP POP JUMP JUMPDEST PUSH1 0x0 PUSH10 0xFFFFFFFFFFFFFFFFFFFF DUP3 AND SWAP1 POP SWAP2 SWAP1 POP JUMP JUMPDEST PUSH2 0x23A DUP2 PUSH2 0x21B JUMP JUMPDEST DUP2 EQ PUSH2 0x245 JUMPI PUSH1 0x0 DUP1 REVERT JUMPDEST POP JUMP JUMPDEST PUSH1 0x0 DUP2 MLOAD SWAP1 POP PUSH2 0x257 DUP2 PUSH2 0x231 JUMP JUMPDEST SWAP3 SWAP2 POP POP JUMP JUMPDEST PUSH2 0x266 DUP2 PUSH2 0x1E7 JUMP JUMPDEST DUP2 EQ PUSH2 0x271 JUMPI PUSH1 0x0 DUP1 REVERT JUMPDEST POP JUMP JUMPDEST PUSH1 0x0 DUP2 MLOAD SWAP1 POP PUSH2 0x283 DUP2 PUSH2 0x25D JUMP JUMPDEST SWAP3 SWAP2 POP POP JUMP JUMPDEST PUSH1 0x0 DUP2 SWAP1 POP SWAP2 SWAP1 POP JUMP JUMPDEST PUSH2 0x29C DUP2 PUSH2 0x289 JUMP JUMPDEST DUP2 EQ PUSH2 0x2A7 JUMPI PUSH1 0x0 DUP1 REVERT JUMPDEST POP JUMP JUMPDEST PUSH1 0x0 DUP2 MLOAD SWAP1 POP PUSH2 0x2B9 DUP2 PUSH2 0x293 JUMP JUMPDEST SWAP3 SWAP2 POP POP JUMP JUMPDEST PUSH1 0x0 DUP1 PUSH1 0x0 DUP1 PUSH1 0x0 PUSH1 0xA0 DUP7 DUP9 SUB SLT ISZERO PUSH2 0x2DB JUMPI PUSH2 0x2DA PUSH2 0x157 JUMP JUMPDEST JUMPDEST PUSH1 0x0 PUSH2 0x2E9 DUP9 DUP3 DUP10 ADD PUSH2 0x248 JUMP JUMPDEST SWAP6 POP POP PUSH1 0x20 PUSH2 0x2FA DUP9 DUP3 DUP10 ADD PUSH2 0x274 JUMP JUMPDEST SWAP5 POP POP PUSH1 0x40 PUSH2 0x30B DUP9 DUP3 DUP10 ADD PUSH2 0x2AA JUMP JUMPDEST SWAP4 POP POP PUSH1 0x60 PUSH2 0x31C DUP9 DUP3 DUP10 ADD PUSH2 0x2AA JUMP JUMPDEST SWAP3 POP POP PUSH1 0x80 PUSH2 0x32D DUP9 DUP3 DUP10 ADD PUSH2 0x248 JUMP JUMPDEST SWAP2 POP POP SWAP3 SWAP6 POP SWAP3 SWAP6 SWAP1 SWAP4 POP JUMP INVALID LOG2 PUSH5 0x6970667358 0x22 SLT KECCAK256 0xD8 PUSH5 0x178E4029A5 0xFC 0x2E 0xB3 DUP3 PUSH22 0x51C76AF512CE2960874285DE40D69FC52C9CD61F6473 PUSH16 0x6C634300080A00330000000000000000 "
        },
        "methodIdentifiers": {
          "getLatestPrice()": "8e15f473",
          "setPriceFeed(address)": "724e78da"
        }
      }
    }
  }
}