{
  "contracts/oracletests/lensTest.sol": {
    "lensTest": {
      "abi": [
        {
          "inputs": [],
          "name": "lens",
          "outputs": [
            {
              "internalType": "contract ILensHub",
              "name": "",
              "type": "address"
            }
          ],
          "stateMutability": "view",
          "type": "function"
        },
        {
          "inputs": [
            {
              "internalType": "address",
              "name": "_lensAddress",
              "type": "address"
            }
          ],
          "name": "setLensAddress",
          "outputs": [],
          "stateMutability": "nonpayable",
          "type": "function"
        }
      ],
      "evm": {
        "bytecode": {
          "linkReferences": {},
          "object": "608060405234801561001057600080fd5b5061021c806100206000396000f3fe608060405234801561001057600080fd5b50600436106100365760003560e01c8063112666b71461003b5780635eb00aed14610059575b600080fd5b610043610075565b604051610050919061015b565b60405180910390f35b610073600480360381019061006e91906101b9565b610099565b005b60008054906101000a900473ffffffffffffffffffffffffffffffffffffffff1681565b806000806101000a81548173ffffffffffffffffffffffffffffffffffffffff021916908373ffffffffffffffffffffffffffffffffffffffff16021790555050565b600073ffffffffffffffffffffffffffffffffffffffff82169050919050565b6000819050919050565b600061012161011c610117846100dc565b6100fc565b6100dc565b9050919050565b600061013382610106565b9050919050565b600061014582610128565b9050919050565b6101558161013a565b82525050565b6000602082019050610170600083018461014c565b92915050565b600080fd5b6000610186826100dc565b9050919050565b6101968161017b565b81146101a157600080fd5b50565b6000813590506101b38161018d565b92915050565b6000602082840312156101cf576101ce610176565b5b60006101dd848285016101a4565b9150509291505056fea2646970667358221220284e7c7e0149b3f7eb5db5886f5986b8f82f87d122631aeb43e55dd583cc6fd964736f6c634300080a0033",
          "opcodes": "PUSH1 0x80 PUSH1 0x40 MSTORE CALLVALUE DUP1 ISZERO PUSH2 0x10 JUMPI PUSH1 0x0 DUP1 REVERT JUMPDEST POP PUSH2 0x21C DUP1 PUSH2 0x20 PUSH1 0x0 CODECOPY PUSH1 0x0 RETURN INVALID PUSH1 0x80 PUSH1 0x40 MSTORE CALLVALUE DUP1 ISZERO PUSH2 0x10 JUMPI PUSH1 0x0 DUP1 REVERT JUMPDEST POP PUSH1 0x4 CALLDATASIZE LT PUSH2 0x36 JUMPI PUSH1 0x0 CALLDATALOAD PUSH1 0xE0 SHR DUP1 PUSH4 0x112666B7 EQ PUSH2 0x3B JUMPI DUP1 PUSH4 0x5EB00AED EQ PUSH2 0x59 JUMPI JUMPDEST PUSH1 0x0 DUP1 REVERT JUMPDEST PUSH2 0x43 PUSH2 0x75 JUMP JUMPDEST PUSH1 0x40 MLOAD PUSH2 0x50 SWAP2 SWAP1 PUSH2 0x15B JUMP JUMPDEST PUSH1 0x40 MLOAD DUP1 SWAP2 SUB SWAP1 RETURN JUMPDEST PUSH2 0x73 PUSH1 0x4 DUP1 CALLDATASIZE SUB DUP2 ADD SWAP1 PUSH2 0x6E SWAP2 SWAP1 PUSH2 0x1B9 JUMP JUMPDEST PUSH2 0x99 JUMP JUMPDEST STOP JUMPDEST PUSH1 0x0 DUP1 SLOAD SWAP1 PUSH2 0x100 EXP SWAP1 DIV PUSH20 0xFFFFFFFFFFFFFFFFFFFFFFFFFFFFFFFFFFFFFFFF AND DUP2 JUMP JUMPDEST DUP1 PUSH1 0x0 DUP1 PUSH2 0x100 EXP DUP2 SLOAD DUP2 PUSH20 0xFFFFFFFFFFFFFFFFFFFFFFFFFFFFFFFFFFFFFFFF MUL NOT AND SWAP1 DUP4 PUSH20 0xFFFFFFFFFFFFFFFFFFFFFFFFFFFFFFFFFFFFFFFF AND MUL OR SWAP1 SSTORE POP POP JUMP JUMPDEST PUSH1 0x0 PUSH20 0xFFFFFFFFFFFFFFFFFFFFFFFFFFFFFFFFFFFFFFFF DUP3 AND SWAP1 POP SWAP2 SWAP1 POP JUMP JUMPDEST PUSH1 0x0 DUP2 SWAP1 POP SWAP2 SWAP1 POP JUMP JUMPDEST PUSH1 0x0 PUSH2 0x121 PUSH2 0x11C PUSH2 0x117 DUP5 PUSH2 0xDC JUMP JUMPDEST PUSH2 0xFC JUMP JUMPDEST PUSH2 0xDC JUMP JUMPDEST SWAP1 POP SWAP2 SWAP1 POP JUMP JUMPDEST PUSH1 0x0 PUSH2 0x133 DUP3 PUSH2 0x106 JUMP JUMPDEST SWAP1 POP SWAP2 SWAP1 POP JUMP JUMPDEST PUSH1 0x0 PUSH2 0x145 DUP3 PUSH2 0x128 JUMP JUMPDEST SWAP1 POP SWAP2 SWAP1 POP JUMP JUMPDEST PUSH2 0x155 DUP2 PUSH2 0x13A JUMP JUMPDEST DUP3 MSTORE POP POP JUMP JUMPDEST PUSH1 0x0 PUSH1 0x20 DUP3 ADD SWAP1 POP PUSH2 0x170 PUSH1 0x0 DUP4 ADD DUP5 PUSH2 0x14C JUMP JUMPDEST SWAP3 SWAP2 POP POP JUMP JUMPDEST PUSH1 0x0 DUP1 REVERT JUMPDEST PUSH1 0x0 PUSH2 0x186 DUP3 PUSH2 0xDC JUMP JUMPDEST SWAP1 POP SWAP2 SWAP1 POP JUMP JUMPDEST PUSH2 0x196 DUP2 PUSH2 0x17B JUMP JUMPDEST DUP2 EQ PUSH2 0x1A1 JUMPI PUSH1 0x0 DUP1 REVERT JUMPDEST POP JUMP JUMPDEST PUSH1 0x0 DUP2 CALLDATALOAD SWAP1 POP PUSH2 0x1B3 DUP2 PUSH2 0x18D JUMP JUMPDEST SWAP3 SWAP2 POP POP JUMP JUMPDEST PUSH1 0x0 PUSH1 0x20 DUP3 DUP5 SUB SLT ISZERO PUSH2 0x1CF JUMPI PUSH2 0x1CE PUSH2 0x176 JUMP JUMPDEST JUMPDEST PUSH1 0x0 PUSH2 0x1DD DUP5 DUP3 DUP6 ADD PUSH2 0x1A4 JUMP JUMPDEST SWAP2 POP POP SWAP3 SWAP2 POP POP JUMP INVALID LOG2 PUSH5 0x6970667358 0x22 SLT KECCAK256 0x28 0x4E PUSH29 0x7E0149B3F7EB5DB5886F5986B8F82F87D122631AEB43E55DD583CC6FD9 PUSH5 0x736F6C6343 STOP ADDMOD EXP STOP CALLER "
        },
        "methodIdentifiers": {
          "lens()": "112666b7",
          "setLensAddress(address)": "5eb00aed"
        }
      }
    }
  }
}