{
  "_format": "hh-sol-artifact-1",
  "contractName": "DAIBank",
  "sourceName": "contracts/DAIBank.sol",
  "abi": [
    {
      "inputs": [
        {
          "internalType": "address",
          "name": "_DAIAddress",
          "type": "address"
        }
      ],
      "stateMutability": "nonpayable",
      "type": "constructor"
    },
    {
      "anonymous": false,
      "inputs": [
        {
          "indexed": false,
          "internalType": "string",
          "name": "",
          "type": "string"
        }
      ],
      "name": "myLog",
      "type": "event"
    },
    {
      "inputs": [
        {
          "internalType": "address",
          "name": "_from",
          "type": "address"
        },
        {
          "internalType": "address",
          "name": "_to",
          "type": "address"
        },
        {
          "internalType": "uint256",
          "name": "_amount",
          "type": "uint256"
        }
      ],
      "name": "myTransfer",
      "outputs": [],
      "stateMutability": "nonpayable",
      "type": "function"
    }
  ],
  "bytecode": "0x608060405234801561001057600080fd5b50604051610497380380610497833981810160405281019061003291906100db565b806000806101000a81548173ffffffffffffffffffffffffffffffffffffffff021916908373ffffffffffffffffffffffffffffffffffffffff16021790555050610108565b600080fd5b600073ffffffffffffffffffffffffffffffffffffffff82169050919050565b60006100a88261007d565b9050919050565b6100b88161009d565b81146100c357600080fd5b50565b6000815190506100d5816100af565b92915050565b6000602082840312156100f1576100f0610078565b5b60006100ff848285016100c6565b91505092915050565b610380806101176000396000f3fe608060405234801561001057600080fd5b506004361061002b5760003560e01c8063fc4d01da14610030575b600080fd5b61004a600480360381019061004591906101c0565b61004c565b005b60008054906101000a900473ffffffffffffffffffffffffffffffffffffffff1673ffffffffffffffffffffffffffffffffffffffff166323b872dd8484846040518463ffffffff1660e01b81526004016100a993929190610231565b6020604051808303816000875af11580156100c8573d6000803e3d6000fd5b505050506040513d601f19601f820116820180604052508101906100ec91906102a0565b507fcc38d46ce84ed26bc0da07d8a76c1afbc040e3ed841cd29fe60549ce3f1f4e2a60405161011a9061032a565b60405180910390a1505050565b600080fd5b600073ffffffffffffffffffffffffffffffffffffffff82169050919050565b60006101578261012c565b9050919050565b6101678161014c565b811461017257600080fd5b50565b6000813590506101848161015e565b92915050565b6000819050919050565b61019d8161018a565b81146101a857600080fd5b50565b6000813590506101ba81610194565b92915050565b6000806000606084860312156101d9576101d8610127565b5b60006101e786828701610175565b93505060206101f886828701610175565b9250506040610209868287016101ab565b9150509250925092565b61021c8161014c565b82525050565b61022b8161018a565b82525050565b60006060820190506102466000830186610213565b6102536020830185610213565b6102606040830184610222565b949350505050565b60008115159050919050565b61027d81610268565b811461028857600080fd5b50565b60008151905061029a81610274565b92915050565b6000602082840312156102b6576102b5610127565b5b60006102c48482850161028b565b91505092915050565b600082825260208201905092915050565b7f4865726500000000000000000000000000000000000000000000000000000000600082015250565b60006103146004836102cd565b915061031f826102de565b602082019050919050565b6000602082019050818103600083015261034381610307565b905091905056fea264697066735822122043e8455abd99b8d4d958eb1bdad2e64f71cd3ebf5e1a004d9d67b55c8a17750564736f6c634300080a0033",
  "linkReferences": {},
  "deployedLinkReferences": {}
}