{
  "_format": "hh-sol-artifact-1",
  "contractName": "DAIBank",
  "sourceName": "contracts/DAIBank.sol",
  "abi": [
    {
      "inputs": [
        {
          "internalType": "address",
          "name": "_DAIAddress",
          "type": "address"
        }
      ],
      "stateMutability": "nonpayable",
      "type": "constructor"
    },
    {
      "anonymous": false,
      "inputs": [
        {
          "indexed": false,
          "internalType": "string",
          "name": "",
          "type": "string"
        }
      ],
      "name": "myLog",
      "type": "event"
    },
    {
      "inputs": [
        {
          "internalType": "address",
          "name": "_owner",
          "type": "address"
        },
        {
          "internalType": "address",
          "name": "_spender",
          "type": "address"
        }
      ],
      "name": "allowance",
      "outputs": [
        {
          "internalType": "uint256",
          "name": "",
          "type": "uint256"
        }
      ],
      "stateMutability": "view",
      "type": "function"
    },
    {
      "inputs": [
        {
          "internalType": "address",
          "name": "_from",
          "type": "address"
        },
        {
          "internalType": "address",
          "name": "_to",
          "type": "address"
        },
        {
          "internalType": "uint256",
          "name": "_amount",
          "type": "uint256"
        }
      ],
      "name": "myTransfer",
      "outputs": [],
      "stateMutability": "nonpayable",
      "type": "function"
    }
  ],
  "bytecode": "0x608060405234801561001057600080fd5b5060405161063f38038061063f833981810160405281019061003291906100db565b806000806101000a81548173ffffffffffffffffffffffffffffffffffffffff021916908373ffffffffffffffffffffffffffffffffffffffff16021790555050610108565b600080fd5b600073ffffffffffffffffffffffffffffffffffffffff82169050919050565b60006100a88261007d565b9050919050565b6100b88161009d565b81146100c357600080fd5b50565b6000815190506100d5816100af565b92915050565b6000602082840312156100f1576100f0610078565b5b60006100ff848285016100c6565b91505092915050565b610528806101176000396000f3fe608060405234801561001057600080fd5b50600436106100365760003560e01c8063dd62ed3e1461003b578063fc4d01da1461006b575b600080fd5b6100556004803603810190610050919061026c565b610087565b60405161006291906102c5565b60405180910390f35b6100856004803603810190610080919061030c565b61012e565b005b60008060009054906101000a900473ffffffffffffffffffffffffffffffffffffffff1673ffffffffffffffffffffffffffffffffffffffff1663dd62ed3e84846040518363ffffffff1660e01b81526004016100e592919061036e565b602060405180830381865afa158015610102573d6000803e3d6000fd5b505050506040513d601f19601f8201168201806040525081019061012691906103ac565b905092915050565b60008054906101000a900473ffffffffffffffffffffffffffffffffffffffff1673ffffffffffffffffffffffffffffffffffffffff166323b872dd8484846040518463ffffffff1660e01b815260040161018b939291906103d9565b6020604051808303816000875af11580156101aa573d6000803e3d6000fd5b505050506040513d601f19601f820116820180604052508101906101ce9190610448565b507fcc38d46ce84ed26bc0da07d8a76c1afbc040e3ed841cd29fe60549ce3f1f4e2a6040516101fc906104d2565b60405180910390a1505050565b600080fd5b600073ffffffffffffffffffffffffffffffffffffffff82169050919050565b60006102398261020e565b9050919050565b6102498161022e565b811461025457600080fd5b50565b60008135905061026681610240565b92915050565b6000806040838503121561028357610282610209565b5b600061029185828601610257565b92505060206102a285828601610257565b9150509250929050565b6000819050919050565b6102bf816102ac565b82525050565b60006020820190506102da60008301846102b6565b92915050565b6102e9816102ac565b81146102f457600080fd5b50565b600081359050610306816102e0565b92915050565b60008060006060848603121561032557610324610209565b5b600061033386828701610257565b935050602061034486828701610257565b9250506040610355868287016102f7565b9150509250925092565b6103688161022e565b82525050565b6000604082019050610383600083018561035f565b610390602083018461035f565b9392505050565b6000815190506103a6816102e0565b92915050565b6000602082840312156103c2576103c1610209565b5b60006103d084828501610397565b91505092915050565b60006060820190506103ee600083018661035f565b6103fb602083018561035f565b61040860408301846102b6565b949350505050565b60008115159050919050565b61042581610410565b811461043057600080fd5b50565b6000815190506104428161041c565b92915050565b60006020828403121561045e5761045d610209565b5b600061046c84828501610433565b91505092915050565b600082825260208201905092915050565b7f4865726500000000000000000000000000000000000000000000000000000000600082015250565b60006104bc600483610475565b91506104c782610486565b602082019050919050565b600060208201905081810360008301526104eb816104af565b905091905056fea2646970667358221220fc185ae88a12e600274605622a5eb675dcaf6b7a25670b1b9332d87cfa72fb7e64736f6c634300080a0033",
  "linkReferences": {},
  "deployedLinkReferences": {}
}