{
  "_format": "hh-sol-artifact-1",
  "contractName": "DAI",
  "sourceName": "contracts/Mock/mockDAI.sol",
  "abi": [
    {
      "inputs": [],
      "stateMutability": "nonpayable",
      "type": "constructor"
    },
    {
      "anonymous": false,
      "inputs": [
        {
          "indexed": true,
          "internalType": "address",
          "name": "owner",
          "type": "address"
        },
        {
          "indexed": true,
          "internalType": "address",
          "name": "spender",
          "type": "address"
        },
        {
          "indexed": false,
          "internalType": "uint256",
          "name": "value",
          "type": "uint256"
        }
      ],
      "name": "Approval",
      "type": "event"
    },
    {
      "anonymous": false,
      "inputs": [
        {
          "indexed": true,
          "internalType": "address",
          "name": "from",
          "type": "address"
        },
        {
          "indexed": true,
          "internalType": "address",
          "name": "to",
          "type": "address"
        },
        {
          "indexed": false,
          "internalType": "uint256",
          "name": "value",
          "type": "uint256"
        }
      ],
      "name": "Transfer",
      "type": "event"
    },
    {
      "inputs": [
        {
          "internalType": "address",
          "name": "owner",
          "type": "address"
        },
        {
          "internalType": "address",
          "name": "spender",
          "type": "address"
        }
      ],
      "name": "allowance",
      "outputs": [
        {
          "internalType": "uint256",
          "name": "",
          "type": "uint256"
        }
      ],
      "stateMutability": "view",
      "type": "function"
    },
    {
      "inputs": [
        {
          "internalType": "address",
          "name": "spender",
          "type": "address"
        },
        {
          "internalType": "uint256",
          "name": "amount",
          "type": "uint256"
        }
      ],
      "name": "approve",
      "outputs": [
        {
          "internalType": "bool",
          "name": "",
          "type": "bool"
        }
      ],
      "stateMutability": "nonpayable",
      "type": "function"
    },
    {
      "inputs": [
        {
          "internalType": "address",
          "name": "account",
          "type": "address"
        }
      ],
      "name": "balanceOf",
      "outputs": [
        {
          "internalType": "uint256",
          "name": "",
          "type": "uint256"
        }
      ],
      "stateMutability": "view",
      "type": "function"
    },
    {
      "inputs": [],
      "name": "decimals",
      "outputs": [
        {
          "internalType": "uint8",
          "name": "",
          "type": "uint8"
        }
      ],
      "stateMutability": "view",
      "type": "function"
    },
    {
      "inputs": [
        {
          "internalType": "address",
          "name": "spender",
          "type": "address"
        },
        {
          "internalType": "uint256",
          "name": "subtractedValue",
          "type": "uint256"
        }
      ],
      "name": "decreaseAllowance",
      "outputs": [
        {
          "internalType": "bool",
          "name": "",
          "type": "bool"
        }
      ],
      "stateMutability": "nonpayable",
      "type": "function"
    },
    {
      "inputs": [
        {
          "internalType": "address",
          "name": "_to",
          "type": "address"
        },
        {
          "internalType": "uint256",
          "name": "_amount",
          "type": "uint256"
        }
      ],
      "name": "faucet",
      "outputs": [],
      "stateMutability": "nonpayable",
      "type": "function"
    },
    {
      "inputs": [
        {
          "internalType": "address",
          "name": "spender",
          "type": "address"
        },
        {
          "internalType": "uint256",
          "name": "addedValue",
          "type": "uint256"
        }
      ],
      "name": "increaseAllowance",
      "outputs": [
        {
          "internalType": "bool",
          "name": "",
          "type": "bool"
        }
      ],
      "stateMutability": "nonpayable",
      "type": "function"
    },
    {
      "inputs": [
        {
          "internalType": "address",
          "name": "_address",
          "type": "address"
        }
      ],
      "name": "myBalanceOf",
      "outputs": [
        {
          "internalType": "uint256",
          "name": "",
          "type": "uint256"
        }
      ],
      "stateMutability": "view",
      "type": "function"
    },
    {
      "inputs": [],
      "name": "name",
      "outputs": [
        {
          "internalType": "string",
          "name": "",
          "type": "string"
        }
      ],
      "stateMutability": "view",
      "type": "function"
    },
    {
      "inputs": [],
      "name": "symbol",
      "outputs": [
        {
          "internalType": "string",
          "name": "",
          "type": "string"
        }
      ],
      "stateMutability": "view",
      "type": "function"
    },
    {
      "inputs": [],
      "name": "totalSupply",
      "outputs": [
        {
          "internalType": "uint256",
          "name": "",
          "type": "uint256"
        }
      ],
      "stateMutability": "view",
      "type": "function"
    },
    {
      "inputs": [
        {
          "internalType": "address",
          "name": "to",
          "type": "address"
        },
        {
          "internalType": "uint256",
          "name": "amount",
          "type": "uint256"
        }
      ],
      "name": "transfer",
      "outputs": [
        {
          "internalType": "bool",
          "name": "",
          "type": "bool"
        }
      ],
      "stateMutability": "nonpayable",
      "type": "function"
    },
    {
      "inputs": [
        {
          "internalType": "address",
          "name": "from",
          "type": "address"
        },
        {
          "internalType": "address",
          "name": "to",
          "type": "address"
        },
        {
          "internalType": "uint256",
          "name": "amount",
          "type": "uint256"
        }
      ],
      "name": "transferFrom",
      "outputs": [
        {
          "internalType": "bool",
          "name": "",
          "type": "bool"
        }
      ],
      "stateMutability": "nonpayable",
      "type": "function"
    }
  ],
  "bytecode": "0x60806040523480156200001157600080fd5b506040518060400160405280600e81526020017f44616920537461626c65636f696e0000000000000000000000000000000000008152506040518060400160405280600381526020017f4441490000000000000000000000000000000000000000000000000000000000815250816003908051906020019062000096929190620000b8565b508060049080519060200190620000af929190620000b8565b505050620001cd565b828054620000c69062000197565b90600052602060002090601f016020900481019282620000ea576000855562000136565b82601f106200010557805160ff191683800117855562000136565b8280016001018555821562000136579182015b828111156200013557825182559160200191906001019062000118565b5b50905062000145919062000149565b5090565b5b80821115620001645760008160009055506001016200014a565b5090565b7f4e487b7100000000000000000000000000000000000000000000000000000000600052602260045260246000fd5b60006002820490506001821680620001b057607f821691505b60208210811415620001c757620001c662000168565b5b50919050565b6114c680620001dd6000396000f3fe608060405234801561001057600080fd5b50600436106100cf5760003560e01c8063395093511161008c57806395d89b411161006657806395d89b411461023a578063a457c2d714610258578063a9059cbb14610288578063dd62ed3e146102b8576100cf565b806339509351146101be57806370a08231146101ee5780637b56c2b21461021e576100cf565b8063055dbc28146100d457806306fdde0314610104578063095ea7b31461012257806318160ddd1461015257806323b872dd14610170578063313ce567146101a0575b600080fd5b6100ee60048036038101906100e99190610cde565b6102e8565b6040516100fb9190610d24565b60405180910390f35b61010c6102fa565b6040516101199190610dd8565b60405180910390f35b61013c60048036038101906101379190610e26565b61038c565b6040516101499190610e81565b60405180910390f35b61015a6103af565b6040516101679190610d24565b60405180910390f35b61018a60048036038101906101859190610e9c565b6103b9565b6040516101979190610e81565b60405180910390f35b6101a86103e8565b6040516101b59190610f0b565b60405180910390f35b6101d860048036038101906101d39190610e26565b6103f1565b6040516101e59190610e81565b60405180910390f35b61020860048036038101906102039190610cde565b610428565b6040516102159190610d24565b60405180910390f35b61023860048036038101906102339190610e26565b610470565b005b61024261047e565b60405161024f9190610dd8565b60405180910390f35b610272600480360381019061026d9190610e26565b610510565b60405161027f9190610e81565b60405180910390f35b6102a2600480360381019061029d9190610e26565b610587565b6040516102af9190610e81565b60405180910390f35b6102d260048036038101906102cd9190610f26565b6105aa565b6040516102df9190610d24565b60405180910390f35b60006102f382610428565b9050919050565b60606003805461030990610f95565b80601f016020809104026020016040519081016040528092919081815260200182805461033590610f95565b80156103825780601f1061035757610100808354040283529160200191610382565b820191906000526020600020905b81548152906001019060200180831161036557829003601f168201915b5050505050905090565b600080610397610631565b90506103a4818585610639565b600191505092915050565b6000600254905090565b6000806103c4610631565b90506103d1858285610804565b6103dc858585610890565b60019150509392505050565b60006012905090565b6000806103fc610631565b905061041d81858561040e85896105aa565b6104189190610ff6565b610639565b600191505092915050565b60008060008373ffffffffffffffffffffffffffffffffffffffff1673ffffffffffffffffffffffffffffffffffffffff168152602001908152602001600020549050919050565b61047a8282610b11565b5050565b60606004805461048d90610f95565b80601f01602080910402602001604051908101604052809291908181526020018280546104b990610f95565b80156105065780601f106104db57610100808354040283529160200191610506565b820191906000526020600020905b8154815290600101906020018083116104e957829003601f168201915b5050505050905090565b60008061051b610631565b9050600061052982866105aa565b90508381101561056e576040517f08c379a0000000000000000000000000000000000000000000000000000000008152600401610565906110be565b60405180910390fd5b61057b8286868403610639565b60019250505092915050565b600080610592610631565b905061059f818585610890565b600191505092915050565b6000600160008473ffffffffffffffffffffffffffffffffffffffff1673ffffffffffffffffffffffffffffffffffffffff16815260200190815260200160002060008373ffffffffffffffffffffffffffffffffffffffff1673ffffffffffffffffffffffffffffffffffffffff16815260200190815260200160002054905092915050565b600033905090565b600073ffffffffffffffffffffffffffffffffffffffff168373ffffffffffffffffffffffffffffffffffffffff1614156106a9576040517f08c379a00000000000000000000000000000000000000000000000000000000081526004016106a090611150565b60405180910390fd5b600073ffffffffffffffffffffffffffffffffffffffff168273ffffffffffffffffffffffffffffffffffffffff161415610719576040517f08c379a0000000000000000000000000000000000000000000000000000000008152600401610710906111e2565b60405180910390fd5b80600160008573ffffffffffffffffffffffffffffffffffffffff1673ffffffffffffffffffffffffffffffffffffffff16815260200190815260200160002060008473ffffffffffffffffffffffffffffffffffffffff1673ffffffffffffffffffffffffffffffffffffffff168152602001908152602001600020819055508173ffffffffffffffffffffffffffffffffffffffff168373ffffffffffffffffffffffffffffffffffffffff167f8c5be1e5ebec7d5bd14f71427d1e84f3dd0314c0f7b2291e5b200ac8c7c3b925836040516107f79190610d24565b60405180910390a3505050565b600061081084846105aa565b90507fffffffffffffffffffffffffffffffffffffffffffffffffffffffffffffffff811461088a578181101561087c576040517f08c379a00000000000000000000000000000000000000000000000000000000081526004016108739061124e565b60405180910390fd5b6108898484848403610639565b5b50505050565b600073ffffffffffffffffffffffffffffffffffffffff168373ffffffffffffffffffffffffffffffffffffffff161415610900576040517f08c379a00000000000000000000000000000000000000000000000000000000081526004016108f7906112e0565b60405180910390fd5b600073ffffffffffffffffffffffffffffffffffffffff168273ffffffffffffffffffffffffffffffffffffffff161415610970576040517f08c379a000000000000000000000000000000000000000000000000000000000815260040161096790611372565b60405180910390fd5b61097b838383610c71565b60008060008573ffffffffffffffffffffffffffffffffffffffff1673ffffffffffffffffffffffffffffffffffffffff16815260200190815260200160002054905081811015610a01576040517f08c379a00000000000000000000000000000000000000000000000000000000081526004016109f890611404565b60405180910390fd5b8181036000808673ffffffffffffffffffffffffffffffffffffffff1673ffffffffffffffffffffffffffffffffffffffff16815260200190815260200160002081905550816000808573ffffffffffffffffffffffffffffffffffffffff1673ffffffffffffffffffffffffffffffffffffffff1681526020019081526020016000206000828254610a949190610ff6565b925050819055508273ffffffffffffffffffffffffffffffffffffffff168473ffffffffffffffffffffffffffffffffffffffff167fddf252ad1be2c89b69c2b068fc378daa952ba7f163c4a11628f55a4df523b3ef84604051610af89190610d24565b60405180910390a3610b0b848484610c76565b50505050565b600073ffffffffffffffffffffffffffffffffffffffff168273ffffffffffffffffffffffffffffffffffffffff161415610b81576040517f08c379a0000000000000000000000000000000000000000000000000000000008152600401610b7890611470565b60405180910390fd5b610b8d60008383610c71565b8060026000828254610b9f9190610ff6565b92505081905550806000808473ffffffffffffffffffffffffffffffffffffffff1673ffffffffffffffffffffffffffffffffffffffff1681526020019081526020016000206000828254610bf49190610ff6565b925050819055508173ffffffffffffffffffffffffffffffffffffffff16600073ffffffffffffffffffffffffffffffffffffffff167fddf252ad1be2c89b69c2b068fc378daa952ba7f163c4a11628f55a4df523b3ef83604051610c599190610d24565b60405180910390a3610c6d60008383610c76565b5050565b505050565b505050565b600080fd5b600073ffffffffffffffffffffffffffffffffffffffff82169050919050565b6000610cab82610c80565b9050919050565b610cbb81610ca0565b8114610cc657600080fd5b50565b600081359050610cd881610cb2565b92915050565b600060208284031215610cf457610cf3610c7b565b5b6000610d0284828501610cc9565b91505092915050565b6000819050919050565b610d1e81610d0b565b82525050565b6000602082019050610d396000830184610d15565b92915050565b600081519050919050565b600082825260208201905092915050565b60005b83811015610d79578082015181840152602081019050610d5e565b83811115610d88576000848401525b50505050565b6000601f19601f8301169050919050565b6000610daa82610d3f565b610db48185610d4a565b9350610dc4818560208601610d5b565b610dcd81610d8e565b840191505092915050565b60006020820190508181036000830152610df28184610d9f565b905092915050565b610e0381610d0b565b8114610e0e57600080fd5b50565b600081359050610e2081610dfa565b92915050565b60008060408385031215610e3d57610e3c610c7b565b5b6000610e4b85828601610cc9565b9250506020610e5c85828601610e11565b9150509250929050565b60008115159050919050565b610e7b81610e66565b82525050565b6000602082019050610e966000830184610e72565b92915050565b600080600060608486031215610eb557610eb4610c7b565b5b6000610ec386828701610cc9565b9350506020610ed486828701610cc9565b9250506040610ee586828701610e11565b9150509250925092565b600060ff82169050919050565b610f0581610eef565b82525050565b6000602082019050610f206000830184610efc565b92915050565b60008060408385031215610f3d57610f3c610c7b565b5b6000610f4b85828601610cc9565b9250506020610f5c85828601610cc9565b9150509250929050565b7f4e487b7100000000000000000000000000000000000000000000000000000000600052602260045260246000fd5b60006002820490506001821680610fad57607f821691505b60208210811415610fc157610fc0610f66565b5b50919050565b7f4e487b7100000000000000000000000000000000000000000000000000000000600052601160045260246000fd5b600061100182610d0b565b915061100c83610d0b565b9250827fffffffffffffffffffffffffffffffffffffffffffffffffffffffffffffffff0382111561104157611040610fc7565b5b828201905092915050565b7f45524332303a2064656372656173656420616c6c6f77616e63652062656c6f7760008201527f207a65726f000000000000000000000000000000000000000000000000000000602082015250565b60006110a8602583610d4a565b91506110b38261104c565b604082019050919050565b600060208201905081810360008301526110d78161109b565b9050919050565b7f45524332303a20617070726f76652066726f6d20746865207a65726f2061646460008201527f7265737300000000000000000000000000000000000000000000000000000000602082015250565b600061113a602483610d4a565b9150611145826110de565b604082019050919050565b600060208201905081810360008301526111698161112d565b9050919050565b7f45524332303a20617070726f766520746f20746865207a65726f20616464726560008201527f7373000000000000000000000000000000000000000000000000000000000000602082015250565b60006111cc602283610d4a565b91506111d782611170565b604082019050919050565b600060208201905081810360008301526111fb816111bf565b9050919050565b7f45524332303a20696e73756666696369656e7420616c6c6f77616e6365000000600082015250565b6000611238601d83610d4a565b915061124382611202565b602082019050919050565b600060208201905081810360008301526112678161122b565b9050919050565b7f45524332303a207472616e736665722066726f6d20746865207a65726f20616460008201527f6472657373000000000000000000000000000000000000000000000000000000602082015250565b60006112ca602583610d4a565b91506112d58261126e565b604082019050919050565b600060208201905081810360008301526112f9816112bd565b9050919050565b7f45524332303a207472616e7366657220746f20746865207a65726f206164647260008201527f6573730000000000000000000000000000000000000000000000000000000000602082015250565b600061135c602383610d4a565b915061136782611300565b604082019050919050565b6000602082019050818103600083015261138b8161134f565b9050919050565b7f45524332303a207472616e7366657220616d6f756e742065786365656473206260008201527f616c616e63650000000000000000000000000000000000000000000000000000602082015250565b60006113ee602683610d4a565b91506113f982611392565b604082019050919050565b6000602082019050818103600083015261141d816113e1565b9050919050565b7f45524332303a206d696e7420746f20746865207a65726f206164647265737300600082015250565b600061145a601f83610d4a565b915061146582611424565b602082019050919050565b600060208201905081810360008301526114898161144d565b905091905056fea26469706673582212205894bb034798e34a2fe58a19e44b5d03d541074584f35f1bae93c14dc3b5aeaf64736f6c634300080a0033",
  "linkReferences": {},
  "deployedLinkReferences": {}
}