{
  "_format": "hh-sol-artifact-1",
  "contractName": "ExecutablePost",
  "sourceName": "contracts/executablepost.sol",
  "abi": [
    {
      "anonymous": false,
      "inputs": [
        {
          "indexed": true,
          "internalType": "bytes32",
          "name": "ContractID",
          "type": "bytes32"
        }
      ],
      "name": "ContractID",
      "type": "event"
    },
    {
      "inputs": [
        {
          "internalType": "address",
          "name": "",
          "type": "address"
        },
        {
          "internalType": "uint256",
          "name": "",
          "type": "uint256"
        }
      ],
      "name": "allContractsOfAddress",
      "outputs": [
        {
          "internalType": "bytes32",
          "name": "",
          "type": "bytes32"
        }
      ],
      "stateMutability": "view",
      "type": "function"
    },
    {
      "inputs": [
        {
          "internalType": "bytes32",
          "name": "",
          "type": "bytes32"
        }
      ],
      "name": "contractMapping",
      "outputs": [
        {
          "internalType": "address",
          "name": "partyA",
          "type": "address"
        },
        {
          "internalType": "address",
          "name": "partyB",
          "type": "address"
        },
        {
          "internalType": "uint256",
          "name": "resolveAfter",
          "type": "uint256"
        },
        {
          "internalType": "uint256",
          "name": "amount",
          "type": "uint256"
        }
      ],
      "stateMutability": "view",
      "type": "function"
    },
    {
      "inputs": [
        {
          "internalType": "address",
          "name": "_partyA",
          "type": "address"
        },
        {
          "internalType": "address",
          "name": "_partyB",
          "type": "address"
        },
        {
          "internalType": "uint256",
          "name": "_resolveAfter",
          "type": "uint256"
        },
        {
          "internalType": "uint256",
          "name": "_amount",
          "type": "uint256"
        }
      ],
      "name": "createContract",
      "outputs": [],
      "stateMutability": "nonpayable",
      "type": "function"
    },
    {
      "inputs": [
        {
          "internalType": "address",
          "name": "_address",
          "type": "address"
        }
      ],
      "name": "getAllContractOfAddress",
      "outputs": [
        {
          "internalType": "bytes32[]",
          "name": "",
          "type": "bytes32[]"
        }
      ],
      "stateMutability": "view",
      "type": "function"
    },
    {
      "inputs": [
        {
          "internalType": "bytes32",
          "name": "_id",
          "type": "bytes32"
        }
      ],
      "name": "getContractMapping",
      "outputs": [
        {
          "components": [
            {
              "internalType": "address",
              "name": "partyA",
              "type": "address"
            },
            {
              "internalType": "address",
              "name": "partyB",
              "type": "address"
            },
            {
              "internalType": "uint256",
              "name": "resolveAfter",
              "type": "uint256"
            },
            {
              "internalType": "uint256",
              "name": "amount",
              "type": "uint256"
            }
          ],
          "internalType": "struct ExecutablePost.PostContract",
          "name": "_postContract",
          "type": "tuple"
        }
      ],
      "stateMutability": "view",
      "type": "function"
    }
  ],
  "bytecode": "0x608060405234801561001057600080fd5b506109fa806100206000396000f3fe608060405234801561001057600080fd5b50600436106100575760003560e01c80636b424e2d1461005c578063ad01a4cf14610078578063ae603482146100a8578063cd0b2944146100d8578063d6a6bd1614610108575b600080fd5b61007660048036038101906100719190610656565b61013b565b005b610092600480360381019061008d91906106bd565b610345565b60405161009f91906107b2565b60405180910390f35b6100c260048036038101906100bd9190610800565b6103db565b6040516100cf91906108a0565b60405180910390f35b6100f260048036038101906100ed91906108bb565b6104c8565b6040516100ff919061090a565b60405180910390f35b610122600480360381019061011d9190610800565b6104f9565b6040516101329493929190610943565b60405180910390f35b610143610569565b8181606001818152505084816000019073ffffffffffffffffffffffffffffffffffffffff16908173ffffffffffffffffffffffffffffffffffffffff168152505083816020019073ffffffffffffffffffffffffffffffffffffffff16908173ffffffffffffffffffffffffffffffffffffffff1681525050828160400181815250506000426040516020016101da91906109a9565b604051602081830303815290604052805190602001209050816001600083815260200190815260200160002060008201518160000160006101000a81548173ffffffffffffffffffffffffffffffffffffffff021916908373ffffffffffffffffffffffffffffffffffffffff16021790555060208201518160010160006101000a81548173ffffffffffffffffffffffffffffffffffffffff021916908373ffffffffffffffffffffffffffffffffffffffff16021790555060408201518160020155606082015181600301559050506000803373ffffffffffffffffffffffffffffffffffffffff1673ffffffffffffffffffffffffffffffffffffffff168152602001908152602001600020819080600181540180825580915050600190039060005260206000200160009091909190915055807f822f5923f1eb4fab11b7ca59fb68459985a0918b2fa852b7590ace94fbb917ff60405160405180910390a2505050505050565b60606000808373ffffffffffffffffffffffffffffffffffffffff1673ffffffffffffffffffffffffffffffffffffffff1681526020019081526020016000208054806020026020016040519081016040528092919081815260200182805480156103cf57602002820191906000526020600020905b8154815260200190600101908083116103bb575b50505050509050919050565b6103e3610569565b600160008381526020019081526020016000206040518060800160405290816000820160009054906101000a900473ffffffffffffffffffffffffffffffffffffffff1673ffffffffffffffffffffffffffffffffffffffff1673ffffffffffffffffffffffffffffffffffffffff1681526020016001820160009054906101000a900473ffffffffffffffffffffffffffffffffffffffff1673ffffffffffffffffffffffffffffffffffffffff1673ffffffffffffffffffffffffffffffffffffffff168152602001600282015481526020016003820154815250509050919050565b600060205281600052604060002081815481106104e457600080fd5b90600052602060002001600091509150505481565b60016020528060005260406000206000915090508060000160009054906101000a900473ffffffffffffffffffffffffffffffffffffffff16908060010160009054906101000a900473ffffffffffffffffffffffffffffffffffffffff16908060020154908060030154905084565b6040518060800160405280600073ffffffffffffffffffffffffffffffffffffffff168152602001600073ffffffffffffffffffffffffffffffffffffffff16815260200160008152602001600081525090565b600080fd5b600073ffffffffffffffffffffffffffffffffffffffff82169050919050565b60006105ed826105c2565b9050919050565b6105fd816105e2565b811461060857600080fd5b50565b60008135905061061a816105f4565b92915050565b6000819050919050565b61063381610620565b811461063e57600080fd5b50565b6000813590506106508161062a565b92915050565b600080600080608085870312156106705761066f6105bd565b5b600061067e8782880161060b565b945050602061068f8782880161060b565b93505060406106a087828801610641565b92505060606106b187828801610641565b91505092959194509250565b6000602082840312156106d3576106d26105bd565b5b60006106e18482850161060b565b91505092915050565b600081519050919050565b600082825260208201905092915050565b6000819050602082019050919050565b6000819050919050565b61072981610716565b82525050565b600061073b8383610720565b60208301905092915050565b6000602082019050919050565b600061075f826106ea565b61076981856106f5565b935061077483610706565b8060005b838110156107a557815161078c888261072f565b975061079783610747565b925050600181019050610778565b5085935050505092915050565b600060208201905081810360008301526107cc8184610754565b905092915050565b6107dd81610716565b81146107e857600080fd5b50565b6000813590506107fa816107d4565b92915050565b600060208284031215610816576108156105bd565b5b6000610824848285016107eb565b91505092915050565b610836816105e2565b82525050565b61084581610620565b82525050565b608082016000820151610861600085018261082d565b506020820151610874602085018261082d565b506040820151610887604085018261083c565b50606082015161089a606085018261083c565b50505050565b60006080820190506108b5600083018461084b565b92915050565b600080604083850312156108d2576108d16105bd565b5b60006108e08582860161060b565b92505060206108f185828601610641565b9150509250929050565b61090481610716565b82525050565b600060208201905061091f60008301846108fb565b92915050565b61092e816105e2565b82525050565b61093d81610620565b82525050565b60006080820190506109586000830187610925565b6109656020830186610925565b6109726040830185610934565b61097f6060830184610934565b95945050505050565b6000819050919050565b6109a361099e82610620565b610988565b82525050565b60006109b58284610992565b6020820191508190509291505056fea2646970667358221220a2d0fbcb759435393885517d8c7b28b3c4c611343142564f3cee509d635c56c564736f6c634300080a0033",
  "linkReferences": {},
  "deployedLinkReferences": {}
}