{
  "_format": "hh-sol-artifact-1",
  "contractName": "ExecutablePost",
  "sourceName": "contracts/executablepost.sol",
  "abi": [
    {
      "inputs": [
        {
          "internalType": "address",
          "name": "_DAIAddress",
          "type": "address"
        }
      ],
      "stateMutability": "nonpayable",
      "type": "constructor"
    },
    {
      "inputs": [
        {
          "internalType": "address",
          "name": "resolverAddress",
          "type": "address"
        },
        {
          "internalType": "address",
          "name": "msgSender",
          "type": "address"
        }
      ],
      "name": "addressCannotRedeemContract",
      "type": "error"
    },
    {
      "inputs": [
        {
          "internalType": "uint256",
          "name": "balance",
          "type": "uint256"
        },
        {
          "internalType": "uint256",
          "name": "allowance",
          "type": "uint256"
        },
        {
          "internalType": "uint256",
          "name": "required",
          "type": "uint256"
        }
      ],
      "name": "insufficientAllowance",
      "type": "error"
    },
    {
      "inputs": [
        {
          "internalType": "uint256",
          "name": "balance",
          "type": "uint256"
        },
        {
          "internalType": "uint256",
          "name": "allowance",
          "type": "uint256"
        },
        {
          "internalType": "uint256",
          "name": "required",
          "type": "uint256"
        }
      ],
      "name": "insufficientBalance",
      "type": "error"
    },
    {
      "inputs": [],
      "name": "redeemPctResultIsWrong",
      "type": "error"
    },
    {
      "inputs": [
        {
          "internalType": "uint256",
          "name": "currentBlockTimeStamp",
          "type": "uint256"
        },
        {
          "internalType": "uint256",
          "name": "resolveAfter",
          "type": "uint256"
        }
      ],
      "name": "resolvePeriodNotPassed",
      "type": "error"
    },
    {
      "anonymous": false,
      "inputs": [
        {
          "indexed": true,
          "internalType": "bytes32",
          "name": "ContractID",
          "type": "bytes32"
        }
      ],
      "name": "ContractID",
      "type": "event"
    },
    {
      "inputs": [
        {
          "internalType": "address",
          "name": "",
          "type": "address"
        },
        {
          "internalType": "uint256",
          "name": "",
          "type": "uint256"
        }
      ],
      "name": "allContractsOfAddress",
      "outputs": [
        {
          "internalType": "bytes32",
          "name": "",
          "type": "bytes32"
        }
      ],
      "stateMutability": "view",
      "type": "function"
    },
    {
      "inputs": [
        {
          "internalType": "bytes32",
          "name": "",
          "type": "bytes32"
        }
      ],
      "name": "contractMapping",
      "outputs": [
        {
          "internalType": "address",
          "name": "partyA",
          "type": "address"
        },
        {
          "internalType": "address",
          "name": "partyB",
          "type": "address"
        },
        {
          "internalType": "address",
          "name": "resolverAddress",
          "type": "address"
        },
        {
          "internalType": "uint256",
          "name": "resolveAfter",
          "type": "uint256"
        },
        {
          "internalType": "uint256",
          "name": "amount",
          "type": "uint256"
        },
        {
          "internalType": "bool",
          "name": "redeemed",
          "type": "bool"
        }
      ],
      "stateMutability": "view",
      "type": "function"
    },
    {
      "inputs": [
        {
          "internalType": "address",
          "name": "_partyA",
          "type": "address"
        },
        {
          "internalType": "address",
          "name": "_partyB",
          "type": "address"
        },
        {
          "internalType": "uint256",
          "name": "_waitSeconds",
          "type": "uint256"
        },
        {
          "internalType": "uint256",
          "name": "_amount",
          "type": "uint256"
        }
      ],
      "name": "createContract",
      "outputs": [],
      "stateMutability": "nonpayable",
      "type": "function"
    },
    {
      "inputs": [
        {
          "internalType": "address",
          "name": "_address",
          "type": "address"
        }
      ],
      "name": "getAllContractsOfAddress",
      "outputs": [
        {
          "internalType": "bytes32[]",
          "name": "",
          "type": "bytes32[]"
        }
      ],
      "stateMutability": "view",
      "type": "function"
    },
    {
      "inputs": [
        {
          "internalType": "bytes32",
          "name": "_id",
          "type": "bytes32"
        }
      ],
      "name": "getContractMapping",
      "outputs": [
        {
          "components": [
            {
              "internalType": "address",
              "name": "partyA",
              "type": "address"
            },
            {
              "internalType": "address",
              "name": "partyB",
              "type": "address"
            },
            {
              "internalType": "address",
              "name": "resolverAddress",
              "type": "address"
            },
            {
              "internalType": "uint256",
              "name": "resolveAfter",
              "type": "uint256"
            },
            {
              "internalType": "uint256",
              "name": "amount",
              "type": "uint256"
            },
            {
              "internalType": "bool",
              "name": "redeemed",
              "type": "bool"
            }
          ],
          "internalType": "struct ExecutablePost.PostContract",
          "name": "_postContract",
          "type": "tuple"
        }
      ],
      "stateMutability": "view",
      "type": "function"
    },
    {
      "inputs": [
        {
          "internalType": "uint256",
          "name": "_partyAResult",
          "type": "uint256"
        },
        {
          "internalType": "uint256",
          "name": "_partyBResult",
          "type": "uint256"
        },
        {
          "internalType": "bytes32",
          "name": "_contractID",
          "type": "bytes32"
        }
      ],
      "name": "resolveByMsgSender",
      "outputs": [],
      "stateMutability": "nonpayable",
      "type": "function"
    }
  ],
  "bytecode": "0x60806040523480156200001157600080fd5b50604051620016f9380380620016f98339818101604052810190620000379190620000e9565b80600260006101000a81548173ffffffffffffffffffffffffffffffffffffffff021916908373ffffffffffffffffffffffffffffffffffffffff160217905550506200011b565b600080fd5b600073ffffffffffffffffffffffffffffffffffffffff82169050919050565b6000620000b18262000084565b9050919050565b620000c381620000a4565b8114620000cf57600080fd5b50565b600081519050620000e381620000b8565b92915050565b6000602082840312156200010257620001016200007f565b5b60006200011284828501620000d2565b91505092915050565b6115ce806200012b6000396000f3fe608060405234801561001057600080fd5b50600436106100625760003560e01c80636b424e2d14610067578063868cb46814610083578063ae6034821461009f578063cd0b2944146100cf578063d6a6bd16146100ff578063eb2e682a14610134575b600080fd5b610081600480360381019061007c9190610e8d565b610164565b005b61009d60048036038101906100989190610f2a565b610691565b005b6100b960048036038101906100b49190610f7d565b610aac565b6040516100c6919061105e565b60405180910390f35b6100e960048036038101906100e49190611079565b610c0a565b6040516100f691906110c8565b60405180910390f35b61011960048036038101906101149190610f7d565b610c3b565b60405161012b96959493929190611110565b60405180910390f35b61014e60048036038101906101499190611171565b610ce4565b60405161015b919061125c565b60405180910390f35b6000600260009054906101000a900473ffffffffffffffffffffffffffffffffffffffff1673ffffffffffffffffffffffffffffffffffffffff1663dd62ed3e33306040518363ffffffff1660e01b81526004016101c392919061127e565b602060405180830381865afa1580156101e0573d6000803e3d6000fd5b505050506040513d601f19601f8201168201806040525081019061020491906112bc565b90506000600260009054906101000a900473ffffffffffffffffffffffffffffffffffffffff1673ffffffffffffffffffffffffffffffffffffffff166370a08231336040518263ffffffff1660e01b815260040161026391906112e9565b602060405180830381865afa158015610280573d6000803e3d6000fd5b505050506040513d601f19601f820116820180604052508101906102a491906112bc565b9050828210156102ef578082846040517f6f4a11db0000000000000000000000000000000000000000000000000000000081526004016102e693929190611304565b60405180910390fd5b82811015610338578082846040517f103b182a00000000000000000000000000000000000000000000000000000000815260040161032f93929190611304565b60405180910390fd5b610340610d7a565b8381608001818152505086816000019073ffffffffffffffffffffffffffffffffffffffff16908173ffffffffffffffffffffffffffffffffffffffff168152505085816020019073ffffffffffffffffffffffffffffffffffffffff16908173ffffffffffffffffffffffffffffffffffffffff168152505084426103c6919061136a565b81606001818152505033816040019073ffffffffffffffffffffffffffffffffffffffff16908173ffffffffffffffffffffffffffffffffffffffff168152505060004260405160200161041a91906113e1565b604051602081830303815290604052805190602001209050600260009054906101000a900473ffffffffffffffffffffffffffffffffffffffff1673ffffffffffffffffffffffffffffffffffffffff166323b872dd3330886040518463ffffffff1660e01b8152600401610491939291906113fc565b6020604051808303816000875af11580156104b0573d6000803e3d6000fd5b505050506040513d601f19601f820116820180604052508101906104d4919061145f565b50816001600083815260200190815260200160002060008201518160000160006101000a81548173ffffffffffffffffffffffffffffffffffffffff021916908373ffffffffffffffffffffffffffffffffffffffff16021790555060208201518160010160006101000a81548173ffffffffffffffffffffffffffffffffffffffff021916908373ffffffffffffffffffffffffffffffffffffffff16021790555060408201518160020160006101000a81548173ffffffffffffffffffffffffffffffffffffffff021916908373ffffffffffffffffffffffffffffffffffffffff160217905550606082015181600301556080820151816004015560a08201518160050160006101000a81548160ff0219169083151502179055509050506000803373ffffffffffffffffffffffffffffffffffffffff1673ffffffffffffffffffffffffffffffffffffffff168152602001908152602001600020819080600181540180825580915050600190039060005260206000200160009091909190915055807f822f5923f1eb4fab11b7ca59fb68459985a0918b2fa852b7590ace94fbb917ff60405160405180910390a25050505050505050565b610699610d7a565b600160008381526020019081526020016000206040518060c00160405290816000820160009054906101000a900473ffffffffffffffffffffffffffffffffffffffff1673ffffffffffffffffffffffffffffffffffffffff1673ffffffffffffffffffffffffffffffffffffffff1681526020016001820160009054906101000a900473ffffffffffffffffffffffffffffffffffffffff1673ffffffffffffffffffffffffffffffffffffffff1673ffffffffffffffffffffffffffffffffffffffff1681526020016002820160009054906101000a900473ffffffffffffffffffffffffffffffffffffffff1673ffffffffffffffffffffffffffffffffffffffff1673ffffffffffffffffffffffffffffffffffffffff16815260200160038201548152602001600482015481526020016005820160009054906101000a900460ff16151515158152505090503373ffffffffffffffffffffffffffffffffffffffff16816040015173ffffffffffffffffffffffffffffffffffffffff1614610864578060400151336040517ffb1b4bb100000000000000000000000000000000000000000000000000000000815260040161085b92919061127e565b60405180910390fd5b60648385610872919061136a565b146108a9576040517ffc0c013000000000000000000000000000000000000000000000000000000000815260040160405180910390fd5b80606001514210156108f8574281606001516040517f3893669c0000000000000000000000000000000000000000000000000000000081526004016108ef92919061148c565b60405180910390fd5b600180600084815260200190815260200160002060050160006101000a81548160ff021916908315150217905550600260009054906101000a900473ffffffffffffffffffffffffffffffffffffffff1673ffffffffffffffffffffffffffffffffffffffff1663a9059cbb8260000151606487856080015161097b91906114b5565b610985919061153e565b6040518363ffffffff1660e01b81526004016109a292919061156f565b6020604051808303816000875af11580156109c1573d6000803e3d6000fd5b505050506040513d601f19601f820116820180604052508101906109e5919061145f565b50600260009054906101000a900473ffffffffffffffffffffffffffffffffffffffff1673ffffffffffffffffffffffffffffffffffffffff1663a9059cbb82602001516064868560800151610a3b91906114b5565b610a45919061153e565b6040518363ffffffff1660e01b8152600401610a6292919061156f565b6020604051808303816000875af1158015610a81573d6000803e3d6000fd5b505050506040513d601f19601f82011682018060405250810190610aa5919061145f565b5050505050565b610ab4610d7a565b600160008381526020019081526020016000206040518060c00160405290816000820160009054906101000a900473ffffffffffffffffffffffffffffffffffffffff1673ffffffffffffffffffffffffffffffffffffffff1673ffffffffffffffffffffffffffffffffffffffff1681526020016001820160009054906101000a900473ffffffffffffffffffffffffffffffffffffffff1673ffffffffffffffffffffffffffffffffffffffff1673ffffffffffffffffffffffffffffffffffffffff1681526020016002820160009054906101000a900473ffffffffffffffffffffffffffffffffffffffff1673ffffffffffffffffffffffffffffffffffffffff1673ffffffffffffffffffffffffffffffffffffffff16815260200160038201548152602001600482015481526020016005820160009054906101000a900460ff1615151515815250509050919050565b60006020528160005260406000208181548110610c2657600080fd5b90600052602060002001600091509150505481565b60016020528060005260406000206000915090508060000160009054906101000a900473ffffffffffffffffffffffffffffffffffffffff16908060010160009054906101000a900473ffffffffffffffffffffffffffffffffffffffff16908060020160009054906101000a900473ffffffffffffffffffffffffffffffffffffffff16908060030154908060040154908060050160009054906101000a900460ff16905086565b60606000808373ffffffffffffffffffffffffffffffffffffffff1673ffffffffffffffffffffffffffffffffffffffff168152602001908152602001600020805480602002602001604051908101604052809291908181526020018280548015610d6e57602002820191906000526020600020905b815481526020019060010190808311610d5a575b50505050509050919050565b6040518060c00160405280600073ffffffffffffffffffffffffffffffffffffffff168152602001600073ffffffffffffffffffffffffffffffffffffffff168152602001600073ffffffffffffffffffffffffffffffffffffffff16815260200160008152602001600081526020016000151581525090565b600080fd5b600073ffffffffffffffffffffffffffffffffffffffff82169050919050565b6000610e2482610df9565b9050919050565b610e3481610e19565b8114610e3f57600080fd5b50565b600081359050610e5181610e2b565b92915050565b6000819050919050565b610e6a81610e57565b8114610e7557600080fd5b50565b600081359050610e8781610e61565b92915050565b60008060008060808587031215610ea757610ea6610df4565b5b6000610eb587828801610e42565b9450506020610ec687828801610e42565b9350506040610ed787828801610e78565b9250506060610ee887828801610e78565b91505092959194509250565b6000819050919050565b610f0781610ef4565b8114610f1257600080fd5b50565b600081359050610f2481610efe565b92915050565b600080600060608486031215610f4357610f42610df4565b5b6000610f5186828701610e78565b9350506020610f6286828701610e78565b9250506040610f7386828701610f15565b9150509250925092565b600060208284031215610f9357610f92610df4565b5b6000610fa184828501610f15565b91505092915050565b610fb381610e19565b82525050565b610fc281610e57565b82525050565b60008115159050919050565b610fdd81610fc8565b82525050565b60c082016000820151610ff96000850182610faa565b50602082015161100c6020850182610faa565b50604082015161101f6040850182610faa565b5060608201516110326060850182610fb9565b5060808201516110456080850182610fb9565b5060a082015161105860a0850182610fd4565b50505050565b600060c0820190506110736000830184610fe3565b92915050565b600080604083850312156110905761108f610df4565b5b600061109e85828601610e42565b92505060206110af85828601610e78565b9150509250929050565b6110c281610ef4565b82525050565b60006020820190506110dd60008301846110b9565b92915050565b6110ec81610e19565b82525050565b6110fb81610e57565b82525050565b61110a81610fc8565b82525050565b600060c08201905061112560008301896110e3565b61113260208301886110e3565b61113f60408301876110e3565b61114c60608301866110f2565b61115960808301856110f2565b61116660a0830184611101565b979650505050505050565b60006020828403121561118757611186610df4565b5b600061119584828501610e42565b91505092915050565b600081519050919050565b600082825260208201905092915050565b6000819050602082019050919050565b6111d381610ef4565b82525050565b60006111e583836111ca565b60208301905092915050565b6000602082019050919050565b60006112098261119e565b61121381856111a9565b935061121e836111ba565b8060005b8381101561124f57815161123688826111d9565b9750611241836111f1565b925050600181019050611222565b5085935050505092915050565b6000602082019050818103600083015261127681846111fe565b905092915050565b600060408201905061129360008301856110e3565b6112a060208301846110e3565b9392505050565b6000815190506112b681610e61565b92915050565b6000602082840312156112d2576112d1610df4565b5b60006112e0848285016112a7565b91505092915050565b60006020820190506112fe60008301846110e3565b92915050565b600060608201905061131960008301866110f2565b61132660208301856110f2565b61133360408301846110f2565b949350505050565b7f4e487b7100000000000000000000000000000000000000000000000000000000600052601160045260246000fd5b600061137582610e57565b915061138083610e57565b9250827fffffffffffffffffffffffffffffffffffffffffffffffffffffffffffffffff038211156113b5576113b461133b565b5b828201905092915050565b6000819050919050565b6113db6113d682610e57565b6113c0565b82525050565b60006113ed82846113ca565b60208201915081905092915050565b600060608201905061141160008301866110e3565b61141e60208301856110e3565b61142b60408301846110f2565b949350505050565b61143c81610fc8565b811461144757600080fd5b50565b60008151905061145981611433565b92915050565b60006020828403121561147557611474610df4565b5b60006114838482850161144a565b91505092915050565b60006040820190506114a160008301856110f2565b6114ae60208301846110f2565b9392505050565b60006114c082610e57565b91506114cb83610e57565b9250817fffffffffffffffffffffffffffffffffffffffffffffffffffffffffffffffff04831182151516156115045761150361133b565b5b828202905092915050565b7f4e487b7100000000000000000000000000000000000000000000000000000000600052601260045260246000fd5b600061154982610e57565b915061155483610e57565b9250826115645761156361150f565b5b828204905092915050565b600060408201905061158460008301856110e3565b61159160208301846110f2565b939250505056fea26469706673582212204a876f2cbee8d538ca791284e5d1f28478aa3b2317631f3701cd8160f3136dc464736f6c634300080a0033",
  "linkReferences": {},
  "deployedLinkReferences": {}
}