{
  "_format": "hh-sol-artifact-1",
  "contractName": "ExecutablePost",
  "sourceName": "contracts/executablepost.sol",
  "abi": [
    {
      "inputs": [
        {
          "internalType": "address",
          "name": "_DAIAddress",
          "type": "address"
        }
      ],
      "stateMutability": "nonpayable",
      "type": "constructor"
    },
    {
      "inputs": [
        {
          "internalType": "uint256",
          "name": "balance",
          "type": "uint256"
        },
        {
          "internalType": "uint256",
          "name": "allowance",
          "type": "uint256"
        },
        {
          "internalType": "uint256",
          "name": "required",
          "type": "uint256"
        }
      ],
      "name": "insufficientAllowance",
      "type": "error"
    },
    {
      "inputs": [
        {
          "internalType": "uint256",
          "name": "balance",
          "type": "uint256"
        },
        {
          "internalType": "uint256",
          "name": "allowance",
          "type": "uint256"
        },
        {
          "internalType": "uint256",
          "name": "required",
          "type": "uint256"
        }
      ],
      "name": "insufficientBalance",
      "type": "error"
    },
    {
      "anonymous": false,
      "inputs": [
        {
          "indexed": true,
          "internalType": "bytes32",
          "name": "ContractID",
          "type": "bytes32"
        }
      ],
      "name": "ContractID",
      "type": "event"
    },
    {
      "inputs": [
        {
          "internalType": "address",
          "name": "",
          "type": "address"
        },
        {
          "internalType": "uint256",
          "name": "",
          "type": "uint256"
        }
      ],
      "name": "allContractsOfAddress",
      "outputs": [
        {
          "internalType": "bytes32",
          "name": "",
          "type": "bytes32"
        }
      ],
      "stateMutability": "view",
      "type": "function"
    },
    {
      "inputs": [
        {
          "internalType": "bytes32",
          "name": "",
          "type": "bytes32"
        }
      ],
      "name": "contractMapping",
      "outputs": [
        {
          "internalType": "address",
          "name": "partyA",
          "type": "address"
        },
        {
          "internalType": "address",
          "name": "partyB",
          "type": "address"
        },
        {
          "internalType": "uint256",
          "name": "resolveAfter",
          "type": "uint256"
        },
        {
          "internalType": "uint256",
          "name": "amount",
          "type": "uint256"
        }
      ],
      "stateMutability": "view",
      "type": "function"
    },
    {
      "inputs": [
        {
          "internalType": "address",
          "name": "_partyA",
          "type": "address"
        },
        {
          "internalType": "address",
          "name": "_partyB",
          "type": "address"
        },
        {
          "internalType": "uint256",
          "name": "_resolveAfter",
          "type": "uint256"
        },
        {
          "internalType": "uint256",
          "name": "_amount",
          "type": "uint256"
        }
      ],
      "name": "createContract",
      "outputs": [],
      "stateMutability": "nonpayable",
      "type": "function"
    },
    {
      "inputs": [
        {
          "internalType": "address",
          "name": "_address",
          "type": "address"
        }
      ],
      "name": "getAllContractsOfAddress",
      "outputs": [
        {
          "internalType": "bytes32[]",
          "name": "",
          "type": "bytes32[]"
        }
      ],
      "stateMutability": "view",
      "type": "function"
    },
    {
      "inputs": [
        {
          "internalType": "bytes32",
          "name": "_id",
          "type": "bytes32"
        }
      ],
      "name": "getContractMapping",
      "outputs": [
        {
          "components": [
            {
              "internalType": "address",
              "name": "partyA",
              "type": "address"
            },
            {
              "internalType": "address",
              "name": "partyB",
              "type": "address"
            },
            {
              "internalType": "uint256",
              "name": "resolveAfter",
              "type": "uint256"
            },
            {
              "internalType": "uint256",
              "name": "amount",
              "type": "uint256"
            }
          ],
          "internalType": "struct ExecutablePost.PostContract",
          "name": "_postContract",
          "type": "tuple"
        }
      ],
      "stateMutability": "view",
      "type": "function"
    }
  ],
  "bytecode": "0x608060405234801561001057600080fd5b50604051610ee4380380610ee4833981810160405281019061003291906100dc565b80600260006101000a81548173ffffffffffffffffffffffffffffffffffffffff021916908373ffffffffffffffffffffffffffffffffffffffff16021790555050610109565b600080fd5b600073ffffffffffffffffffffffffffffffffffffffff82169050919050565b60006100a98261007e565b9050919050565b6100b98161009e565b81146100c457600080fd5b50565b6000815190506100d6816100b0565b92915050565b6000602082840312156100f2576100f1610079565b5b6000610100848285016100c7565b91505092915050565b610dcc806101186000396000f3fe608060405234801561001057600080fd5b50600436106100575760003560e01c80636b424e2d1461005c578063ae60348214610078578063cd0b2944146100a8578063d6a6bd16146100d8578063eb2e682a1461010b575b600080fd5b610076600480360381019061007191906108cf565b61013b565b005b610092600480360381019061008d919061096c565b6105be565b60405161009f9190610a0c565b60405180910390f35b6100c260048036038101906100bd9190610a27565b6106ab565b6040516100cf9190610a76565b60405180910390f35b6100f260048036038101906100ed919061096c565b6106dc565b6040516101029493929190610aaf565b60405180910390f35b61012560048036038101906101209190610af4565b61074c565b6040516101329190610bdf565b60405180910390f35b6000600260009054906101000a900473ffffffffffffffffffffffffffffffffffffffff1673ffffffffffffffffffffffffffffffffffffffff1663dd62ed3e33306040518363ffffffff1660e01b815260040161019a929190610c01565b602060405180830381865afa1580156101b7573d6000803e3d6000fd5b505050506040513d601f19601f820116820180604052508101906101db9190610c3f565b90506000600260009054906101000a900473ffffffffffffffffffffffffffffffffffffffff1673ffffffffffffffffffffffffffffffffffffffff166370a08231336040518263ffffffff1660e01b815260040161023a9190610c6c565b602060405180830381865afa158015610257573d6000803e3d6000fd5b505050506040513d601f19601f8201168201806040525081019061027b9190610c3f565b9050828210156102c6578082846040517f6f4a11db0000000000000000000000000000000000000000000000000000000081526004016102bd93929190610c87565b60405180910390fd5b8281101561030f578082846040517f103b182a00000000000000000000000000000000000000000000000000000000815260040161030693929190610c87565b60405180910390fd5b6103176107e2565b8381606001818152505086816000019073ffffffffffffffffffffffffffffffffffffffff16908173ffffffffffffffffffffffffffffffffffffffff168152505085816020019073ffffffffffffffffffffffffffffffffffffffff16908173ffffffffffffffffffffffffffffffffffffffff1681525050848160400181815250506000426040516020016103ae9190610cdf565b604051602081830303815290604052805190602001209050600260009054906101000a900473ffffffffffffffffffffffffffffffffffffffff1673ffffffffffffffffffffffffffffffffffffffff166323b872dd3330886040518463ffffffff1660e01b815260040161042593929190610cfa565b6020604051808303816000875af1158015610444573d6000803e3d6000fd5b505050506040513d601f19601f820116820180604052508101906104689190610d69565b50816001600083815260200190815260200160002060008201518160000160006101000a81548173ffffffffffffffffffffffffffffffffffffffff021916908373ffffffffffffffffffffffffffffffffffffffff16021790555060208201518160010160006101000a81548173ffffffffffffffffffffffffffffffffffffffff021916908373ffffffffffffffffffffffffffffffffffffffff16021790555060408201518160020155606082015181600301559050506000803373ffffffffffffffffffffffffffffffffffffffff1673ffffffffffffffffffffffffffffffffffffffff168152602001908152602001600020819080600181540180825580915050600190039060005260206000200160009091909190915055807f822f5923f1eb4fab11b7ca59fb68459985a0918b2fa852b7590ace94fbb917ff60405160405180910390a25050505050505050565b6105c66107e2565b600160008381526020019081526020016000206040518060800160405290816000820160009054906101000a900473ffffffffffffffffffffffffffffffffffffffff1673ffffffffffffffffffffffffffffffffffffffff1673ffffffffffffffffffffffffffffffffffffffff1681526020016001820160009054906101000a900473ffffffffffffffffffffffffffffffffffffffff1673ffffffffffffffffffffffffffffffffffffffff1673ffffffffffffffffffffffffffffffffffffffff168152602001600282015481526020016003820154815250509050919050565b600060205281600052604060002081815481106106c757600080fd5b90600052602060002001600091509150505481565b60016020528060005260406000206000915090508060000160009054906101000a900473ffffffffffffffffffffffffffffffffffffffff16908060010160009054906101000a900473ffffffffffffffffffffffffffffffffffffffff16908060020154908060030154905084565b60606000808373ffffffffffffffffffffffffffffffffffffffff1673ffffffffffffffffffffffffffffffffffffffff1681526020019081526020016000208054806020026020016040519081016040528092919081815260200182805480156107d657602002820191906000526020600020905b8154815260200190600101908083116107c2575b50505050509050919050565b6040518060800160405280600073ffffffffffffffffffffffffffffffffffffffff168152602001600073ffffffffffffffffffffffffffffffffffffffff16815260200160008152602001600081525090565b600080fd5b600073ffffffffffffffffffffffffffffffffffffffff82169050919050565b60006108668261083b565b9050919050565b6108768161085b565b811461088157600080fd5b50565b6000813590506108938161086d565b92915050565b6000819050919050565b6108ac81610899565b81146108b757600080fd5b50565b6000813590506108c9816108a3565b92915050565b600080600080608085870312156108e9576108e8610836565b5b60006108f787828801610884565b945050602061090887828801610884565b9350506040610919878288016108ba565b925050606061092a878288016108ba565b91505092959194509250565b6000819050919050565b61094981610936565b811461095457600080fd5b50565b60008135905061096681610940565b92915050565b60006020828403121561098257610981610836565b5b600061099084828501610957565b91505092915050565b6109a28161085b565b82525050565b6109b181610899565b82525050565b6080820160008201516109cd6000850182610999565b5060208201516109e06020850182610999565b5060408201516109f360408501826109a8565b506060820151610a0660608501826109a8565b50505050565b6000608082019050610a2160008301846109b7565b92915050565b60008060408385031215610a3e57610a3d610836565b5b6000610a4c85828601610884565b9250506020610a5d858286016108ba565b9150509250929050565b610a7081610936565b82525050565b6000602082019050610a8b6000830184610a67565b92915050565b610a9a8161085b565b82525050565b610aa981610899565b82525050565b6000608082019050610ac46000830187610a91565b610ad16020830186610a91565b610ade6040830185610aa0565b610aeb6060830184610aa0565b95945050505050565b600060208284031215610b0a57610b09610836565b5b6000610b1884828501610884565b91505092915050565b600081519050919050565b600082825260208201905092915050565b6000819050602082019050919050565b610b5681610936565b82525050565b6000610b688383610b4d565b60208301905092915050565b6000602082019050919050565b6000610b8c82610b21565b610b968185610b2c565b9350610ba183610b3d565b8060005b83811015610bd2578151610bb98882610b5c565b9750610bc483610b74565b925050600181019050610ba5565b5085935050505092915050565b60006020820190508181036000830152610bf98184610b81565b905092915050565b6000604082019050610c166000830185610a91565b610c236020830184610a91565b9392505050565b600081519050610c39816108a3565b92915050565b600060208284031215610c5557610c54610836565b5b6000610c6384828501610c2a565b91505092915050565b6000602082019050610c816000830184610a91565b92915050565b6000606082019050610c9c6000830186610aa0565b610ca96020830185610aa0565b610cb66040830184610aa0565b949350505050565b6000819050919050565b610cd9610cd482610899565b610cbe565b82525050565b6000610ceb8284610cc8565b60208201915081905092915050565b6000606082019050610d0f6000830186610a91565b610d1c6020830185610a91565b610d296040830184610aa0565b949350505050565b60008115159050919050565b610d4681610d31565b8114610d5157600080fd5b50565b600081519050610d6381610d3d565b92915050565b600060208284031215610d7f57610d7e610836565b5b6000610d8d84828501610d54565b9150509291505056fea26469706673582212200c015fb62d6095dfaaeee9ee4a3134f6e8dac39e344eac5d34739b456299757d64736f6c634300080a0033",
  "linkReferences": {},
  "deployedLinkReferences": {}
}