{
  "_format": "hh-sol-artifact-1",
  "contractName": "ExecutablePost",
  "sourceName": "contracts/executablepost.sol",
  "abi": [
    {
      "inputs": [
        {
          "internalType": "address",
          "name": "_DAIAddress",
          "type": "address"
        }
      ],
      "stateMutability": "nonpayable",
      "type": "constructor"
    },
    {
      "inputs": [
        {
          "internalType": "uint256",
          "name": "available",
          "type": "uint256"
        },
        {
          "internalType": "uint256",
          "name": "allowance",
          "type": "uint256"
        },
        {
          "internalType": "uint256",
          "name": "required",
          "type": "uint256"
        }
      ],
      "name": "insufficientFunds",
      "type": "error"
    },
    {
      "anonymous": false,
      "inputs": [
        {
          "indexed": true,
          "internalType": "bytes32",
          "name": "ContractID",
          "type": "bytes32"
        }
      ],
      "name": "ContractID",
      "type": "event"
    },
    {
      "inputs": [
        {
          "internalType": "address",
          "name": "",
          "type": "address"
        },
        {
          "internalType": "uint256",
          "name": "",
          "type": "uint256"
        }
      ],
      "name": "allContractsOfAddress",
      "outputs": [
        {
          "internalType": "bytes32",
          "name": "",
          "type": "bytes32"
        }
      ],
      "stateMutability": "view",
      "type": "function"
    },
    {
      "inputs": [
        {
          "internalType": "bytes32",
          "name": "",
          "type": "bytes32"
        }
      ],
      "name": "contractMapping",
      "outputs": [
        {
          "internalType": "address",
          "name": "partyA",
          "type": "address"
        },
        {
          "internalType": "address",
          "name": "partyB",
          "type": "address"
        },
        {
          "internalType": "uint256",
          "name": "resolveAfter",
          "type": "uint256"
        },
        {
          "internalType": "uint256",
          "name": "amount",
          "type": "uint256"
        }
      ],
      "stateMutability": "view",
      "type": "function"
    },
    {
      "inputs": [
        {
          "internalType": "address",
          "name": "_partyA",
          "type": "address"
        },
        {
          "internalType": "address",
          "name": "_partyB",
          "type": "address"
        },
        {
          "internalType": "uint256",
          "name": "_resolveAfter",
          "type": "uint256"
        },
        {
          "internalType": "uint256",
          "name": "_amount",
          "type": "uint256"
        }
      ],
      "name": "createContract",
      "outputs": [],
      "stateMutability": "nonpayable",
      "type": "function"
    },
    {
      "inputs": [
        {
          "internalType": "address",
          "name": "_address",
          "type": "address"
        }
      ],
      "name": "getAllContractOfAddress",
      "outputs": [
        {
          "internalType": "bytes32[]",
          "name": "",
          "type": "bytes32[]"
        }
      ],
      "stateMutability": "view",
      "type": "function"
    },
    {
      "inputs": [
        {
          "internalType": "bytes32",
          "name": "_id",
          "type": "bytes32"
        }
      ],
      "name": "getContractMapping",
      "outputs": [
        {
          "components": [
            {
              "internalType": "address",
              "name": "partyA",
              "type": "address"
            },
            {
              "internalType": "address",
              "name": "partyB",
              "type": "address"
            },
            {
              "internalType": "uint256",
              "name": "resolveAfter",
              "type": "uint256"
            },
            {
              "internalType": "uint256",
              "name": "amount",
              "type": "uint256"
            }
          ],
          "internalType": "struct ExecutablePost.PostContract",
          "name": "_postContract",
          "type": "tuple"
        }
      ],
      "stateMutability": "view",
      "type": "function"
    }
  ],
  "bytecode": "0x60806040523480156200001157600080fd5b50604051620014e9380380620014e98339818101604052810190620000379190620000e9565b80600260006101000a81548173ffffffffffffffffffffffffffffffffffffffff021916908373ffffffffffffffffffffffffffffffffffffffff160217905550506200011b565b600080fd5b600073ffffffffffffffffffffffffffffffffffffffff82169050919050565b6000620000b18262000084565b9050919050565b620000c381620000a4565b8114620000cf57600080fd5b50565b600081519050620000e381620000b8565b92915050565b6000602082840312156200010257620001016200007f565b5b60006200011284828501620000d2565b91505092915050565b6113be806200012b6000396000f3fe608060405234801561001057600080fd5b50600436106100575760003560e01c80636b424e2d1461005c578063ad01a4cf14610078578063ae603482146100a8578063cd0b2944146100d8578063d6a6bd1614610108575b600080fd5b61007660048036038101906100719190610d91565b61013b565b005b610092600480360381019061008d9190610df8565b610922565b60405161009f9190610eed565b60405180910390f35b6100c260048036038101906100bd9190610f3b565b6109b8565b6040516100cf9190610fdb565b60405180910390f35b6100f260048036038101906100ed9190610ff6565b610aa5565b6040516100ff9190611045565b60405180910390f35b610122600480360381019061011d9190610f3b565b610ad6565b604051610132949392919061107e565b60405180910390f35b6102176040518060400160405280601181526020017f416c6c6f77656420416d6f756e74202573000000000000000000000000000000815250600260009054906101000a900473ffffffffffffffffffffffffffffffffffffffff1673ffffffffffffffffffffffffffffffffffffffff1663dd62ed3e33306040518363ffffffff1660e01b81526004016101d19291906110c3565b602060405180830381865afa1580156101ee573d6000803e3d6000fd5b505050506040513d601f19601f820116820180604052508101906102129190611101565b610b46565b6102f16040518060400160405280600a81526020017f42616c616e636520257300000000000000000000000000000000000000000000815250600260009054906101000a900473ffffffffffffffffffffffffffffffffffffffff1673ffffffffffffffffffffffffffffffffffffffff166370a08231336040518263ffffffff1660e01b81526004016102ab919061112e565b602060405180830381865afa1580156102c8573d6000803e3d6000fd5b505050506040513d601f19601f820116820180604052508101906102ec9190611101565b610b46565b6103306040518060400160405280600a81526020017f20416d6f756e742025730000000000000000000000000000000000000000000081525082610b46565b80600260009054906101000a900473ffffffffffffffffffffffffffffffffffffffff1673ffffffffffffffffffffffffffffffffffffffff1663dd62ed3e33306040518363ffffffff1660e01b815260040161038e9291906110c3565b602060405180830381865afa1580156103ab573d6000803e3d6000fd5b505050506040513d601f19601f820116820180604052508101906103cf9190611101565b10156104185760648060646040517f957ed3cd00000000000000000000000000000000000000000000000000000000815260040161040f9392919061118e565b60405180910390fd5b610420610ca4565b8181606001818152505084816000019073ffffffffffffffffffffffffffffffffffffffff16908173ffffffffffffffffffffffffffffffffffffffff168152505083816020019073ffffffffffffffffffffffffffffffffffffffff16908173ffffffffffffffffffffffffffffffffffffffff1681525050828160400181815250506000426040516020016104b791906111e6565b60405160208183030381529060405280519060200120905061050d6040518060400160405280600f81526020017f4265666f7265205472616e736665720000000000000000000000000000000000815250610be2565b600260009054906101000a900473ffffffffffffffffffffffffffffffffffffffff1673ffffffffffffffffffffffffffffffffffffffff166323b872dd3330866040518463ffffffff1660e01b815260040161056c93929190611201565b6020604051808303816000875af115801561058b573d6000803e3d6000fd5b505050506040513d601f19601f820116820180604052508101906105af9190611270565b506105ee6040518060400160405280600e81526020017f4166746572205472616e73666572000000000000000000000000000000000000815250610be2565b816001600083815260200190815260200160002060008201518160000160006101000a81548173ffffffffffffffffffffffffffffffffffffffff021916908373ffffffffffffffffffffffffffffffffffffffff16021790555060208201518160010160006101000a81548173ffffffffffffffffffffffffffffffffffffffff021916908373ffffffffffffffffffffffffffffffffffffffff16021790555060408201518160020155606082015181600301559050506000803373ffffffffffffffffffffffffffffffffffffffff1673ffffffffffffffffffffffffffffffffffffffff168152602001908152602001600020819080600181540180825580915050600190039060005260206000200160009091909190915055807f822f5923f1eb4fab11b7ca59fb68459985a0918b2fa852b7590ace94fbb917ff60405160405180910390a2807f822f5923f1eb4fab11b7ca59fb68459985a0918b2fa852b7590ace94fbb917ff60405160405180910390a26108406040518060400160405280601581526020017f42616c616e63652061742074686520456e642025730000000000000000000000815250600260009054906101000a900473ffffffffffffffffffffffffffffffffffffffff1673ffffffffffffffffffffffffffffffffffffffff166370a08231336040518263ffffffff1660e01b81526004016107fa919061112e565b602060405180830381865afa158015610817573d6000803e3d6000fd5b505050506040513d601f19601f8201168201806040525081019061083b9190611101565b610b46565b61091a6040518060400160405280601e81526020017f636f6e74726163742042616c616e63652061742074686520456e642025730000815250600260009054906101000a900473ffffffffffffffffffffffffffffffffffffffff1673ffffffffffffffffffffffffffffffffffffffff166370a08231306040518263ffffffff1660e01b81526004016108d4919061112e565b602060405180830381865afa1580156108f1573d6000803e3d6000fd5b505050506040513d601f19601f820116820180604052508101906109159190611101565b610b46565b505050505050565b60606000808373ffffffffffffffffffffffffffffffffffffffff1673ffffffffffffffffffffffffffffffffffffffff1681526020019081526020016000208054806020026020016040519081016040528092919081815260200182805480156109ac57602002820191906000526020600020905b815481526020019060010190808311610998575b50505050509050919050565b6109c0610ca4565b600160008381526020019081526020016000206040518060800160405290816000820160009054906101000a900473ffffffffffffffffffffffffffffffffffffffff1673ffffffffffffffffffffffffffffffffffffffff1673ffffffffffffffffffffffffffffffffffffffff1681526020016001820160009054906101000a900473ffffffffffffffffffffffffffffffffffffffff1673ffffffffffffffffffffffffffffffffffffffff1673ffffffffffffffffffffffffffffffffffffffff168152602001600282015481526020016003820154815250509050919050565b60006020528160005260406000208181548110610ac157600080fd5b90600052602060002001600091509150505481565b60016020528060005260406000206000915090508060000160009054906101000a900473ffffffffffffffffffffffffffffffffffffffff16908060010160009054906101000a900473ffffffffffffffffffffffffffffffffffffffff16908060020154908060030154905084565b610bde8282604051602401610b5c929190611336565b6040516020818303038152906040527f9710a9d0000000000000000000000000000000000000000000000000000000007bffffffffffffffffffffffffffffffffffffffffffffffffffffffff19166020820180517bffffffffffffffffffffffffffffffffffffffffffffffffffffffff8381831617835250505050610c7b565b5050565b610c7881604051602401610bf69190611366565b6040516020818303038152906040527f41304fac000000000000000000000000000000000000000000000000000000007bffffffffffffffffffffffffffffffffffffffffffffffffffffffff19166020820180517bffffffffffffffffffffffffffffffffffffffffffffffffffffffff8381831617835250505050610c7b565b50565b60008151905060006a636f6e736f6c652e6c6f679050602083016000808483855afa5050505050565b6040518060800160405280600073ffffffffffffffffffffffffffffffffffffffff168152602001600073ffffffffffffffffffffffffffffffffffffffff16815260200160008152602001600081525090565b600080fd5b600073ffffffffffffffffffffffffffffffffffffffff82169050919050565b6000610d2882610cfd565b9050919050565b610d3881610d1d565b8114610d4357600080fd5b50565b600081359050610d5581610d2f565b92915050565b6000819050919050565b610d6e81610d5b565b8114610d7957600080fd5b50565b600081359050610d8b81610d65565b92915050565b60008060008060808587031215610dab57610daa610cf8565b5b6000610db987828801610d46565b9450506020610dca87828801610d46565b9350506040610ddb87828801610d7c565b9250506060610dec87828801610d7c565b91505092959194509250565b600060208284031215610e0e57610e0d610cf8565b5b6000610e1c84828501610d46565b91505092915050565b600081519050919050565b600082825260208201905092915050565b6000819050602082019050919050565b6000819050919050565b610e6481610e51565b82525050565b6000610e768383610e5b565b60208301905092915050565b6000602082019050919050565b6000610e9a82610e25565b610ea48185610e30565b9350610eaf83610e41565b8060005b83811015610ee0578151610ec78882610e6a565b9750610ed283610e82565b925050600181019050610eb3565b5085935050505092915050565b60006020820190508181036000830152610f078184610e8f565b905092915050565b610f1881610e51565b8114610f2357600080fd5b50565b600081359050610f3581610f0f565b92915050565b600060208284031215610f5157610f50610cf8565b5b6000610f5f84828501610f26565b91505092915050565b610f7181610d1d565b82525050565b610f8081610d5b565b82525050565b608082016000820151610f9c6000850182610f68565b506020820151610faf6020850182610f68565b506040820151610fc26040850182610f77565b506060820151610fd56060850182610f77565b50505050565b6000608082019050610ff06000830184610f86565b92915050565b6000806040838503121561100d5761100c610cf8565b5b600061101b85828601610d46565b925050602061102c85828601610d7c565b9150509250929050565b61103f81610e51565b82525050565b600060208201905061105a6000830184611036565b92915050565b61106981610d1d565b82525050565b61107881610d5b565b82525050565b60006080820190506110936000830187611060565b6110a06020830186611060565b6110ad604083018561106f565b6110ba606083018461106f565b95945050505050565b60006040820190506110d86000830185611060565b6110e56020830184611060565b9392505050565b6000815190506110fb81610d65565b92915050565b60006020828403121561111757611116610cf8565b5b6000611125848285016110ec565b91505092915050565b60006020820190506111436000830184611060565b92915050565b6000819050919050565b6000819050919050565b600061117861117361116e84611149565b611153565b610d5b565b9050919050565b6111888161115d565b82525050565b60006060820190506111a3600083018661117f565b6111b0602083018561117f565b6111bd604083018461117f565b949350505050565b6000819050919050565b6111e06111db82610d5b565b6111c5565b82525050565b60006111f282846111cf565b60208201915081905092915050565b60006060820190506112166000830186611060565b6112236020830185611060565b611230604083018461106f565b949350505050565b60008115159050919050565b61124d81611238565b811461125857600080fd5b50565b60008151905061126a81611244565b92915050565b60006020828403121561128657611285610cf8565b5b60006112948482850161125b565b91505092915050565b600081519050919050565b600082825260208201905092915050565b60005b838110156112d75780820151818401526020810190506112bc565b838111156112e6576000848401525b50505050565b6000601f19601f8301169050919050565b60006113088261129d565b61131281856112a8565b93506113228185602086016112b9565b61132b816112ec565b840191505092915050565b6000604082019050818103600083015261135081856112fd565b905061135f602083018461106f565b9392505050565b6000602082019050818103600083015261138081846112fd565b90509291505056fea2646970667358221220c4d5aec666c2c1e9d57d22ff6e799d5b90b24349e101727001d733c233c5654064736f6c634300080a0033",
  "linkReferences": {},
  "deployedLinkReferences": {}
}