{
  "_format": "hh-sol-artifact-1",
  "contractName": "ExecutablePost",
  "sourceName": "contracts/executablepost.sol",
  "abi": [
    {
      "inputs": [
        {
          "internalType": "address",
          "name": "_DAIAddress",
          "type": "address"
        }
      ],
      "stateMutability": "nonpayable",
      "type": "constructor"
    },
    {
      "inputs": [
        {
          "internalType": "address",
          "name": "resolverAddress",
          "type": "address"
        },
        {
          "internalType": "address",
          "name": "msgSender",
          "type": "address"
        }
      ],
      "name": "addressCannotRedeemContract",
      "type": "error"
    },
    {
      "inputs": [
        {
          "internalType": "uint256",
          "name": "balance",
          "type": "uint256"
        },
        {
          "internalType": "uint256",
          "name": "allowance",
          "type": "uint256"
        },
        {
          "internalType": "uint256",
          "name": "required",
          "type": "uint256"
        }
      ],
      "name": "insufficientAllowance",
      "type": "error"
    },
    {
      "inputs": [
        {
          "internalType": "uint256",
          "name": "balance",
          "type": "uint256"
        },
        {
          "internalType": "uint256",
          "name": "allowance",
          "type": "uint256"
        },
        {
          "internalType": "uint256",
          "name": "required",
          "type": "uint256"
        }
      ],
      "name": "insufficientBalance",
      "type": "error"
    },
    {
      "inputs": [],
      "name": "redeemPctResultIsWrong",
      "type": "error"
    },
    {
      "inputs": [
        {
          "internalType": "uint256",
          "name": "currentBlockTimeStamp",
          "type": "uint256"
        },
        {
          "internalType": "uint256",
          "name": "resolveAfter",
          "type": "uint256"
        }
      ],
      "name": "resolvePeriodNotPassed",
      "type": "error"
    },
    {
      "anonymous": false,
      "inputs": [
        {
          "indexed": true,
          "internalType": "bytes32",
          "name": "ContractID",
          "type": "bytes32"
        }
      ],
      "name": "ContractID",
      "type": "event"
    },
    {
      "inputs": [
        {
          "internalType": "address",
          "name": "",
          "type": "address"
        },
        {
          "internalType": "uint256",
          "name": "",
          "type": "uint256"
        }
      ],
      "name": "allContractsOfAddress",
      "outputs": [
        {
          "internalType": "bytes32",
          "name": "",
          "type": "bytes32"
        }
      ],
      "stateMutability": "view",
      "type": "function"
    },
    {
      "inputs": [
        {
          "internalType": "bytes32",
          "name": "",
          "type": "bytes32"
        }
      ],
      "name": "contractMapping",
      "outputs": [
        {
          "internalType": "address",
          "name": "partyA",
          "type": "address"
        },
        {
          "internalType": "address",
          "name": "partyB",
          "type": "address"
        },
        {
          "internalType": "address",
          "name": "resolverAddress",
          "type": "address"
        },
        {
          "internalType": "uint256",
          "name": "resolveAfter",
          "type": "uint256"
        },
        {
          "internalType": "uint256",
          "name": "amount",
          "type": "uint256"
        },
        {
          "internalType": "bool",
          "name": "redeemed",
          "type": "bool"
        }
      ],
      "stateMutability": "view",
      "type": "function"
    },
    {
      "inputs": [
        {
          "internalType": "address",
          "name": "_partyA",
          "type": "address"
        },
        {
          "internalType": "address",
          "name": "_partyB",
          "type": "address"
        },
        {
          "internalType": "uint256",
          "name": "_waitSeconds",
          "type": "uint256"
        },
        {
          "internalType": "uint256",
          "name": "_amount",
          "type": "uint256"
        }
      ],
      "name": "createContract",
      "outputs": [],
      "stateMutability": "nonpayable",
      "type": "function"
    },
    {
      "inputs": [
        {
          "internalType": "address",
          "name": "_address",
          "type": "address"
        }
      ],
      "name": "getAllContractsOfAddress",
      "outputs": [
        {
          "internalType": "bytes32[]",
          "name": "",
          "type": "bytes32[]"
        }
      ],
      "stateMutability": "view",
      "type": "function"
    },
    {
      "inputs": [
        {
          "internalType": "bytes32",
          "name": "_id",
          "type": "bytes32"
        }
      ],
      "name": "getContractMapping",
      "outputs": [
        {
          "components": [
            {
              "internalType": "address",
              "name": "partyA",
              "type": "address"
            },
            {
              "internalType": "address",
              "name": "partyB",
              "type": "address"
            },
            {
              "internalType": "address",
              "name": "resolverAddress",
              "type": "address"
            },
            {
              "internalType": "uint256",
              "name": "resolveAfter",
              "type": "uint256"
            },
            {
              "internalType": "uint256",
              "name": "amount",
              "type": "uint256"
            },
            {
              "internalType": "bool",
              "name": "redeemed",
              "type": "bool"
            }
          ],
          "internalType": "struct ExecutablePost.PostContract",
          "name": "_postContract",
          "type": "tuple"
        }
      ],
      "stateMutability": "view",
      "type": "function"
    },
    {
      "inputs": [
        {
          "internalType": "uint256",
          "name": "_partyAResult",
          "type": "uint256"
        },
        {
          "internalType": "uint256",
          "name": "_partyBResult",
          "type": "uint256"
        },
        {
          "internalType": "bytes32",
          "name": "_contractID",
          "type": "bytes32"
        }
      ],
      "name": "resolveByMsgSender",
      "outputs": [],
      "stateMutability": "nonpayable",
      "type": "function"
    }
  ],
  "bytecode": "0x60806040523480156200001157600080fd5b5060405162001468380380620014688339818101604052810190620000379190620000e9565b80600260006101000a81548173ffffffffffffffffffffffffffffffffffffffff021916908373ffffffffffffffffffffffffffffffffffffffff160217905550506200011b565b600080fd5b600073ffffffffffffffffffffffffffffffffffffffff82169050919050565b6000620000b18262000084565b9050919050565b620000c381620000a4565b8114620000cf57600080fd5b50565b600081519050620000e381620000b8565b92915050565b6000602082840312156200010257620001016200007f565b5b60006200011284828501620000d2565b91505092915050565b61133d806200012b6000396000f3fe608060405234801561001057600080fd5b50600436106100625760003560e01c80636b424e2d14610067578063868cb46814610083578063ae6034821461009f578063cd0b2944146100cf578063d6a6bd16146100ff578063eb2e682a14610134575b600080fd5b610081600480360381019061007c9190610cdf565b610164565b005b61009d60048036038101906100989190610d7c565b610691565b005b6100b960048036038101906100b49190610dcf565b6108fe565b6040516100c69190610eb0565b60405180910390f35b6100e960048036038101906100e49190610ecb565b610a5c565b6040516100f69190610f1a565b60405180910390f35b61011960048036038101906101149190610dcf565b610a8d565b60405161012b96959493929190610f62565b60405180910390f35b61014e60048036038101906101499190610fc3565b610b36565b60405161015b91906110ae565b60405180910390f35b6000600260009054906101000a900473ffffffffffffffffffffffffffffffffffffffff1673ffffffffffffffffffffffffffffffffffffffff1663dd62ed3e33306040518363ffffffff1660e01b81526004016101c39291906110d0565b602060405180830381865afa1580156101e0573d6000803e3d6000fd5b505050506040513d601f19601f82011682018060405250810190610204919061110e565b90506000600260009054906101000a900473ffffffffffffffffffffffffffffffffffffffff1673ffffffffffffffffffffffffffffffffffffffff166370a08231336040518263ffffffff1660e01b8152600401610263919061113b565b602060405180830381865afa158015610280573d6000803e3d6000fd5b505050506040513d601f19601f820116820180604052508101906102a4919061110e565b9050828210156102ef578082846040517f6f4a11db0000000000000000000000000000000000000000000000000000000081526004016102e693929190611156565b60405180910390fd5b82811015610338578082846040517f103b182a00000000000000000000000000000000000000000000000000000000815260040161032f93929190611156565b60405180910390fd5b610340610bcc565b8381608001818152505086816000019073ffffffffffffffffffffffffffffffffffffffff16908173ffffffffffffffffffffffffffffffffffffffff168152505085816020019073ffffffffffffffffffffffffffffffffffffffff16908173ffffffffffffffffffffffffffffffffffffffff168152505084426103c691906111bc565b81606001818152505033816040019073ffffffffffffffffffffffffffffffffffffffff16908173ffffffffffffffffffffffffffffffffffffffff168152505060004260405160200161041a9190611233565b604051602081830303815290604052805190602001209050600260009054906101000a900473ffffffffffffffffffffffffffffffffffffffff1673ffffffffffffffffffffffffffffffffffffffff166323b872dd3330886040518463ffffffff1660e01b81526004016104919392919061124e565b6020604051808303816000875af11580156104b0573d6000803e3d6000fd5b505050506040513d601f19601f820116820180604052508101906104d491906112b1565b50816001600083815260200190815260200160002060008201518160000160006101000a81548173ffffffffffffffffffffffffffffffffffffffff021916908373ffffffffffffffffffffffffffffffffffffffff16021790555060208201518160010160006101000a81548173ffffffffffffffffffffffffffffffffffffffff021916908373ffffffffffffffffffffffffffffffffffffffff16021790555060408201518160020160006101000a81548173ffffffffffffffffffffffffffffffffffffffff021916908373ffffffffffffffffffffffffffffffffffffffff160217905550606082015181600301556080820151816004015560a08201518160050160006101000a81548160ff0219169083151502179055509050506000803373ffffffffffffffffffffffffffffffffffffffff1673ffffffffffffffffffffffffffffffffffffffff168152602001908152602001600020819080600181540180825580915050600190039060005260206000200160009091909190915055807f822f5923f1eb4fab11b7ca59fb68459985a0918b2fa852b7590ace94fbb917ff60405160405180910390a25050505050505050565b610699610bcc565b600160008381526020019081526020016000206040518060c00160405290816000820160009054906101000a900473ffffffffffffffffffffffffffffffffffffffff1673ffffffffffffffffffffffffffffffffffffffff1673ffffffffffffffffffffffffffffffffffffffff1681526020016001820160009054906101000a900473ffffffffffffffffffffffffffffffffffffffff1673ffffffffffffffffffffffffffffffffffffffff1673ffffffffffffffffffffffffffffffffffffffff1681526020016002820160009054906101000a900473ffffffffffffffffffffffffffffffffffffffff1673ffffffffffffffffffffffffffffffffffffffff1673ffffffffffffffffffffffffffffffffffffffff16815260200160038201548152602001600482015481526020016005820160009054906101000a900460ff16151515158152505090503373ffffffffffffffffffffffffffffffffffffffff16816040015173ffffffffffffffffffffffffffffffffffffffff1614610864578060400151336040517ffb1b4bb100000000000000000000000000000000000000000000000000000000815260040161085b9291906110d0565b60405180910390fd5b6064838561087291906111bc565b146108a9576040517ffc0c013000000000000000000000000000000000000000000000000000000000815260040160405180910390fd5b80606001514210156108f8574281606001516040517f3893669c0000000000000000000000000000000000000000000000000000000081526004016108ef9291906112de565b60405180910390fd5b50505050565b610906610bcc565b600160008381526020019081526020016000206040518060c00160405290816000820160009054906101000a900473ffffffffffffffffffffffffffffffffffffffff1673ffffffffffffffffffffffffffffffffffffffff1673ffffffffffffffffffffffffffffffffffffffff1681526020016001820160009054906101000a900473ffffffffffffffffffffffffffffffffffffffff1673ffffffffffffffffffffffffffffffffffffffff1673ffffffffffffffffffffffffffffffffffffffff1681526020016002820160009054906101000a900473ffffffffffffffffffffffffffffffffffffffff1673ffffffffffffffffffffffffffffffffffffffff1673ffffffffffffffffffffffffffffffffffffffff16815260200160038201548152602001600482015481526020016005820160009054906101000a900460ff1615151515815250509050919050565b60006020528160005260406000208181548110610a7857600080fd5b90600052602060002001600091509150505481565b60016020528060005260406000206000915090508060000160009054906101000a900473ffffffffffffffffffffffffffffffffffffffff16908060010160009054906101000a900473ffffffffffffffffffffffffffffffffffffffff16908060020160009054906101000a900473ffffffffffffffffffffffffffffffffffffffff16908060030154908060040154908060050160009054906101000a900460ff16905086565b60606000808373ffffffffffffffffffffffffffffffffffffffff1673ffffffffffffffffffffffffffffffffffffffff168152602001908152602001600020805480602002602001604051908101604052809291908181526020018280548015610bc057602002820191906000526020600020905b815481526020019060010190808311610bac575b50505050509050919050565b6040518060c00160405280600073ffffffffffffffffffffffffffffffffffffffff168152602001600073ffffffffffffffffffffffffffffffffffffffff168152602001600073ffffffffffffffffffffffffffffffffffffffff16815260200160008152602001600081526020016000151581525090565b600080fd5b600073ffffffffffffffffffffffffffffffffffffffff82169050919050565b6000610c7682610c4b565b9050919050565b610c8681610c6b565b8114610c9157600080fd5b50565b600081359050610ca381610c7d565b92915050565b6000819050919050565b610cbc81610ca9565b8114610cc757600080fd5b50565b600081359050610cd981610cb3565b92915050565b60008060008060808587031215610cf957610cf8610c46565b5b6000610d0787828801610c94565b9450506020610d1887828801610c94565b9350506040610d2987828801610cca565b9250506060610d3a87828801610cca565b91505092959194509250565b6000819050919050565b610d5981610d46565b8114610d6457600080fd5b50565b600081359050610d7681610d50565b92915050565b600080600060608486031215610d9557610d94610c46565b5b6000610da386828701610cca565b9350506020610db486828701610cca565b9250506040610dc586828701610d67565b9150509250925092565b600060208284031215610de557610de4610c46565b5b6000610df384828501610d67565b91505092915050565b610e0581610c6b565b82525050565b610e1481610ca9565b82525050565b60008115159050919050565b610e2f81610e1a565b82525050565b60c082016000820151610e4b6000850182610dfc565b506020820151610e5e6020850182610dfc565b506040820151610e716040850182610dfc565b506060820151610e846060850182610e0b565b506080820151610e976080850182610e0b565b5060a0820151610eaa60a0850182610e26565b50505050565b600060c082019050610ec56000830184610e35565b92915050565b60008060408385031215610ee257610ee1610c46565b5b6000610ef085828601610c94565b9250506020610f0185828601610cca565b9150509250929050565b610f1481610d46565b82525050565b6000602082019050610f2f6000830184610f0b565b92915050565b610f3e81610c6b565b82525050565b610f4d81610ca9565b82525050565b610f5c81610e1a565b82525050565b600060c082019050610f776000830189610f35565b610f846020830188610f35565b610f916040830187610f35565b610f9e6060830186610f44565b610fab6080830185610f44565b610fb860a0830184610f53565b979650505050505050565b600060208284031215610fd957610fd8610c46565b5b6000610fe784828501610c94565b91505092915050565b600081519050919050565b600082825260208201905092915050565b6000819050602082019050919050565b61102581610d46565b82525050565b6000611037838361101c565b60208301905092915050565b6000602082019050919050565b600061105b82610ff0565b6110658185610ffb565b93506110708361100c565b8060005b838110156110a1578151611088888261102b565b975061109383611043565b925050600181019050611074565b5085935050505092915050565b600060208201905081810360008301526110c88184611050565b905092915050565b60006040820190506110e56000830185610f35565b6110f26020830184610f35565b9392505050565b60008151905061110881610cb3565b92915050565b60006020828403121561112457611123610c46565b5b6000611132848285016110f9565b91505092915050565b60006020820190506111506000830184610f35565b92915050565b600060608201905061116b6000830186610f44565b6111786020830185610f44565b6111856040830184610f44565b949350505050565b7f4e487b7100000000000000000000000000000000000000000000000000000000600052601160045260246000fd5b60006111c782610ca9565b91506111d283610ca9565b9250827fffffffffffffffffffffffffffffffffffffffffffffffffffffffffffffffff038211156112075761120661118d565b5b828201905092915050565b6000819050919050565b61122d61122882610ca9565b611212565b82525050565b600061123f828461121c565b60208201915081905092915050565b60006060820190506112636000830186610f35565b6112706020830185610f35565b61127d6040830184610f44565b949350505050565b61128e81610e1a565b811461129957600080fd5b50565b6000815190506112ab81611285565b92915050565b6000602082840312156112c7576112c6610c46565b5b60006112d58482850161129c565b91505092915050565b60006040820190506112f36000830185610f44565b6113006020830184610f44565b939250505056fea26469706673582212201d2ca55d9573f96e67f4fa8f6c56a44aafe1a8b1ddc82c197df360a43c1e582264736f6c634300080a0033",
  "linkReferences": {},
  "deployedLinkReferences": {}
}