{
  "_format": "hh-sol-artifact-1",
  "contractName": "ExecutablePost",
  "sourceName": "contracts/ExecutablePost.sol",
  "abi": [
    {
      "inputs": [
        {
          "internalType": "address",
          "name": "_lens",
          "type": "address"
        }
      ],
      "stateMutability": "nonpayable",
      "type": "constructor"
    },
    {
      "inputs": [],
      "name": "AlreadyResolved",
      "type": "error"
    },
    {
      "inputs": [],
      "name": "AmountMustBeGreaterThanZero",
      "type": "error"
    },
    {
      "inputs": [
        {
          "internalType": "enum DataTypes.ResolveTypes",
          "name": "_resolveTypeGiven",
          "type": "uint8"
        },
        {
          "internalType": "enum DataTypes.ResolveTypes",
          "name": "_resolveTypeNeeded",
          "type": "uint8"
        }
      ],
      "name": "CannotUseThisFunctionToResolve",
      "type": "error"
    },
    {
      "inputs": [],
      "name": "ExecutablePostNotFound",
      "type": "error"
    },
    {
      "inputs": [
        {
          "internalType": "uint256",
          "name": "allowance",
          "type": "uint256"
        },
        {
          "internalType": "uint256",
          "name": "required",
          "type": "uint256"
        }
      ],
      "name": "InsufficientAllowance",
      "type": "error"
    },
    {
      "inputs": [
        {
          "internalType": "uint256",
          "name": "balance",
          "type": "uint256"
        },
        {
          "internalType": "uint256",
          "name": "required",
          "type": "uint256"
        }
      ],
      "name": "InsufficientBalance",
      "type": "error"
    },
    {
      "inputs": [],
      "name": "NotDispatcher",
      "type": "error"
    },
    {
      "inputs": [
        {
          "internalType": "string",
          "name": "_message",
          "type": "string"
        }
      ],
      "name": "OracleError",
      "type": "error"
    },
    {
      "inputs": [],
      "name": "PartyAPlusPartyBIsNot100",
      "type": "error"
    },
    {
      "inputs": [],
      "name": "TimestampDeltaGreaterThanTolerance",
      "type": "error"
    },
    {
      "inputs": [],
      "name": "TokenDoesNotExist",
      "type": "error"
    },
    {
      "inputs": [
        {
          "internalType": "string",
          "name": "",
          "type": "string"
        }
      ],
      "name": "UserNotAllowed",
      "type": "error"
    },
    {
      "inputs": [
        {
          "internalType": "address",
          "name": "_ResolverAddress",
          "type": "address"
        }
      ],
      "name": "YouAreNotResolverOfExecutablePost",
      "type": "error"
    },
    {
      "inputs": [
        {
          "internalType": "uint256",
          "name": "_currentTimeStamp",
          "type": "uint256"
        },
        {
          "internalType": "uint256",
          "name": "_requiredTimeStamp",
          "type": "uint256"
        }
      ],
      "name": "YouTryToResolveTooEarly",
      "type": "error"
    },
    {
      "inputs": [
        {
          "internalType": "address",
          "name": "_treasury",
          "type": "address"
        }
      ],
      "name": "_setTreasuryAddress",
      "outputs": [],
      "stateMutability": "nonpayable",
      "type": "function"
    },
    {
      "inputs": [
        {
          "internalType": "bytes32",
          "name": "_id",
          "type": "bytes32"
        }
      ],
      "name": "getPostById",
      "outputs": [
        {
          "components": [
            {
              "internalType": "address",
              "name": "partyA",
              "type": "address"
            },
            {
              "internalType": "address",
              "name": "partyB",
              "type": "address"
            },
            {
              "internalType": "address",
              "name": "owner",
              "type": "address"
            },
            {
              "internalType": "address",
              "name": "resolver",
              "type": "address"
            },
            {
              "internalType": "uint256",
              "name": "resolveAfter",
              "type": "uint256"
            },
            {
              "internalType": "uint256",
              "name": "automaticallyResolveAfter",
              "type": "uint256"
            },
            {
              "internalType": "uint256",
              "name": "amount",
              "type": "uint256"
            },
            {
              "internalType": "address",
              "name": "currency",
              "type": "address"
            },
            {
              "internalType": "bool",
              "name": "resolved",
              "type": "bool"
            },
            {
              "components": [
                {
                  "internalType": "enum DataTypes.ResolveTypes",
                  "name": "resolveType",
                  "type": "uint8"
                },
                {
                  "internalType": "string",
                  "name": "metric",
                  "type": "string"
                },
                {
                  "internalType": "string",
                  "name": "sourceString",
                  "type": "string"
                },
                {
                  "internalType": "address",
                  "name": "sourceAddress",
                  "type": "address"
                },
                {
                  "internalType": "uint256",
                  "name": "timestamp",
                  "type": "uint256"
                },
                {
                  "internalType": "int256",
                  "name": "valueInt",
                  "type": "int256"
                },
                {
                  "internalType": "enum DataTypes.ResolveOperators",
                  "name": "operator",
                  "type": "uint8"
                }
              ],
              "internalType": "struct DataTypes.ResolveConditions",
              "name": "resolveConditions",
              "type": "tuple"
            },
            {
              "components": [
                {
                  "internalType": "uint256",
                  "name": "profileId",
                  "type": "uint256"
                },
                {
                  "internalType": "uint256",
                  "name": "initialPubId",
                  "type": "uint256"
                },
                {
                  "internalType": "uint256",
                  "name": "resolvingPubId",
                  "type": "uint256"
                }
              ],
              "internalType": "struct DataTypes.LensPostInfo",
              "name": "lensPostInfo",
              "type": "tuple"
            }
          ],
          "internalType": "struct DataTypes.Post",
          "name": "",
          "type": "tuple"
        }
      ],
      "stateMutability": "view",
      "type": "function"
    },
    {
      "inputs": [],
      "name": "governance",
      "outputs": [
        {
          "internalType": "address",
          "name": "",
          "type": "address"
        }
      ],
      "stateMutability": "view",
      "type": "function"
    },
    {
      "inputs": [
        {
          "components": [
            {
              "internalType": "address",
              "name": "partyA",
              "type": "address"
            },
            {
              "internalType": "address",
              "name": "partyB",
              "type": "address"
            },
            {
              "internalType": "address",
              "name": "owner",
              "type": "address"
            },
            {
              "internalType": "address",
              "name": "resolver",
              "type": "address"
            },
            {
              "internalType": "uint256",
              "name": "resolveAfter",
              "type": "uint256"
            },
            {
              "internalType": "uint256",
              "name": "automaticallyResolveAfter",
              "type": "uint256"
            },
            {
              "internalType": "uint256",
              "name": "amount",
              "type": "uint256"
            },
            {
              "internalType": "address",
              "name": "currency",
              "type": "address"
            },
            {
              "internalType": "bool",
              "name": "resolved",
              "type": "bool"
            },
            {
              "components": [
                {
                  "internalType": "enum DataTypes.ResolveTypes",
                  "name": "resolveType",
                  "type": "uint8"
                },
                {
                  "internalType": "string",
                  "name": "metric",
                  "type": "string"
                },
                {
                  "internalType": "string",
                  "name": "sourceString",
                  "type": "string"
                },
                {
                  "internalType": "address",
                  "name": "sourceAddress",
                  "type": "address"
                },
                {
                  "internalType": "uint256",
                  "name": "timestamp",
                  "type": "uint256"
                },
                {
                  "internalType": "int256",
                  "name": "valueInt",
                  "type": "int256"
                },
                {
                  "internalType": "enum DataTypes.ResolveOperators",
                  "name": "operator",
                  "type": "uint8"
                }
              ],
              "internalType": "struct DataTypes.ResolveConditions",
              "name": "resolveConditions",
              "type": "tuple"
            },
            {
              "components": [
                {
                  "internalType": "uint256",
                  "name": "profileId",
                  "type": "uint256"
                },
                {
                  "internalType": "uint256",
                  "name": "initialPubId",
                  "type": "uint256"
                },
                {
                  "internalType": "uint256",
                  "name": "resolvingPubId",
                  "type": "uint256"
                }
              ],
              "internalType": "struct DataTypes.LensPostInfo",
              "name": "lensPostInfo",
              "type": "tuple"
            }
          ],
          "internalType": "struct DataTypes.Post",
          "name": "_post",
          "type": "tuple"
        },
        {
          "components": [
            {
              "internalType": "uint256",
              "name": "profileId",
              "type": "uint256"
            },
            {
              "internalType": "string",
              "name": "contentURI",
              "type": "string"
            },
            {
              "internalType": "address",
              "name": "collectModule",
              "type": "address"
            },
            {
              "internalType": "bytes",
              "name": "collectModuleInitData",
              "type": "bytes"
            },
            {
              "internalType": "address",
              "name": "referenceModule",
              "type": "address"
            },
            {
              "internalType": "bytes",
              "name": "referenceModuleInitData",
              "type": "bytes"
            }
          ],
          "internalType": "struct DataTypes.PostData",
          "name": "_lensPost",
          "type": "tuple"
        }
      ],
      "name": "post",
      "outputs": [
        {
          "internalType": "bytes32",
          "name": "id",
          "type": "bytes32"
        },
        {
          "internalType": "uint256",
          "name": "initialPubId",
          "type": "uint256"
        }
      ],
      "stateMutability": "nonpayable",
      "type": "function"
    },
    {
      "inputs": [
        {
          "internalType": "bytes32",
          "name": "_id",
          "type": "bytes32"
        },
        {
          "internalType": "uint256",
          "name": "_oracleRoundId",
          "type": "uint256"
        },
        {
          "components": [
            {
              "internalType": "uint256",
              "name": "profileId",
              "type": "uint256"
            },
            {
              "internalType": "string",
              "name": "contentURI",
              "type": "string"
            },
            {
              "internalType": "uint256",
              "name": "profileIdPointed",
              "type": "uint256"
            },
            {
              "internalType": "uint256",
              "name": "pubIdPointed",
              "type": "uint256"
            },
            {
              "internalType": "bytes",
              "name": "referenceModuleData",
              "type": "bytes"
            },
            {
              "internalType": "address",
              "name": "collectModule",
              "type": "address"
            },
            {
              "internalType": "bytes",
              "name": "collectModuleInitData",
              "type": "bytes"
            },
            {
              "internalType": "address",
              "name": "referenceModule",
              "type": "address"
            },
            {
              "internalType": "bytes",
              "name": "referenceModuleInitData",
              "type": "bytes"
            }
          ],
          "internalType": "struct DataTypes.CommentData",
          "name": "_commentData",
          "type": "tuple"
        }
      ],
      "name": "resolveByOracle",
      "outputs": [],
      "stateMutability": "nonpayable",
      "type": "function"
    },
    {
      "inputs": [
        {
          "internalType": "bytes32",
          "name": "_id",
          "type": "bytes32"
        },
        {
          "internalType": "uint8",
          "name": "_resultPartyA",
          "type": "uint8"
        },
        {
          "internalType": "uint8",
          "name": "_resultPartyB",
          "type": "uint8"
        },
        {
          "components": [
            {
              "internalType": "uint256",
              "name": "profileId",
              "type": "uint256"
            },
            {
              "internalType": "string",
              "name": "contentURI",
              "type": "string"
            },
            {
              "internalType": "uint256",
              "name": "profileIdPointed",
              "type": "uint256"
            },
            {
              "internalType": "uint256",
              "name": "pubIdPointed",
              "type": "uint256"
            },
            {
              "internalType": "bytes",
              "name": "referenceModuleData",
              "type": "bytes"
            },
            {
              "internalType": "address",
              "name": "collectModule",
              "type": "address"
            },
            {
              "internalType": "bytes",
              "name": "collectModuleInitData",
              "type": "bytes"
            },
            {
              "internalType": "address",
              "name": "referenceModule",
              "type": "address"
            },
            {
              "internalType": "bytes",
              "name": "referenceModuleInitData",
              "type": "bytes"
            }
          ],
          "internalType": "struct DataTypes.CommentData",
          "name": "_commentData",
          "type": "tuple"
        }
      ],
      "name": "resolveByOwner",
      "outputs": [],
      "stateMutability": "nonpayable",
      "type": "function"
    },
    {
      "inputs": [],
      "name": "waitForAutomaticResolution",
      "outputs": [
        {
          "internalType": "uint256",
          "name": "",
          "type": "uint256"
        }
      ],
      "stateMutability": "view",
      "type": "function"
    }
  ],
  "bytecode": "0x60806040523480156200001157600080fd5b506040516200403438038062004034833981810160405281019062000037919062000191565b33600160006101000a81548173ffffffffffffffffffffffffffffffffffffffff021916908373ffffffffffffffffffffffffffffffffffffffff16021790555030600260006101000a81548173ffffffffffffffffffffffffffffffffffffffff021916908373ffffffffffffffffffffffffffffffffffffffff160217905550618ca06000806101000a81548161ffff021916908361ffff160217905550600060038190555080600060026101000a81548173ffffffffffffffffffffffffffffffffffffffff021916908373ffffffffffffffffffffffffffffffffffffffff16021790555050620001c3565b600080fd5b600073ffffffffffffffffffffffffffffffffffffffff82169050919050565b600062000159826200012c565b9050919050565b6200016b816200014c565b81146200017757600080fd5b50565b6000815190506200018b8162000160565b92915050565b600060208284031215620001aa57620001a962000127565b5b6000620001ba848285016200017a565b91505092915050565b613e6180620001d36000396000f3fe608060405234801561001057600080fd5b506004361061007d5760003560e01c8063ae362ff91161005b578063ae362ff9146100d8578063c73037d514610108578063d6ff4dcd14610124578063e37e789b146101425761007d565b806316d07f00146100825780635aa6e6751461009e578063645ac860146100bc575b600080fd5b61009c600480360381019061009791906129f6565b610173565b005b6100a6610749565b6040516100b39190612a88565b60405180910390f35b6100d660048036038101906100d19190612aa3565b61076f565b005b6100f260048036038101906100ed9190612ad0565b6108a8565b6040516100ff9190612e6a565b60405180910390f35b610122600480360381019061011d9190612e8c565b610d07565b005b61012c611386565b6040516101399190612f0a565b60405180910390f35b61015c60048036038101906101579190613263565b61138c565b60405161016a9291906132ea565b60405180910390f35b60046000858152602001908152602001600020600080826006015414156101c6576040517f631a58fa00000000000000000000000000000000000000000000000000000000815260040160405180910390fd5b8060018111156101d9576101d8612b36565b5b8260080160000160009054906101000a900460ff166001811115610200576101ff612b36565b5b1461025857808260080160000160009054906101000a900460ff166040517f22c4d9b400000000000000000000000000000000000000000000000000000000815260040161024f929190613322565b60405180910390fd5b3373ffffffffffffffffffffffffffffffffffffffff168260030160009054906101000a900473ffffffffffffffffffffffffffffffffffffffff1673ffffffffffffffffffffffffffffffffffffffff1614610310578160030160009054906101000a900473ffffffffffffffffffffffffffffffffffffffff166040517f3f81d13e0000000000000000000000000000000000000000000000000000000081526004016103079190612a88565b60405180910390fd5b428260040154111561035f574282600401546040517fb716ab1100000000000000000000000000000000000000000000000000000000815260040161035692919061334b565b60405180910390fd5b8160070160149054906101000a900460ff16156103a8576040517f6d5703c200000000000000000000000000000000000000000000000000000000815260040160405180910390fd5b8484606481836103b891906133a3565b60ff16146103f2576040517f4788e96000000000000000000000000000000000000000000000000000000000815260040160405180910390fd5b846000015160008060029054906101000a900473ffffffffffffffffffffffffffffffffffffffff1673ffffffffffffffffffffffffffffffffffffffff1663ec81d194836040518263ffffffff1660e01b81526004016104539190612f0a565b600060405180830381865afa158015610470573d6000803e3d6000fd5b505050506040513d6000823e3d601f19601f82011682018060405250810190610499919061344a565b90506000815114156104d7576040517fceea21b600000000000000000000000000000000000000000000000000000000815260040160405180910390fd5b60008060029054906101000a900473ffffffffffffffffffffffffffffffffffffffff1673ffffffffffffffffffffffffffffffffffffffff1663540528b9846040518263ffffffff1660e01b81526004016105339190612f0a565b602060405180830381865afa158015610550573d6000803e3d6000fd5b505050506040513d601f19601f8201168201806040525081019061057491906134a8565b90503073ffffffffffffffffffffffffffffffffffffffff168173ffffffffffffffffffffffffffffffffffffffff16146105db576040517f957fb99f00000000000000000000000000000000000000000000000000000000815260040160405180910390fd5b6000600460008d8152602001908152602001600020905061066360648c60ff16836006015461060a91906134d5565b610614919061355e565b8260070160009054906101000a900473ffffffffffffffffffffffffffffffffffffffff168360000160009054906101000a900473ffffffffffffffffffffffffffffffffffffffff16611df4565b6106d460648b60ff16836006015461067b91906134d5565b610685919061355e565b8260070160009054906101000a900473ffffffffffffffffffffffffffffffffffffffff168360010160009054906101000a900473ffffffffffffffffffffffffffffffffffffffff16611df4565b6106e181600f018a611e7e565b985060006106ee8a611eab565b905060018260070160146101000a81548160ff021916908315150217905550807f933a6e1a2eaf765744168a3e1ff6dc7d97976b0692fa5a3fa7923f95173d888660405160405180910390a250505050505050505050505050565b600160009054906101000a900473ffffffffffffffffffffffffffffffffffffffff1681565b600160009054906101000a900473ffffffffffffffffffffffffffffffffffffffff1673ffffffffffffffffffffffffffffffffffffffff163373ffffffffffffffffffffffffffffffffffffffff16146107ff576040517fd2a4bdfb0000000000000000000000000000000000000000000000000000000081526004016107f6906135ec565b60405180910390fd5b80600260006101000a81548173ffffffffffffffffffffffffffffffffffffffff021916908373ffffffffffffffffffffffffffffffffffffffff160217905550600260009054906101000a900473ffffffffffffffffffffffffffffffffffffffff1673ffffffffffffffffffffffffffffffffffffffff167f7b39f12d16cd0556c9ab23e3b9124d29fe715307b5dee9e45ca50cd984e67db760405160405180910390a250565b6108b0612315565b60046000838152602001908152602001600020604051806101600160405290816000820160009054906101000a900473ffffffffffffffffffffffffffffffffffffffff1673ffffffffffffffffffffffffffffffffffffffff1673ffffffffffffffffffffffffffffffffffffffff1681526020016001820160009054906101000a900473ffffffffffffffffffffffffffffffffffffffff1673ffffffffffffffffffffffffffffffffffffffff1673ffffffffffffffffffffffffffffffffffffffff1681526020016002820160009054906101000a900473ffffffffffffffffffffffffffffffffffffffff1673ffffffffffffffffffffffffffffffffffffffff1673ffffffffffffffffffffffffffffffffffffffff1681526020016003820160009054906101000a900473ffffffffffffffffffffffffffffffffffffffff1673ffffffffffffffffffffffffffffffffffffffff1673ffffffffffffffffffffffffffffffffffffffff1681526020016004820154815260200160058201548152602001600682015481526020016007820160009054906101000a900473ffffffffffffffffffffffffffffffffffffffff1673ffffffffffffffffffffffffffffffffffffffff1673ffffffffffffffffffffffffffffffffffffffff1681526020016007820160149054906101000a900460ff16151515158152602001600882016040518060e00160405290816000820160009054906101000a900460ff166001811115610aeb57610aea612b36565b5b6001811115610afd57610afc612b36565b5b8152602001600182018054610b119061363b565b80601f0160208091040260200160405190810160405280929190818152602001828054610b3d9061363b565b8015610b8a5780601f10610b5f57610100808354040283529160200191610b8a565b820191906000526020600020905b815481529060010190602001808311610b6d57829003601f168201915b50505050508152602001600282018054610ba39061363b565b80601f0160208091040260200160405190810160405280929190818152602001828054610bcf9061363b565b8015610c1c5780601f10610bf157610100808354040283529160200191610c1c565b820191906000526020600020905b815481529060010190602001808311610bff57829003601f168201915b505050505081526020016003820160009054906101000a900473ffffffffffffffffffffffffffffffffffffffff1673ffffffffffffffffffffffffffffffffffffffff1673ffffffffffffffffffffffffffffffffffffffff16815260200160048201548152602001600582015481526020016006820160009054906101000a900460ff166002811115610cb457610cb3612b36565b5b6002811115610cc657610cc5612b36565b5b815250508152602001600f82016040518060600160405290816000820154815260200160018201548152602001600282015481525050815250509050919050565b600460008481526020019081526020016000206001600082600601541415610d5b576040517f631a58fa00000000000000000000000000000000000000000000000000000000815260040160405180910390fd5b806001811115610d6e57610d6d612b36565b5b8260080160000160009054906101000a900460ff166001811115610d9557610d94612b36565b5b14610ded57808260080160000160009054906101000a900460ff166040517f22c4d9b4000000000000000000000000000000000000000000000000000000008152600401610de4929190613322565b60405180910390fd5b3373ffffffffffffffffffffffffffffffffffffffff168260030160009054906101000a900473ffffffffffffffffffffffffffffffffffffffff1673ffffffffffffffffffffffffffffffffffffffff1614610ea5578160030160009054906101000a900473ffffffffffffffffffffffffffffffffffffffff166040517f3f81d13e000000000000000000000000000000000000000000000000000000008152600401610e9c9190612a88565b60405180910390fd5b4282600401541115610ef4574282600401546040517fb716ab11000000000000000000000000000000000000000000000000000000008152600401610eeb92919061334b565b60405180910390fd5b8160070160149054906101000a900460ff1615610f3d576040517f6d5703c200000000000000000000000000000000000000000000000000000000815260040160405180910390fd5b83600460008781526020019081526020016000206008016000610f848260030160009054906101000a900473ffffffffffffffffffffffffffffffffffffffff1684611f51565b90506000811415610fca576040517f9966b250000000000000000000000000000000000000000000000000000000008152600401610fc1906136df565b60405180910390fd5b6000610fda828460040154611fda565b905060008054906101000a900461ffff1661ffff16811115611028576040517ff0246bd500000000000000000000000000000000000000000000000000000000815260040160405180910390fd5b866000015160008060029054906101000a900473ffffffffffffffffffffffffffffffffffffffff1673ffffffffffffffffffffffffffffffffffffffff1663ec81d194836040518263ffffffff1660e01b81526004016110899190612f0a565b600060405180830381865afa1580156110a6573d6000803e3d6000fd5b505050506040513d6000823e3d601f19601f820116820180604052508101906110cf919061344a565b905060008151141561110d576040517fceea21b600000000000000000000000000000000000000000000000000000000815260040160405180910390fd5b60008060029054906101000a900473ffffffffffffffffffffffffffffffffffffffff1673ffffffffffffffffffffffffffffffffffffffff1663540528b9846040518263ffffffff1660e01b81526004016111699190612f0a565b602060405180830381865afa158015611186573d6000803e3d6000fd5b505050506040513d601f19601f820116820180604052508101906111aa91906134a8565b90503073ffffffffffffffffffffffffffffffffffffffff168173ffffffffffffffffffffffffffffffffffffffff1614611211576040517f957fb99f00000000000000000000000000000000000000000000000000000000815260040160405180910390fd5b6000600460008e81526020019081526020016000209050600081600801905060006112608260030160009054906101000a900473ffffffffffffffffffffffffffffffffffffffff168f61202f565b905060006112848360050154838560060160009054906101000a900460ff166120b8565b6112b2578360010160009054906101000a900473ffffffffffffffffffffffffffffffffffffffff166112d8565b8360000160009054906101000a900473ffffffffffffffffffffffffffffffffffffffff165b905061130d84600601548560070160009054906101000a900473ffffffffffffffffffffffffffffffffffffffff1683611df4565b61131a84600f018f611e7e565b9d5060006113278f611eab565b905060018560070160146101000a81548160ff021916908315150217905550807f933a6e1a2eaf765744168a3e1ff6dc7d97976b0692fa5a3fa7923f95173d888660405160405180910390a25050505050505050505050505050505050565b60035481565b6000808360c001518460e00151856040015160018310156113d9576040517f5e85ae7300000000000000000000000000000000000000000000000000000000815260040160405180910390fd5b600082905060008173ffffffffffffffffffffffffffffffffffffffff1663dd62ed3e84600260009054906101000a900473ffffffffffffffffffffffffffffffffffffffff166040518363ffffffff1660e01b815260040161143d9291906136ff565b602060405180830381865afa15801561145a573d6000803e3d6000fd5b505050506040513d601f19601f8201168201806040525081019061147e919061373d565b9050848110156114c75780856040517f2a1b2dd80000000000000000000000000000000000000000000000000000000081526004016114be92919061334b565b60405180910390fd5b60008273ffffffffffffffffffffffffffffffffffffffff166370a08231856040518263ffffffff1660e01b81526004016115029190612a88565b602060405180830381865afa15801561151f573d6000803e3d6000fd5b505050506040513d601f19601f82011682018060405250810190611543919061373d565b90508581101561158c5780866040517fcf47918100000000000000000000000000000000000000000000000000000000815260040161158392919061334b565b60405180910390fd5b886000013560008060029054906101000a900473ffffffffffffffffffffffffffffffffffffffff1673ffffffffffffffffffffffffffffffffffffffff1663ec81d194836040518263ffffffff1660e01b81526004016115ed9190612f0a565b600060405180830381865afa15801561160a573d6000803e3d6000fd5b505050506040513d6000823e3d601f19601f82011682018060405250810190611633919061344a565b9050600081511415611671576040517fceea21b600000000000000000000000000000000000000000000000000000000815260040160405180910390fd5b60008060029054906101000a900473ffffffffffffffffffffffffffffffffffffffff1673ffffffffffffffffffffffffffffffffffffffff1663540528b9846040518263ffffffff1660e01b81526004016116cd9190612f0a565b602060405180830381865afa1580156116ea573d6000803e3d6000fd5b505050506040513d601f19601f8201168201806040525081019061170e91906134a8565b90503073ffffffffffffffffffffffffffffffffffffffff168173ffffffffffffffffffffffffffffffffffffffff1614611775576040517f957fb99f00000000000000000000000000000000000000000000000000000000815260040160405180910390fd5b61177d612191565b9a506117968d60c001518e60e001518f604001516121c1565b61179f8c61226f565b99508b600001358d61014001516000018181525050898d610140015160200181815250508c600460008d815260200190815260200160002060008201518160000160006101000a81548173ffffffffffffffffffffffffffffffffffffffff021916908373ffffffffffffffffffffffffffffffffffffffff16021790555060208201518160010160006101000a81548173ffffffffffffffffffffffffffffffffffffffff021916908373ffffffffffffffffffffffffffffffffffffffff16021790555060408201518160020160006101000a81548173ffffffffffffffffffffffffffffffffffffffff021916908373ffffffffffffffffffffffffffffffffffffffff16021790555060608201518160030160006101000a81548173ffffffffffffffffffffffffffffffffffffffff021916908373ffffffffffffffffffffffffffffffffffffffff1602179055506080820151816004015560a0820151816005015560c0820151816006015560e08201518160070160006101000a81548173ffffffffffffffffffffffffffffffffffffffff021916908373ffffffffffffffffffffffffffffffffffffffff1602179055506101008201518160070160146101000a81548160ff0219169083151502179055506101208201518160080160008201518160000160006101000a81548160ff021916908360018111156119ae576119ad612b36565b5b021790555060208201518160010190805190602001906119cf9291906123eb565b5060408201518160020190805190602001906119ec9291906123eb565b5060608201518160030160006101000a81548173ffffffffffffffffffffffffffffffffffffffff021916908373ffffffffffffffffffffffffffffffffffffffff1602179055506080820151816004015560a0820151816005015560c08201518160060160006101000a81548160ff02191690836002811115611a7357611a72612b36565b5b0217905550505061014082015181600f0160008201518160000155602082015181600101556040820151816002015550509050508c600560003373ffffffffffffffffffffffffffffffffffffffff1673ffffffffffffffffffffffffffffffffffffffff16815260200190815260200160002060008201518160000160006101000a81548173ffffffffffffffffffffffffffffffffffffffff021916908373ffffffffffffffffffffffffffffffffffffffff16021790555060208201518160010160006101000a81548173ffffffffffffffffffffffffffffffffffffffff021916908373ffffffffffffffffffffffffffffffffffffffff16021790555060408201518160020160006101000a81548173ffffffffffffffffffffffffffffffffffffffff021916908373ffffffffffffffffffffffffffffffffffffffff16021790555060608201518160030160006101000a81548173ffffffffffffffffffffffffffffffffffffffff021916908373ffffffffffffffffffffffffffffffffffffffff1602179055506080820151816004015560a0820151816005015560c0820151816006015560e08201518160070160006101000a81548173ffffffffffffffffffffffffffffffffffffffff021916908373ffffffffffffffffffffffffffffffffffffffff1602179055506101008201518160070160146101000a81548160ff0219169083151502179055506101208201518160080160008201518160000160006101000a81548160ff02191690836001811115611cbe57611cbd612b36565b5b02179055506020820151816001019080519060200190611cdf9291906123eb565b506040820151816002019080519060200190611cfc9291906123eb565b5060608201518160030160006101000a81548173ffffffffffffffffffffffffffffffffffffffff021916908373ffffffffffffffffffffffffffffffffffffffff1602179055506080820151816004015560a0820151816005015560c08201518160060160006101000a81548160ff02191690836002811115611d8357611d82612b36565b5b0217905550505061014082015181600f0160008201518160000155602082015181600101556040820151816002015550509050508a7f8903e71b8dc6f82fbab20e5aacf3ff2f223c932ff8e7753726d3c765512b5bb960405160405180910390a25050505050505050509250929050565b60008290508073ffffffffffffffffffffffffffffffffffffffff1663a9059cbb83866040518363ffffffff1660e01b8152600401611e3492919061376a565b6020604051808303816000875af1158015611e53573d6000803e3d6000fd5b505050506040513d601f19601f82011682018060405250810190611e7791906137a8565b5050505050565b611e86612471565b8260000154826040018181525050826001015482606001818152505081905092915050565b60008060029054906101000a900473ffffffffffffffffffffffffffffffffffffffff1673ffffffffffffffffffffffffffffffffffffffff1663b6f32d2b836040518263ffffffff1660e01b8152600401611f079190613904565b6020604051808303816000875af1158015611f26573d6000803e3d6000fd5b505050506040513d601f19601f82011682018060405250810190611f4a919061373d565b9050919050565b6000808390508073ffffffffffffffffffffffffffffffffffffffff1663b633620c846040518263ffffffff1660e01b8152600401611f909190612f0a565b602060405180830381865afa158015611fad573d6000803e3d6000fd5b505050506040513d601f19601f82011682018060405250810190611fd1919061373d565b91505092915050565b6000808284611fe99190613926565b905060008112611ff95780612026565b7fffffffffffffffffffffffffffffffffffffffffffffffffffffffffffffffff8161202591906139ba565b5b91505092915050565b6000808390508073ffffffffffffffffffffffffffffffffffffffff1663b5ab58dc846040518263ffffffff1660e01b815260040161206e9190612f0a565b602060405180830381865afa15801561208b573d6000803e3d6000fd5b505050506040513d601f19601f820116820180604052508101906120af9190613ae6565b91505092915050565b60008060028111156120cd576120cc612b36565b5b8260028111156120e0576120df612b36565b5b14156120fe578383146120f45760006120f7565b60015b905061218a565b6001600281111561211257612111612b36565b5b82600281111561212557612124612b36565b5b1415612144578383121561213a57600061213d565b60015b905061218a565b60028081111561215757612156612b36565b5b82600281111561216a57612169612b36565b5b1415612189578383131561217f576000612182565b60015b905061218a565b5b9392505050565b600042326040516020016121a6929190613b7c565b60405160208183030381529060405280519060200120905090565b60008290508073ffffffffffffffffffffffffffffffffffffffff166323b872dd83600260009054906101000a900473ffffffffffffffffffffffffffffffffffffffff16876040518463ffffffff1660e01b815260040161222593929190613ba8565b6020604051808303816000875af1158015612244573d6000803e3d6000fd5b505050506040513d601f19601f8201168201806040525081019061226891906137a8565b5050505050565b60008060029054906101000a900473ffffffffffffffffffffffffffffffffffffffff1673ffffffffffffffffffffffffffffffffffffffff1663963ff141836040518263ffffffff1660e01b81526004016122cb9190613e09565b6020604051808303816000875af11580156122ea573d6000803e3d6000fd5b505050506040513d601f19601f8201168201806040525081019061230e919061373d565b9050919050565b604051806101600160405280600073ffffffffffffffffffffffffffffffffffffffff168152602001600073ffffffffffffffffffffffffffffffffffffffff168152602001600073ffffffffffffffffffffffffffffffffffffffff168152602001600073ffffffffffffffffffffffffffffffffffffffff168152602001600081526020016000815260200160008152602001600073ffffffffffffffffffffffffffffffffffffffff1681526020016000151581526020016123d86124e9565b81526020016123e5612560565b81525090565b8280546123f79061363b565b90600052602060002090601f0160209004810192826124195760008555612460565b82601f1061243257805160ff1916838001178555612460565b82800160010185558215612460579182015b8281111561245f578251825591602001919060010190612444565b5b50905061246d9190612581565b5090565b6040518061012001604052806000815260200160608152602001600081526020016000815260200160608152602001600073ffffffffffffffffffffffffffffffffffffffff16815260200160608152602001600073ffffffffffffffffffffffffffffffffffffffff168152602001606081525090565b6040518060e001604052806000600181111561250857612507612b36565b5b81526020016060815260200160608152602001600073ffffffffffffffffffffffffffffffffffffffff16815260200160008152602001600081526020016000600281111561255a57612559612b36565b5b81525090565b60405180606001604052806000815260200160008152602001600081525090565b5b8082111561259a576000816000905550600101612582565b5090565b6000604051905090565b600080fd5b600080fd5b6000819050919050565b6125c5816125b2565b81146125d057600080fd5b50565b6000813590506125e2816125bc565b92915050565b600060ff82169050919050565b6125fe816125e8565b811461260957600080fd5b50565b60008135905061261b816125f5565b92915050565b600080fd5b6000601f19601f8301169050919050565b7f4e487b7100000000000000000000000000000000000000000000000000000000600052604160045260246000fd5b61266f82612626565b810181811067ffffffffffffffff8211171561268e5761268d612637565b5b80604052505050565b60006126a161259e565b90506126ad8282612666565b919050565b600080fd5b6000819050919050565b6126ca816126b7565b81146126d557600080fd5b50565b6000813590506126e7816126c1565b92915050565b600080fd5b600080fd5b600067ffffffffffffffff82111561271257612711612637565b5b61271b82612626565b9050602081019050919050565b82818337600083830152505050565b600061274a612745846126f7565b612697565b905082815260208101848484011115612766576127656126f2565b5b612771848285612728565b509392505050565b600082601f83011261278e5761278d6126ed565b5b813561279e848260208601612737565b91505092915050565b600067ffffffffffffffff8211156127c2576127c1612637565b5b6127cb82612626565b9050602081019050919050565b60006127eb6127e6846127a7565b612697565b905082815260208101848484011115612807576128066126f2565b5b612812848285612728565b509392505050565b600082601f83011261282f5761282e6126ed565b5b813561283f8482602086016127d8565b91505092915050565b600073ffffffffffffffffffffffffffffffffffffffff82169050919050565b600061287382612848565b9050919050565b61288381612868565b811461288e57600080fd5b50565b6000813590506128a08161287a565b92915050565b600061012082840312156128bd576128bc612621565b5b6128c8610120612697565b905060006128d8848285016126d8565b600083015250602082013567ffffffffffffffff8111156128fc576128fb6126b2565b5b61290884828501612779565b602083015250604061291c848285016126d8565b6040830152506060612930848285016126d8565b606083015250608082013567ffffffffffffffff811115612954576129536126b2565b5b6129608482850161281a565b60808301525060a061297484828501612891565b60a08301525060c082013567ffffffffffffffff811115612998576129976126b2565b5b6129a48482850161281a565b60c08301525060e06129b884828501612891565b60e08301525061010082013567ffffffffffffffff8111156129dd576129dc6126b2565b5b6129e98482850161281a565b6101008301525092915050565b60008060008060808587031215612a1057612a0f6125a8565b5b6000612a1e878288016125d3565b9450506020612a2f8782880161260c565b9350506040612a408782880161260c565b925050606085013567ffffffffffffffff811115612a6157612a606125ad565b5b612a6d878288016128a6565b91505092959194509250565b612a8281612868565b82525050565b6000602082019050612a9d6000830184612a79565b92915050565b600060208284031215612ab957612ab86125a8565b5b6000612ac784828501612891565b91505092915050565b600060208284031215612ae657612ae56125a8565b5b6000612af4848285016125d3565b91505092915050565b612b0681612868565b82525050565b612b15816126b7565b82525050565b60008115159050919050565b612b3081612b1b565b82525050565b7f4e487b7100000000000000000000000000000000000000000000000000000000600052602160045260246000fd5b60028110612b7657612b75612b36565b5b50565b6000819050612b8782612b65565b919050565b6000612b9782612b79565b9050919050565b612ba781612b8c565b82525050565b600081519050919050565b600082825260208201905092915050565b60005b83811015612be7578082015181840152602081019050612bcc565b83811115612bf6576000848401525b50505050565b6000612c0782612bad565b612c118185612bb8565b9350612c21818560208601612bc9565b612c2a81612626565b840191505092915050565b6000819050919050565b612c4881612c35565b82525050565b60038110612c5f57612c5e612b36565b5b50565b6000819050612c7082612c4e565b919050565b6000612c8082612c62565b9050919050565b612c9081612c75565b82525050565b600060e083016000830151612cae6000860182612b9e565b5060208301518482036020860152612cc68282612bfc565b91505060408301518482036040860152612ce08282612bfc565b9150506060830151612cf56060860182612afd565b506080830151612d086080860182612b0c565b5060a0830151612d1b60a0860182612c3f565b5060c0830151612d2e60c0860182612c87565b508091505092915050565b606082016000820151612d4f6000850182612b0c565b506020820151612d626020850182612b0c565b506040820151612d756040850182612b0c565b50505050565b60006101a083016000830151612d946000860182612afd565b506020830151612da76020860182612afd565b506040830151612dba6040860182612afd565b506060830151612dcd6060860182612afd565b506080830151612de06080860182612b0c565b5060a0830151612df360a0860182612b0c565b5060c0830151612e0660c0860182612b0c565b5060e0830151612e1960e0860182612afd565b50610100830151612e2e610100860182612b27565b50610120830151848203610120860152612e488282612c96565b915050610140830151612e5f610140860182612d39565b508091505092915050565b60006020820190508181036000830152612e848184612d7b565b905092915050565b600080600060608486031215612ea557612ea46125a8565b5b6000612eb3868287016125d3565b9350506020612ec4868287016126d8565b925050604084013567ffffffffffffffff811115612ee557612ee46125ad565b5b612ef1868287016128a6565b9150509250925092565b612f04816126b7565b82525050565b6000602082019050612f1f6000830184612efb565b92915050565b612f2e81612b1b565b8114612f3957600080fd5b50565b600081359050612f4b81612f25565b92915050565b60028110612f5e57600080fd5b50565b600081359050612f7081612f51565b92915050565b612f7f81612c35565b8114612f8a57600080fd5b50565b600081359050612f9c81612f76565b92915050565b60038110612faf57600080fd5b50565b600081359050612fc181612fa2565b92915050565b600060e08284031215612fdd57612fdc612621565b5b612fe760e0612697565b90506000612ff784828501612f61565b600083015250602082013567ffffffffffffffff81111561301b5761301a6126b2565b5b61302784828501612779565b602083015250604082013567ffffffffffffffff81111561304b5761304a6126b2565b5b61305784828501612779565b604083015250606061306b84828501612891565b606083015250608061307f848285016126d8565b60808301525060a061309384828501612f8d565b60a08301525060c06130a784828501612fb2565b60c08301525092915050565b6000606082840312156130c9576130c8612621565b5b6130d36060612697565b905060006130e3848285016126d8565b60008301525060206130f7848285016126d8565b602083015250604061310b848285016126d8565b60408301525092915050565b60006101a0828403121561312e5761312d612621565b5b613139610160612697565b9050600061314984828501612891565b600083015250602061315d84828501612891565b602083015250604061317184828501612891565b604083015250606061318584828501612891565b6060830152506080613199848285016126d8565b60808301525060a06131ad848285016126d8565b60a08301525060c06131c1848285016126d8565b60c08301525060e06131d584828501612891565b60e0830152506101006131ea84828501612f3c565b6101008301525061012082013567ffffffffffffffff8111156132105761320f6126b2565b5b61321c84828501612fc7565b61012083015250610140613232848285016130b3565b6101408301525092915050565b600080fd5b600060c0828403121561325a5761325961323f565b5b81905092915050565b6000806040838503121561327a576132796125a8565b5b600083013567ffffffffffffffff811115613298576132976125ad565b5b6132a485828601613117565b925050602083013567ffffffffffffffff8111156132c5576132c46125ad565b5b6132d185828601613244565b9150509250929050565b6132e4816125b2565b82525050565b60006040820190506132ff60008301856132db565b61330c6020830184612efb565b9392505050565b61331c81612b8c565b82525050565b60006040820190506133376000830185613313565b6133446020830184613313565b9392505050565b60006040820190506133606000830185612efb565b61336d6020830184612efb565b9392505050565b7f4e487b7100000000000000000000000000000000000000000000000000000000600052601160045260246000fd5b60006133ae826125e8565b91506133b9836125e8565b92508260ff038211156133cf576133ce613374565b5b828201905092915050565b60006133ed6133e8846126f7565b612697565b905082815260208101848484011115613409576134086126f2565b5b613414848285612bc9565b509392505050565b600082601f830112613431576134306126ed565b5b81516134418482602086016133da565b91505092915050565b6000602082840312156134605761345f6125a8565b5b600082015167ffffffffffffffff81111561347e5761347d6125ad565b5b61348a8482850161341c565b91505092915050565b6000815190506134a28161287a565b92915050565b6000602082840312156134be576134bd6125a8565b5b60006134cc84828501613493565b91505092915050565b60006134e0826126b7565b91506134eb836126b7565b9250817fffffffffffffffffffffffffffffffffffffffffffffffffffffffffffffffff048311821515161561352457613523613374565b5b828202905092915050565b7f4e487b7100000000000000000000000000000000000000000000000000000000600052601260045260246000fd5b6000613569826126b7565b9150613574836126b7565b9250826135845761358361352f565b5b828204905092915050565b600082825260208201905092915050565b7f4e6f74206120476f7665726e616e636520416464726573730000000000000000600082015250565b60006135d660188361358f565b91506135e1826135a0565b602082019050919050565b60006020820190508181036000830152613605816135c9565b9050919050565b7f4e487b7100000000000000000000000000000000000000000000000000000000600052602260045260246000fd5b6000600282049050600182168061365357607f821691505b602082108114156136675761366661360c565b5b50919050565b7f54696d657374616d7020697320302e2045697468657220726f756e644964206960008201527f732077726f6e67206f72206f7261636c6520646f65736e277420776f726b0000602082015250565b60006136c9603e8361358f565b91506136d48261366d565b604082019050919050565b600060208201905081810360008301526136f8816136bc565b9050919050565b60006040820190506137146000830185612a79565b6137216020830184612a79565b9392505050565b600081519050613737816126c1565b92915050565b600060208284031215613753576137526125a8565b5b600061376184828501613728565b91505092915050565b600060408201905061377f6000830185612a79565b61378c6020830184612efb565b9392505050565b6000815190506137a281612f25565b92915050565b6000602082840312156137be576137bd6125a8565b5b60006137cc84828501613793565b91505092915050565b600081519050919050565b600082825260208201905092915050565b60006137fc826137d5565b61380681856137e0565b9350613816818560208601612bc9565b61381f81612626565b840191505092915050565b6000610120830160008301516138436000860182612b0c565b506020830151848203602086015261385b8282612bfc565b91505060408301516138706040860182612b0c565b5060608301516138836060860182612b0c565b506080830151848203608086015261389b82826137f1565b91505060a08301516138b060a0860182612afd565b5060c083015184820360c08601526138c882826137f1565b91505060e08301516138dd60e0860182612afd565b506101008301518482036101008601526138f782826137f1565b9150508091505092915050565b6000602082019050818103600083015261391e818461382a565b905092915050565b600061393182612c35565b915061393c83612c35565b9250827f80000000000000000000000000000000000000000000000000000000000000000182126000841215161561397757613976613374565b5b827f7fffffffffffffffffffffffffffffffffffffffffffffffffffffffffffffff0182136000841216156139af576139ae613374565b5b828203905092915050565b60006139c582612c35565b91506139d083612c35565b9250827f7fffffffffffffffffffffffffffffffffffffffffffffffffffffffffffffff0482116000841360008413161615613a0f57613a0e613374565b5b817f80000000000000000000000000000000000000000000000000000000000000000583126000841260008413161615613a4c57613a4b613374565b5b827f80000000000000000000000000000000000000000000000000000000000000000582126000841360008412161615613a8957613a88613374565b5b827f7fffffffffffffffffffffffffffffffffffffffffffffffffffffffffffffff0582126000841260008412161615613ac657613ac5613374565b5b828202905092915050565b600081519050613ae081612f76565b92915050565b600060208284031215613afc57613afb6125a8565b5b6000613b0a84828501613ad1565b91505092915050565b6000819050919050565b613b2e613b29826126b7565b613b13565b82525050565b60008160601b9050919050565b6000613b4c82613b34565b9050919050565b6000613b5e82613b41565b9050919050565b613b76613b7182612868565b613b53565b82525050565b6000613b888285613b1d565b602082019150613b988284613b65565b6014820191508190509392505050565b6000606082019050613bbd6000830186612a79565b613bca6020830185612a79565b613bd76040830184612efb565b949350505050565b6000613bee60208401846126d8565b905092915050565b600080fd5b600080fd5b600080fd5b60008083356001602003843603038112613c2257613c21613c00565b5b83810192508235915060208301925067ffffffffffffffff821115613c4a57613c49613bf6565b5b600182023603841315613c6057613c5f613bfb565b5b509250929050565b6000613c748385612bb8565b9350613c81838584612728565b613c8a83612626565b840190509392505050565b6000613ca46020840184612891565b905092915050565b60008083356001602003843603038112613cc957613cc8613c00565b5b83810192508235915060208301925067ffffffffffffffff821115613cf157613cf0613bf6565b5b600182023603841315613d0757613d06613bfb565b5b509250929050565b6000613d1b83856137e0565b9350613d28838584612728565b613d3183612626565b840190509392505050565b600060c08301613d4f6000840184613bdf565b613d5c6000860182612b0c565b50613d6a6020840184613c05565b8583036020870152613d7d838284613c68565b92505050613d8e6040840184613c95565b613d9b6040860182612afd565b50613da96060840184613cac565b8583036060870152613dbc838284613d0f565b92505050613dcd6080840184613c95565b613dda6080860182612afd565b50613de860a0840184613cac565b85830360a0870152613dfb838284613d0f565b925050508091505092915050565b60006020820190508181036000830152613e238184613d3c565b90509291505056fea26469706673582212208dd418e733954cd2d2312001b73e1fb1dca969afc26708f580c4b4ac5fed7b6a64736f6c634300080a0033",
  "linkReferences": {},
  "deployedLinkReferences": {}
}