{
  "_format": "hh-sol-artifact-1",
  "contractName": "hub",
  "sourceName": "contracts/StructureTest/hub.sol",
  "abi": [
    {
      "inputs": [],
      "name": "hubfun",
      "outputs": [],
      "stateMutability": "nonpayable",
      "type": "function"
    },
    {
      "inputs": [
        {
          "internalType": "address",
          "name": "_owner",
          "type": "address"
        }
      ],
      "name": "setOwner",
      "outputs": [],
      "stateMutability": "nonpayable",
      "type": "function"
    }
  ],
  "bytecode": "0x608060405234801561001057600080fd5b5061066b806100206000396000f3fe608060405234801561001057600080fd5b50600436106100365760003560e01c806313af40351461003b578063c304398d14610057575b600080fd5b610055600480360381019061005091906104b7565b610061565b005b61005f610114565b005b806000806101000a81548173ffffffffffffffffffffffffffffffffffffffff021916908373ffffffffffffffffffffffffffffffffffffffff1602179055506100df6040518060400160405280600d81526020017f73657474696e67206f776e6572000000000000000000000000000000000000008152506102b3565b6100e88161034c565b61011160008054906101000a900473ffffffffffffffffffffffffffffffffffffffff1661034c565b50565b60008054906101000a900473ffffffffffffffffffffffffffffffffffffffff166101736040518060400160405280601181526020017f6f6e6c796f776e65724d6f6469666965720000000000000000000000000000008152506102b3565b61017c3361034c565b6101858161034c565b8073ffffffffffffffffffffffffffffffffffffffff163373ffffffffffffffffffffffffffffffffffffffff16146101f3576040517f08c379a00000000000000000000000000000000000000000000000000000000081526004016101ea90610541565b60405180910390fd5b6102316040518060400160405280600881526020017f4920616d206875620000000000000000000000000000000000000000000000008152506102b3565b61023961040e565b33816000019073ffffffffffffffffffffffffffffffffffffffff16908173ffffffffffffffffffffffffffffffffffffffff1681525050506102b06040518060400160405280601481526020017f6f6e6c796f776e65724d6f646966696572456e640000000000000000000000008152506102b3565b50565b610349816040516024016102c791906105e9565b6040516020818303038152906040527f41304fac000000000000000000000000000000000000000000000000000000007bffffffffffffffffffffffffffffffffffffffffffffffffffffffff19166020820180517bffffffffffffffffffffffffffffffffffffffffffffffffffffffff83818316178352505050506103e5565b50565b6103e281604051602401610360919061061a565b6040516020818303038152906040527f2c2ecbc2000000000000000000000000000000000000000000000000000000007bffffffffffffffffffffffffffffffffffffffffffffffffffffffff19166020820180517bffffffffffffffffffffffffffffffffffffffffffffffffffffffff83818316178352505050506103e5565b50565b60008151905060006a636f6e736f6c652e6c6f679050602083016000808483855afa5050505050565b6040518060400160405280600073ffffffffffffffffffffffffffffffffffffffff168152602001600073ffffffffffffffffffffffffffffffffffffffff1681525090565b600080fd5b600073ffffffffffffffffffffffffffffffffffffffff82169050919050565b600061048482610459565b9050919050565b61049481610479565b811461049f57600080fd5b50565b6000813590506104b18161048b565b92915050565b6000602082840312156104cd576104cc610454565b5b60006104db848285016104a2565b91505092915050565b600082825260208201905092915050565b7f4f6e6c794f776e65720000000000000000000000000000000000000000000000600082015250565b600061052b6009836104e4565b9150610536826104f5565b602082019050919050565b6000602082019050818103600083015261055a8161051e565b9050919050565b600081519050919050565b60005b8381101561058a57808201518184015260208101905061056f565b83811115610599576000848401525b50505050565b6000601f19601f8301169050919050565b60006105bb82610561565b6105c581856104e4565b93506105d581856020860161056c565b6105de8161059f565b840191505092915050565b6000602082019050818103600083015261060381846105b0565b905092915050565b61061481610479565b82525050565b600060208201905061062f600083018461060b565b9291505056fea2646970667358221220243d8633cd38a8e346afd1c13acaddc17dba064b804cec6b0de78ac54d87b61864736f6c634300080a0033",
  "linkReferences": {},
  "deployedLinkReferences": {}
}