{
  "_format": "hh-sol-artifact-1",
  "contractName": "pricetest",
  "sourceName": "contracts/oracletests/oracleTests.sol",
  "abi": [
    {
      "inputs": [],
      "name": "getLatestPrice",
      "outputs": [
        {
          "internalType": "int256",
          "name": "",
          "type": "int256"
        }
      ],
      "stateMutability": "view",
      "type": "function"
    },
    {
      "inputs": [],
      "name": "priceFeed",
      "outputs": [
        {
          "internalType": "contract AggregatorV3Interface",
          "name": "",
          "type": "address"
        }
      ],
      "stateMutability": "view",
      "type": "function"
    },
    {
      "inputs": [
        {
          "internalType": "address",
          "name": "_aggregatorAdress",
          "type": "address"
        }
      ],
      "name": "setPriceFeed",
      "outputs": [],
      "stateMutability": "nonpayable",
      "type": "function"
    }
  ],
  "bytecode": "0x608060405234801561001057600080fd5b50610437806100206000396000f3fe608060405234801561001057600080fd5b50600436106100415760003560e01c8063724e78da14610046578063741bef1a146100625780638e15f47314610080575b600080fd5b610060600480360381019061005b9190610207565b61009e565b005b61006a6100e1565b6040516100779190610293565b60405180910390f35b610088610105565b60405161009591906102c7565b60405180910390f35b806000806101000a81548173ffffffffffffffffffffffffffffffffffffffff021916908373ffffffffffffffffffffffffffffffffffffffff16021790555050565b60008054906101000a900473ffffffffffffffffffffffffffffffffffffffff1681565b60008060008054906101000a900473ffffffffffffffffffffffffffffffffffffffff1673ffffffffffffffffffffffffffffffffffffffff1663feaf968c6040518163ffffffff1660e01b815260040160a060405180830381865afa158015610173573d6000803e3d6000fd5b505050506040513d601f19601f820116820180604052508101906101979190610386565b5050509150508091505090565b600080fd5b600073ffffffffffffffffffffffffffffffffffffffff82169050919050565b60006101d4826101a9565b9050919050565b6101e4816101c9565b81146101ef57600080fd5b50565b600081359050610201816101db565b92915050565b60006020828403121561021d5761021c6101a4565b5b600061022b848285016101f2565b91505092915050565b6000819050919050565b600061025961025461024f846101a9565b610234565b6101a9565b9050919050565b600061026b8261023e565b9050919050565b600061027d82610260565b9050919050565b61028d81610272565b82525050565b60006020820190506102a86000830184610284565b92915050565b6000819050919050565b6102c1816102ae565b82525050565b60006020820190506102dc60008301846102b8565b92915050565b600069ffffffffffffffffffff82169050919050565b610301816102e2565b811461030c57600080fd5b50565b60008151905061031e816102f8565b92915050565b61032d816102ae565b811461033857600080fd5b50565b60008151905061034a81610324565b92915050565b6000819050919050565b61036381610350565b811461036e57600080fd5b50565b6000815190506103808161035a565b92915050565b600080600080600060a086880312156103a2576103a16101a4565b5b60006103b08882890161030f565b95505060206103c18882890161033b565b94505060406103d288828901610371565b93505060606103e388828901610371565b92505060806103f48882890161030f565b915050929550929590935056fea2646970667358221220ea4a220b17a47235ee68020c1a0dfd60d5c756a68aaa4f763e827331d4f423dd64736f6c634300080a0033",
  "linkReferences": {},
  "deployedLinkReferences": {}
}