{
  "_format": "hh-sol-artifact-1",
  "contractName": "governanceUtil",
  "sourceName": "contracts/Common/Governance.sol",
  "abi": [
    {
      "inputs": [
        {
          "internalType": "string",
          "name": "",
          "type": "string"
        }
      ],
      "name": "UserNotAllowed",
      "type": "error"
    },
    {
      "inputs": [
        {
          "internalType": "address",
          "name": "_treasury",
          "type": "address"
        }
      ],
      "name": "_setTreasuryAddress",
      "outputs": [],
      "stateMutability": "nonpayable",
      "type": "function"
    },
    {
      "inputs": [],
      "name": "governance",
      "outputs": [
        {
          "internalType": "address",
          "name": "",
          "type": "address"
        }
      ],
      "stateMutability": "view",
      "type": "function"
    },
    {
      "inputs": [],
      "name": "waitForAutomaticResolution",
      "outputs": [
        {
          "internalType": "uint256",
          "name": "",
          "type": "uint256"
        }
      ],
      "stateMutability": "view",
      "type": "function"
    }
  ],
  "bytecode": "0x608060405234801561001057600080fd5b506103a0806100206000396000f3fe608060405234801561001057600080fd5b50600436106100415760003560e01c80635aa6e67514610046578063645ac86014610064578063d6ff4dcd14610080575b600080fd5b61004e61009e565b60405161005b9190610240565b60405180910390f35b61007e6004803603810190610079919061028c565b6100c2565b005b6100886101f9565b60405161009591906102d2565b60405180910390f35b60008054906101000a900473ffffffffffffffffffffffffffffffffffffffff1681565b60008054906101000a900473ffffffffffffffffffffffffffffffffffffffff1673ffffffffffffffffffffffffffffffffffffffff163373ffffffffffffffffffffffffffffffffffffffff1614610150576040517fd2a4bdfb0000000000000000000000000000000000000000000000000000000081526004016101479061034a565b60405180910390fd5b80600160006101000a81548173ffffffffffffffffffffffffffffffffffffffff021916908373ffffffffffffffffffffffffffffffffffffffff160217905550600160009054906101000a900473ffffffffffffffffffffffffffffffffffffffff1673ffffffffffffffffffffffffffffffffffffffff167f7437299f2ef95df7185f14c65d2b599b511d11dba6eeeb1fcde77df97f14321e60405160405180910390a250565b60025481565b600073ffffffffffffffffffffffffffffffffffffffff82169050919050565b600061022a826101ff565b9050919050565b61023a8161021f565b82525050565b60006020820190506102556000830184610231565b92915050565b600080fd5b6102698161021f565b811461027457600080fd5b50565b60008135905061028681610260565b92915050565b6000602082840312156102a2576102a161025b565b5b60006102b084828501610277565b91505092915050565b6000819050919050565b6102cc816102b9565b82525050565b60006020820190506102e760008301846102c3565b92915050565b600082825260208201905092915050565b7f4e6f74206120476f7665726e616e636520416464726573730000000000000000600082015250565b60006103346018836102ed565b915061033f826102fe565b602082019050919050565b6000602082019050818103600083015261036381610327565b905091905056fea2646970667358221220a6a7d57b63f665a580fe47bcab270aa50af44de0ce2d6dd6e96c62b121e1529764736f6c634300080a0033",
  "linkReferences": {},
  "deployedLinkReferences": {}
}