{
  "_format": "hh-sol-artifact-1",
  "contractName": "lensTest",
  "sourceName": "contracts/oracletests/lensTest.sol",
  "abi": [
    {
      "inputs": [
        {
          "internalType": "address",
          "name": "_to",
          "type": "address"
        },
        {
          "internalType": "string",
          "name": "_handle",
          "type": "string"
        }
      ],
      "name": "createProfile",
      "outputs": [
        {
          "internalType": "uint256",
          "name": "",
          "type": "uint256"
        }
      ],
      "stateMutability": "nonpayable",
      "type": "function"
    },
    {
      "inputs": [],
      "name": "lens",
      "outputs": [
        {
          "internalType": "contract ILensHub",
          "name": "",
          "type": "address"
        }
      ],
      "stateMutability": "view",
      "type": "function"
    },
    {
      "inputs": [
        {
          "internalType": "uint256",
          "name": "_profileId",
          "type": "uint256"
        },
        {
          "internalType": "string",
          "name": "_contentURI",
          "type": "string"
        },
        {
          "internalType": "address",
          "name": "_collectModule",
          "type": "address"
        },
        {
          "internalType": "bytes",
          "name": "_initData",
          "type": "bytes"
        }
      ],
      "name": "post",
      "outputs": [],
      "stateMutability": "nonpayable",
      "type": "function"
    },
    {
      "inputs": [
        {
          "internalType": "address",
          "name": "_lensAddress",
          "type": "address"
        }
      ],
      "name": "setLensAddress",
      "outputs": [],
      "stateMutability": "nonpayable",
      "type": "function"
    }
  ],
  "bytecode": "0x608060405234801561001057600080fd5b5061114b806100206000396000f3fe608060405234801561001057600080fd5b506004361061004c5760003560e01c80631075231d14610051578063112666b71461006d5780635eb00aed1461008b5780637765eba1146100a7575b600080fd5b61006b60048036038101906100669190610997565b6100d7565b005b61007561042b565b6040516100829190610a9d565b60405180910390f35b6100a560048036038101906100a09190610ab8565b61044f565b005b6100c160048036038101906100bc9190610c26565b610492565b6040516100ce9190610c91565b60405180910390f35b6100df610770565b8681600001818152505085858080601f016020809104026020016040519081016040528093929190818152602001838380828437600081840152601f19601f82011690508083019250505050505050816020018190525083816040019073ffffffffffffffffffffffffffffffffffffffff16908173ffffffffffffffffffffffffffffffffffffffff168152505082828080601f016020809104026020016040519081016040528093929190818152602001838380828437600081840152601f19601f8201169050808301925050505050505081606001819052506000600a81131561020b576102046040518060400160405280600b81526020017f6572726f7220636f756e740000000000000000000000000000000000000000008152506106ae565b5050610423565b6102496040518060400160405280600381526020017f6d793100000000000000000000000000000000000000000000000000000000008152506106ae565b60008054906101000a900473ffffffffffffffffffffffffffffffffffffffff1673ffffffffffffffffffffffffffffffffffffffff1663963ff141836040518263ffffffff1660e01b81526004016102a29190610e3e565b6020604051808303816000875af19250505080156102de57506040513d601f19601f820116820180604052508101906102db9190610e75565b60015b6103e1576102ea610eaf565b806308c379a0141561035957506102ff610ed1565b8061030a575061035b565b6103486040518060400160405280600681526020017f4572726f723100000000000000000000000000000000000000000000000000008152506106ae565b610351816106ae565b505050610423565b505b3d8060008114610387576040519150601f19603f3d011682016040523d82523d6000602084013e61038c565b606091505b506103cb6040518060400160405280600681526020017f4572726f723200000000000000000000000000000000000000000000000000008152506106ae565b81806103d690610fa0565b925050505050610423565b506104206040518060400160405280600381526020017f6d793200000000000000000000000000000000000000000000000000000000008152506106ae565b50505b505050505050565b60008054906101000a900473ffffffffffffffffffffffffffffffffffffffff1681565b806000806101000a81548173ffffffffffffffffffffffffffffffffffffffff021916908373ffffffffffffffffffffffffffffffffffffffff16021790555050565b600061049c6107d2565b83816000019073ffffffffffffffffffffffffffffffffffffffff16908173ffffffffffffffffffffffffffffffffffffffff168152505082816020018190525061051b6040518060400160405280600981526020017f4920616d206865726500000000000000000000000000000000000000000000008152506106ae565b60008054906101000a900473ffffffffffffffffffffffffffffffffffffffff1673ffffffffffffffffffffffffffffffffffffffff1663ffea138e826040518263ffffffff1660e01b81526004016105749190611087565b6020604051808303816000875af19250505080156105b057506040513d601f19601f820116820180604052508101906105ad9190610e75565b60015b6106a2576105bc610eaf565b806308c379a0141561062557506105d1610ed1565b806105dc5750610627565b61061a6040518060400160405280600681526020017f4572726f723100000000000000000000000000000000000000000000000000008152506106ae565b6000925050506106a8565b505b3d8060008114610653576040519150601f19603f3d011682016040523d82523d6000602084013e610658565b606091505b506106976040518060400160405280600681526020017f4572726f723200000000000000000000000000000000000000000000000000008152506106ae565b6000925050506106a8565b80925050505b92915050565b610744816040516024016106c291906110f3565b6040516020818303038152906040527f41304fac000000000000000000000000000000000000000000000000000000007bffffffffffffffffffffffffffffffffffffffffffffffffffffffff19166020820180517bffffffffffffffffffffffffffffffffffffffffffffffffffffffff8381831617835250505050610747565b50565b60008151905060006a636f6e736f6c652e6c6f679050602083016000808483855afa5050505050565b6040518060c001604052806000815260200160608152602001600073ffffffffffffffffffffffffffffffffffffffff16815260200160608152602001600073ffffffffffffffffffffffffffffffffffffffff168152602001606081525090565b6040518060c00160405280600073ffffffffffffffffffffffffffffffffffffffff1681526020016060815260200160608152602001600073ffffffffffffffffffffffffffffffffffffffff16815260200160608152602001606081525090565b6000604051905090565b600080fd5b600080fd5b6000819050919050565b61085b81610848565b811461086657600080fd5b50565b60008135905061087881610852565b92915050565b600080fd5b600080fd5b600080fd5b60008083601f8401126108a3576108a261087e565b5b8235905067ffffffffffffffff8111156108c0576108bf610883565b5b6020830191508360018202830111156108dc576108db610888565b5b9250929050565b600073ffffffffffffffffffffffffffffffffffffffff82169050919050565b600061090e826108e3565b9050919050565b61091e81610903565b811461092957600080fd5b50565b60008135905061093b81610915565b92915050565b60008083601f8401126109575761095661087e565b5b8235905067ffffffffffffffff81111561097457610973610883565b5b6020830191508360018202830111156109905761098f610888565b5b9250929050565b600080600080600080608087890312156109b4576109b361083e565b5b60006109c289828a01610869565b965050602087013567ffffffffffffffff8111156109e3576109e2610843565b5b6109ef89828a0161088d565b95509550506040610a0289828a0161092c565b935050606087013567ffffffffffffffff811115610a2357610a22610843565b5b610a2f89828a01610941565b92509250509295509295509295565b6000819050919050565b6000610a63610a5e610a59846108e3565b610a3e565b6108e3565b9050919050565b6000610a7582610a48565b9050919050565b6000610a8782610a6a565b9050919050565b610a9781610a7c565b82525050565b6000602082019050610ab26000830184610a8e565b92915050565b600060208284031215610ace57610acd61083e565b5b6000610adc8482850161092c565b91505092915050565b600080fd5b6000601f19601f8301169050919050565b7f4e487b7100000000000000000000000000000000000000000000000000000000600052604160045260246000fd5b610b3382610aea565b810181811067ffffffffffffffff82111715610b5257610b51610afb565b5b80604052505050565b6000610b65610834565b9050610b718282610b2a565b919050565b600067ffffffffffffffff821115610b9157610b90610afb565b5b610b9a82610aea565b9050602081019050919050565b82818337600083830152505050565b6000610bc9610bc484610b76565b610b5b565b905082815260208101848484011115610be557610be4610ae5565b5b610bf0848285610ba7565b509392505050565b600082601f830112610c0d57610c0c61087e565b5b8135610c1d848260208601610bb6565b91505092915050565b60008060408385031215610c3d57610c3c61083e565b5b6000610c4b8582860161092c565b925050602083013567ffffffffffffffff811115610c6c57610c6b610843565b5b610c7885828601610bf8565b9150509250929050565b610c8b81610848565b82525050565b6000602082019050610ca66000830184610c82565b92915050565b610cb581610848565b82525050565b600081519050919050565b600082825260208201905092915050565b60005b83811015610cf5578082015181840152602081019050610cda565b83811115610d04576000848401525b50505050565b6000610d1582610cbb565b610d1f8185610cc6565b9350610d2f818560208601610cd7565b610d3881610aea565b840191505092915050565b610d4c81610903565b82525050565b600081519050919050565b600082825260208201905092915050565b6000610d7982610d52565b610d838185610d5d565b9350610d93818560208601610cd7565b610d9c81610aea565b840191505092915050565b600060c083016000830151610dbf6000860182610cac565b5060208301518482036020860152610dd78282610d0a565b9150506040830151610dec6040860182610d43565b5060608301518482036060860152610e048282610d6e565b9150506080830151610e196080860182610d43565b5060a083015184820360a0860152610e318282610d6e565b9150508091505092915050565b60006020820190508181036000830152610e588184610da7565b905092915050565b600081519050610e6f81610852565b92915050565b600060208284031215610e8b57610e8a61083e565b5b6000610e9984828501610e60565b91505092915050565b60008160e01c9050919050565b600060033d1115610ece5760046000803e610ecb600051610ea2565b90505b90565b600060443d1015610ee157610f64565b610ee9610834565b60043d036004823e80513d602482011167ffffffffffffffff82111715610f11575050610f64565b808201805167ffffffffffffffff811115610f2f5750505050610f64565b80602083010160043d038501811115610f4c575050505050610f64565b610f5b82602001850186610b2a565b82955050505050505b90565b7f4e487b7100000000000000000000000000000000000000000000000000000000600052601160045260246000fd5b6000819050919050565b6000610fab82610f96565b91507f7fffffffffffffffffffffffffffffffffffffffffffffffffffffffffffffff821415610fde57610fdd610f67565b5b600182019050919050565b600060c0830160008301516110016000860182610d43565b50602083015184820360208601526110198282610d0a565b915050604083015184820360408601526110338282610d0a565b91505060608301516110486060860182610d43565b50608083015184820360808601526110608282610d6e565b91505060a083015184820360a086015261107a8282610d0a565b9150508091505092915050565b600060208201905081810360008301526110a18184610fe9565b905092915050565b600082825260208201905092915050565b60006110c582610cbb565b6110cf81856110a9565b93506110df818560208601610cd7565b6110e881610aea565b840191505092915050565b6000602082019050818103600083015261110d81846110ba565b90509291505056fea2646970667358221220172b32a2e8f5c6092bf69e2b3edfbe95a25fafe41457851c3aaabffb39d6446a64736f6c634300080a0033",
  "linkReferences": {},
  "deployedLinkReferences": {}
}