{
  "_format": "hh-sol-artifact-1",
  "contractName": "commonLogic",
  "sourceName": "contracts/Modules/RBOwner.sol",
  "abi": [
    {
      "inputs": [
        {
          "internalType": "string",
          "name": "",
          "type": "string"
        }
      ],
      "name": "UserNotAllowed",
      "type": "error"
    },
    {
      "inputs": [
        {
          "internalType": "address",
          "name": "_treasury",
          "type": "address"
        }
      ],
      "name": "_setTreasuryAddress",
      "outputs": [],
      "stateMutability": "nonpayable",
      "type": "function"
    },
    {
      "inputs": [],
      "name": "governance",
      "outputs": [
        {
          "internalType": "address",
          "name": "",
          "type": "address"
        }
      ],
      "stateMutability": "view",
      "type": "function"
    }
  ],
  "bytecode": "0x608060405234801561001057600080fd5b506106d9806100206000396000f3fe608060405234801561001057600080fd5b50600436106100365760003560e01c80635aa6e6751461003b578063645ac86014610059575b600080fd5b610043610075565b60405161005091906104cd565b60405180910390f35b610073600480360381019061006e9190610519565b610099565b005b60008054906101000a900473ffffffffffffffffffffffffffffffffffffffff1681565b6100a233610298565b6100cb60008054906101000a900473ffffffffffffffffffffffffffffffffffffffff16610298565b61012360008054906101000a900473ffffffffffffffffffffffffffffffffffffffff1673ffffffffffffffffffffffffffffffffffffffff163373ffffffffffffffffffffffffffffffffffffffff161415610331565b60008054906101000a900473ffffffffffffffffffffffffffffffffffffffff1673ffffffffffffffffffffffffffffffffffffffff163373ffffffffffffffffffffffffffffffffffffffff16146101ef576101b46040518060400160405280600981526020017f726576657274696e6700000000000000000000000000000000000000000000008152506103ca565b6040517fd2a4bdfb0000000000000000000000000000000000000000000000000000000081526004016101e6906105a3565b60405180910390fd5b80600160006101000a81548173ffffffffffffffffffffffffffffffffffffffff021916908373ffffffffffffffffffffffffffffffffffffffff160217905550600160009054906101000a900473ffffffffffffffffffffffffffffffffffffffff1673ffffffffffffffffffffffffffffffffffffffff167f7437299f2ef95df7185f14c65d2b599b511d11dba6eeeb1fcde77df97f14321e60405160405180910390a250565b61032e816040516024016102ac91906104cd565b6040516020818303038152906040527f2c2ecbc2000000000000000000000000000000000000000000000000000000007bffffffffffffffffffffffffffffffffffffffffffffffffffffffff19166020820180517bffffffffffffffffffffffffffffffffffffffffffffffffffffffff8381831617835250505050610463565b50565b6103c78160405160240161034591906105de565b6040516020818303038152906040527f32458eed000000000000000000000000000000000000000000000000000000007bffffffffffffffffffffffffffffffffffffffffffffffffffffffff19166020820180517bffffffffffffffffffffffffffffffffffffffffffffffffffffffff8381831617835250505050610463565b50565b610460816040516024016103de9190610681565b6040516020818303038152906040527f41304fac000000000000000000000000000000000000000000000000000000007bffffffffffffffffffffffffffffffffffffffffffffffffffffffff19166020820180517bffffffffffffffffffffffffffffffffffffffffffffffffffffffff8381831617835250505050610463565b50565b60008151905060006a636f6e736f6c652e6c6f679050602083016000808483855afa5050505050565b600073ffffffffffffffffffffffffffffffffffffffff82169050919050565b60006104b78261048c565b9050919050565b6104c7816104ac565b82525050565b60006020820190506104e260008301846104be565b92915050565b600080fd5b6104f6816104ac565b811461050157600080fd5b50565b600081359050610513816104ed565b92915050565b60006020828403121561052f5761052e6104e8565b5b600061053d84828501610504565b91505092915050565b600082825260208201905092915050565b7f4e6f74206120476f7665726e616e636520416464726573730000000000000000600082015250565b600061058d601883610546565b915061059882610557565b602082019050919050565b600060208201905081810360008301526105bc81610580565b9050919050565b60008115159050919050565b6105d8816105c3565b82525050565b60006020820190506105f360008301846105cf565b92915050565b600081519050919050565b60005b83811015610622578082015181840152602081019050610607565b83811115610631576000848401525b50505050565b6000601f19601f8301169050919050565b6000610653826105f9565b61065d8185610546565b935061066d818560208601610604565b61067681610637565b840191505092915050565b6000602082019050818103600083015261069b8184610648565b90509291505056fea2646970667358221220fc8105b68b83035f60cc9580267ee4c2dbf7be1d27de37a2f9d40fd735c3512964736f6c634300080a0033",
  "linkReferences": {},
  "deployedLinkReferences": {}
}