{
  "_format": "hh-sol-artifact-1",
  "contractName": "commonLogic",
  "sourceName": "contracts/Modules/RBOwner.sol",
  "abi": [
    {
      "inputs": [
        {
          "internalType": "string",
          "name": "",
          "type": "string"
        }
      ],
      "name": "UserNotAllowed",
      "type": "error"
    },
    {
      "inputs": [
        {
          "internalType": "address",
          "name": "_treasury",
          "type": "address"
        }
      ],
      "name": "_setTreasuryAddress",
      "outputs": [],
      "stateMutability": "nonpayable",
      "type": "function"
    },
    {
      "inputs": [],
      "name": "governance",
      "outputs": [
        {
          "internalType": "address",
          "name": "",
          "type": "address"
        }
      ],
      "stateMutability": "view",
      "type": "function"
    }
  ],
  "bytecode": "0x608060405234801561001057600080fd5b5061033d806100206000396000f3fe608060405234801561001057600080fd5b50600436106100365760003560e01c80635aa6e6751461003b578063645ac86014610059575b600080fd5b610043610075565b6040516100509190610211565b60405180910390f35b610073600480360381019061006e919061025d565b610099565b005b60008054906101000a900473ffffffffffffffffffffffffffffffffffffffff1681565b60008054906101000a900473ffffffffffffffffffffffffffffffffffffffff1673ffffffffffffffffffffffffffffffffffffffff163373ffffffffffffffffffffffffffffffffffffffff1614610127576040517fd2a4bdfb00000000000000000000000000000000000000000000000000000000815260040161011e906102e7565b60405180910390fd5b80600160006101000a81548173ffffffffffffffffffffffffffffffffffffffff021916908373ffffffffffffffffffffffffffffffffffffffff160217905550600160009054906101000a900473ffffffffffffffffffffffffffffffffffffffff1673ffffffffffffffffffffffffffffffffffffffff167f7437299f2ef95df7185f14c65d2b599b511d11dba6eeeb1fcde77df97f14321e60405160405180910390a250565b600073ffffffffffffffffffffffffffffffffffffffff82169050919050565b60006101fb826101d0565b9050919050565b61020b816101f0565b82525050565b60006020820190506102266000830184610202565b92915050565b600080fd5b61023a816101f0565b811461024557600080fd5b50565b60008135905061025781610231565b92915050565b6000602082840312156102735761027261022c565b5b600061028184828501610248565b91505092915050565b600082825260208201905092915050565b7f4e6f74206120476f7665726e616e636520416464726573730000000000000000600082015250565b60006102d160188361028a565b91506102dc8261029b565b602082019050919050565b60006020820190508181036000830152610300816102c4565b905091905056fea2646970667358221220ccc06132d0c3599a0cde67fd6683db12b57c0d8661787e06ee47043d07b4d31464736f6c634300080a0033",
  "linkReferences": {},
  "deployedLinkReferences": {}
}