{
  "_format": "hh-sol-artifact-1",
  "contractName": "governanceUtil",
  "sourceName": "contracts/Modules/RBOwner.sol",
  "abi": [
    {
      "inputs": [],
      "stateMutability": "nonpayable",
      "type": "constructor"
    },
    {
      "inputs": [
        {
          "internalType": "string",
          "name": "",
          "type": "string"
        }
      ],
      "name": "UserNotAllowed",
      "type": "error"
    },
    {
      "inputs": [
        {
          "internalType": "address",
          "name": "_address",
          "type": "address"
        }
      ],
      "name": "setDaiAddress",
      "outputs": [],
      "stateMutability": "nonpayable",
      "type": "function"
    },
    {
      "inputs": [
        {
          "internalType": "address",
          "name": "_address",
          "type": "address"
        }
      ],
      "name": "setTreasuryAddress",
      "outputs": [],
      "stateMutability": "nonpayable",
      "type": "function"
    }
  ],
  "bytecode": "0x608060405234801561001057600080fd5b5033600260006101000a81548173ffffffffffffffffffffffffffffffffffffffff021916908373ffffffffffffffffffffffffffffffffffffffff16021790555061041d806100616000396000f3fe608060405234801561001057600080fd5b50600436106100365760003560e01c80636605bfda1461003b578063a669359014610057575b600080fd5b6100556004803603810190610050919061033d565b610073565b005b610071600480360381019061006c919061033d565b61010f565b005b600260009054906101000a900473ffffffffffffffffffffffffffffffffffffffff1673ffffffffffffffffffffffffffffffffffffffff163373ffffffffffffffffffffffffffffffffffffffff1614610103576040517fd2a4bdfb0000000000000000000000000000000000000000000000000000000081526004016100fa906103c7565b60405180910390fd5b61010c816101ab565b50565b600260009054906101000a900473ffffffffffffffffffffffffffffffffffffffff1673ffffffffffffffffffffffffffffffffffffffff163373ffffffffffffffffffffffffffffffffffffffff161461019f576040517fd2a4bdfb000000000000000000000000000000000000000000000000000000008152600401610196906103c7565b60405180910390fd5b6101a881610254565b50565b80600160006101000a81548173ffffffffffffffffffffffffffffffffffffffff021916908373ffffffffffffffffffffffffffffffffffffffff160217905550600160009054906101000a900473ffffffffffffffffffffffffffffffffffffffff1673ffffffffffffffffffffffffffffffffffffffff167f7437299f2ef95df7185f14c65d2b599b511d11dba6eeeb1fcde77df97f14321e60405160405180910390a250565b806000806101000a81548173ffffffffffffffffffffffffffffffffffffffff021916908373ffffffffffffffffffffffffffffffffffffffff1602179055508073ffffffffffffffffffffffffffffffffffffffff167f7437299f2ef95df7185f14c65d2b599b511d11dba6eeeb1fcde77df97f14321e60405160405180910390a250565b600080fd5b600073ffffffffffffffffffffffffffffffffffffffff82169050919050565b600061030a826102df565b9050919050565b61031a816102ff565b811461032557600080fd5b50565b60008135905061033781610311565b92915050565b600060208284031215610353576103526102da565b5b600061036184828501610328565b91505092915050565b600082825260208201905092915050565b7f4e6f74206120476f7665726e616e636520416464726573730000000000000000600082015250565b60006103b160188361036a565b91506103bc8261037b565b602082019050919050565b600060208201905081810360008301526103e0816103a4565b905091905056fea2646970667358221220a829e8da47345d4321b426e622becc9e13c7ee775da4a11ab92912ee3eaad44464736f6c634300080a0033",
  "linkReferences": {},
  "deployedLinkReferences": {}
}