{
  "_format": "hh-sol-artifact-1",
  "contractName": "RBOwner",
  "sourceName": "contracts/Modules/RBOwner.sol",
  "abi": [
    {
      "inputs": [
        {
          "internalType": "address",
          "name": "_treasury",
          "type": "address"
        }
      ],
      "stateMutability": "nonpayable",
      "type": "constructor"
    },
    {
      "inputs": [
        {
          "internalType": "string",
          "name": "",
          "type": "string"
        }
      ],
      "name": "UserNotAllowed",
      "type": "error"
    },
    {
      "inputs": [
        {
          "internalType": "address",
          "name": "_treasury",
          "type": "address"
        }
      ],
      "name": "_setTreasuryAddress",
      "outputs": [],
      "stateMutability": "nonpayable",
      "type": "function"
    },
    {
      "inputs": [],
      "name": "governance",
      "outputs": [
        {
          "internalType": "address",
          "name": "",
          "type": "address"
        }
      ],
      "stateMutability": "view",
      "type": "function"
    },
    {
      "inputs": [
        {
          "internalType": "address",
          "name": "_partyA",
          "type": "address"
        },
        {
          "internalType": "address",
          "name": "_partyB",
          "type": "address"
        },
        {
          "internalType": "uint256",
          "name": "_amount",
          "type": "uint256"
        },
        {
          "internalType": "address",
          "name": "_currency",
          "type": "address"
        }
      ],
      "name": "postRBOwner",
      "outputs": [
        {
          "components": [
            {
              "internalType": "address",
              "name": "partyA",
              "type": "address"
            },
            {
              "internalType": "address",
              "name": "partyB",
              "type": "address"
            },
            {
              "internalType": "address",
              "name": "owner",
              "type": "address"
            },
            {
              "internalType": "uint256",
              "name": "resolveAfter",
              "type": "uint256"
            },
            {
              "internalType": "uint256",
              "name": "amount",
              "type": "uint256"
            },
            {
              "internalType": "address",
              "name": "_currency",
              "type": "address"
            },
            {
              "internalType": "bool",
              "name": "resolved",
              "type": "bool"
            },
            {
              "internalType": "enum DataTypes.ResolveTypes",
              "name": "resolvetype",
              "type": "uint8"
            },
            {
              "components": [
                {
                  "internalType": "uint256",
                  "name": "price",
                  "type": "uint256"
                }
              ],
              "internalType": "struct DataTypes.ResolveByOracleConditions",
              "name": "resolveByOracleConditions",
              "type": "tuple"
            },
            {
              "components": [
                {
                  "internalType": "address",
                  "name": "resolver",
                  "type": "address"
                }
              ],
              "internalType": "struct DataTypes.ResolveByOwnerConditions",
              "name": "resolveByOwnerConditions",
              "type": "tuple"
            }
          ],
          "internalType": "struct DataTypes.Post",
          "name": "_post",
          "type": "tuple"
        },
        {
          "internalType": "bytes32",
          "name": "_id",
          "type": "bytes32"
        }
      ],
      "stateMutability": "view",
      "type": "function"
    }
  ],
  "bytecode": "0x608060405234801561001057600080fd5b50604051610fb3380380610fb38339818101604052810190610032919061011c565b336000806101000a81548173ffffffffffffffffffffffffffffffffffffffff021916908373ffffffffffffffffffffffffffffffffffffffff16021790555080600160006101000a81548173ffffffffffffffffffffffffffffffffffffffff021916908373ffffffffffffffffffffffffffffffffffffffff16021790555050610149565b600080fd5b600073ffffffffffffffffffffffffffffffffffffffff82169050919050565b60006100e9826100be565b9050919050565b6100f9816100de565b811461010457600080fd5b50565b600081519050610116816100f0565b92915050565b600060208284031215610132576101316100b9565b5b600061014084828501610107565b91505092915050565b610e5b806101586000396000f3fe608060405234801561001057600080fd5b50600436106100415760003560e01c80635aa6e67514610046578063645ac86014610064578063e3a8e1d214610080575b600080fd5b61004e6100b1565b60405161005b919061089c565b60405180910390f35b61007e600480360381019061007991906108e8565b6100d5565b005b61009a6004803603810190610095919061094b565b6102d4565b6040516100a8929190610b7f565b60405180910390f35b60008054906101000a900473ffffffffffffffffffffffffffffffffffffffff1681565b6100de33610419565b61010760008054906101000a900473ffffffffffffffffffffffffffffffffffffffff16610419565b61015f60008054906101000a900473ffffffffffffffffffffffffffffffffffffffff1673ffffffffffffffffffffffffffffffffffffffff163373ffffffffffffffffffffffffffffffffffffffff1614156104b2565b60008054906101000a900473ffffffffffffffffffffffffffffffffffffffff1673ffffffffffffffffffffffffffffffffffffffff163373ffffffffffffffffffffffffffffffffffffffff161461022b576101f06040518060400160405280600981526020017f726576657274696e67000000000000000000000000000000000000000000000081525061054b565b6040517fd2a4bdfb00000000000000000000000000000000000000000000000000000000815260040161022290610c07565b60405180910390fd5b80600160006101000a81548173ffffffffffffffffffffffffffffffffffffffff021916908373ffffffffffffffffffffffffffffffffffffffff160217905550600160009054906101000a900473ffffffffffffffffffffffffffffffffffffffff1673ffffffffffffffffffffffffffffffffffffffff167f7437299f2ef95df7185f14c65d2b599b511d11dba6eeeb1fcde77df97f14321e60405160405180910390a250565b6102dc610754565b60008383600081905060008173ffffffffffffffffffffffffffffffffffffffff166370a08231336040518263ffffffff1660e01b8152600401610320919061089c565b602060405180830381865afa15801561033d573d6000803e3d6000fd5b505050506040513d601f19601f820116820180604052508101906103619190610c3c565b905060008273ffffffffffffffffffffffffffffffffffffffff1663dd62ed3e33306040518363ffffffff1660e01b81526004016103a0929190610c69565b602060405180830381865afa1580156103bd573d6000803e3d6000fd5b505050506040513d601f19601f820116820180604052508101906103e19190610c3c565b90506103ec816105e4565b6103f5826105e4565b6103ff8b8b61067d565b96506104096106fb565b9550505050505094509492505050565b6104af8160405160240161042d919061089c565b6040516020818303038152906040527f2c2ecbc2000000000000000000000000000000000000000000000000000000007bffffffffffffffffffffffffffffffffffffffffffffffffffffffff19166020820180517bffffffffffffffffffffffffffffffffffffffffffffffffffffffff838183161783525050505061072b565b50565b610548816040516024016104c69190610ca1565b6040516020818303038152906040527f32458eed000000000000000000000000000000000000000000000000000000007bffffffffffffffffffffffffffffffffffffffffffffffffffffffff19166020820180517bffffffffffffffffffffffffffffffffffffffffffffffffffffffff838183161783525050505061072b565b50565b6105e18160405160240161055f9190610d44565b6040516020818303038152906040527f41304fac000000000000000000000000000000000000000000000000000000007bffffffffffffffffffffffffffffffffffffffffffffffffffffffff19166020820180517bffffffffffffffffffffffffffffffffffffffffffffffffffffffff838183161783525050505061072b565b50565b61067a816040516024016105f89190610d75565b6040516020818303038152906040527ff5b1bba9000000000000000000000000000000000000000000000000000000007bffffffffffffffffffffffffffffffffffffffffffffffffffffffff19166020820180517bffffffffffffffffffffffffffffffffffffffffffffffffffffffff838183161783525050505061072b565b50565b610685610754565b82816000019073ffffffffffffffffffffffffffffffffffffffff16908173ffffffffffffffffffffffffffffffffffffffff168152505081816020019073ffffffffffffffffffffffffffffffffffffffff16908173ffffffffffffffffffffffffffffffffffffffff168152505092915050565b60004232604051602001610710929190610df9565b60405160208183030381529060405280519060200120905090565b60008151905060006a636f6e736f6c652e6c6f679050602083016000808483855afa5050505050565b604051806101400160405280600073ffffffffffffffffffffffffffffffffffffffff168152602001600073ffffffffffffffffffffffffffffffffffffffff168152602001600073ffffffffffffffffffffffffffffffffffffffff1681526020016000815260200160008152602001600073ffffffffffffffffffffffffffffffffffffffff168152602001600015158152602001600060018111156107ff576107fe6109eb565b5b815260200161080c61081f565b8152602001610819610832565b81525090565b6040518060200160405280600081525090565b6040518060200160405280600073ffffffffffffffffffffffffffffffffffffffff1681525090565b600073ffffffffffffffffffffffffffffffffffffffff82169050919050565b60006108868261085b565b9050919050565b6108968161087b565b82525050565b60006020820190506108b1600083018461088d565b92915050565b600080fd5b6108c58161087b565b81146108d057600080fd5b50565b6000813590506108e2816108bc565b92915050565b6000602082840312156108fe576108fd6108b7565b5b600061090c848285016108d3565b91505092915050565b6000819050919050565b61092881610915565b811461093357600080fd5b50565b6000813590506109458161091f565b92915050565b60008060008060808587031215610965576109646108b7565b5b6000610973878288016108d3565b9450506020610984878288016108d3565b935050604061099587828801610936565b92505060606109a6878288016108d3565b91505092959194509250565b6109bb8161087b565b82525050565b6109ca81610915565b82525050565b60008115159050919050565b6109e5816109d0565b82525050565b7f4e487b7100000000000000000000000000000000000000000000000000000000600052602160045260246000fd5b60028110610a2b57610a2a6109eb565b5b50565b6000819050610a3c82610a1a565b919050565b6000610a4c82610a2e565b9050919050565b610a5c81610a41565b82525050565b602082016000820151610a7860008501826109c1565b50505050565b602082016000820151610a9460008501826109b2565b50505050565b61014082016000820151610ab160008501826109b2565b506020820151610ac460208501826109b2565b506040820151610ad760408501826109b2565b506060820151610aea60608501826109c1565b506080820151610afd60808501826109c1565b5060a0820151610b1060a08501826109b2565b5060c0820151610b2360c08501826109dc565b5060e0820151610b3660e0850182610a53565b50610100820151610b4b610100850182610a62565b50610120820151610b60610120850182610a7e565b50505050565b6000819050919050565b610b7981610b66565b82525050565b600061016082019050610b956000830185610a9a565b610ba3610140830184610b70565b9392505050565b600082825260208201905092915050565b7f4e6f74206120476f7665726e616e636520416464726573730000000000000000600082015250565b6000610bf1601883610baa565b9150610bfc82610bbb565b602082019050919050565b60006020820190508181036000830152610c2081610be4565b9050919050565b600081519050610c368161091f565b92915050565b600060208284031215610c5257610c516108b7565b5b6000610c6084828501610c27565b91505092915050565b6000604082019050610c7e600083018561088d565b610c8b602083018461088d565b9392505050565b610c9b816109d0565b82525050565b6000602082019050610cb66000830184610c92565b92915050565b600081519050919050565b60005b83811015610ce5578082015181840152602081019050610cca565b83811115610cf4576000848401525b50505050565b6000601f19601f8301169050919050565b6000610d1682610cbc565b610d208185610baa565b9350610d30818560208601610cc7565b610d3981610cfa565b840191505092915050565b60006020820190508181036000830152610d5e8184610d0b565b905092915050565b610d6f81610915565b82525050565b6000602082019050610d8a6000830184610d66565b92915050565b6000819050919050565b610dab610da682610915565b610d90565b82525050565b60008160601b9050919050565b6000610dc982610db1565b9050919050565b6000610ddb82610dbe565b9050919050565b610df3610dee8261087b565b610dd0565b82525050565b6000610e058285610d9a565b602082019150610e158284610de2565b601482019150819050939250505056fea26469706673582212204f4263b847cd3d08432b8edcd88e2bc7833a34553499d631711c0889b5cf3c3264736f6c634300080a0033",
  "linkReferences": {},
  "deployedLinkReferences": {}
}