{
  "_format": "hh-sol-artifact-1",
  "contractName": "RBOwner",
  "sourceName": "contracts/Modules/RBOwner.sol",
  "abi": [
    {
      "inputs": [
        {
          "internalType": "address",
          "name": "_partyA",
          "type": "address"
        },
        {
          "internalType": "address",
          "name": "_partyB",
          "type": "address"
        }
      ],
      "name": "postRBOwner",
      "outputs": [
        {
          "components": [
            {
              "internalType": "address",
              "name": "partyA",
              "type": "address"
            },
            {
              "internalType": "address",
              "name": "partyB",
              "type": "address"
            },
            {
              "internalType": "address",
              "name": "owner",
              "type": "address"
            },
            {
              "internalType": "uint256",
              "name": "resolveAfter",
              "type": "uint256"
            },
            {
              "internalType": "uint256",
              "name": "amount",
              "type": "uint256"
            },
            {
              "internalType": "bool",
              "name": "resolved",
              "type": "bool"
            },
            {
              "internalType": "enum DataTypes.ResolveTypes",
              "name": "resolvetype",
              "type": "uint8"
            },
            {
              "components": [
                {
                  "internalType": "uint256",
                  "name": "price",
                  "type": "uint256"
                }
              ],
              "internalType": "struct DataTypes.ResolveByOracleConditions",
              "name": "resolveByOracleConditions",
              "type": "tuple"
            },
            {
              "components": [
                {
                  "internalType": "address",
                  "name": "resolver",
                  "type": "address"
                }
              ],
              "internalType": "struct DataTypes.ResolveByOwnerConditions",
              "name": "resolveByOwnerConditions",
              "type": "tuple"
            }
          ],
          "internalType": "struct DataTypes.Post",
          "name": "_post",
          "type": "tuple"
        },
        {
          "internalType": "bytes32",
          "name": "_id",
          "type": "bytes32"
        }
      ],
      "stateMutability": "view",
      "type": "function"
    }
  ],
  "bytecode": "0x608060405234801561001057600080fd5b5061057b806100206000396000f3fe608060405234801561001057600080fd5b506004361061002b5760003560e01c80631164e32514610030575b600080fd5b61004a60048036038101906100459190610283565b610061565b604051610058929190610485565b60405180910390f35b610069610136565b60006100758484610088565b915061007f610106565b90509250929050565b610090610136565b82816000019073ffffffffffffffffffffffffffffffffffffffff16908173ffffffffffffffffffffffffffffffffffffffff168152505081816020019073ffffffffffffffffffffffffffffffffffffffff16908173ffffffffffffffffffffffffffffffffffffffff168152505092915050565b6000423260405160200161011b929190610519565b60405160208183030381529060405280519060200120905090565b604051806101200160405280600073ffffffffffffffffffffffffffffffffffffffff168152602001600073ffffffffffffffffffffffffffffffffffffffff168152602001600073ffffffffffffffffffffffffffffffffffffffff1681526020016000815260200160008152602001600015158152602001600060018111156101c4576101c3610306565b5b81526020016101d16101e4565b81526020016101de6101f7565b81525090565b6040518060200160405280600081525090565b6040518060200160405280600073ffffffffffffffffffffffffffffffffffffffff1681525090565b600080fd5b600073ffffffffffffffffffffffffffffffffffffffff82169050919050565b600061025082610225565b9050919050565b61026081610245565b811461026b57600080fd5b50565b60008135905061027d81610257565b92915050565b6000806040838503121561029a57610299610220565b5b60006102a88582860161026e565b92505060206102b98582860161026e565b9150509250929050565b6102cc81610245565b82525050565b6000819050919050565b6102e5816102d2565b82525050565b60008115159050919050565b610300816102eb565b82525050565b7f4e487b7100000000000000000000000000000000000000000000000000000000600052602160045260246000fd5b6002811061034657610345610306565b5b50565b600081905061035782610335565b919050565b600061036782610349565b9050919050565b6103778161035c565b82525050565b60208201600082015161039360008501826102dc565b50505050565b6020820160008201516103af60008501826102c3565b50505050565b610120820160008201516103cc60008501826102c3565b5060208201516103df60208501826102c3565b5060408201516103f260408501826102c3565b50606082015161040560608501826102dc565b50608082015161041860808501826102dc565b5060a082015161042b60a08501826102f7565b5060c082015161043e60c085018261036e565b5060e082015161045160e085018261037d565b50610100820151610466610100850182610399565b50505050565b6000819050919050565b61047f8161046c565b82525050565b60006101408201905061049b60008301856103b5565b6104a9610120830184610476565b9392505050565b6000819050919050565b6104cb6104c6826102d2565b6104b0565b82525050565b60008160601b9050919050565b60006104e9826104d1565b9050919050565b60006104fb826104de565b9050919050565b61051361050e82610245565b6104f0565b82525050565b600061052582856104ba565b6020820191506105358284610502565b601482019150819050939250505056fea264697066735822122065598567736b2f15c5750bf4bf00daac3f8978df7d82cfca1fb6d58f0ac0dc8264736f6c634300080a0033",
  "linkReferences": {},
  "deployedLinkReferences": {}
}