{
  "_format": "hh-sol-artifact-1",
  "contractName": "RBOwner",
  "sourceName": "contracts/Modules/RBOwner.sol",
  "abi": [
    {
      "inputs": [
        {
          "internalType": "address",
          "name": "_partyA",
          "type": "address"
        },
        {
          "internalType": "address",
          "name": "_partyB",
          "type": "address"
        },
        {
          "internalType": "uint256",
          "name": "_amount",
          "type": "uint256"
        }
      ],
      "name": "postRBOwner",
      "outputs": [
        {
          "components": [
            {
              "internalType": "address",
              "name": "partyA",
              "type": "address"
            },
            {
              "internalType": "address",
              "name": "partyB",
              "type": "address"
            },
            {
              "internalType": "address",
              "name": "owner",
              "type": "address"
            },
            {
              "internalType": "uint256",
              "name": "resolveAfter",
              "type": "uint256"
            },
            {
              "internalType": "uint256",
              "name": "amount",
              "type": "uint256"
            },
            {
              "internalType": "bool",
              "name": "resolved",
              "type": "bool"
            },
            {
              "internalType": "enum DataTypes.ResolveTypes",
              "name": "resolvetype",
              "type": "uint8"
            },
            {
              "components": [
                {
                  "internalType": "uint256",
                  "name": "price",
                  "type": "uint256"
                }
              ],
              "internalType": "struct DataTypes.ResolveByOracleConditions",
              "name": "resolveByOracleConditions",
              "type": "tuple"
            },
            {
              "components": [
                {
                  "internalType": "address",
                  "name": "resolver",
                  "type": "address"
                }
              ],
              "internalType": "struct DataTypes.ResolveByOwnerConditions",
              "name": "resolveByOwnerConditions",
              "type": "tuple"
            }
          ],
          "internalType": "struct DataTypes.Post",
          "name": "_post",
          "type": "tuple"
        },
        {
          "internalType": "bytes32",
          "name": "_id",
          "type": "bytes32"
        }
      ],
      "stateMutability": "view",
      "type": "function"
    }
  ],
  "bytecode": "0x608060405234801561001057600080fd5b50610892806100206000396000f3fe608060405234801561001057600080fd5b506004361061002b5760003560e01c80636f84fe8414610030575b600080fd5b61004a600480360381019061004591906104d2565b610061565b6040516100589291906106dd565b60405180910390f35b61006961034f565b60008260008060009054906101000a900473ffffffffffffffffffffffffffffffffffffffff1673ffffffffffffffffffffffffffffffffffffffff166370a08231336040518263ffffffff1660e01b81526004016100c89190610717565b602060405180830381865afa1580156100e5573d6000803e3d6000fd5b505050506040513d601f19601f820116820180604052508101906101099190610747565b905060008060009054906101000a900473ffffffffffffffffffffffffffffffffffffffff1673ffffffffffffffffffffffffffffffffffffffff1663dd62ed3e33306040518363ffffffff1660e01b8152600401610169929190610774565b602060405180830381865afa158015610186573d6000803e3d6000fd5b505050506040513d601f19601f820116820180604052508101906101aa9190610747565b90506101b5816101df565b6101be826101df565b6101c88888610278565b94506101d26102f6565b9350505050935093915050565b610275816040516024016101f391906107ac565b6040516020818303038152906040527ff5b1bba9000000000000000000000000000000000000000000000000000000007bffffffffffffffffffffffffffffffffffffffffffffffffffffffff19166020820180517bffffffffffffffffffffffffffffffffffffffffffffffffffffffff8381831617835250505050610326565b50565b61028061034f565b82816000019073ffffffffffffffffffffffffffffffffffffffff16908173ffffffffffffffffffffffffffffffffffffffff168152505081816020019073ffffffffffffffffffffffffffffffffffffffff16908173ffffffffffffffffffffffffffffffffffffffff168152505092915050565b6000423260405160200161030b929190610830565b60405160208183030381529060405280519060200120905090565b60008151905060006a636f6e736f6c652e6c6f679050602083016000808483855afa5050505050565b604051806101200160405280600073ffffffffffffffffffffffffffffffffffffffff168152602001600073ffffffffffffffffffffffffffffffffffffffff168152602001600073ffffffffffffffffffffffffffffffffffffffff1681526020016000815260200160008152602001600015158152602001600060018111156103dd576103dc61055e565b5b81526020016103ea6103fd565b81526020016103f7610410565b81525090565b6040518060200160405280600081525090565b6040518060200160405280600073ffffffffffffffffffffffffffffffffffffffff1681525090565b600080fd5b600073ffffffffffffffffffffffffffffffffffffffff82169050919050565b60006104698261043e565b9050919050565b6104798161045e565b811461048457600080fd5b50565b60008135905061049681610470565b92915050565b6000819050919050565b6104af8161049c565b81146104ba57600080fd5b50565b6000813590506104cc816104a6565b92915050565b6000806000606084860312156104eb576104ea610439565b5b60006104f986828701610487565b935050602061050a86828701610487565b925050604061051b868287016104bd565b9150509250925092565b61052e8161045e565b82525050565b61053d8161049c565b82525050565b60008115159050919050565b61055881610543565b82525050565b7f4e487b7100000000000000000000000000000000000000000000000000000000600052602160045260246000fd5b6002811061059e5761059d61055e565b5b50565b60008190506105af8261058d565b919050565b60006105bf826105a1565b9050919050565b6105cf816105b4565b82525050565b6020820160008201516105eb6000850182610534565b50505050565b6020820160008201516106076000850182610525565b50505050565b610120820160008201516106246000850182610525565b5060208201516106376020850182610525565b50604082015161064a6040850182610525565b50606082015161065d6060850182610534565b5060808201516106706080850182610534565b5060a082015161068360a085018261054f565b5060c082015161069660c08501826105c6565b5060e08201516106a960e08501826105d5565b506101008201516106be6101008501826105f1565b50505050565b6000819050919050565b6106d7816106c4565b82525050565b6000610140820190506106f3600083018561060d565b6107016101208301846106ce565b9392505050565b6107118161045e565b82525050565b600060208201905061072c6000830184610708565b92915050565b600081519050610741816104a6565b92915050565b60006020828403121561075d5761075c610439565b5b600061076b84828501610732565b91505092915050565b60006040820190506107896000830185610708565b6107966020830184610708565b9392505050565b6107a68161049c565b82525050565b60006020820190506107c1600083018461079d565b92915050565b6000819050919050565b6107e26107dd8261049c565b6107c7565b82525050565b60008160601b9050919050565b6000610800826107e8565b9050919050565b6000610812826107f5565b9050919050565b61082a6108258261045e565b610807565b82525050565b600061083c82856107d1565b60208201915061084c8284610819565b601482019150819050939250505056fea26469706673582212208dec4821d035820ac5d5c59e326193591ae10bdd933b7a06e465261ee62c121f64736f6c634300080a0033",
  "linkReferences": {},
  "deployedLinkReferences": {}
}