{
  "_format": "hh-sol-artifact-1",
  "contractName": "RBOwner",
  "sourceName": "contracts/Modules/RBOwner.sol",
  "abi": [
    {
      "inputs": [
        {
          "internalType": "address",
          "name": "_treasury",
          "type": "address"
        },
        {
          "internalType": "address",
          "name": "_lens",
          "type": "address"
        }
      ],
      "stateMutability": "nonpayable",
      "type": "constructor"
    },
    {
      "inputs": [],
      "name": "NotDispatcher",
      "type": "error"
    },
    {
      "inputs": [],
      "name": "TokenDoesNotExist",
      "type": "error"
    },
    {
      "inputs": [
        {
          "internalType": "string",
          "name": "",
          "type": "string"
        }
      ],
      "name": "UserNotAllowed",
      "type": "error"
    },
    {
      "inputs": [
        {
          "internalType": "uint256",
          "name": "allowance",
          "type": "uint256"
        },
        {
          "internalType": "uint256",
          "name": "required",
          "type": "uint256"
        }
      ],
      "name": "insufficientAllowance",
      "type": "error"
    },
    {
      "inputs": [
        {
          "internalType": "uint256",
          "name": "balance",
          "type": "uint256"
        },
        {
          "internalType": "uint256",
          "name": "required",
          "type": "uint256"
        }
      ],
      "name": "insufficientBalance",
      "type": "error"
    },
    {
      "inputs": [
        {
          "internalType": "address",
          "name": "_treasury",
          "type": "address"
        }
      ],
      "name": "_setTreasuryAddress",
      "outputs": [],
      "stateMutability": "nonpayable",
      "type": "function"
    },
    {
      "inputs": [],
      "name": "governance",
      "outputs": [
        {
          "internalType": "address",
          "name": "",
          "type": "address"
        }
      ],
      "stateMutability": "view",
      "type": "function"
    },
    {
      "inputs": [
        {
          "components": [
            {
              "internalType": "address",
              "name": "partyA",
              "type": "address"
            },
            {
              "internalType": "address",
              "name": "partyB",
              "type": "address"
            },
            {
              "internalType": "address",
              "name": "owner",
              "type": "address"
            },
            {
              "internalType": "uint256",
              "name": "resolveAfter",
              "type": "uint256"
            },
            {
              "internalType": "uint256",
              "name": "automaticallyResolveAfter",
              "type": "uint256"
            },
            {
              "internalType": "uint256",
              "name": "amount",
              "type": "uint256"
            },
            {
              "internalType": "address",
              "name": "currency",
              "type": "address"
            },
            {
              "internalType": "bool",
              "name": "resolved",
              "type": "bool"
            },
            {
              "internalType": "enum DataTypes.ResolveTypes",
              "name": "resolvetype",
              "type": "uint8"
            },
            {
              "components": [
                {
                  "internalType": "uint256",
                  "name": "price",
                  "type": "uint256"
                }
              ],
              "internalType": "struct DataTypes.ResolveByOracleConditions",
              "name": "resolveByOracleConditions",
              "type": "tuple"
            },
            {
              "components": [
                {
                  "internalType": "address",
                  "name": "resolver",
                  "type": "address"
                }
              ],
              "internalType": "struct DataTypes.ResolveByOwnerConditions",
              "name": "resolveByOwnerConditions",
              "type": "tuple"
            },
            {
              "components": [
                {
                  "internalType": "uint256",
                  "name": "profileId",
                  "type": "uint256"
                },
                {
                  "internalType": "uint256",
                  "name": "initialPubId",
                  "type": "uint256"
                },
                {
                  "internalType": "uint256",
                  "name": "resolvingPubId",
                  "type": "uint256"
                }
              ],
              "internalType": "struct DataTypes.LensPostInfo",
              "name": "lensPostInfo",
              "type": "tuple"
            }
          ],
          "internalType": "struct DataTypes.Post",
          "name": "_post",
          "type": "tuple"
        },
        {
          "components": [
            {
              "internalType": "uint256",
              "name": "profileId",
              "type": "uint256"
            },
            {
              "internalType": "string",
              "name": "contentURI",
              "type": "string"
            },
            {
              "internalType": "address",
              "name": "collectModule",
              "type": "address"
            },
            {
              "internalType": "bytes",
              "name": "collectModuleInitData",
              "type": "bytes"
            },
            {
              "internalType": "address",
              "name": "referenceModule",
              "type": "address"
            },
            {
              "internalType": "bytes",
              "name": "referenceModuleInitData",
              "type": "bytes"
            }
          ],
          "internalType": "struct DataTypes.PostData",
          "name": "_lensPost",
          "type": "tuple"
        }
      ],
      "name": "postRBOwner",
      "outputs": [
        {
          "internalType": "bytes32",
          "name": "id",
          "type": "bytes32"
        },
        {
          "internalType": "uint256",
          "name": "initialPubId",
          "type": "uint256"
        }
      ],
      "stateMutability": "nonpayable",
      "type": "function"
    },
    {
      "inputs": [],
      "name": "waitForAutomaticResolution",
      "outputs": [
        {
          "internalType": "uint256",
          "name": "",
          "type": "uint256"
        }
      ],
      "stateMutability": "view",
      "type": "function"
    }
  ],
  "bytecode": "0x60806040523480156200001157600080fd5b50604051620014a4380380620014a4833981810160405281019062000037919062000176565b33600160006101000a81548173ffffffffffffffffffffffffffffffffffffffff021916908373ffffffffffffffffffffffffffffffffffffffff16021790555081600260006101000a81548173ffffffffffffffffffffffffffffffffffffffff021916908373ffffffffffffffffffffffffffffffffffffffff1602179055506301dfe200600381905550806000806101000a81548173ffffffffffffffffffffffffffffffffffffffff021916908373ffffffffffffffffffffffffffffffffffffffff1602179055505050620001bd565b600080fd5b600073ffffffffffffffffffffffffffffffffffffffff82169050919050565b60006200013e8262000111565b9050919050565b620001508162000131565b81146200015c57600080fd5b50565b600081519050620001708162000145565b92915050565b6000806040838503121562000190576200018f6200010c565b5b6000620001a0858286016200015f565b9250506020620001b3858286016200015f565b9150509250929050565b6112d780620001cd6000396000f3fe608060405234801561001057600080fd5b506004361061004c5760003560e01c80635aa6e67514610051578063645ac8601461006f578063d6ff4dcd1461008b578063e2035d0f146100a9575b600080fd5b6100596100da565b6040516100669190610a03565b60405180910390f35b61008960048036038101906100849190610a5e565b610100565b005b610093610239565b6040516100a09190610aa4565b60405180910390f35b6100c360048036038101906100be9190610b03565b61023f565b6040516100d1929190610b7a565b60405180910390f35b600160009054906101000a900473ffffffffffffffffffffffffffffffffffffffff1681565b600160009054906101000a900473ffffffffffffffffffffffffffffffffffffffff1673ffffffffffffffffffffffffffffffffffffffff163373ffffffffffffffffffffffffffffffffffffffff1614610190576040517fd2a4bdfb00000000000000000000000000000000000000000000000000000000815260040161018790610c00565b60405180910390fd5b80600260006101000a81548173ffffffffffffffffffffffffffffffffffffffff021916908373ffffffffffffffffffffffffffffffffffffffff160217905550600260009054906101000a900473ffffffffffffffffffffffffffffffffffffffff1673ffffffffffffffffffffffffffffffffffffffff167f7437299f2ef95df7185f14c65d2b599b511d11dba6eeeb1fcde77df97f14321e60405160405180910390a250565b60035481565b6000808360a001358460c001602081019061025a9190610a5e565b85604001602081019061026d9190610a5e565b600082905060008173ffffffffffffffffffffffffffffffffffffffff1663dd62ed3e84306040518363ffffffff1660e01b81526004016102af929190610c20565b602060405180830381865afa1580156102cc573d6000803e3d6000fd5b505050506040513d601f19601f820116820180604052508101906102f09190610c75565b90506102fb81610648565b848110156103425780856040517f4c250823000000000000000000000000000000000000000000000000000000008152600401610339929190610ca2565b60405180910390fd5b60008273ffffffffffffffffffffffffffffffffffffffff166370a08231856040518263ffffffff1660e01b815260040161037d9190610a03565b602060405180830381865afa15801561039a573d6000803e3d6000fd5b505050506040513d601f19601f820116820180604052508101906103be9190610c75565b9050858110156104075780866040517fc7a28c790000000000000000000000000000000000000000000000000000000081526004016103fe929190610ca2565b60405180910390fd5b886000013560008060009054906101000a900473ffffffffffffffffffffffffffffffffffffffff1673ffffffffffffffffffffffffffffffffffffffff1663ec81d194836040518263ffffffff1660e01b81526004016104689190610aa4565b600060405180830381865afa158015610485573d6000803e3d6000fd5b505050506040513d6000823e3d601f19601f820116820180604052508101906104ae9190610e35565b90506000815114156104ec576040517fceea21b600000000000000000000000000000000000000000000000000000000815260040160405180910390fd5b60008060009054906101000a900473ffffffffffffffffffffffffffffffffffffffff1673ffffffffffffffffffffffffffffffffffffffff1663540528b9846040518263ffffffff1660e01b81526004016105489190610aa4565b602060405180830381865afa158015610565573d6000803e3d6000fd5b505050506040513d601f19601f820116820180604052508101906105899190610e93565b90503073ffffffffffffffffffffffffffffffffffffffff168173ffffffffffffffffffffffffffffffffffffffff16146105f0576040517f957fb99f00000000000000000000000000000000000000000000000000000000815260040160405180910390fd5b6105f86106e1565b9a5061062d8d60a001358e60c00160208101906106159190610a5e565b8f60400160208101906106289190610a5e565b610711565b6106368c6108f3565b99505050505050505050509250929050565b6106de8160405160240161065c9190610aa4565b6040516020818303038152906040527ff5b1bba9000000000000000000000000000000000000000000000000000000007bffffffffffffffffffffffffffffffffffffffffffffffffffffffff19166020820180517bffffffffffffffffffffffffffffffffffffffffffffffffffffffff8381831617835250505050610999565b50565b600042326040516020016106f6929190610f29565b60405160208183030381529060405280519060200120905090565b600082905060008173ffffffffffffffffffffffffffffffffffffffff1663dd62ed3e84600260009054906101000a900473ffffffffffffffffffffffffffffffffffffffff166040518363ffffffff1660e01b8152600401610775929190610c20565b602060405180830381865afa158015610792573d6000803e3d6000fd5b505050506040513d601f19601f820116820180604052508101906107b69190610c75565b90506107c181610648565b60008273ffffffffffffffffffffffffffffffffffffffff166370a08231856040518263ffffffff1660e01b81526004016107fc9190610a03565b602060405180830381865afa158015610819573d6000803e3d6000fd5b505050506040513d601f19601f8201168201806040525081019061083d9190610c75565b905061084881610648565b8273ffffffffffffffffffffffffffffffffffffffff166323b872dd85600260009054906101000a900473ffffffffffffffffffffffffffffffffffffffff16896040518463ffffffff1660e01b81526004016108a793929190610f55565b6020604051808303816000875af11580156108c6573d6000803e3d6000fd5b505050506040513d601f19601f820116820180604052508101906108ea9190610fc4565b50505050505050565b60008060009054906101000a900473ffffffffffffffffffffffffffffffffffffffff1673ffffffffffffffffffffffffffffffffffffffff1663963ff141836040518263ffffffff1660e01b815260040161094f919061127f565b6020604051808303816000875af115801561096e573d6000803e3d6000fd5b505050506040513d601f19601f820116820180604052508101906109929190610c75565b9050919050565b60008151905060006a636f6e736f6c652e6c6f679050602083016000808483855afa5050505050565b600073ffffffffffffffffffffffffffffffffffffffff82169050919050565b60006109ed826109c2565b9050919050565b6109fd816109e2565b82525050565b6000602082019050610a1860008301846109f4565b92915050565b6000604051905090565b600080fd5b600080fd5b610a3b816109e2565b8114610a4657600080fd5b50565b600081359050610a5881610a32565b92915050565b600060208284031215610a7457610a73610a28565b5b6000610a8284828501610a49565b91505092915050565b6000819050919050565b610a9e81610a8b565b82525050565b6000602082019050610ab96000830184610a95565b92915050565b600080fd5b60006101c08284031215610adb57610ada610abf565b5b81905092915050565b600060c08284031215610afa57610af9610abf565b5b81905092915050565b6000806101e08385031215610b1b57610b1a610a28565b5b6000610b2985828601610ac4565b9250506101c083013567ffffffffffffffff811115610b4b57610b4a610a2d565b5b610b5785828601610ae4565b9150509250929050565b6000819050919050565b610b7481610b61565b82525050565b6000604082019050610b8f6000830185610b6b565b610b9c6020830184610a95565b9392505050565b600082825260208201905092915050565b7f4e6f74206120476f7665726e616e636520416464726573730000000000000000600082015250565b6000610bea601883610ba3565b9150610bf582610bb4565b602082019050919050565b60006020820190508181036000830152610c1981610bdd565b9050919050565b6000604082019050610c3560008301856109f4565b610c4260208301846109f4565b9392505050565b610c5281610a8b565b8114610c5d57600080fd5b50565b600081519050610c6f81610c49565b92915050565b600060208284031215610c8b57610c8a610a28565b5b6000610c9984828501610c60565b91505092915050565b6000604082019050610cb76000830185610a95565b610cc46020830184610a95565b9392505050565b600080fd5b600080fd5b6000601f19601f8301169050919050565b7f4e487b7100000000000000000000000000000000000000000000000000000000600052604160045260246000fd5b610d1e82610cd5565b810181811067ffffffffffffffff82111715610d3d57610d3c610ce6565b5b80604052505050565b6000610d50610a1e565b9050610d5c8282610d15565b919050565b600067ffffffffffffffff821115610d7c57610d7b610ce6565b5b610d8582610cd5565b9050602081019050919050565b60005b83811015610db0578082015181840152602081019050610d95565b83811115610dbf576000848401525b50505050565b6000610dd8610dd384610d61565b610d46565b905082815260208101848484011115610df457610df3610cd0565b5b610dff848285610d92565b509392505050565b600082601f830112610e1c57610e1b610ccb565b5b8151610e2c848260208601610dc5565b91505092915050565b600060208284031215610e4b57610e4a610a28565b5b600082015167ffffffffffffffff811115610e6957610e68610a2d565b5b610e7584828501610e07565b91505092915050565b600081519050610e8d81610a32565b92915050565b600060208284031215610ea957610ea8610a28565b5b6000610eb784828501610e7e565b91505092915050565b6000819050919050565b610edb610ed682610a8b565b610ec0565b82525050565b60008160601b9050919050565b6000610ef982610ee1565b9050919050565b6000610f0b82610eee565b9050919050565b610f23610f1e826109e2565b610f00565b82525050565b6000610f358285610eca565b602082019150610f458284610f12565b6014820191508190509392505050565b6000606082019050610f6a60008301866109f4565b610f7760208301856109f4565b610f846040830184610a95565b949350505050565b60008115159050919050565b610fa181610f8c565b8114610fac57600080fd5b50565b600081519050610fbe81610f98565b92915050565b600060208284031215610fda57610fd9610a28565b5b6000610fe884828501610faf565b91505092915050565b60008135905061100081610c49565b92915050565b60006110156020840184610ff1565b905092915050565b61102681610a8b565b82525050565b600080fd5b600080fd5b600080fd5b6000808335600160200384360303811261105857611057611036565b5b83810192508235915060208301925067ffffffffffffffff8211156110805761107f61102c565b5b60018202360384131561109657611095611031565b5b509250929050565b600082825260208201905092915050565b82818337600083830152505050565b60006110ca838561109e565b93506110d78385846110af565b6110e083610cd5565b840190509392505050565b60006110fa6020840184610a49565b905092915050565b61110b816109e2565b82525050565b6000808335600160200384360303811261112e5761112d611036565b5b83810192508235915060208301925067ffffffffffffffff8211156111565761115561102c565b5b60018202360384131561116c5761116b611031565b5b509250929050565b600082825260208201905092915050565b60006111918385611174565b935061119e8385846110af565b6111a783610cd5565b840190509392505050565b600060c083016111c56000840184611006565b6111d2600086018261101d565b506111e0602084018461103b565b85830360208701526111f38382846110be565b9250505061120460408401846110eb565b6112116040860182611102565b5061121f6060840184611111565b8583036060870152611232838284611185565b9250505061124360808401846110eb565b6112506080860182611102565b5061125e60a0840184611111565b85830360a0870152611271838284611185565b925050508091505092915050565b6000602082019050818103600083015261129981846111b2565b90509291505056fea2646970667358221220e8e61c8f2242e98209391a72f8977ccbf27ba088bc9ded3370bd448086d2e29564736f6c634300080a0033",
  "linkReferences": {},
  "deployedLinkReferences": {}
}