{
  "_format": "hh-sol-artifact-1",
  "contractName": "RBOwner",
  "sourceName": "contracts/Modules/RBOwner.sol",
  "abi": [
    {
      "inputs": [
        {
          "internalType": "address",
          "name": "_treasury",
          "type": "address"
        }
      ],
      "stateMutability": "nonpayable",
      "type": "constructor"
    },
    {
      "inputs": [
        {
          "internalType": "string",
          "name": "",
          "type": "string"
        }
      ],
      "name": "UserNotAllowed",
      "type": "error"
    },
    {
      "inputs": [
        {
          "internalType": "uint256",
          "name": "balance",
          "type": "uint256"
        },
        {
          "internalType": "uint256",
          "name": "allowance",
          "type": "uint256"
        },
        {
          "internalType": "uint256",
          "name": "required",
          "type": "uint256"
        }
      ],
      "name": "insufficientAllowance",
      "type": "error"
    },
    {
      "inputs": [
        {
          "internalType": "uint256",
          "name": "balance",
          "type": "uint256"
        },
        {
          "internalType": "uint256",
          "name": "allowance",
          "type": "uint256"
        },
        {
          "internalType": "uint256",
          "name": "required",
          "type": "uint256"
        }
      ],
      "name": "insufficientBalance",
      "type": "error"
    },
    {
      "inputs": [
        {
          "internalType": "address",
          "name": "_treasury",
          "type": "address"
        }
      ],
      "name": "_setTreasuryAddress",
      "outputs": [],
      "stateMutability": "nonpayable",
      "type": "function"
    },
    {
      "inputs": [],
      "name": "governance",
      "outputs": [
        {
          "internalType": "address",
          "name": "",
          "type": "address"
        }
      ],
      "stateMutability": "view",
      "type": "function"
    },
    {
      "inputs": [
        {
          "internalType": "address",
          "name": "_partyA",
          "type": "address"
        },
        {
          "internalType": "address",
          "name": "_partyB",
          "type": "address"
        },
        {
          "internalType": "uint256",
          "name": "_amount",
          "type": "uint256"
        },
        {
          "internalType": "address",
          "name": "_currency",
          "type": "address"
        }
      ],
      "name": "postRBOwner",
      "outputs": [
        {
          "components": [
            {
              "internalType": "address",
              "name": "partyA",
              "type": "address"
            },
            {
              "internalType": "address",
              "name": "partyB",
              "type": "address"
            },
            {
              "internalType": "address",
              "name": "owner",
              "type": "address"
            },
            {
              "internalType": "uint256",
              "name": "resolveAfter",
              "type": "uint256"
            },
            {
              "internalType": "uint256",
              "name": "amount",
              "type": "uint256"
            },
            {
              "internalType": "address",
              "name": "_currency",
              "type": "address"
            },
            {
              "internalType": "bool",
              "name": "resolved",
              "type": "bool"
            },
            {
              "internalType": "enum DataTypes.ResolveTypes",
              "name": "resolvetype",
              "type": "uint8"
            },
            {
              "components": [
                {
                  "internalType": "uint256",
                  "name": "price",
                  "type": "uint256"
                }
              ],
              "internalType": "struct DataTypes.ResolveByOracleConditions",
              "name": "resolveByOracleConditions",
              "type": "tuple"
            },
            {
              "components": [
                {
                  "internalType": "address",
                  "name": "resolver",
                  "type": "address"
                }
              ],
              "internalType": "struct DataTypes.ResolveByOwnerConditions",
              "name": "resolveByOwnerConditions",
              "type": "tuple"
            }
          ],
          "internalType": "struct DataTypes.Post",
          "name": "_post",
          "type": "tuple"
        },
        {
          "internalType": "bytes32",
          "name": "_id",
          "type": "bytes32"
        }
      ],
      "stateMutability": "view",
      "type": "function"
    }
  ],
  "bytecode": "0x608060405234801561001057600080fd5b50604051610f63380380610f638339818101604052810190610032919061011c565b336000806101000a81548173ffffffffffffffffffffffffffffffffffffffff021916908373ffffffffffffffffffffffffffffffffffffffff16021790555080600160006101000a81548173ffffffffffffffffffffffffffffffffffffffff021916908373ffffffffffffffffffffffffffffffffffffffff16021790555050610149565b600080fd5b600073ffffffffffffffffffffffffffffffffffffffff82169050919050565b60006100e9826100be565b9050919050565b6100f9816100de565b811461010457600080fd5b50565b600081519050610116816100f0565b92915050565b600060208284031215610132576101316100b9565b5b600061014084828501610107565b91505092915050565b610e0b806101586000396000f3fe608060405234801561001057600080fd5b50600436106100415760003560e01c80635aa6e67514610046578063645ac86014610064578063e3a8e1d214610080575b600080fd5b61004e6100b1565b60405161005b919061083f565b60405180910390f35b61007e6004803603810190610079919061088b565b6100d5565b005b61009a600480360381019061009591906108ee565b61020c565b6040516100a8929190610b22565b60405180910390f35b60008054906101000a900473ffffffffffffffffffffffffffffffffffffffff1681565b60008054906101000a900473ffffffffffffffffffffffffffffffffffffffff1673ffffffffffffffffffffffffffffffffffffffff163373ffffffffffffffffffffffffffffffffffffffff1614610163576040517fd2a4bdfb00000000000000000000000000000000000000000000000000000000815260040161015a90610baa565b60405180910390fd5b80600160006101000a81548173ffffffffffffffffffffffffffffffffffffffff021916908373ffffffffffffffffffffffffffffffffffffffff160217905550600160009054906101000a900473ffffffffffffffffffffffffffffffffffffffff1673ffffffffffffffffffffffffffffffffffffffff167f7437299f2ef95df7185f14c65d2b599b511d11dba6eeeb1fcde77df97f14321e60405160405180910390a250565b6102146106f7565b60008383600081905060008173ffffffffffffffffffffffffffffffffffffffff166370a08231326040518263ffffffff1660e01b8152600401610258919061083f565b602060405180830381865afa158015610275573d6000803e3d6000fd5b505050506040513d601f19601f820116820180604052508101906102999190610bdf565b905060008273ffffffffffffffffffffffffffffffffffffffff1663dd62ed3e32600160009054906101000a900473ffffffffffffffffffffffffffffffffffffffff166040518363ffffffff1660e01b81526004016102fa929190610c0c565b602060405180830381865afa158015610317573d6000803e3d6000fd5b505050506040513d601f19601f8201168201806040525081019061033b9190610bdf565b905061034681610455565b61034f82610455565b84811015610398578181866040517f6f4a11db00000000000000000000000000000000000000000000000000000000815260040161038f93929190610c44565b60405180910390fd5b848210156103e1578181866040517f103b182a0000000000000000000000000000000000000000000000000000000081526004016103d893929190610c44565b60405180910390fd5b61041f6040518060400160405280600f81526020017f43616c6c696e672066726f6d20524200000000000000000000000000000000008152506104ee565b61042833610587565b61043132610587565b61043b8b8b610620565b965061044561069e565b9550505050505094509492505050565b6104eb816040516024016104699190610c7b565b6040516020818303038152906040527ff5b1bba9000000000000000000000000000000000000000000000000000000007bffffffffffffffffffffffffffffffffffffffffffffffffffffffff19166020820180517bffffffffffffffffffffffffffffffffffffffffffffffffffffffff83818316178352505050506106ce565b50565b610584816040516024016105029190610d1e565b6040516020818303038152906040527f41304fac000000000000000000000000000000000000000000000000000000007bffffffffffffffffffffffffffffffffffffffffffffffffffffffff19166020820180517bffffffffffffffffffffffffffffffffffffffffffffffffffffffff83818316178352505050506106ce565b50565b61061d8160405160240161059b919061083f565b6040516020818303038152906040527f2c2ecbc2000000000000000000000000000000000000000000000000000000007bffffffffffffffffffffffffffffffffffffffffffffffffffffffff19166020820180517bffffffffffffffffffffffffffffffffffffffffffffffffffffffff83818316178352505050506106ce565b50565b6106286106f7565b82816000019073ffffffffffffffffffffffffffffffffffffffff16908173ffffffffffffffffffffffffffffffffffffffff168152505081816020019073ffffffffffffffffffffffffffffffffffffffff16908173ffffffffffffffffffffffffffffffffffffffff168152505092915050565b600042326040516020016106b3929190610da9565b60405160208183030381529060405280519060200120905090565b60008151905060006a636f6e736f6c652e6c6f679050602083016000808483855afa5050505050565b604051806101400160405280600073ffffffffffffffffffffffffffffffffffffffff168152602001600073ffffffffffffffffffffffffffffffffffffffff168152602001600073ffffffffffffffffffffffffffffffffffffffff1681526020016000815260200160008152602001600073ffffffffffffffffffffffffffffffffffffffff168152602001600015158152602001600060018111156107a2576107a161098e565b5b81526020016107af6107c2565b81526020016107bc6107d5565b81525090565b6040518060200160405280600081525090565b6040518060200160405280600073ffffffffffffffffffffffffffffffffffffffff1681525090565b600073ffffffffffffffffffffffffffffffffffffffff82169050919050565b6000610829826107fe565b9050919050565b6108398161081e565b82525050565b60006020820190506108546000830184610830565b92915050565b600080fd5b6108688161081e565b811461087357600080fd5b50565b6000813590506108858161085f565b92915050565b6000602082840312156108a1576108a061085a565b5b60006108af84828501610876565b91505092915050565b6000819050919050565b6108cb816108b8565b81146108d657600080fd5b50565b6000813590506108e8816108c2565b92915050565b600080600080608085870312156109085761090761085a565b5b600061091687828801610876565b945050602061092787828801610876565b9350506040610938878288016108d9565b925050606061094987828801610876565b91505092959194509250565b61095e8161081e565b82525050565b61096d816108b8565b82525050565b60008115159050919050565b61098881610973565b82525050565b7f4e487b7100000000000000000000000000000000000000000000000000000000600052602160045260246000fd5b600281106109ce576109cd61098e565b5b50565b60008190506109df826109bd565b919050565b60006109ef826109d1565b9050919050565b6109ff816109e4565b82525050565b602082016000820151610a1b6000850182610964565b50505050565b602082016000820151610a376000850182610955565b50505050565b61014082016000820151610a546000850182610955565b506020820151610a676020850182610955565b506040820151610a7a6040850182610955565b506060820151610a8d6060850182610964565b506080820151610aa06080850182610964565b5060a0820151610ab360a0850182610955565b5060c0820151610ac660c085018261097f565b5060e0820151610ad960e08501826109f6565b50610100820151610aee610100850182610a05565b50610120820151610b03610120850182610a21565b50505050565b6000819050919050565b610b1c81610b09565b82525050565b600061016082019050610b386000830185610a3d565b610b46610140830184610b13565b9392505050565b600082825260208201905092915050565b7f4e6f74206120476f7665726e616e636520416464726573730000000000000000600082015250565b6000610b94601883610b4d565b9150610b9f82610b5e565b602082019050919050565b60006020820190508181036000830152610bc381610b87565b9050919050565b600081519050610bd9816108c2565b92915050565b600060208284031215610bf557610bf461085a565b5b6000610c0384828501610bca565b91505092915050565b6000604082019050610c216000830185610830565b610c2e6020830184610830565b9392505050565b610c3e816108b8565b82525050565b6000606082019050610c596000830186610c35565b610c666020830185610c35565b610c736040830184610c35565b949350505050565b6000602082019050610c906000830184610c35565b92915050565b600081519050919050565b60005b83811015610cbf578082015181840152602081019050610ca4565b83811115610cce576000848401525b50505050565b6000601f19601f8301169050919050565b6000610cf082610c96565b610cfa8185610b4d565b9350610d0a818560208601610ca1565b610d1381610cd4565b840191505092915050565b60006020820190508181036000830152610d388184610ce5565b905092915050565b6000819050919050565b610d5b610d56826108b8565b610d40565b82525050565b60008160601b9050919050565b6000610d7982610d61565b9050919050565b6000610d8b82610d6e565b9050919050565b610da3610d9e8261081e565b610d80565b82525050565b6000610db58285610d4a565b602082019150610dc58284610d92565b601482019150819050939250505056fea2646970667358221220c23e58a5363f1840b470eb961526f69c084744bdbb15f878a2810953f235479d64736f6c634300080a0033",
  "linkReferences": {},
  "deployedLinkReferences": {}
}