{
  "_format": "hh-sol-artifact-1",
  "contractName": "RBOwner",
  "sourceName": "contracts/Modules/RBOwner.sol",
  "abi": [
    {
      "inputs": [
        {
          "internalType": "address",
          "name": "_treasury",
          "type": "address"
        }
      ],
      "stateMutability": "nonpayable",
      "type": "constructor"
    },
    {
      "inputs": [
        {
          "internalType": "string",
          "name": "",
          "type": "string"
        }
      ],
      "name": "UserNotAllowed",
      "type": "error"
    },
    {
      "inputs": [
        {
          "internalType": "uint256",
          "name": "allowance",
          "type": "uint256"
        },
        {
          "internalType": "uint256",
          "name": "required",
          "type": "uint256"
        }
      ],
      "name": "insufficientAllowance",
      "type": "error"
    },
    {
      "inputs": [
        {
          "internalType": "uint256",
          "name": "balance",
          "type": "uint256"
        },
        {
          "internalType": "uint256",
          "name": "required",
          "type": "uint256"
        }
      ],
      "name": "insufficientBalance",
      "type": "error"
    },
    {
      "inputs": [
        {
          "internalType": "address",
          "name": "_treasury",
          "type": "address"
        }
      ],
      "name": "_setTreasuryAddress",
      "outputs": [],
      "stateMutability": "nonpayable",
      "type": "function"
    },
    {
      "inputs": [],
      "name": "governance",
      "outputs": [
        {
          "internalType": "address",
          "name": "",
          "type": "address"
        }
      ],
      "stateMutability": "view",
      "type": "function"
    },
    {
      "inputs": [
        {
          "internalType": "address",
          "name": "_partyA",
          "type": "address"
        },
        {
          "internalType": "address",
          "name": "_partyB",
          "type": "address"
        },
        {
          "internalType": "address",
          "name": "_owner",
          "type": "address"
        },
        {
          "internalType": "uint256",
          "name": "_amount",
          "type": "uint256"
        },
        {
          "internalType": "address",
          "name": "_currency",
          "type": "address"
        },
        {
          "internalType": "uint256",
          "name": "_waitSeconds",
          "type": "uint256"
        }
      ],
      "name": "postRBOwner",
      "outputs": [
        {
          "components": [
            {
              "internalType": "address",
              "name": "partyA",
              "type": "address"
            },
            {
              "internalType": "address",
              "name": "partyB",
              "type": "address"
            },
            {
              "internalType": "address",
              "name": "owner",
              "type": "address"
            },
            {
              "internalType": "uint256",
              "name": "resolveAfter",
              "type": "uint256"
            },
            {
              "internalType": "uint256",
              "name": "automaticallyResolveAfter",
              "type": "uint256"
            },
            {
              "internalType": "uint256",
              "name": "amount",
              "type": "uint256"
            },
            {
              "internalType": "address",
              "name": "_currency",
              "type": "address"
            },
            {
              "internalType": "bool",
              "name": "resolved",
              "type": "bool"
            },
            {
              "internalType": "enum DataTypes.ResolveTypes",
              "name": "resolvetype",
              "type": "uint8"
            },
            {
              "components": [
                {
                  "internalType": "uint256",
                  "name": "price",
                  "type": "uint256"
                }
              ],
              "internalType": "struct DataTypes.ResolveByOracleConditions",
              "name": "resolveByOracleConditions",
              "type": "tuple"
            },
            {
              "components": [
                {
                  "internalType": "address",
                  "name": "resolver",
                  "type": "address"
                }
              ],
              "internalType": "struct DataTypes.ResolveByOwnerConditions",
              "name": "resolveByOwnerConditions",
              "type": "tuple"
            }
          ],
          "internalType": "struct DataTypes.Post",
          "name": "_post",
          "type": "tuple"
        },
        {
          "internalType": "bytes32",
          "name": "_id",
          "type": "bytes32"
        }
      ],
      "stateMutability": "nonpayable",
      "type": "function"
    },
    {
      "inputs": [],
      "name": "waitForAutomaticResolution",
      "outputs": [
        {
          "internalType": "uint256",
          "name": "",
          "type": "uint256"
        }
      ],
      "stateMutability": "view",
      "type": "function"
    }
  ],
  "bytecode": "0x60806040523480156200001157600080fd5b506040516200115238038062001152833981810160405281019062000037919062000134565b336000806101000a81548173ffffffffffffffffffffffffffffffffffffffff021916908373ffffffffffffffffffffffffffffffffffffffff16021790555080600160006101000a81548173ffffffffffffffffffffffffffffffffffffffff021916908373ffffffffffffffffffffffffffffffffffffffff1602179055506301dfe2006002819055505062000166565b600080fd5b600073ffffffffffffffffffffffffffffffffffffffff82169050919050565b6000620000fc82620000cf565b9050919050565b6200010e81620000ef565b81146200011a57600080fd5b50565b6000815190506200012e8162000103565b92915050565b6000602082840312156200014d576200014c620000ca565b5b60006200015d848285016200011d565b91505092915050565b610fdc80620001766000396000f3fe608060405234801561001057600080fd5b506004361061004c5760003560e01c80634b6b7bcc146100515780635aa6e67514610082578063645ac860146100a0578063d6ff4dcd146100bc575b600080fd5b61006b600480360381019061006691906109d0565b6100da565b604051610079929190610c3f565b60405180910390f35b61008a6102c7565b6040516100979190610c79565b60405180910390f35b6100ba60048036038101906100b59190610c94565b6102eb565b005b6100c4610422565b6040516100d19190610cd0565b60405180910390f35b6100e2610829565b6000848487600082905060008173ffffffffffffffffffffffffffffffffffffffff1663dd62ed3e84306040518363ffffffff1660e01b8152600401610129929190610ceb565b602060405180830381865afa158015610146573d6000803e3d6000fd5b505050506040513d601f19601f8201168201806040525081019061016a9190610d29565b905061017581610428565b848110156101bc5780856040517f4c2508230000000000000000000000000000000000000000000000000000000081526004016101b3929190610d56565b60405180910390fd5b60008273ffffffffffffffffffffffffffffffffffffffff166370a08231856040518263ffffffff1660e01b81526004016101f79190610c79565b602060405180830381865afa158015610214573d6000803e3d6000fd5b505050506040513d601f19601f820116820180604052508101906102389190610d29565b9050858110156102815780866040517fc7a28c79000000000000000000000000000000000000000000000000000000008152600401610278929190610d56565b60405180910390fd5b61028d8e8e8e8c6104c1565b97506102988c6105a9565b8861014001819052506102a96105ee565b96506102b68b8b8e61061e565b505050505050965096945050505050565b60008054906101000a900473ffffffffffffffffffffffffffffffffffffffff1681565b60008054906101000a900473ffffffffffffffffffffffffffffffffffffffff1673ffffffffffffffffffffffffffffffffffffffff163373ffffffffffffffffffffffffffffffffffffffff1614610379576040517fd2a4bdfb00000000000000000000000000000000000000000000000000000000815260040161037090610ddc565b60405180910390fd5b80600160006101000a81548173ffffffffffffffffffffffffffffffffffffffff021916908373ffffffffffffffffffffffffffffffffffffffff160217905550600160009054906101000a900473ffffffffffffffffffffffffffffffffffffffff1673ffffffffffffffffffffffffffffffffffffffff167f7437299f2ef95df7185f14c65d2b599b511d11dba6eeeb1fcde77df97f14321e60405160405180910390a250565b60025481565b6104be8160405160240161043c9190610cd0565b6040516020818303038152906040527ff5b1bba9000000000000000000000000000000000000000000000000000000007bffffffffffffffffffffffffffffffffffffffffffffffffffffffff19166020820180517bffffffffffffffffffffffffffffffffffffffffffffffffffffffff8381831617835250505050610800565b50565b6104c9610829565b84816000019073ffffffffffffffffffffffffffffffffffffffff16908173ffffffffffffffffffffffffffffffffffffffff168152505083816020019073ffffffffffffffffffffffffffffffffffffffff16908173ffffffffffffffffffffffffffffffffffffffff168152505082816040019073ffffffffffffffffffffffffffffffffffffffff16908173ffffffffffffffffffffffffffffffffffffffff1681525050814261057d9190610e2b565b81606001818152505060025481606001516105989190610e2b565b816080018181525050949350505050565b6105b16108fb565b81816000019073ffffffffffffffffffffffffffffffffffffffff16908173ffffffffffffffffffffffffffffffffffffffff1681525050919050565b60004232604051602001610603929190610eea565b60405160208183030381529060405280519060200120905090565b600082905060008173ffffffffffffffffffffffffffffffffffffffff1663dd62ed3e84600160009054906101000a900473ffffffffffffffffffffffffffffffffffffffff166040518363ffffffff1660e01b8152600401610682929190610ceb565b602060405180830381865afa15801561069f573d6000803e3d6000fd5b505050506040513d601f19601f820116820180604052508101906106c39190610d29565b90506106ce81610428565b60008273ffffffffffffffffffffffffffffffffffffffff166370a08231856040518263ffffffff1660e01b81526004016107099190610c79565b602060405180830381865afa158015610726573d6000803e3d6000fd5b505050506040513d601f19601f8201168201806040525081019061074a9190610d29565b905061075581610428565b8273ffffffffffffffffffffffffffffffffffffffff166323b872dd85600160009054906101000a900473ffffffffffffffffffffffffffffffffffffffff16896040518463ffffffff1660e01b81526004016107b493929190610f16565b6020604051808303816000875af11580156107d3573d6000803e3d6000fd5b505050506040513d601f19601f820116820180604052508101906107f79190610f79565b50505050505050565b60008151905060006a636f6e736f6c652e6c6f679050602083016000808483855afa5050505050565b604051806101600160405280600073ffffffffffffffffffffffffffffffffffffffff168152602001600073ffffffffffffffffffffffffffffffffffffffff168152602001600073ffffffffffffffffffffffffffffffffffffffff168152602001600081526020016000815260200160008152602001600073ffffffffffffffffffffffffffffffffffffffff168152602001600015158152602001600060018111156108db576108da610a96565b5b81526020016108e8610924565b81526020016108f56108fb565b81525090565b6040518060200160405280600073ffffffffffffffffffffffffffffffffffffffff1681525090565b6040518060200160405280600081525090565b600080fd5b600073ffffffffffffffffffffffffffffffffffffffff82169050919050565b60006109678261093c565b9050919050565b6109778161095c565b811461098257600080fd5b50565b6000813590506109948161096e565b92915050565b6000819050919050565b6109ad8161099a565b81146109b857600080fd5b50565b6000813590506109ca816109a4565b92915050565b60008060008060008060c087890312156109ed576109ec610937565b5b60006109fb89828a01610985565b9650506020610a0c89828a01610985565b9550506040610a1d89828a01610985565b9450506060610a2e89828a016109bb565b9350506080610a3f89828a01610985565b92505060a0610a5089828a016109bb565b9150509295509295509295565b610a668161095c565b82525050565b610a758161099a565b82525050565b60008115159050919050565b610a9081610a7b565b82525050565b7f4e487b7100000000000000000000000000000000000000000000000000000000600052602160045260246000fd5b60028110610ad657610ad5610a96565b5b50565b6000819050610ae782610ac5565b919050565b6000610af782610ad9565b9050919050565b610b0781610aec565b82525050565b602082016000820151610b236000850182610a6c565b50505050565b602082016000820151610b3f6000850182610a5d565b50505050565b61016082016000820151610b5c6000850182610a5d565b506020820151610b6f6020850182610a5d565b506040820151610b826040850182610a5d565b506060820151610b956060850182610a6c565b506080820151610ba86080850182610a6c565b5060a0820151610bbb60a0850182610a6c565b5060c0820151610bce60c0850182610a5d565b5060e0820151610be160e0850182610a87565b50610100820151610bf6610100850182610afe565b50610120820151610c0b610120850182610b0d565b50610140820151610c20610140850182610b29565b50505050565b6000819050919050565b610c3981610c26565b82525050565b600061018082019050610c556000830185610b45565b610c63610160830184610c30565b9392505050565b610c738161095c565b82525050565b6000602082019050610c8e6000830184610c6a565b92915050565b600060208284031215610caa57610ca9610937565b5b6000610cb884828501610985565b91505092915050565b610cca8161099a565b82525050565b6000602082019050610ce56000830184610cc1565b92915050565b6000604082019050610d006000830185610c6a565b610d0d6020830184610c6a565b9392505050565b600081519050610d23816109a4565b92915050565b600060208284031215610d3f57610d3e610937565b5b6000610d4d84828501610d14565b91505092915050565b6000604082019050610d6b6000830185610cc1565b610d786020830184610cc1565b9392505050565b600082825260208201905092915050565b7f4e6f74206120476f7665726e616e636520416464726573730000000000000000600082015250565b6000610dc6601883610d7f565b9150610dd182610d90565b602082019050919050565b60006020820190508181036000830152610df581610db9565b9050919050565b7f4e487b7100000000000000000000000000000000000000000000000000000000600052601160045260246000fd5b6000610e368261099a565b9150610e418361099a565b9250827fffffffffffffffffffffffffffffffffffffffffffffffffffffffffffffffff03821115610e7657610e75610dfc565b5b828201905092915050565b6000819050919050565b610e9c610e978261099a565b610e81565b82525050565b60008160601b9050919050565b6000610eba82610ea2565b9050919050565b6000610ecc82610eaf565b9050919050565b610ee4610edf8261095c565b610ec1565b82525050565b6000610ef68285610e8b565b602082019150610f068284610ed3565b6014820191508190509392505050565b6000606082019050610f2b6000830186610c6a565b610f386020830185610c6a565b610f456040830184610cc1565b949350505050565b610f5681610a7b565b8114610f6157600080fd5b50565b600081519050610f7381610f4d565b92915050565b600060208284031215610f8f57610f8e610937565b5b6000610f9d84828501610f64565b9150509291505056fea264697066735822122099677df002eb3054c81ce1d516fadf91dd50f72c555471d252ec498b4b7201ff64736f6c634300080a0033",
  "linkReferences": {},
  "deployedLinkReferences": {}
}