{
  "_format": "hh-sol-artifact-1",
  "contractName": "RBOwner",
  "sourceName": "contracts/Modules/RBOwner.sol",
  "abi": [
    {
      "inputs": [
        {
          "internalType": "address",
          "name": "_partyA",
          "type": "address"
        },
        {
          "internalType": "address",
          "name": "_partyB",
          "type": "address"
        }
      ],
      "name": "postRBOwner",
      "outputs": [
        {
          "components": [
            {
              "internalType": "address",
              "name": "partyA",
              "type": "address"
            },
            {
              "internalType": "address",
              "name": "partyB",
              "type": "address"
            },
            {
              "internalType": "address",
              "name": "owner",
              "type": "address"
            },
            {
              "internalType": "uint256",
              "name": "timestamp",
              "type": "uint256"
            },
            {
              "internalType": "enum DataTypes.ResolveTypes",
              "name": "resolvetype",
              "type": "uint8"
            },
            {
              "components": [
                {
                  "internalType": "uint256",
                  "name": "price",
                  "type": "uint256"
                }
              ],
              "internalType": "struct DataTypes.ResolveByOracleConditions",
              "name": "resolveByOracleConditions",
              "type": "tuple"
            },
            {
              "components": [
                {
                  "internalType": "string",
                  "name": "price",
                  "type": "string"
                }
              ],
              "internalType": "struct DataTypes.ResolveByOwnerConditions",
              "name": "resolveByOwnerConditions",
              "type": "tuple"
            }
          ],
          "internalType": "struct DataTypes.Post",
          "name": "_post",
          "type": "tuple"
        },
        {
          "internalType": "bytes32",
          "name": "_id",
          "type": "bytes32"
        }
      ],
      "stateMutability": "nonpayable",
      "type": "function"
    }
  ],
  "bytecode": "0x608060405234801561001057600080fd5b506107f8806100206000396000f3fe608060405234801561001057600080fd5b506004361061002b5760003560e01c80631164e32514610030575b600080fd5b61004a60048036038101906100459190610403565b610061565b604051610058929190610676565b60405180910390f35b6100696102dd565b60006100758484610092565b915061007f610110565b905061008b8282610140565b9250929050565b61009a6102dd565b82816000019073ffffffffffffffffffffffffffffffffffffffff16908173ffffffffffffffffffffffffffffffffffffffff168152505081816020019073ffffffffffffffffffffffffffffffffffffffff16908173ffffffffffffffffffffffffffffffffffffffff168152505092915050565b6000423260405160200161012592919061070f565b60405160208183030381529060405280519060200120905090565b61017e6040518060400160405280600a81526020017f6166746572706f7374310000000000000000000000000000000000000000000081525061021b565b816020015173ffffffffffffffffffffffffffffffffffffffff16826000015173ffffffffffffffffffffffffffffffffffffffff167fd45bb59a90dd54277795b6932c18e671ec7a5de7f471deddbaa5e3aa26248b3960405160405180910390a37faf15bed1cac92d3f0429bfb6e9fd1868cc467abf51cfdc1a0ed46e1a29e972c28160405161020f919061073b565b60405180910390a15050565b6102b18160405160240161022f91906107a0565b6040516020818303038152906040527f41304fac000000000000000000000000000000000000000000000000000000007bffffffffffffffffffffffffffffffffffffffffffffffffffffffff19166020820180517bffffffffffffffffffffffffffffffffffffffffffffffffffffffff83818316178352505050506102b4565b50565b60008151905060006a636f6e736f6c652e6c6f679050602083016000808483855afa5050505050565b6040518060e00160405280600073ffffffffffffffffffffffffffffffffffffffff168152602001600073ffffffffffffffffffffffffffffffffffffffff168152602001600073ffffffffffffffffffffffffffffffffffffffff168152602001600081526020016000600181111561035a5761035961046b565b5b815260200161036761037a565b815260200161037461038d565b81525090565b6040518060200160405280600081525090565b6040518060200160405280606081525090565b600080fd5b600073ffffffffffffffffffffffffffffffffffffffff82169050919050565b60006103d0826103a5565b9050919050565b6103e0816103c5565b81146103eb57600080fd5b50565b6000813590506103fd816103d7565b92915050565b6000806040838503121561041a576104196103a0565b5b6000610428858286016103ee565b9250506020610439858286016103ee565b9150509250929050565b61044c816103c5565b82525050565b6000819050919050565b61046581610452565b82525050565b7f4e487b7100000000000000000000000000000000000000000000000000000000600052602160045260246000fd5b600281106104ab576104aa61046b565b5b50565b60008190506104bc8261049a565b919050565b60006104cc826104ae565b9050919050565b6104dc816104c1565b82525050565b6020820160008201516104f8600085018261045c565b50505050565b600081519050919050565b600082825260208201905092915050565b60005b8381101561053857808201518184015260208101905061051d565b83811115610547576000848401525b50505050565b6000601f19601f8301169050919050565b6000610569826104fe565b6105738185610509565b935061058381856020860161051a565b61058c8161054d565b840191505092915050565b600060208301600083015184820360008601526105b4828261055e565b9150508091505092915050565b600060e0830160008301516105d96000860182610443565b5060208301516105ec6020860182610443565b5060408301516105ff6040860182610443565b506060830151610612606086018261045c565b50608083015161062560808601826104d3565b5060a083015161063860a08601826104e2565b5060c083015184820360c08601526106508282610597565b9150508091505092915050565b6000819050919050565b6106708161065d565b82525050565b6000604082019050818103600083015261069081856105c1565b905061069f6020830184610667565b9392505050565b6000819050919050565b6106c16106bc82610452565b6106a6565b82525050565b60008160601b9050919050565b60006106df826106c7565b9050919050565b60006106f1826106d4565b9050919050565b610709610704826103c5565b6106e6565b82525050565b600061071b82856106b0565b60208201915061072b82846106f8565b6014820191508190509392505050565b60006020820190506107506000830184610667565b92915050565b600082825260208201905092915050565b6000610772826104fe565b61077c8185610756565b935061078c81856020860161051a565b6107958161054d565b840191505092915050565b600060208201905081810360008301526107ba8184610767565b90509291505056fea2646970667358221220c1629e58ed4245d4661703a4cdea43bc6c1c0cb5746cbd683abf2f18ca7ad22b64736f6c634300080a0033",
  "linkReferences": {},
  "deployedLinkReferences": {}
}