{
  "_format": "hh-sol-artifact-1",
  "contractName": "RBOwner",
  "sourceName": "contracts/Modules/RBOwner.sol",
  "abi": [
    {
      "inputs": [
        {
          "internalType": "address",
          "name": "_treasury",
          "type": "address"
        },
        {
          "internalType": "address",
          "name": "_lens",
          "type": "address"
        }
      ],
      "stateMutability": "nonpayable",
      "type": "constructor"
    },
    {
      "inputs": [
        {
          "internalType": "string",
          "name": "",
          "type": "string"
        }
      ],
      "name": "UserNotAllowed",
      "type": "error"
    },
    {
      "inputs": [
        {
          "internalType": "uint256",
          "name": "allowance",
          "type": "uint256"
        },
        {
          "internalType": "uint256",
          "name": "required",
          "type": "uint256"
        }
      ],
      "name": "insufficientAllowance",
      "type": "error"
    },
    {
      "inputs": [
        {
          "internalType": "uint256",
          "name": "balance",
          "type": "uint256"
        },
        {
          "internalType": "uint256",
          "name": "required",
          "type": "uint256"
        }
      ],
      "name": "insufficientBalance",
      "type": "error"
    },
    {
      "inputs": [
        {
          "internalType": "address",
          "name": "_treasury",
          "type": "address"
        }
      ],
      "name": "_setTreasuryAddress",
      "outputs": [],
      "stateMutability": "nonpayable",
      "type": "function"
    },
    {
      "inputs": [],
      "name": "governance",
      "outputs": [
        {
          "internalType": "address",
          "name": "",
          "type": "address"
        }
      ],
      "stateMutability": "view",
      "type": "function"
    },
    {
      "inputs": [
        {
          "internalType": "address",
          "name": "_partyA",
          "type": "address"
        },
        {
          "internalType": "address",
          "name": "_partyB",
          "type": "address"
        },
        {
          "internalType": "address",
          "name": "_owner",
          "type": "address"
        },
        {
          "internalType": "uint256",
          "name": "_amount",
          "type": "uint256"
        },
        {
          "internalType": "address",
          "name": "_currency",
          "type": "address"
        },
        {
          "internalType": "uint256",
          "name": "_waitSeconds",
          "type": "uint256"
        }
      ],
      "name": "postRBOwner",
      "outputs": [
        {
          "components": [
            {
              "internalType": "address",
              "name": "partyA",
              "type": "address"
            },
            {
              "internalType": "address",
              "name": "partyB",
              "type": "address"
            },
            {
              "internalType": "address",
              "name": "owner",
              "type": "address"
            },
            {
              "internalType": "uint256",
              "name": "resolveAfter",
              "type": "uint256"
            },
            {
              "internalType": "uint256",
              "name": "automaticallyResolveAfter",
              "type": "uint256"
            },
            {
              "internalType": "uint256",
              "name": "amount",
              "type": "uint256"
            },
            {
              "internalType": "address",
              "name": "_currency",
              "type": "address"
            },
            {
              "internalType": "bool",
              "name": "resolved",
              "type": "bool"
            },
            {
              "internalType": "enum DataTypes.ResolveTypes",
              "name": "resolvetype",
              "type": "uint8"
            },
            {
              "components": [
                {
                  "internalType": "uint256",
                  "name": "price",
                  "type": "uint256"
                }
              ],
              "internalType": "struct DataTypes.ResolveByOracleConditions",
              "name": "resolveByOracleConditions",
              "type": "tuple"
            },
            {
              "components": [
                {
                  "internalType": "address",
                  "name": "resolver",
                  "type": "address"
                }
              ],
              "internalType": "struct DataTypes.ResolveByOwnerConditions",
              "name": "resolveByOwnerConditions",
              "type": "tuple"
            }
          ],
          "internalType": "struct DataTypes.Post",
          "name": "_post",
          "type": "tuple"
        },
        {
          "internalType": "bytes32",
          "name": "_id",
          "type": "bytes32"
        }
      ],
      "stateMutability": "nonpayable",
      "type": "function"
    },
    {
      "inputs": [],
      "name": "waitForAutomaticResolution",
      "outputs": [
        {
          "internalType": "uint256",
          "name": "",
          "type": "uint256"
        }
      ],
      "stateMutability": "view",
      "type": "function"
    }
  ],
  "bytecode": "0x60806040523480156200001157600080fd5b506040516200184b3803806200184b833981810160405281019062000037919062000176565b336000806101000a81548173ffffffffffffffffffffffffffffffffffffffff021916908373ffffffffffffffffffffffffffffffffffffffff16021790555081600160006101000a81548173ffffffffffffffffffffffffffffffffffffffff021916908373ffffffffffffffffffffffffffffffffffffffff1602179055506301dfe20060028190555080600360006101000a81548173ffffffffffffffffffffffffffffffffffffffff021916908373ffffffffffffffffffffffffffffffffffffffff1602179055505050620001bd565b600080fd5b600073ffffffffffffffffffffffffffffffffffffffff82169050919050565b60006200013e8262000111565b9050919050565b620001508162000131565b81146200015c57600080fd5b50565b600081519050620001708162000145565b92915050565b6000806040838503121562000190576200018f6200010c565b5b6000620001a0858286016200015f565b9250506020620001b3858286016200015f565b9150509250929050565b61167e80620001cd6000396000f3fe608060405234801561001057600080fd5b506004361061004c5760003560e01c80634b6b7bcc146100515780635aa6e67514610082578063645ac860146100a0578063d6ff4dcd146100bc575b600080fd5b61006b60048036038101906100669190610c90565b6100da565b604051610079929190610eff565b60405180910390f35b61008a6102d2565b6040516100979190610f39565b60405180910390f35b6100ba60048036038101906100b59190610f54565b6102f6565b005b6100c461042d565b6040516100d19190610f90565b60405180910390f35b6100e2610a78565b6000848487600082905060008173ffffffffffffffffffffffffffffffffffffffff1663dd62ed3e84306040518363ffffffff1660e01b8152600401610129929190610fab565b602060405180830381865afa158015610146573d6000803e3d6000fd5b505050506040513d601f19601f8201168201806040525081019061016a9190610fe9565b905061017581610433565b848110156101bc5780856040517f4c2508230000000000000000000000000000000000000000000000000000000081526004016101b3929190611016565b60405180910390fd5b60008273ffffffffffffffffffffffffffffffffffffffff166370a08231856040518263ffffffff1660e01b81526004016101f79190610f39565b602060405180830381865afa158015610214573d6000803e3d6000fd5b505050506040513d601f19601f820116820180604052508101906102389190610fe9565b9050858110156102815780866040517fc7a28c79000000000000000000000000000000000000000000000000000000008152600401610278929190611016565b60405180910390fd5b61028d8e8e8e8c6104cc565b97506102988c6105b4565b8861014001819052506102a96105f9565b96506102b68b8b8e610629565b6102c0600061080b565b50505050505050965096945050505050565b60008054906101000a900473ffffffffffffffffffffffffffffffffffffffff1681565b60008054906101000a900473ffffffffffffffffffffffffffffffffffffffff1673ffffffffffffffffffffffffffffffffffffffff163373ffffffffffffffffffffffffffffffffffffffff1614610384576040517fd2a4bdfb00000000000000000000000000000000000000000000000000000000815260040161037b9061109c565b60405180910390fd5b80600160006101000a81548173ffffffffffffffffffffffffffffffffffffffff021916908373ffffffffffffffffffffffffffffffffffffffff160217905550600160009054906101000a900473ffffffffffffffffffffffffffffffffffffffff1673ffffffffffffffffffffffffffffffffffffffff167f7437299f2ef95df7185f14c65d2b599b511d11dba6eeeb1fcde77df97f14321e60405160405180910390a250565b60025481565b6104c9816040516024016104479190610f90565b6040516020818303038152906040527ff5b1bba9000000000000000000000000000000000000000000000000000000007bffffffffffffffffffffffffffffffffffffffffffffffffffffffff19166020820180517bffffffffffffffffffffffffffffffffffffffffffffffffffffffff83818316178352505050506109b6565b50565b6104d4610a78565b84816000019073ffffffffffffffffffffffffffffffffffffffff16908173ffffffffffffffffffffffffffffffffffffffff168152505083816020019073ffffffffffffffffffffffffffffffffffffffff16908173ffffffffffffffffffffffffffffffffffffffff168152505082816040019073ffffffffffffffffffffffffffffffffffffffff16908173ffffffffffffffffffffffffffffffffffffffff1681525050814261058891906110eb565b81606001818152505060025481606001516105a391906110eb565b816080018181525050949350505050565b6105bc610b4a565b81816000019073ffffffffffffffffffffffffffffffffffffffff16908173ffffffffffffffffffffffffffffffffffffffff1681525050919050565b6000423260405160200161060e9291906111aa565b60405160208183030381529060405280519060200120905090565b600082905060008173ffffffffffffffffffffffffffffffffffffffff1663dd62ed3e84600160009054906101000a900473ffffffffffffffffffffffffffffffffffffffff166040518363ffffffff1660e01b815260040161068d929190610fab565b602060405180830381865afa1580156106aa573d6000803e3d6000fd5b505050506040513d601f19601f820116820180604052508101906106ce9190610fe9565b90506106d981610433565b60008273ffffffffffffffffffffffffffffffffffffffff166370a08231856040518263ffffffff1660e01b81526004016107149190610f39565b602060405180830381865afa158015610731573d6000803e3d6000fd5b505050506040513d601f19601f820116820180604052508101906107559190610fe9565b905061076081610433565b8273ffffffffffffffffffffffffffffffffffffffff166323b872dd85600160009054906101000a900473ffffffffffffffffffffffffffffffffffffffff16896040518463ffffffff1660e01b81526004016107bf939291906111d6565b6020604051808303816000875af11580156107de573d6000803e3d6000fd5b505050506040513d601f19601f820116820180604052508101906108029190611239565b50505050505050565b610813610b73565b600360009054906101000a900473ffffffffffffffffffffffffffffffffffffffff1673ffffffffffffffffffffffffffffffffffffffff1663f08f4f6460006040518263ffffffff1660e01b815260040161086f91906112ab565b600060405180830381865afa15801561088c573d6000803e3d6000fd5b505050506040513d6000823e3d601f19601f820116820180604052508101906108b59190611543565b506000600360009054906101000a900473ffffffffffffffffffffffffffffffffffffffff1673ffffffffffffffffffffffffffffffffffffffff1663f08f4f6460036040518263ffffffff1660e01b815260040161091491906115c7565b600060405180830381865afa158015610931573d6000803e3d6000fd5b505050506040513d6000823e3d601f19601f8201168201806040525081019061095a9190611543565b905061096583610433565b6109a36040518060400160405280600681526020017f68616e646c6500000000000000000000000000000000000000000000000000008152506109df565b6109b081606001516109df565b50919050565b60008151905060006a636f6e736f6c652e6c6f679050602083016000808483855afa5050505050565b610a75816040516024016109f39190611626565b6040516020818303038152906040527f41304fac000000000000000000000000000000000000000000000000000000007bffffffffffffffffffffffffffffffffffffffffffffffffffffffff19166020820180517bffffffffffffffffffffffffffffffffffffffffffffffffffffffff83818316178352505050506109b6565b50565b604051806101600160405280600073ffffffffffffffffffffffffffffffffffffffff168152602001600073ffffffffffffffffffffffffffffffffffffffff168152602001600073ffffffffffffffffffffffffffffffffffffffff168152602001600081526020016000815260200160008152602001600073ffffffffffffffffffffffffffffffffffffffff16815260200160001515815260200160006001811115610b2a57610b29610d56565b5b8152602001610b37610bd5565b8152602001610b44610b4a565b81525090565b6040518060200160405280600073ffffffffffffffffffffffffffffffffffffffff1681525090565b6040518060c0016040528060008152602001600073ffffffffffffffffffffffffffffffffffffffff168152602001600073ffffffffffffffffffffffffffffffffffffffff1681526020016060815260200160608152602001606081525090565b6040518060200160405280600081525090565b6000604051905090565b600080fd5b600080fd5b600073ffffffffffffffffffffffffffffffffffffffff82169050919050565b6000610c2782610bfc565b9050919050565b610c3781610c1c565b8114610c4257600080fd5b50565b600081359050610c5481610c2e565b92915050565b6000819050919050565b610c6d81610c5a565b8114610c7857600080fd5b50565b600081359050610c8a81610c64565b92915050565b60008060008060008060c08789031215610cad57610cac610bf2565b5b6000610cbb89828a01610c45565b9650506020610ccc89828a01610c45565b9550506040610cdd89828a01610c45565b9450506060610cee89828a01610c7b565b9350506080610cff89828a01610c45565b92505060a0610d1089828a01610c7b565b9150509295509295509295565b610d2681610c1c565b82525050565b610d3581610c5a565b82525050565b60008115159050919050565b610d5081610d3b565b82525050565b7f4e487b7100000000000000000000000000000000000000000000000000000000600052602160045260246000fd5b60028110610d9657610d95610d56565b5b50565b6000819050610da782610d85565b919050565b6000610db782610d99565b9050919050565b610dc781610dac565b82525050565b602082016000820151610de36000850182610d2c565b50505050565b602082016000820151610dff6000850182610d1d565b50505050565b61016082016000820151610e1c6000850182610d1d565b506020820151610e2f6020850182610d1d565b506040820151610e426040850182610d1d565b506060820151610e556060850182610d2c565b506080820151610e686080850182610d2c565b5060a0820151610e7b60a0850182610d2c565b5060c0820151610e8e60c0850182610d1d565b5060e0820151610ea160e0850182610d47565b50610100820151610eb6610100850182610dbe565b50610120820151610ecb610120850182610dcd565b50610140820151610ee0610140850182610de9565b50505050565b6000819050919050565b610ef981610ee6565b82525050565b600061018082019050610f156000830185610e05565b610f23610160830184610ef0565b9392505050565b610f3381610c1c565b82525050565b6000602082019050610f4e6000830184610f2a565b92915050565b600060208284031215610f6a57610f69610bf2565b5b6000610f7884828501610c45565b91505092915050565b610f8a81610c5a565b82525050565b6000602082019050610fa56000830184610f81565b92915050565b6000604082019050610fc06000830185610f2a565b610fcd6020830184610f2a565b9392505050565b600081519050610fe381610c64565b92915050565b600060208284031215610fff57610ffe610bf2565b5b600061100d84828501610fd4565b91505092915050565b600060408201905061102b6000830185610f81565b6110386020830184610f81565b9392505050565b600082825260208201905092915050565b7f4e6f74206120476f7665726e616e636520416464726573730000000000000000600082015250565b600061108660188361103f565b915061109182611050565b602082019050919050565b600060208201905081810360008301526110b581611079565b9050919050565b7f4e487b7100000000000000000000000000000000000000000000000000000000600052601160045260246000fd5b60006110f682610c5a565b915061110183610c5a565b9250827fffffffffffffffffffffffffffffffffffffffffffffffffffffffffffffffff03821115611136576111356110bc565b5b828201905092915050565b6000819050919050565b61115c61115782610c5a565b611141565b82525050565b60008160601b9050919050565b600061117a82611162565b9050919050565b600061118c8261116f565b9050919050565b6111a461119f82610c1c565b611181565b82525050565b60006111b6828561114b565b6020820191506111c68284611193565b6014820191508190509392505050565b60006060820190506111eb6000830186610f2a565b6111f86020830185610f2a565b6112056040830184610f81565b949350505050565b61121681610d3b565b811461122157600080fd5b50565b6000815190506112338161120d565b92915050565b60006020828403121561124f5761124e610bf2565b5b600061125d84828501611224565b91505092915050565b6000819050919050565b6000819050919050565b600061129561129061128b84611266565b611270565b610c5a565b9050919050565b6112a58161127a565b82525050565b60006020820190506112c0600083018461129c565b92915050565b600080fd5b6000601f19601f8301169050919050565b7f4e487b7100000000000000000000000000000000000000000000000000000000600052604160045260246000fd5b611314826112cb565b810181811067ffffffffffffffff82111715611333576113326112dc565b5b80604052505050565b6000611346610be8565b9050611352828261130b565b919050565b600080fd5b60008151905061136b81610c2e565b92915050565b600080fd5b600080fd5b600067ffffffffffffffff821115611396576113956112dc565b5b61139f826112cb565b9050602081019050919050565b60005b838110156113ca5780820151818401526020810190506113af565b838111156113d9576000848401525b50505050565b60006113f26113ed8461137b565b61133c565b90508281526020810184848401111561140e5761140d611376565b5b6114198482856113ac565b509392505050565b600082601f83011261143657611435611371565b5b81516114468482602086016113df565b91505092915050565b600060c08284031215611465576114646112c6565b5b61146f60c061133c565b9050600061147f84828501610fd4565b60008301525060206114938482850161135c565b60208301525060406114a78482850161135c565b604083015250606082015167ffffffffffffffff8111156114cb576114ca611357565b5b6114d784828501611421565b606083015250608082015167ffffffffffffffff8111156114fb576114fa611357565b5b61150784828501611421565b60808301525060a082015167ffffffffffffffff81111561152b5761152a611357565b5b61153784828501611421565b60a08301525092915050565b60006020828403121561155957611558610bf2565b5b600082015167ffffffffffffffff81111561157757611576610bf7565b5b6115838482850161144f565b91505092915050565b6000819050919050565b60006115b16115ac6115a78461158c565b611270565b610c5a565b9050919050565b6115c181611596565b82525050565b60006020820190506115dc60008301846115b8565b92915050565b600081519050919050565b60006115f8826115e2565b611602818561103f565b93506116128185602086016113ac565b61161b816112cb565b840191505092915050565b6000602082019050818103600083015261164081846115ed565b90509291505056fea264697066735822122042665a33f9823f75829fbcc35ebb8a817291abfff96fc70a5eca211a35802d2b64736f6c634300080a0033",
  "linkReferences": {},
  "deployedLinkReferences": {}
}