{
  "_format": "hh-sol-artifact-1",
  "contractName": "hub",
  "sourceName": "contracts/hub.sol",
  "abi": [
    {
      "inputs": [
        {
          "internalType": "bytes32",
          "name": "_id",
          "type": "bytes32"
        }
      ],
      "name": "getPostById",
      "outputs": [
        {
          "components": [
            {
              "internalType": "address",
              "name": "partyA",
              "type": "address"
            },
            {
              "internalType": "address",
              "name": "partyB",
              "type": "address"
            },
            {
              "internalType": "address",
              "name": "owner",
              "type": "address"
            },
            {
              "internalType": "uint256",
              "name": "resolveAfter",
              "type": "uint256"
            },
            {
              "internalType": "uint256",
              "name": "automaticallyResolveAfter",
              "type": "uint256"
            },
            {
              "internalType": "uint256",
              "name": "amount",
              "type": "uint256"
            },
            {
              "internalType": "address",
              "name": "_currency",
              "type": "address"
            },
            {
              "internalType": "bool",
              "name": "resolved",
              "type": "bool"
            },
            {
              "internalType": "enum DataTypes.ResolveTypes",
              "name": "resolvetype",
              "type": "uint8"
            },
            {
              "components": [
                {
                  "internalType": "uint256",
                  "name": "price",
                  "type": "uint256"
                }
              ],
              "internalType": "struct DataTypes.ResolveByOracleConditions",
              "name": "resolveByOracleConditions",
              "type": "tuple"
            },
            {
              "components": [
                {
                  "internalType": "address",
                  "name": "resolver",
                  "type": "address"
                }
              ],
              "internalType": "struct DataTypes.ResolveByOwnerConditions",
              "name": "resolveByOwnerConditions",
              "type": "tuple"
            }
          ],
          "internalType": "struct DataTypes.Post",
          "name": "",
          "type": "tuple"
        }
      ],
      "stateMutability": "view",
      "type": "function"
    },
    {
      "inputs": [
        {
          "internalType": "address",
          "name": "_partyA",
          "type": "address"
        },
        {
          "internalType": "address",
          "name": "_partyB",
          "type": "address"
        },
        {
          "internalType": "uint256",
          "name": "_amount",
          "type": "uint256"
        },
        {
          "internalType": "address",
          "name": "currency",
          "type": "address"
        },
        {
          "internalType": "uint256",
          "name": "_waitSeconds",
          "type": "uint256"
        }
      ],
      "name": "postRBOwner",
      "outputs": [],
      "stateMutability": "nonpayable",
      "type": "function"
    },
    {
      "inputs": [
        {
          "internalType": "address",
          "name": "_address",
          "type": "address"
        }
      ],
      "name": "setIRBOwner",
      "outputs": [],
      "stateMutability": "nonpayable",
      "type": "function"
    }
  ],
  "bytecode": "0x608060405234801561001057600080fd5b5061120e806100206000396000f3fe608060405234801561001057600080fd5b50600436106100415760003560e01c80639341735614610046578063ae362ff914610062578063c1a294ff14610092575b600080fd5b610060600480360381019061005b9190610b31565b6100ae565b005b61007c60048036038101906100779190610b94565b610134565b6040516100899190610d94565b60405180910390f35b6100ac60048036038101906100a79190610ddc565b6103b6565b005b806000806101000a81548173ffffffffffffffffffffffffffffffffffffffff021916908373ffffffffffffffffffffffffffffffffffffffff1602179055508073ffffffffffffffffffffffffffffffffffffffff167f7437299f2ef95df7185f14c65d2b599b511d11dba6eeeb1fcde77df97f14321e60405160405180910390a250565b61013c6109b6565b60016000838152602001908152602001600020604051806101600160405290816000820160009054906101000a900473ffffffffffffffffffffffffffffffffffffffff1673ffffffffffffffffffffffffffffffffffffffff1673ffffffffffffffffffffffffffffffffffffffff1681526020016001820160009054906101000a900473ffffffffffffffffffffffffffffffffffffffff1673ffffffffffffffffffffffffffffffffffffffff1673ffffffffffffffffffffffffffffffffffffffff1681526020016002820160009054906101000a900473ffffffffffffffffffffffffffffffffffffffff1673ffffffffffffffffffffffffffffffffffffffff1673ffffffffffffffffffffffffffffffffffffffff1681526020016003820154815260200160048201548152602001600582015481526020016006820160009054906101000a900473ffffffffffffffffffffffffffffffffffffffff1673ffffffffffffffffffffffffffffffffffffffff1673ffffffffffffffffffffffffffffffffffffffff1681526020016006820160149054906101000a900460ff161515151581526020016006820160159054906101000a900460ff16600181111561031157610310610c04565b5b600181111561032357610322610c04565b5b8152602001600782016040518060200160405290816000820154815250508152602001600882016040518060200160405290816000820160009054906101000a900473ffffffffffffffffffffffffffffffffffffffff1673ffffffffffffffffffffffffffffffffffffffff1673ffffffffffffffffffffffffffffffffffffffff1681525050815250509050919050565b60006103c06109b6565b60008054906101000a900473ffffffffffffffffffffffffffffffffffffffff1673ffffffffffffffffffffffffffffffffffffffff16634b6b7bcc8888338989896040518763ffffffff1660e01b815260040161042396959493929190610e75565b610180604051808303816000875af1158015610443573d6000803e3d6000fd5b505050506040513d601f19601f82011682018060405250810190610467919061117b565b809350819250505061047c81600001516108f4565b806001600084815260200190815260200160002060008201518160000160006101000a81548173ffffffffffffffffffffffffffffffffffffffff021916908373ffffffffffffffffffffffffffffffffffffffff16021790555060208201518160010160006101000a81548173ffffffffffffffffffffffffffffffffffffffff021916908373ffffffffffffffffffffffffffffffffffffffff16021790555060408201518160020160006101000a81548173ffffffffffffffffffffffffffffffffffffffff021916908373ffffffffffffffffffffffffffffffffffffffff160217905550606082015181600301556080820151816004015560a0820151816005015560c08201518160060160006101000a81548173ffffffffffffffffffffffffffffffffffffffff021916908373ffffffffffffffffffffffffffffffffffffffff16021790555060e08201518160060160146101000a81548160ff0219169083151502179055506101008201518160060160156101000a81548160ff0219169083600181111561061657610615610c04565b5b0217905550610120820151816007016000820151816000015550506101408201518160080160008201518160000160006101000a81548173ffffffffffffffffffffffffffffffffffffffff021916908373ffffffffffffffffffffffffffffffffffffffff160217905550505090505080600260003373ffffffffffffffffffffffffffffffffffffffff1673ffffffffffffffffffffffffffffffffffffffff16815260200190815260200160002060008201518160000160006101000a81548173ffffffffffffffffffffffffffffffffffffffff021916908373ffffffffffffffffffffffffffffffffffffffff16021790555060208201518160010160006101000a81548173ffffffffffffffffffffffffffffffffffffffff021916908373ffffffffffffffffffffffffffffffffffffffff16021790555060408201518160020160006101000a81548173ffffffffffffffffffffffffffffffffffffffff021916908373ffffffffffffffffffffffffffffffffffffffff160217905550606082015181600301556080820151816004015560a0820151816005015560c08201518160060160006101000a81548173ffffffffffffffffffffffffffffffffffffffff021916908373ffffffffffffffffffffffffffffffffffffffff16021790555060e08201518160060160146101000a81548160ff0219169083151502179055506101008201518160060160156101000a81548160ff0219169083600181111561084d5761084c610c04565b5b0217905550610120820151816007016000820151816000015550506101408201518160080160008201518160000160006101000a81548173ffffffffffffffffffffffffffffffffffffffff021916908373ffffffffffffffffffffffffffffffffffffffff1602179055505050905050817faf15bed1cac92d3f0429bfb6e9fd1868cc467abf51cfdc1a0ed46e1a29e972c260405160405180910390a250505050505050565b61098a8160405160240161090891906111bd565b6040516020818303038152906040527f2c2ecbc2000000000000000000000000000000000000000000000000000000007bffffffffffffffffffffffffffffffffffffffffffffffffffffffff19166020820180517bffffffffffffffffffffffffffffffffffffffffffffffffffffffff838183161783525050505061098d565b50565b60008151905060006a636f6e736f6c652e6c6f679050602083016000808483855afa5050505050565b604051806101600160405280600073ffffffffffffffffffffffffffffffffffffffff168152602001600073ffffffffffffffffffffffffffffffffffffffff168152602001600073ffffffffffffffffffffffffffffffffffffffff168152602001600081526020016000815260200160008152602001600073ffffffffffffffffffffffffffffffffffffffff16815260200160001515815260200160006001811115610a6857610a67610c04565b5b8152602001610a75610a88565b8152602001610a82610a9b565b81525090565b6040518060200160405280600081525090565b6040518060200160405280600073ffffffffffffffffffffffffffffffffffffffff1681525090565b6000604051905090565b600080fd5b600073ffffffffffffffffffffffffffffffffffffffff82169050919050565b6000610afe82610ad3565b9050919050565b610b0e81610af3565b8114610b1957600080fd5b50565b600081359050610b2b81610b05565b92915050565b600060208284031215610b4757610b46610ace565b5b6000610b5584828501610b1c565b91505092915050565b6000819050919050565b610b7181610b5e565b8114610b7c57600080fd5b50565b600081359050610b8e81610b68565b92915050565b600060208284031215610baa57610ba9610ace565b5b6000610bb884828501610b7f565b91505092915050565b610bca81610af3565b82525050565b6000819050919050565b610be381610bd0565b82525050565b60008115159050919050565b610bfe81610be9565b82525050565b7f4e487b7100000000000000000000000000000000000000000000000000000000600052602160045260246000fd5b60028110610c4457610c43610c04565b5b50565b6000819050610c5582610c33565b919050565b6000610c6582610c47565b9050919050565b610c7581610c5a565b82525050565b602082016000820151610c916000850182610bda565b50505050565b602082016000820151610cad6000850182610bc1565b50505050565b61016082016000820151610cca6000850182610bc1565b506020820151610cdd6020850182610bc1565b506040820151610cf06040850182610bc1565b506060820151610d036060850182610bda565b506080820151610d166080850182610bda565b5060a0820151610d2960a0850182610bda565b5060c0820151610d3c60c0850182610bc1565b5060e0820151610d4f60e0850182610bf5565b50610100820151610d64610100850182610c6c565b50610120820151610d79610120850182610c7b565b50610140820151610d8e610140850182610c97565b50505050565b600061016082019050610daa6000830184610cb3565b92915050565b610db981610bd0565b8114610dc457600080fd5b50565b600081359050610dd681610db0565b92915050565b600080600080600060a08688031215610df857610df7610ace565b5b6000610e0688828901610b1c565b9550506020610e1788828901610b1c565b9450506040610e2888828901610dc7565b9350506060610e3988828901610b1c565b9250506080610e4a88828901610dc7565b9150509295509295909350565b610e6081610af3565b82525050565b610e6f81610bd0565b82525050565b600060c082019050610e8a6000830189610e57565b610e976020830188610e57565b610ea46040830187610e57565b610eb16060830186610e66565b610ebe6080830185610e57565b610ecb60a0830184610e66565b979650505050505050565b600080fd5b6000601f19601f8301169050919050565b7f4e487b7100000000000000000000000000000000000000000000000000000000600052604160045260246000fd5b610f2482610edb565b810181811067ffffffffffffffff82111715610f4357610f42610eec565b5b80604052505050565b6000610f56610ac4565b9050610f628282610f1b565b919050565b600081519050610f7681610b05565b92915050565b600081519050610f8b81610db0565b92915050565b610f9a81610be9565b8114610fa557600080fd5b50565b600081519050610fb781610f91565b92915050565b60028110610fca57600080fd5b50565b600081519050610fdc81610fbd565b92915050565b600060208284031215610ff857610ff7610ed6565b5b6110026020610f4c565b9050600061101284828501610f7c565b60008301525092915050565b60006020828403121561103457611033610ed6565b5b61103e6020610f4c565b9050600061104e84828501610f67565b60008301525092915050565b6000610160828403121561107157611070610ed6565b5b61107c610160610f4c565b9050600061108c84828501610f67565b60008301525060206110a084828501610f67565b60208301525060406110b484828501610f67565b60408301525060606110c884828501610f7c565b60608301525060806110dc84828501610f7c565b60808301525060a06110f084828501610f7c565b60a08301525060c061110484828501610f67565b60c08301525060e061111884828501610fa8565b60e08301525061010061112d84828501610fcd565b6101008301525061012061114384828501610fe2565b610120830152506101406111598482850161101e565b6101408301525092915050565b60008151905061117581610b68565b92915050565b600080610180838503121561119357611192610ace565b5b60006111a18582860161105a565b9250506101606111b385828601611166565b9150509250929050565b60006020820190506111d26000830184610e57565b9291505056fea2646970667358221220b0c5a9bc4a2ec89df93d8d4618dc49535ed20c0cdb119f0899c0fd470c2aae6b64736f6c634300080a0033",
  "linkReferences": {},
  "deployedLinkReferences": {}
}