{
  "_format": "hh-sol-artifact-1",
  "contractName": "hub",
  "sourceName": "contracts/hub.sol",
  "abi": [
    {
      "inputs": [],
      "stateMutability": "nonpayable",
      "type": "constructor"
    },
    {
      "inputs": [
        {
          "internalType": "string",
          "name": "",
          "type": "string"
        }
      ],
      "name": "UserNotAllowed",
      "type": "error"
    },
    {
      "inputs": [
        {
          "internalType": "address",
          "name": "_treasury",
          "type": "address"
        }
      ],
      "name": "_setTreasuryAddress",
      "outputs": [],
      "stateMutability": "nonpayable",
      "type": "function"
    },
    {
      "inputs": [
        {
          "internalType": "bytes32",
          "name": "_id",
          "type": "bytes32"
        }
      ],
      "name": "getPostById",
      "outputs": [
        {
          "components": [
            {
              "internalType": "address",
              "name": "partyA",
              "type": "address"
            },
            {
              "internalType": "address",
              "name": "partyB",
              "type": "address"
            },
            {
              "internalType": "address",
              "name": "owner",
              "type": "address"
            },
            {
              "internalType": "uint256",
              "name": "resolveAfter",
              "type": "uint256"
            },
            {
              "internalType": "uint256",
              "name": "automaticallyResolveAfter",
              "type": "uint256"
            },
            {
              "internalType": "uint256",
              "name": "amount",
              "type": "uint256"
            },
            {
              "internalType": "address",
              "name": "currency",
              "type": "address"
            },
            {
              "internalType": "bool",
              "name": "resolved",
              "type": "bool"
            },
            {
              "internalType": "enum DataTypes.ResolveTypes",
              "name": "resolvetype",
              "type": "uint8"
            },
            {
              "components": [
                {
                  "internalType": "uint256",
                  "name": "price",
                  "type": "uint256"
                }
              ],
              "internalType": "struct DataTypes.ResolveByOracleConditions",
              "name": "resolveByOracleConditions",
              "type": "tuple"
            },
            {
              "components": [
                {
                  "internalType": "address",
                  "name": "resolver",
                  "type": "address"
                }
              ],
              "internalType": "struct DataTypes.ResolveByOwnerConditions",
              "name": "resolveByOwnerConditions",
              "type": "tuple"
            },
            {
              "components": [
                {
                  "internalType": "uint256",
                  "name": "profileId",
                  "type": "uint256"
                },
                {
                  "internalType": "uint256",
                  "name": "initialPubId",
                  "type": "uint256"
                },
                {
                  "internalType": "uint256",
                  "name": "resolvingPubId",
                  "type": "uint256"
                }
              ],
              "internalType": "struct DataTypes.LensPostInfo",
              "name": "lensPostInfo",
              "type": "tuple"
            }
          ],
          "internalType": "struct DataTypes.Post",
          "name": "",
          "type": "tuple"
        }
      ],
      "stateMutability": "view",
      "type": "function"
    },
    {
      "inputs": [],
      "name": "governance",
      "outputs": [
        {
          "internalType": "address",
          "name": "",
          "type": "address"
        }
      ],
      "stateMutability": "view",
      "type": "function"
    },
    {
      "inputs": [
        {
          "components": [
            {
              "internalType": "address",
              "name": "partyA",
              "type": "address"
            },
            {
              "internalType": "address",
              "name": "partyB",
              "type": "address"
            },
            {
              "internalType": "address",
              "name": "owner",
              "type": "address"
            },
            {
              "internalType": "uint256",
              "name": "resolveAfter",
              "type": "uint256"
            },
            {
              "internalType": "uint256",
              "name": "automaticallyResolveAfter",
              "type": "uint256"
            },
            {
              "internalType": "uint256",
              "name": "amount",
              "type": "uint256"
            },
            {
              "internalType": "address",
              "name": "currency",
              "type": "address"
            },
            {
              "internalType": "bool",
              "name": "resolved",
              "type": "bool"
            },
            {
              "internalType": "enum DataTypes.ResolveTypes",
              "name": "resolvetype",
              "type": "uint8"
            },
            {
              "components": [
                {
                  "internalType": "uint256",
                  "name": "price",
                  "type": "uint256"
                }
              ],
              "internalType": "struct DataTypes.ResolveByOracleConditions",
              "name": "resolveByOracleConditions",
              "type": "tuple"
            },
            {
              "components": [
                {
                  "internalType": "address",
                  "name": "resolver",
                  "type": "address"
                }
              ],
              "internalType": "struct DataTypes.ResolveByOwnerConditions",
              "name": "resolveByOwnerConditions",
              "type": "tuple"
            },
            {
              "components": [
                {
                  "internalType": "uint256",
                  "name": "profileId",
                  "type": "uint256"
                },
                {
                  "internalType": "uint256",
                  "name": "initialPubId",
                  "type": "uint256"
                },
                {
                  "internalType": "uint256",
                  "name": "resolvingPubId",
                  "type": "uint256"
                }
              ],
              "internalType": "struct DataTypes.LensPostInfo",
              "name": "lensPostInfo",
              "type": "tuple"
            }
          ],
          "internalType": "struct DataTypes.Post",
          "name": "_post",
          "type": "tuple"
        },
        {
          "components": [
            {
              "internalType": "uint256",
              "name": "profileId",
              "type": "uint256"
            },
            {
              "internalType": "string",
              "name": "contentURI",
              "type": "string"
            },
            {
              "internalType": "address",
              "name": "collectModule",
              "type": "address"
            },
            {
              "internalType": "bytes",
              "name": "collectModuleInitData",
              "type": "bytes"
            },
            {
              "internalType": "address",
              "name": "referenceModule",
              "type": "address"
            },
            {
              "internalType": "bytes",
              "name": "referenceModuleInitData",
              "type": "bytes"
            }
          ],
          "internalType": "struct DataTypes.PostData",
          "name": "_lensPost",
          "type": "tuple"
        }
      ],
      "name": "postRBOwner",
      "outputs": [],
      "stateMutability": "nonpayable",
      "type": "function"
    },
    {
      "inputs": [
        {
          "internalType": "address",
          "name": "_address",
          "type": "address"
        }
      ],
      "name": "setIRBOwner",
      "outputs": [],
      "stateMutability": "nonpayable",
      "type": "function"
    },
    {
      "inputs": [],
      "name": "waitForAutomaticResolution",
      "outputs": [
        {
          "internalType": "uint256",
          "name": "",
          "type": "uint256"
        }
      ],
      "stateMutability": "view",
      "type": "function"
    }
  ],
  "bytecode": "0x608060405234801561001057600080fd5b50336000806101000a81548173ffffffffffffffffffffffffffffffffffffffff021916908373ffffffffffffffffffffffffffffffffffffffff160217905550611afd806100606000396000f3fe608060405234801561001057600080fd5b50600436106100625760003560e01c80635aa6e67514610067578063645ac8601461008557806393417356146100a1578063ae362ff9146100bd578063d6ff4dcd146100ed578063e2035d0f1461010b575b600080fd5b61006f610127565b60405161007c9190610fa7565b60405180910390f35b61009f600480360381019061009a9190611002565b61014b565b005b6100bb60048036038101906100b69190611002565b610282565b005b6100d760048036038101906100d29190611065565b610397565b6040516100e491906112bc565b60405180910390f35b6100f561064b565b60405161010291906112e7565b60405180910390f35b61012560048036038101906101209190611632565b610651565b005b60008054906101000a900473ffffffffffffffffffffffffffffffffffffffff1681565b60008054906101000a900473ffffffffffffffffffffffffffffffffffffffff1673ffffffffffffffffffffffffffffffffffffffff163373ffffffffffffffffffffffffffffffffffffffff16146101d9576040517fd2a4bdfb0000000000000000000000000000000000000000000000000000000081526004016101d0906116ed565b60405180910390fd5b80600160006101000a81548173ffffffffffffffffffffffffffffffffffffffff021916908373ffffffffffffffffffffffffffffffffffffffff160217905550600160009054906101000a900473ffffffffffffffffffffffffffffffffffffffff1673ffffffffffffffffffffffffffffffffffffffff167f7437299f2ef95df7185f14c65d2b599b511d11dba6eeeb1fcde77df97f14321e60405160405180910390a250565b60008054906101000a900473ffffffffffffffffffffffffffffffffffffffff1673ffffffffffffffffffffffffffffffffffffffff163373ffffffffffffffffffffffffffffffffffffffff1614610310576040517fd2a4bdfb000000000000000000000000000000000000000000000000000000008152600401610307906116ed565b60405180910390fd5b80600360006101000a81548173ffffffffffffffffffffffffffffffffffffffff021916908373ffffffffffffffffffffffffffffffffffffffff1602179055508073ffffffffffffffffffffffffffffffffffffffff167f7437299f2ef95df7185f14c65d2b599b511d11dba6eeeb1fcde77df97f14321e60405160405180910390a250565b61039f610e2a565b60046000838152602001908152602001600020604051806101800160405290816000820160009054906101000a900473ffffffffffffffffffffffffffffffffffffffff1673ffffffffffffffffffffffffffffffffffffffff1673ffffffffffffffffffffffffffffffffffffffff1681526020016001820160009054906101000a900473ffffffffffffffffffffffffffffffffffffffff1673ffffffffffffffffffffffffffffffffffffffff1673ffffffffffffffffffffffffffffffffffffffff1681526020016002820160009054906101000a900473ffffffffffffffffffffffffffffffffffffffff1673ffffffffffffffffffffffffffffffffffffffff1673ffffffffffffffffffffffffffffffffffffffff1681526020016003820154815260200160048201548152602001600582015481526020016006820160009054906101000a900473ffffffffffffffffffffffffffffffffffffffff1673ffffffffffffffffffffffffffffffffffffffff1673ffffffffffffffffffffffffffffffffffffffff1681526020016006820160149054906101000a900460ff161515151581526020016006820160159054906101000a900460ff166001811115610574576105736110d5565b5b6001811115610586576105856110d5565b5b8152602001600782016040518060200160405290816000820154815250508152602001600882016040518060200160405290816000820160009054906101000a900473ffffffffffffffffffffffffffffffffffffffff1673ffffffffffffffffffffffffffffffffffffffff1673ffffffffffffffffffffffffffffffffffffffff16815250508152602001600982016040518060600160405290816000820154815260200160018201548152602001600282015481525050815250509050919050565b60025481565b600080600360009054906101000a900473ffffffffffffffffffffffffffffffffffffffff1673ffffffffffffffffffffffffffffffffffffffff1663e2035d0f85856040518363ffffffff1660e01b81526004016106b1929190611968565b60408051808303816000875af11580156106cf573d6000803e3d6000fd5b505050506040513d601f19601f820116820180604052508101906106f391906119c4565b80925081935050506107396040518060400160405280600e81526020017f696e697469616c20707562204964000000000000000000000000000000000000815250610c36565b61074281610ccf565b82600001358461016001516000018181525050808461016001516020018181525050836004600084815260200190815260200160002060008201518160000160006101000a81548173ffffffffffffffffffffffffffffffffffffffff021916908373ffffffffffffffffffffffffffffffffffffffff16021790555060208201518160010160006101000a81548173ffffffffffffffffffffffffffffffffffffffff021916908373ffffffffffffffffffffffffffffffffffffffff16021790555060408201518160020160006101000a81548173ffffffffffffffffffffffffffffffffffffffff021916908373ffffffffffffffffffffffffffffffffffffffff160217905550606082015181600301556080820151816004015560a0820151816005015560c08201518160060160006101000a81548173ffffffffffffffffffffffffffffffffffffffff021916908373ffffffffffffffffffffffffffffffffffffffff16021790555060e08201518160060160146101000a81548160ff0219169083151502179055506101008201518160060160156101000a81548160ff021916908360018111156108fe576108fd6110d5565b5b0217905550610120820151816007016000820151816000015550506101408201518160080160008201518160000160006101000a81548173ffffffffffffffffffffffffffffffffffffffff021916908373ffffffffffffffffffffffffffffffffffffffff160217905550505061016082015181600901600082015181600001556020820151816001015560408201518160020155505090505083600560003373ffffffffffffffffffffffffffffffffffffffff1673ffffffffffffffffffffffffffffffffffffffff16815260200190815260200160002060008201518160000160006101000a81548173ffffffffffffffffffffffffffffffffffffffff021916908373ffffffffffffffffffffffffffffffffffffffff16021790555060208201518160010160006101000a81548173ffffffffffffffffffffffffffffffffffffffff021916908373ffffffffffffffffffffffffffffffffffffffff16021790555060408201518160020160006101000a81548173ffffffffffffffffffffffffffffffffffffffff021916908373ffffffffffffffffffffffffffffffffffffffff160217905550606082015181600301556080820151816004015560a0820151816005015560c08201518160060160006101000a81548173ffffffffffffffffffffffffffffffffffffffff021916908373ffffffffffffffffffffffffffffffffffffffff16021790555060e08201518160060160146101000a81548160ff0219169083151502179055506101008201518160060160156101000a81548160ff02191690836001811115610b5f57610b5e6110d5565b5b0217905550610120820151816007016000820151816000015550506101408201518160080160008201518160000160006101000a81548173ffffffffffffffffffffffffffffffffffffffff021916908373ffffffffffffffffffffffffffffffffffffffff1602179055505050610160820151816009016000820151816000015560208201518160010155604082015181600201555050905050610c0382610d68565b817faf15bed1cac92d3f0429bfb6e9fd1868cc467abf51cfdc1a0ed46e1a29e972c260405160405180910390a250505050565b610ccc81604051602401610c4a9190611a7b565b6040516020818303038152906040527f41304fac000000000000000000000000000000000000000000000000000000007bffffffffffffffffffffffffffffffffffffffffffffffffffffffff19166020820180517bffffffffffffffffffffffffffffffffffffffffffffffffffffffff8381831617835250505050610e01565b50565b610d6581604051602401610ce391906112e7565b6040516020818303038152906040527ff5b1bba9000000000000000000000000000000000000000000000000000000007bffffffffffffffffffffffffffffffffffffffffffffffffffffffff19166020820180517bffffffffffffffffffffffffffffffffffffffffffffffffffffffff8381831617835250505050610e01565b50565b610dfe81604051602401610d7c9190611aac565b6040516020818303038152906040527f27b7cf85000000000000000000000000000000000000000000000000000000007bffffffffffffffffffffffffffffffffffffffffffffffffffffffff19166020820180517bffffffffffffffffffffffffffffffffffffffffffffffffffffffff8381831617835250505050610e01565b50565b60008151905060006a636f6e736f6c652e6c6f679050602083016000808483855afa5050505050565b604051806101800160405280600073ffffffffffffffffffffffffffffffffffffffff168152602001600073ffffffffffffffffffffffffffffffffffffffff168152602001600073ffffffffffffffffffffffffffffffffffffffff168152602001600081526020016000815260200160008152602001600073ffffffffffffffffffffffffffffffffffffffff16815260200160001515815260200160006001811115610edc57610edb6110d5565b5b8152602001610ee9610f09565b8152602001610ef6610f1c565b8152602001610f03610f45565b81525090565b6040518060200160405280600081525090565b6040518060200160405280600073ffffffffffffffffffffffffffffffffffffffff1681525090565b60405180606001604052806000815260200160008152602001600081525090565b600073ffffffffffffffffffffffffffffffffffffffff82169050919050565b6000610f9182610f66565b9050919050565b610fa181610f86565b82525050565b6000602082019050610fbc6000830184610f98565b92915050565b6000604051905090565b600080fd5b600080fd5b610fdf81610f86565b8114610fea57600080fd5b50565b600081359050610ffc81610fd6565b92915050565b60006020828403121561101857611017610fcc565b5b600061102684828501610fed565b91505092915050565b6000819050919050565b6110428161102f565b811461104d57600080fd5b50565b60008135905061105f81611039565b92915050565b60006020828403121561107b5761107a610fcc565b5b600061108984828501611050565b91505092915050565b61109b81610f86565b82525050565b6000819050919050565b6110b4816110a1565b82525050565b60008115159050919050565b6110cf816110ba565b82525050565b7f4e487b7100000000000000000000000000000000000000000000000000000000600052602160045260246000fd5b60028110611115576111146110d5565b5b50565b600081905061112682611104565b919050565b600061113682611118565b9050919050565b6111468161112b565b82525050565b60208201600082015161116260008501826110ab565b50505050565b60208201600082015161117e6000850182611092565b50505050565b60608201600082015161119a60008501826110ab565b5060208201516111ad60208501826110ab565b5060408201516111c060408501826110ab565b50505050565b6101c0820160008201516111dd6000850182611092565b5060208201516111f06020850182611092565b5060408201516112036040850182611092565b50606082015161121660608501826110ab565b50608082015161122960808501826110ab565b5060a082015161123c60a08501826110ab565b5060c082015161124f60c0850182611092565b5060e082015161126260e08501826110c6565b5061010082015161127761010085018261113d565b5061012082015161128c61012085018261114c565b506101408201516112a1610140850182611168565b506101608201516112b6610160850182611184565b50505050565b60006101c0820190506112d260008301846111c6565b92915050565b6112e1816110a1565b82525050565b60006020820190506112fc60008301846112d8565b92915050565b600080fd5b6000601f19601f8301169050919050565b7f4e487b7100000000000000000000000000000000000000000000000000000000600052604160045260246000fd5b61135082611307565b810181811067ffffffffffffffff8211171561136f5761136e611318565b5b80604052505050565b6000611382610fc2565b905061138e8282611347565b919050565b61139c816110a1565b81146113a757600080fd5b50565b6000813590506113b981611393565b92915050565b6113c8816110ba565b81146113d357600080fd5b50565b6000813590506113e5816113bf565b92915050565b600281106113f857600080fd5b50565b60008135905061140a816113eb565b92915050565b60006020828403121561142657611425611302565b5b6114306020611378565b90506000611440848285016113aa565b60008301525092915050565b60006020828403121561146257611461611302565b5b61146c6020611378565b9050600061147c84828501610fed565b60008301525092915050565b60006060828403121561149e5761149d611302565b5b6114a86060611378565b905060006114b8848285016113aa565b60008301525060206114cc848285016113aa565b60208301525060406114e0848285016113aa565b60408301525092915050565b60006101c0828403121561150357611502611302565b5b61150e610180611378565b9050600061151e84828501610fed565b600083015250602061153284828501610fed565b602083015250604061154684828501610fed565b604083015250606061155a848285016113aa565b606083015250608061156e848285016113aa565b60808301525060a0611582848285016113aa565b60a08301525060c061159684828501610fed565b60c08301525060e06115aa848285016113d6565b60e0830152506101006115bf848285016113fb565b610100830152506101206115d584828501611410565b610120830152506101406115eb8482850161144c565b6101408301525061016061160184828501611488565b6101608301525092915050565b600080fd5b600060c082840312156116295761162861160e565b5b81905092915050565b6000806101e0838503121561164a57611649610fcc565b5b6000611658858286016114ec565b9250506101c083013567ffffffffffffffff81111561167a57611679610fd1565b5b61168685828601611613565b9150509250929050565b600082825260208201905092915050565b7f4e6f74206120476f7665726e616e636520416464726573730000000000000000600082015250565b60006116d7601883611690565b91506116e2826116a1565b602082019050919050565b60006020820190508181036000830152611706816116ca565b9050919050565b600061171c60208401846113aa565b905092915050565b600080fd5b600080fd5b600080fd5b600080833560016020038436030381126117505761174f61172e565b5b83810192508235915060208301925067ffffffffffffffff82111561177857611777611724565b5b60018202360384131561178e5761178d611729565b5b509250929050565b600082825260208201905092915050565b82818337600083830152505050565b60006117c28385611796565b93506117cf8385846117a7565b6117d883611307565b840190509392505050565b60006117f26020840184610fed565b905092915050565b600080833560016020038436030381126118175761181661172e565b5b83810192508235915060208301925067ffffffffffffffff82111561183f5761183e611724565b5b60018202360384131561185557611854611729565b5b509250929050565b600082825260208201905092915050565b600061187a838561185d565b93506118878385846117a7565b61189083611307565b840190509392505050565b600060c083016118ae600084018461170d565b6118bb60008601826110ab565b506118c96020840184611733565b85830360208701526118dc8382846117b6565b925050506118ed60408401846117e3565b6118fa6040860182611092565b5061190860608401846117fa565b858303606087015261191b83828461186e565b9250505061192c60808401846117e3565b6119396080860182611092565b5061194760a08401846117fa565b85830360a087015261195a83828461186e565b925050508091505092915050565b60006101e08201905061197e60008301856111c6565b8181036101c0830152611991818461189b565b90509392505050565b6000815190506119a981611039565b92915050565b6000815190506119be81611393565b92915050565b600080604083850312156119db576119da610fcc565b5b60006119e98582860161199a565b92505060206119fa858286016119af565b9150509250929050565b600081519050919050565b60005b83811015611a2d578082015181840152602081019050611a12565b83811115611a3c576000848401525b50505050565b6000611a4d82611a04565b611a578185611690565b9350611a67818560208601611a0f565b611a7081611307565b840191505092915050565b60006020820190508181036000830152611a958184611a42565b905092915050565b611aa68161102f565b82525050565b6000602082019050611ac16000830184611a9d565b9291505056fea2646970667358221220e20ff3297cc9460be839e69f8a26840bec89701fbab8d6efafd1752c0c07944064736f6c634300080a0033",
  "linkReferences": {},
  "deployedLinkReferences": {}
}