{
  "_format": "hh-sol-artifact-1",
  "contractName": "hub",
  "sourceName": "contracts/hub.sol",
  "abi": [
    {
      "inputs": [
        {
          "internalType": "address",
          "name": "_partyA",
          "type": "address"
        },
        {
          "internalType": "address",
          "name": "_partyB",
          "type": "address"
        }
      ],
      "name": "postRBOwner",
      "outputs": [],
      "stateMutability": "nonpayable",
      "type": "function"
    },
    {
      "inputs": [
        {
          "internalType": "address",
          "name": "_address",
          "type": "address"
        }
      ],
      "name": "setIRBOwner",
      "outputs": [],
      "stateMutability": "nonpayable",
      "type": "function"
    }
  ],
  "bytecode": "0x608060405234801561001057600080fd5b50610b80806100206000396000f3fe608060405234801561001057600080fd5b50600436106100365760003560e01c80631164e3251461003b5780639341735614610057575b600080fd5b6100556004803603810190610050919061063b565b610073565b005b610071600480360381019061006c919061067b565b610420565b005b600061007d610463565b60008054906101000a900473ffffffffffffffffffffffffffffffffffffffff1673ffffffffffffffffffffffffffffffffffffffff16631164e32585856040518363ffffffff1660e01b81526004016100d89291906106b7565b6000604051808303816000875af11580156100f7573d6000803e3d6000fd5b505050506040513d6000823e3d601f19601f820116820180604052508101906101209190610a5e565b8093508192505050806001600084815260200190815260200160002060008201518160000160006101000a81548173ffffffffffffffffffffffffffffffffffffffff021916908373ffffffffffffffffffffffffffffffffffffffff16021790555060208201518160010160006101000a81548173ffffffffffffffffffffffffffffffffffffffff021916908373ffffffffffffffffffffffffffffffffffffffff16021790555060408201518160020160006101000a81548173ffffffffffffffffffffffffffffffffffffffff021916908373ffffffffffffffffffffffffffffffffffffffff1602179055506060820151816003015560808201518160040160006101000a81548160ff0219169083600181111561024657610245610aba565b5b021790555060a08201518160050160008201518160000155505060c0820151816006016000820151816000019080519060200190610285929190610500565b50505090505080600260003373ffffffffffffffffffffffffffffffffffffffff1673ffffffffffffffffffffffffffffffffffffffff16815260200190815260200160002060008201518160000160006101000a81548173ffffffffffffffffffffffffffffffffffffffff021916908373ffffffffffffffffffffffffffffffffffffffff16021790555060208201518160010160006101000a81548173ffffffffffffffffffffffffffffffffffffffff021916908373ffffffffffffffffffffffffffffffffffffffff16021790555060408201518160020160006101000a81548173ffffffffffffffffffffffffffffffffffffffff021916908373ffffffffffffffffffffffffffffffffffffffff1602179055506060820151816003015560808201518160040160006101000a81548160ff021916908360018111156103d5576103d4610aba565b5b021790555060a08201518160050160008201518160000155505060c0820151816006016000820151816000019080519060200190610414929190610500565b50505090505050505050565b806000806101000a81548173ffffffffffffffffffffffffffffffffffffffff021916908373ffffffffffffffffffffffffffffffffffffffff16021790555050565b6040518060e00160405280600073ffffffffffffffffffffffffffffffffffffffff168152602001600073ffffffffffffffffffffffffffffffffffffffff168152602001600073ffffffffffffffffffffffffffffffffffffffff16815260200160008152602001600060018111156104e0576104df610aba565b5b81526020016104ed610586565b81526020016104fa610599565b81525090565b82805461050c90610b18565b90600052602060002090601f01602090048101928261052e5760008555610575565b82601f1061054757805160ff1916838001178555610575565b82800160010185558215610575579182015b82811115610574578251825591602001919060010190610559565b5b50905061058291906105ac565b5090565b6040518060200160405280600081525090565b6040518060200160405280606081525090565b5b808211156105c55760008160009055506001016105ad565b5090565b6000604051905090565b600080fd5b600080fd5b600073ffffffffffffffffffffffffffffffffffffffff82169050919050565b6000610608826105dd565b9050919050565b610618816105fd565b811461062357600080fd5b50565b6000813590506106358161060f565b92915050565b60008060408385031215610652576106516105d3565b5b600061066085828601610626565b925050602061067185828601610626565b9150509250929050565b600060208284031215610691576106906105d3565b5b600061069f84828501610626565b91505092915050565b6106b1816105fd565b82525050565b60006040820190506106cc60008301856106a8565b6106d960208301846106a8565b9392505050565b600080fd5b6000601f19601f8301169050919050565b7f4e487b7100000000000000000000000000000000000000000000000000000000600052604160045260246000fd5b61072e826106e5565b810181811067ffffffffffffffff8211171561074d5761074c6106f6565b5b80604052505050565b60006107606105c9565b905061076c8282610725565b919050565b600080fd5b6000815190506107858161060f565b92915050565b6000819050919050565b61079e8161078b565b81146107a957600080fd5b50565b6000815190506107bb81610795565b92915050565b600281106107ce57600080fd5b50565b6000815190506107e0816107c1565b92915050565b6000602082840312156107fc576107fb6106e0565b5b6108066020610756565b90506000610816848285016107ac565b60008301525092915050565b600080fd5b600080fd5b600067ffffffffffffffff821115610847576108466106f6565b5b610850826106e5565b9050602081019050919050565b60005b8381101561087b578082015181840152602081019050610860565b8381111561088a576000848401525b50505050565b60006108a361089e8461082c565b610756565b9050828152602081018484840111156108bf576108be610827565b5b6108ca84828561085d565b509392505050565b600082601f8301126108e7576108e6610822565b5b81516108f7848260208601610890565b91505092915050565b600060208284031215610916576109156106e0565b5b6109206020610756565b9050600082015167ffffffffffffffff8111156109405761093f610771565b5b61094c848285016108d2565b60008301525092915050565b600060e0828403121561096e5761096d6106e0565b5b61097860e0610756565b9050600061098884828501610776565b600083015250602061099c84828501610776565b60208301525060406109b084828501610776565b60408301525060606109c4848285016107ac565b60608301525060806109d8848285016107d1565b60808301525060a06109ec848285016107e6565b60a08301525060c082015167ffffffffffffffff811115610a1057610a0f610771565b5b610a1c84828501610900565b60c08301525092915050565b6000819050919050565b610a3b81610a28565b8114610a4657600080fd5b50565b600081519050610a5881610a32565b92915050565b60008060408385031215610a7557610a746105d3565b5b600083015167ffffffffffffffff811115610a9357610a926105d8565b5b610a9f85828601610958565b9250506020610ab085828601610a49565b9150509250929050565b7f4e487b7100000000000000000000000000000000000000000000000000000000600052602160045260246000fd5b7f4e487b7100000000000000000000000000000000000000000000000000000000600052602260045260246000fd5b60006002820490506001821680610b3057607f821691505b60208210811415610b4457610b43610ae9565b5b5091905056fea264697066735822122061cb6c6d9d916094cd3a859f136d0cac8d1f612ab7e8df5cc578c8b22feeacde64736f6c634300080a0033",
  "linkReferences": {},
  "deployedLinkReferences": {}
}