{
  "_format": "hh-sol-artifact-1",
  "contractName": "hub",
  "sourceName": "contracts/hub.sol",
  "abi": [
    {
      "inputs": [
        {
          "internalType": "address",
          "name": "_partyA",
          "type": "address"
        },
        {
          "internalType": "address",
          "name": "_partyB",
          "type": "address"
        }
      ],
      "name": "postRBOwner",
      "outputs": [],
      "stateMutability": "nonpayable",
      "type": "function"
    },
    {
      "inputs": [
        {
          "internalType": "address",
          "name": "_address",
          "type": "address"
        }
      ],
      "name": "setIRBOwner",
      "outputs": [],
      "stateMutability": "nonpayable",
      "type": "function"
    }
  ],
  "bytecode": "0x608060405234801561001057600080fd5b50610d31806100206000396000f3fe608060405234801561001057600080fd5b50600436106100365760003560e01c80631164e3251461003b5780639341735614610057575b600080fd5b6100556004803603810190610050919061084a565b610073565b005b610071600480360381019061006c919061088a565b6104d0565b005b600061007d6106f3565b60008054906101000a900473ffffffffffffffffffffffffffffffffffffffff1673ffffffffffffffffffffffffffffffffffffffff16631164e32585856040518363ffffffff1660e01b81526004016100d89291906108c6565b610140604051808303816000875af11580156100f8573d6000803e3d6000fd5b505050506040513d601f19601f8201168201806040525081019061011c9190610bb6565b8093508192505050806001600084815260200190815260200160002060008201518160000160006101000a81548173ffffffffffffffffffffffffffffffffffffffff021916908373ffffffffffffffffffffffffffffffffffffffff16021790555060208201518160010160006101000a81548173ffffffffffffffffffffffffffffffffffffffff021916908373ffffffffffffffffffffffffffffffffffffffff16021790555060408201518160020160006101000a81548173ffffffffffffffffffffffffffffffffffffffff021916908373ffffffffffffffffffffffffffffffffffffffff160217905550606082015181600301556080820151816004015560a08201518160050160006101000a81548160ff02191690831515021790555060c08201518160050160016101000a81548160ff0219169083600181111561026c5761026b610bf8565b5b021790555060e0820151816006016000820151816000015550506101008201518160070160008201518160000160006101000a81548173ffffffffffffffffffffffffffffffffffffffff021916908373ffffffffffffffffffffffffffffffffffffffff160217905550505090505080600260003373ffffffffffffffffffffffffffffffffffffffff1673ffffffffffffffffffffffffffffffffffffffff16815260200190815260200160002060008201518160000160006101000a81548173ffffffffffffffffffffffffffffffffffffffff021916908373ffffffffffffffffffffffffffffffffffffffff16021790555060208201518160010160006101000a81548173ffffffffffffffffffffffffffffffffffffffff021916908373ffffffffffffffffffffffffffffffffffffffff16021790555060408201518160020160006101000a81548173ffffffffffffffffffffffffffffffffffffffff021916908373ffffffffffffffffffffffffffffffffffffffff160217905550606082015181600301556080820151816004015560a08201518160050160006101000a81548160ff02191690831515021790555060c08201518160050160016101000a81548160ff021916908360018111156104505761044f610bf8565b5b021790555060e0820151816006016000820151816000015550506101008201518160070160008201518160000160006101000a81548173ffffffffffffffffffffffffffffffffffffffff021916908373ffffffffffffffffffffffffffffffffffffffff16021790555050509050506104ca8183610556565b50505050565b806000806101000a81548173ffffffffffffffffffffffffffffffffffffffff021916908373ffffffffffffffffffffffffffffffffffffffff1602179055508073ffffffffffffffffffffffffffffffffffffffff167f7437299f2ef95df7185f14c65d2b599b511d11dba6eeeb1fcde77df97f14321e60405160405180910390a250565b6105946040518060400160405280600a81526020017f6166746572706f73743100000000000000000000000000000000000000000000815250610631565b816020015173ffffffffffffffffffffffffffffffffffffffff16826000015173ffffffffffffffffffffffffffffffffffffffff167fd45bb59a90dd54277795b6932c18e671ec7a5de7f471deddbaa5e3aa26248b3960405160405180910390a37faf15bed1cac92d3f0429bfb6e9fd1868cc467abf51cfdc1a0ed46e1a29e972c2816040516106259190610c36565b60405180910390a15050565b6106c7816040516024016106459190610cd9565b6040516020818303038152906040527f41304fac000000000000000000000000000000000000000000000000000000007bffffffffffffffffffffffffffffffffffffffffffffffffffffffff19166020820180517bffffffffffffffffffffffffffffffffffffffffffffffffffffffff83818316178352505050506106ca565b50565b60008151905060006a636f6e736f6c652e6c6f679050602083016000808483855afa5050505050565b604051806101200160405280600073ffffffffffffffffffffffffffffffffffffffff168152602001600073ffffffffffffffffffffffffffffffffffffffff168152602001600073ffffffffffffffffffffffffffffffffffffffff16815260200160008152602001600081526020016000151581526020016000600181111561078157610780610bf8565b5b815260200161078e6107a1565b815260200161079b6107b4565b81525090565b6040518060200160405280600081525090565b6040518060200160405280600073ffffffffffffffffffffffffffffffffffffffff1681525090565b6000604051905090565b600080fd5b600073ffffffffffffffffffffffffffffffffffffffff82169050919050565b6000610817826107ec565b9050919050565b6108278161080c565b811461083257600080fd5b50565b6000813590506108448161081e565b92915050565b60008060408385031215610861576108606107e7565b5b600061086f85828601610835565b925050602061088085828601610835565b9150509250929050565b6000602082840312156108a05761089f6107e7565b5b60006108ae84828501610835565b91505092915050565b6108c08161080c565b82525050565b60006040820190506108db60008301856108b7565b6108e860208301846108b7565b9392505050565b600080fd5b6000601f19601f8301169050919050565b7f4e487b7100000000000000000000000000000000000000000000000000000000600052604160045260246000fd5b61093d826108f4565b810181811067ffffffffffffffff8211171561095c5761095b610905565b5b80604052505050565b600061096f6107dd565b905061097b8282610934565b919050565b60008151905061098f8161081e565b92915050565b6000819050919050565b6109a881610995565b81146109b357600080fd5b50565b6000815190506109c58161099f565b92915050565b60008115159050919050565b6109e0816109cb565b81146109eb57600080fd5b50565b6000815190506109fd816109d7565b92915050565b60028110610a1057600080fd5b50565b600081519050610a2281610a03565b92915050565b600060208284031215610a3e57610a3d6108ef565b5b610a486020610965565b90506000610a58848285016109b6565b60008301525092915050565b600060208284031215610a7a57610a796108ef565b5b610a846020610965565b90506000610a9484828501610980565b60008301525092915050565b60006101208284031215610ab757610ab66108ef565b5b610ac2610120610965565b90506000610ad284828501610980565b6000830152506020610ae684828501610980565b6020830152506040610afa84828501610980565b6040830152506060610b0e848285016109b6565b6060830152506080610b22848285016109b6565b60808301525060a0610b36848285016109ee565b60a08301525060c0610b4a84828501610a13565b60c08301525060e0610b5e84828501610a28565b60e083015250610100610b7384828501610a64565b6101008301525092915050565b6000819050919050565b610b9381610b80565b8114610b9e57600080fd5b50565b600081519050610bb081610b8a565b92915050565b6000806101408385031215610bce57610bcd6107e7565b5b6000610bdc85828601610aa0565b925050610120610bee85828601610ba1565b9150509250929050565b7f4e487b7100000000000000000000000000000000000000000000000000000000600052602160045260246000fd5b610c3081610b80565b82525050565b6000602082019050610c4b6000830184610c27565b92915050565b600081519050919050565b600082825260208201905092915050565b60005b83811015610c8b578082015181840152602081019050610c70565b83811115610c9a576000848401525b50505050565b6000610cab82610c51565b610cb58185610c5c565b9350610cc5818560208601610c6d565b610cce816108f4565b840191505092915050565b60006020820190508181036000830152610cf38184610ca0565b90509291505056fea26469706673582212206a20872cfef1148be2b61df7c6175d6e3c27a3e37f8c0bb532ef4d3ffd38676f64736f6c634300080a0033",
  "linkReferences": {},
  "deployedLinkReferences": {}
}