{
  "_format": "hh-sol-artifact-1",
  "contractName": "hub",
  "sourceName": "contracts/hub.sol",
  "abi": [
    {
      "inputs": [
        {
          "internalType": "address",
          "name": "_lens",
          "type": "address"
        }
      ],
      "stateMutability": "nonpayable",
      "type": "constructor"
    },
    {
      "inputs": [],
      "name": "NotDispatcher",
      "type": "error"
    },
    {
      "inputs": [],
      "name": "TokenDoesNotExist",
      "type": "error"
    },
    {
      "inputs": [
        {
          "internalType": "string",
          "name": "",
          "type": "string"
        }
      ],
      "name": "UserNotAllowed",
      "type": "error"
    },
    {
      "inputs": [],
      "name": "alreadyResolved",
      "type": "error"
    },
    {
      "inputs": [],
      "name": "amountMustBeGreaterThanZero",
      "type": "error"
    },
    {
      "inputs": [
        {
          "internalType": "enum DataTypes.ResolveTypes",
          "name": "_resolveTypeGiven",
          "type": "uint8"
        },
        {
          "internalType": "enum DataTypes.ResolveTypes",
          "name": "_resolveTypeNeeded",
          "type": "uint8"
        }
      ],
      "name": "cannotUseThisFunctionToResolve",
      "type": "error"
    },
    {
      "inputs": [],
      "name": "executablePostNotFound",
      "type": "error"
    },
    {
      "inputs": [
        {
          "internalType": "uint256",
          "name": "allowance",
          "type": "uint256"
        },
        {
          "internalType": "uint256",
          "name": "required",
          "type": "uint256"
        }
      ],
      "name": "insufficientAllowance",
      "type": "error"
    },
    {
      "inputs": [
        {
          "internalType": "uint256",
          "name": "balance",
          "type": "uint256"
        },
        {
          "internalType": "uint256",
          "name": "required",
          "type": "uint256"
        }
      ],
      "name": "insufficientBalance",
      "type": "error"
    },
    {
      "inputs": [
        {
          "internalType": "string",
          "name": "_message",
          "type": "string"
        }
      ],
      "name": "oracleError",
      "type": "error"
    },
    {
      "inputs": [],
      "name": "partyAPlusPartyBIsNot100",
      "type": "error"
    },
    {
      "inputs": [],
      "name": "timestampDeltaGreaterThanTolerance",
      "type": "error"
    },
    {
      "inputs": [
        {
          "internalType": "address",
          "name": "_ResolverAddress",
          "type": "address"
        }
      ],
      "name": "youAreNotResolverOfExecutablePost",
      "type": "error"
    },
    {
      "inputs": [
        {
          "internalType": "uint256",
          "name": "_currentTimeStamp",
          "type": "uint256"
        },
        {
          "internalType": "uint256",
          "name": "_requiredTimeStamp",
          "type": "uint256"
        }
      ],
      "name": "youTryToResolveTooEarly",
      "type": "error"
    },
    {
      "inputs": [
        {
          "internalType": "address",
          "name": "_treasury",
          "type": "address"
        }
      ],
      "name": "_setTreasuryAddress",
      "outputs": [],
      "stateMutability": "nonpayable",
      "type": "function"
    },
    {
      "inputs": [
        {
          "internalType": "bytes32",
          "name": "_id",
          "type": "bytes32"
        }
      ],
      "name": "getPostById",
      "outputs": [
        {
          "components": [
            {
              "internalType": "address",
              "name": "partyA",
              "type": "address"
            },
            {
              "internalType": "address",
              "name": "partyB",
              "type": "address"
            },
            {
              "internalType": "address",
              "name": "owner",
              "type": "address"
            },
            {
              "internalType": "address",
              "name": "resolver",
              "type": "address"
            },
            {
              "internalType": "uint256",
              "name": "resolveAfter",
              "type": "uint256"
            },
            {
              "internalType": "uint256",
              "name": "automaticallyResolveAfter",
              "type": "uint256"
            },
            {
              "internalType": "uint256",
              "name": "amount",
              "type": "uint256"
            },
            {
              "internalType": "address",
              "name": "currency",
              "type": "address"
            },
            {
              "internalType": "bool",
              "name": "resolved",
              "type": "bool"
            },
            {
              "components": [
                {
                  "internalType": "enum DataTypes.ResolveTypes",
                  "name": "resolveType",
                  "type": "uint8"
                },
                {
                  "internalType": "string",
                  "name": "metric",
                  "type": "string"
                },
                {
                  "internalType": "string",
                  "name": "sourceString",
                  "type": "string"
                },
                {
                  "internalType": "address",
                  "name": "sourceAddress",
                  "type": "address"
                },
                {
                  "internalType": "uint256",
                  "name": "timestamp",
                  "type": "uint256"
                },
                {
                  "internalType": "int256",
                  "name": "valueInt",
                  "type": "int256"
                },
                {
                  "internalType": "enum DataTypes.ResolveOperators",
                  "name": "operator",
                  "type": "uint8"
                }
              ],
              "internalType": "struct DataTypes.ResolveConditions",
              "name": "resolveConditions",
              "type": "tuple"
            },
            {
              "components": [
                {
                  "internalType": "uint256",
                  "name": "profileId",
                  "type": "uint256"
                },
                {
                  "internalType": "uint256",
                  "name": "initialPubId",
                  "type": "uint256"
                },
                {
                  "internalType": "uint256",
                  "name": "resolvingPubId",
                  "type": "uint256"
                }
              ],
              "internalType": "struct DataTypes.LensPostInfo",
              "name": "lensPostInfo",
              "type": "tuple"
            }
          ],
          "internalType": "struct DataTypes.Post",
          "name": "",
          "type": "tuple"
        }
      ],
      "stateMutability": "view",
      "type": "function"
    },
    {
      "inputs": [],
      "name": "governance",
      "outputs": [
        {
          "internalType": "address",
          "name": "",
          "type": "address"
        }
      ],
      "stateMutability": "view",
      "type": "function"
    },
    {
      "inputs": [
        {
          "components": [
            {
              "internalType": "address",
              "name": "partyA",
              "type": "address"
            },
            {
              "internalType": "address",
              "name": "partyB",
              "type": "address"
            },
            {
              "internalType": "address",
              "name": "owner",
              "type": "address"
            },
            {
              "internalType": "address",
              "name": "resolver",
              "type": "address"
            },
            {
              "internalType": "uint256",
              "name": "resolveAfter",
              "type": "uint256"
            },
            {
              "internalType": "uint256",
              "name": "automaticallyResolveAfter",
              "type": "uint256"
            },
            {
              "internalType": "uint256",
              "name": "amount",
              "type": "uint256"
            },
            {
              "internalType": "address",
              "name": "currency",
              "type": "address"
            },
            {
              "internalType": "bool",
              "name": "resolved",
              "type": "bool"
            },
            {
              "components": [
                {
                  "internalType": "enum DataTypes.ResolveTypes",
                  "name": "resolveType",
                  "type": "uint8"
                },
                {
                  "internalType": "string",
                  "name": "metric",
                  "type": "string"
                },
                {
                  "internalType": "string",
                  "name": "sourceString",
                  "type": "string"
                },
                {
                  "internalType": "address",
                  "name": "sourceAddress",
                  "type": "address"
                },
                {
                  "internalType": "uint256",
                  "name": "timestamp",
                  "type": "uint256"
                },
                {
                  "internalType": "int256",
                  "name": "valueInt",
                  "type": "int256"
                },
                {
                  "internalType": "enum DataTypes.ResolveOperators",
                  "name": "operator",
                  "type": "uint8"
                }
              ],
              "internalType": "struct DataTypes.ResolveConditions",
              "name": "resolveConditions",
              "type": "tuple"
            },
            {
              "components": [
                {
                  "internalType": "uint256",
                  "name": "profileId",
                  "type": "uint256"
                },
                {
                  "internalType": "uint256",
                  "name": "initialPubId",
                  "type": "uint256"
                },
                {
                  "internalType": "uint256",
                  "name": "resolvingPubId",
                  "type": "uint256"
                }
              ],
              "internalType": "struct DataTypes.LensPostInfo",
              "name": "lensPostInfo",
              "type": "tuple"
            }
          ],
          "internalType": "struct DataTypes.Post",
          "name": "_post",
          "type": "tuple"
        },
        {
          "components": [
            {
              "internalType": "uint256",
              "name": "profileId",
              "type": "uint256"
            },
            {
              "internalType": "string",
              "name": "contentURI",
              "type": "string"
            },
            {
              "internalType": "address",
              "name": "collectModule",
              "type": "address"
            },
            {
              "internalType": "bytes",
              "name": "collectModuleInitData",
              "type": "bytes"
            },
            {
              "internalType": "address",
              "name": "referenceModule",
              "type": "address"
            },
            {
              "internalType": "bytes",
              "name": "referenceModuleInitData",
              "type": "bytes"
            }
          ],
          "internalType": "struct DataTypes.PostData",
          "name": "_lensPost",
          "type": "tuple"
        }
      ],
      "name": "post",
      "outputs": [
        {
          "internalType": "bytes32",
          "name": "id",
          "type": "bytes32"
        },
        {
          "internalType": "uint256",
          "name": "initialPubId",
          "type": "uint256"
        }
      ],
      "stateMutability": "nonpayable",
      "type": "function"
    },
    {
      "inputs": [
        {
          "internalType": "bytes32",
          "name": "_id",
          "type": "bytes32"
        },
        {
          "internalType": "uint256",
          "name": "_oracleRoundId",
          "type": "uint256"
        },
        {
          "components": [
            {
              "internalType": "uint256",
              "name": "profileId",
              "type": "uint256"
            },
            {
              "internalType": "string",
              "name": "contentURI",
              "type": "string"
            },
            {
              "internalType": "uint256",
              "name": "profileIdPointed",
              "type": "uint256"
            },
            {
              "internalType": "uint256",
              "name": "pubIdPointed",
              "type": "uint256"
            },
            {
              "internalType": "bytes",
              "name": "referenceModuleData",
              "type": "bytes"
            },
            {
              "internalType": "address",
              "name": "collectModule",
              "type": "address"
            },
            {
              "internalType": "bytes",
              "name": "collectModuleInitData",
              "type": "bytes"
            },
            {
              "internalType": "address",
              "name": "referenceModule",
              "type": "address"
            },
            {
              "internalType": "bytes",
              "name": "referenceModuleInitData",
              "type": "bytes"
            }
          ],
          "internalType": "struct DataTypes.CommentData",
          "name": "_commentData",
          "type": "tuple"
        }
      ],
      "name": "resolveByOracle",
      "outputs": [],
      "stateMutability": "nonpayable",
      "type": "function"
    },
    {
      "inputs": [
        {
          "internalType": "bytes32",
          "name": "_id",
          "type": "bytes32"
        },
        {
          "internalType": "uint8",
          "name": "_resultPartyA",
          "type": "uint8"
        },
        {
          "internalType": "uint8",
          "name": "_resultPartyB",
          "type": "uint8"
        },
        {
          "components": [
            {
              "internalType": "uint256",
              "name": "profileId",
              "type": "uint256"
            },
            {
              "internalType": "string",
              "name": "contentURI",
              "type": "string"
            },
            {
              "internalType": "uint256",
              "name": "profileIdPointed",
              "type": "uint256"
            },
            {
              "internalType": "uint256",
              "name": "pubIdPointed",
              "type": "uint256"
            },
            {
              "internalType": "bytes",
              "name": "referenceModuleData",
              "type": "bytes"
            },
            {
              "internalType": "address",
              "name": "collectModule",
              "type": "address"
            },
            {
              "internalType": "bytes",
              "name": "collectModuleInitData",
              "type": "bytes"
            },
            {
              "internalType": "address",
              "name": "referenceModule",
              "type": "address"
            },
            {
              "internalType": "bytes",
              "name": "referenceModuleInitData",
              "type": "bytes"
            }
          ],
          "internalType": "struct DataTypes.CommentData",
          "name": "_commentData",
          "type": "tuple"
        }
      ],
      "name": "resolveByOwner",
      "outputs": [],
      "stateMutability": "nonpayable",
      "type": "function"
    },
    {
      "inputs": [],
      "name": "waitForAutomaticResolution",
      "outputs": [
        {
          "internalType": "uint256",
          "name": "",
          "type": "uint256"
        }
      ],
      "stateMutability": "view",
      "type": "function"
    }
  ],
  "bytecode": "0x60806040523480156200001157600080fd5b50604051620040da380380620040da833981810160405281019062000037919062000189565b33600160006101000a81548173ffffffffffffffffffffffffffffffffffffffff021916908373ffffffffffffffffffffffffffffffffffffffff16021790555030600260006101000a81548173ffffffffffffffffffffffffffffffffffffffff021916908373ffffffffffffffffffffffffffffffffffffffff160217905550618ca06000806101000a81548161ffff021916908361ffff16021790555080600060026101000a81548173ffffffffffffffffffffffffffffffffffffffff021916908373ffffffffffffffffffffffffffffffffffffffff16021790555050620001bb565b600080fd5b600073ffffffffffffffffffffffffffffffffffffffff82169050919050565b6000620001518262000124565b9050919050565b620001638162000144565b81146200016f57600080fd5b50565b600081519050620001838162000158565b92915050565b600060208284031215620001a257620001a16200011f565b5b6000620001b28482850162000172565b91505092915050565b613f0f80620001cb6000396000f3fe608060405234801561001057600080fd5b506004361061007d5760003560e01c8063ae362ff91161005b578063ae362ff9146100d8578063c73037d514610108578063d6ff4dcd14610124578063e37e789b146101425761007d565b806316d07f00146100825780635aa6e6751461009e578063645ac860146100bc575b600080fd5b61009c60048036038101906100979190612aa4565b610173565b005b6100a6610749565b6040516100b39190612b36565b60405180910390f35b6100d660048036038101906100d19190612b51565b61076f565b005b6100f260048036038101906100ed9190612b7e565b6108a8565b6040516100ff9190612f18565b60405180910390f35b610122600480360381019061011d9190612f3a565b610d07565b005b61012c611386565b6040516101399190612fb8565b60405180910390f35b61015c60048036038101906101579190613311565b61138c565b60405161016a929190613398565b60405180910390f35b60046000858152602001908152602001600020600080826006015414156101c6576040517f7fecbe3f00000000000000000000000000000000000000000000000000000000815260040160405180910390fd5b8060018111156101d9576101d8612be4565b5b8260080160000160009054906101000a900460ff166001811115610200576101ff612be4565b5b1461025857808260080160000160009054906101000a900460ff166040517ff548bef500000000000000000000000000000000000000000000000000000000815260040161024f9291906133d0565b60405180910390fd5b3373ffffffffffffffffffffffffffffffffffffffff168260030160009054906101000a900473ffffffffffffffffffffffffffffffffffffffff1673ffffffffffffffffffffffffffffffffffffffff1614610310578160030160009054906101000a900473ffffffffffffffffffffffffffffffffffffffff166040517f49261fcc0000000000000000000000000000000000000000000000000000000081526004016103079190612b36565b60405180910390fd5b428260040154111561035f574282600401546040517f57f3780e0000000000000000000000000000000000000000000000000000000081526004016103569291906133f9565b60405180910390fd5b8160070160149054906101000a900460ff16156103a8576040517ffd55da1000000000000000000000000000000000000000000000000000000000815260040160405180910390fd5b8484606481836103b89190613451565b60ff16146103f2576040517fdd55b48000000000000000000000000000000000000000000000000000000000815260040160405180910390fd5b846000015160008060029054906101000a900473ffffffffffffffffffffffffffffffffffffffff1673ffffffffffffffffffffffffffffffffffffffff1663ec81d194836040518263ffffffff1660e01b81526004016104539190612fb8565b600060405180830381865afa158015610470573d6000803e3d6000fd5b505050506040513d6000823e3d601f19601f8201168201806040525081019061049991906134f8565b90506000815114156104d7576040517fceea21b600000000000000000000000000000000000000000000000000000000815260040160405180910390fd5b60008060029054906101000a900473ffffffffffffffffffffffffffffffffffffffff1673ffffffffffffffffffffffffffffffffffffffff1663540528b9846040518263ffffffff1660e01b81526004016105339190612fb8565b602060405180830381865afa158015610550573d6000803e3d6000fd5b505050506040513d601f19601f820116820180604052508101906105749190613556565b90503073ffffffffffffffffffffffffffffffffffffffff168173ffffffffffffffffffffffffffffffffffffffff16146105db576040517f957fb99f00000000000000000000000000000000000000000000000000000000815260040160405180910390fd5b6000600460008d8152602001908152602001600020905061066360648c60ff16836006015461060a9190613583565b610614919061360c565b8260070160009054906101000a900473ffffffffffffffffffffffffffffffffffffffff168360000160009054906101000a900473ffffffffffffffffffffffffffffffffffffffff16611ddb565b6106d460648b60ff16836006015461067b9190613583565b610685919061360c565b8260070160009054906101000a900473ffffffffffffffffffffffffffffffffffffffff168360010160009054906101000a900473ffffffffffffffffffffffffffffffffffffffff16611ddb565b6106e181600f018a611e65565b985060006106ee8a611e92565b905060018260070160146101000a81548160ff021916908315150217905550807fd2640e56725b8330ec0701927793d7d4dd29e77d607d421aa3e19d3877c7dff760405160405180910390a250505050505050505050505050565b600160009054906101000a900473ffffffffffffffffffffffffffffffffffffffff1681565b600160009054906101000a900473ffffffffffffffffffffffffffffffffffffffff1673ffffffffffffffffffffffffffffffffffffffff163373ffffffffffffffffffffffffffffffffffffffff16146107ff576040517fd2a4bdfb0000000000000000000000000000000000000000000000000000000081526004016107f69061369a565b60405180910390fd5b80600260006101000a81548173ffffffffffffffffffffffffffffffffffffffff021916908373ffffffffffffffffffffffffffffffffffffffff160217905550600260009054906101000a900473ffffffffffffffffffffffffffffffffffffffff1673ffffffffffffffffffffffffffffffffffffffff167f7437299f2ef95df7185f14c65d2b599b511d11dba6eeeb1fcde77df97f14321e60405160405180910390a250565b6108b06123c3565b60046000838152602001908152602001600020604051806101600160405290816000820160009054906101000a900473ffffffffffffffffffffffffffffffffffffffff1673ffffffffffffffffffffffffffffffffffffffff1673ffffffffffffffffffffffffffffffffffffffff1681526020016001820160009054906101000a900473ffffffffffffffffffffffffffffffffffffffff1673ffffffffffffffffffffffffffffffffffffffff1673ffffffffffffffffffffffffffffffffffffffff1681526020016002820160009054906101000a900473ffffffffffffffffffffffffffffffffffffffff1673ffffffffffffffffffffffffffffffffffffffff1673ffffffffffffffffffffffffffffffffffffffff1681526020016003820160009054906101000a900473ffffffffffffffffffffffffffffffffffffffff1673ffffffffffffffffffffffffffffffffffffffff1673ffffffffffffffffffffffffffffffffffffffff1681526020016004820154815260200160058201548152602001600682015481526020016007820160009054906101000a900473ffffffffffffffffffffffffffffffffffffffff1673ffffffffffffffffffffffffffffffffffffffff1673ffffffffffffffffffffffffffffffffffffffff1681526020016007820160149054906101000a900460ff16151515158152602001600882016040518060e00160405290816000820160009054906101000a900460ff166001811115610aeb57610aea612be4565b5b6001811115610afd57610afc612be4565b5b8152602001600182018054610b11906136e9565b80601f0160208091040260200160405190810160405280929190818152602001828054610b3d906136e9565b8015610b8a5780601f10610b5f57610100808354040283529160200191610b8a565b820191906000526020600020905b815481529060010190602001808311610b6d57829003601f168201915b50505050508152602001600282018054610ba3906136e9565b80601f0160208091040260200160405190810160405280929190818152602001828054610bcf906136e9565b8015610c1c5780601f10610bf157610100808354040283529160200191610c1c565b820191906000526020600020905b815481529060010190602001808311610bff57829003601f168201915b505050505081526020016003820160009054906101000a900473ffffffffffffffffffffffffffffffffffffffff1673ffffffffffffffffffffffffffffffffffffffff1673ffffffffffffffffffffffffffffffffffffffff16815260200160048201548152602001600582015481526020016006820160009054906101000a900460ff166002811115610cb457610cb3612be4565b5b6002811115610cc657610cc5612be4565b5b815250508152602001600f82016040518060600160405290816000820154815260200160018201548152602001600282015481525050815250509050919050565b600460008481526020019081526020016000206001600082600601541415610d5b576040517f7fecbe3f00000000000000000000000000000000000000000000000000000000815260040160405180910390fd5b806001811115610d6e57610d6d612be4565b5b8260080160000160009054906101000a900460ff166001811115610d9557610d94612be4565b5b14610ded57808260080160000160009054906101000a900460ff166040517ff548bef5000000000000000000000000000000000000000000000000000000008152600401610de49291906133d0565b60405180910390fd5b3373ffffffffffffffffffffffffffffffffffffffff168260030160009054906101000a900473ffffffffffffffffffffffffffffffffffffffff1673ffffffffffffffffffffffffffffffffffffffff1614610ea5578160030160009054906101000a900473ffffffffffffffffffffffffffffffffffffffff166040517f49261fcc000000000000000000000000000000000000000000000000000000008152600401610e9c9190612b36565b60405180910390fd5b4282600401541115610ef4574282600401546040517f57f3780e000000000000000000000000000000000000000000000000000000008152600401610eeb9291906133f9565b60405180910390fd5b8160070160149054906101000a900460ff1615610f3d576040517ffd55da1000000000000000000000000000000000000000000000000000000000815260040160405180910390fd5b83600460008781526020019081526020016000206008016000610f848260030160009054906101000a900473ffffffffffffffffffffffffffffffffffffffff1684611f38565b90506000811415610fca576040517f12e47ec5000000000000000000000000000000000000000000000000000000008152600401610fc19061378d565b60405180910390fd5b6000610fda828460040154611fc1565b905060008054906101000a900461ffff1661ffff16811115611028576040517f57c94c3b00000000000000000000000000000000000000000000000000000000815260040160405180910390fd5b866000015160008060029054906101000a900473ffffffffffffffffffffffffffffffffffffffff1673ffffffffffffffffffffffffffffffffffffffff1663ec81d194836040518263ffffffff1660e01b81526004016110899190612fb8565b600060405180830381865afa1580156110a6573d6000803e3d6000fd5b505050506040513d6000823e3d601f19601f820116820180604052508101906110cf91906134f8565b905060008151141561110d576040517fceea21b600000000000000000000000000000000000000000000000000000000815260040160405180910390fd5b60008060029054906101000a900473ffffffffffffffffffffffffffffffffffffffff1673ffffffffffffffffffffffffffffffffffffffff1663540528b9846040518263ffffffff1660e01b81526004016111699190612fb8565b602060405180830381865afa158015611186573d6000803e3d6000fd5b505050506040513d601f19601f820116820180604052508101906111aa9190613556565b90503073ffffffffffffffffffffffffffffffffffffffff168173ffffffffffffffffffffffffffffffffffffffff1614611211576040517f957fb99f00000000000000000000000000000000000000000000000000000000815260040160405180910390fd5b6000600460008e81526020019081526020016000209050600081600801905060006112608260030160009054906101000a900473ffffffffffffffffffffffffffffffffffffffff168f61201b565b905060006112848360050154838560060160009054906101000a900460ff166120a4565b6112b2578360010160009054906101000a900473ffffffffffffffffffffffffffffffffffffffff166112d8565b8360000160009054906101000a900473ffffffffffffffffffffffffffffffffffffffff165b905061130d84600601548560070160009054906101000a900473ffffffffffffffffffffffffffffffffffffffff1683611ddb565b61131a84600f018f611e65565b9d5060006113278f611e92565b905060018560070160146101000a81548160ff021916908315150217905550807fd2640e56725b8330ec0701927793d7d4dd29e77d607d421aa3e19d3877c7dff760405160405180910390a25050505050505050505050505050505050565b60035481565b6000808360c001518460e00151856040015160018310156113d9576040517f920fcb3900000000000000000000000000000000000000000000000000000000815260040160405180910390fd5b600082905060008173ffffffffffffffffffffffffffffffffffffffff1663dd62ed3e84306040518363ffffffff1660e01b815260040161141b9291906137ad565b602060405180830381865afa158015611438573d6000803e3d6000fd5b505050506040513d601f19601f8201168201806040525081019061145c91906137eb565b90506114678161217d565b848110156114ae5780856040517f4c2508230000000000000000000000000000000000000000000000000000000081526004016114a59291906133f9565b60405180910390fd5b60008273ffffffffffffffffffffffffffffffffffffffff166370a08231856040518263ffffffff1660e01b81526004016114e99190612b36565b602060405180830381865afa158015611506573d6000803e3d6000fd5b505050506040513d601f19601f8201168201806040525081019061152a91906137eb565b9050858110156115735780866040517fc7a28c7900000000000000000000000000000000000000000000000000000000815260040161156a9291906133f9565b60405180910390fd5b886000013560008060029054906101000a900473ffffffffffffffffffffffffffffffffffffffff1673ffffffffffffffffffffffffffffffffffffffff1663ec81d194836040518263ffffffff1660e01b81526004016115d49190612fb8565b600060405180830381865afa1580156115f1573d6000803e3d6000fd5b505050506040513d6000823e3d601f19601f8201168201806040525081019061161a91906134f8565b9050600081511415611658576040517fceea21b600000000000000000000000000000000000000000000000000000000815260040160405180910390fd5b60008060029054906101000a900473ffffffffffffffffffffffffffffffffffffffff1673ffffffffffffffffffffffffffffffffffffffff1663540528b9846040518263ffffffff1660e01b81526004016116b49190612fb8565b602060405180830381865afa1580156116d1573d6000803e3d6000fd5b505050506040513d601f19601f820116820180604052508101906116f59190613556565b90503073ffffffffffffffffffffffffffffffffffffffff168173ffffffffffffffffffffffffffffffffffffffff161461175c576040517f957fb99f00000000000000000000000000000000000000000000000000000000815260040160405180910390fd5b611764612216565b9a5061177d8d60c001518e60e001518f60400151612246565b6117868c6122f4565b99508b600001358d61014001516000018181525050898d610140015160200181815250508c600460008d815260200190815260200160002060008201518160000160006101000a81548173ffffffffffffffffffffffffffffffffffffffff021916908373ffffffffffffffffffffffffffffffffffffffff16021790555060208201518160010160006101000a81548173ffffffffffffffffffffffffffffffffffffffff021916908373ffffffffffffffffffffffffffffffffffffffff16021790555060408201518160020160006101000a81548173ffffffffffffffffffffffffffffffffffffffff021916908373ffffffffffffffffffffffffffffffffffffffff16021790555060608201518160030160006101000a81548173ffffffffffffffffffffffffffffffffffffffff021916908373ffffffffffffffffffffffffffffffffffffffff1602179055506080820151816004015560a0820151816005015560c0820151816006015560e08201518160070160006101000a81548173ffffffffffffffffffffffffffffffffffffffff021916908373ffffffffffffffffffffffffffffffffffffffff1602179055506101008201518160070160146101000a81548160ff0219169083151502179055506101208201518160080160008201518160000160006101000a81548160ff0219169083600181111561199557611994612be4565b5b021790555060208201518160010190805190602001906119b6929190612499565b5060408201518160020190805190602001906119d3929190612499565b5060608201518160030160006101000a81548173ffffffffffffffffffffffffffffffffffffffff021916908373ffffffffffffffffffffffffffffffffffffffff1602179055506080820151816004015560a0820151816005015560c08201518160060160006101000a81548160ff02191690836002811115611a5a57611a59612be4565b5b0217905550505061014082015181600f0160008201518160000155602082015181600101556040820151816002015550509050508c600560003373ffffffffffffffffffffffffffffffffffffffff1673ffffffffffffffffffffffffffffffffffffffff16815260200190815260200160002060008201518160000160006101000a81548173ffffffffffffffffffffffffffffffffffffffff021916908373ffffffffffffffffffffffffffffffffffffffff16021790555060208201518160010160006101000a81548173ffffffffffffffffffffffffffffffffffffffff021916908373ffffffffffffffffffffffffffffffffffffffff16021790555060408201518160020160006101000a81548173ffffffffffffffffffffffffffffffffffffffff021916908373ffffffffffffffffffffffffffffffffffffffff16021790555060608201518160030160006101000a81548173ffffffffffffffffffffffffffffffffffffffff021916908373ffffffffffffffffffffffffffffffffffffffff1602179055506080820151816004015560a0820151816005015560c0820151816006015560e08201518160070160006101000a81548173ffffffffffffffffffffffffffffffffffffffff021916908373ffffffffffffffffffffffffffffffffffffffff1602179055506101008201518160070160146101000a81548160ff0219169083151502179055506101208201518160080160008201518160000160006101000a81548160ff02191690836001811115611ca557611ca4612be4565b5b02179055506020820151816001019080519060200190611cc6929190612499565b506040820151816002019080519060200190611ce3929190612499565b5060608201518160030160006101000a81548173ffffffffffffffffffffffffffffffffffffffff021916908373ffffffffffffffffffffffffffffffffffffffff1602179055506080820151816004015560a0820151816005015560c08201518160060160006101000a81548160ff02191690836002811115611d6a57611d69612be4565b5b0217905550505061014082015181600f0160008201518160000155602082015181600101556040820151816002015550509050508a7faf15bed1cac92d3f0429bfb6e9fd1868cc467abf51cfdc1a0ed46e1a29e972c260405160405180910390a25050505050505050509250929050565b60008290508073ffffffffffffffffffffffffffffffffffffffff1663a9059cbb83866040518363ffffffff1660e01b8152600401611e1b929190613818565b6020604051808303816000875af1158015611e3a573d6000803e3d6000fd5b505050506040513d601f19601f82011682018060405250810190611e5e9190613856565b5050505050565b611e6d61251f565b8260000154826040018181525050826001015482606001818152505081905092915050565b60008060029054906101000a900473ffffffffffffffffffffffffffffffffffffffff1673ffffffffffffffffffffffffffffffffffffffff1663b6f32d2b836040518263ffffffff1660e01b8152600401611eee91906139b2565b6020604051808303816000875af1158015611f0d573d6000803e3d6000fd5b505050506040513d601f19601f82011682018060405250810190611f3191906137eb565b9050919050565b6000808390508073ffffffffffffffffffffffffffffffffffffffff1663b633620c846040518263ffffffff1660e01b8152600401611f779190612fb8565b602060405180830381865afa158015611f94573d6000803e3d6000fd5b505050506040513d601f19601f82011682018060405250810190611fb891906137eb565b91505092915050565b6000808284611fd091906139d4565b90506000808212611fe1578161200e565b7fffffffffffffffffffffffffffffffffffffffffffffffffffffffffffffffff8261200d9190613a68565b5b9050809250505092915050565b6000808390508073ffffffffffffffffffffffffffffffffffffffff1663b5ab58dc846040518263ffffffff1660e01b815260040161205a9190612fb8565b602060405180830381865afa158015612077573d6000803e3d6000fd5b505050506040513d601f19601f8201168201806040525081019061209b9190613b94565b91505092915050565b60008060028111156120b9576120b8612be4565b5b8260028111156120cc576120cb612be4565b5b14156120ea578383146120e05760006120e3565b60015b9050612176565b600160028111156120fe576120fd612be4565b5b82600281111561211157612110612be4565b5b14156121305783831215612126576000612129565b60015b9050612176565b60028081111561214357612142612be4565b5b82600281111561215657612155612be4565b5b1415612175578383131561216b57600061216e565b60015b9050612176565b5b9392505050565b612213816040516024016121919190612fb8565b6040516020818303038152906040527ff5b1bba9000000000000000000000000000000000000000000000000000000007bffffffffffffffffffffffffffffffffffffffffffffffffffffffff19166020820180517bffffffffffffffffffffffffffffffffffffffffffffffffffffffff838183161783525050505061239a565b50565b6000423260405160200161222b929190613c2a565b60405160208183030381529060405280519060200120905090565b60008290508073ffffffffffffffffffffffffffffffffffffffff166323b872dd83600260009054906101000a900473ffffffffffffffffffffffffffffffffffffffff16876040518463ffffffff1660e01b81526004016122aa93929190613c56565b6020604051808303816000875af11580156122c9573d6000803e3d6000fd5b505050506040513d601f19601f820116820180604052508101906122ed9190613856565b5050505050565b60008060029054906101000a900473ffffffffffffffffffffffffffffffffffffffff1673ffffffffffffffffffffffffffffffffffffffff1663963ff141836040518263ffffffff1660e01b81526004016123509190613eb7565b6020604051808303816000875af115801561236f573d6000803e3d6000fd5b505050506040513d601f19601f8201168201806040525081019061239391906137eb565b9050919050565b60008151905060006a636f6e736f6c652e6c6f679050602083016000808483855afa5050505050565b604051806101600160405280600073ffffffffffffffffffffffffffffffffffffffff168152602001600073ffffffffffffffffffffffffffffffffffffffff168152602001600073ffffffffffffffffffffffffffffffffffffffff168152602001600073ffffffffffffffffffffffffffffffffffffffff168152602001600081526020016000815260200160008152602001600073ffffffffffffffffffffffffffffffffffffffff168152602001600015158152602001612486612597565b815260200161249361260e565b81525090565b8280546124a5906136e9565b90600052602060002090601f0160209004810192826124c7576000855561250e565b82601f106124e057805160ff191683800117855561250e565b8280016001018555821561250e579182015b8281111561250d5782518255916020019190600101906124f2565b5b50905061251b919061262f565b5090565b6040518061012001604052806000815260200160608152602001600081526020016000815260200160608152602001600073ffffffffffffffffffffffffffffffffffffffff16815260200160608152602001600073ffffffffffffffffffffffffffffffffffffffff168152602001606081525090565b6040518060e00160405280600060018111156125b6576125b5612be4565b5b81526020016060815260200160608152602001600073ffffffffffffffffffffffffffffffffffffffff16815260200160008152602001600081526020016000600281111561260857612607612be4565b5b81525090565b60405180606001604052806000815260200160008152602001600081525090565b5b80821115612648576000816000905550600101612630565b5090565b6000604051905090565b600080fd5b600080fd5b6000819050919050565b61267381612660565b811461267e57600080fd5b50565b6000813590506126908161266a565b92915050565b600060ff82169050919050565b6126ac81612696565b81146126b757600080fd5b50565b6000813590506126c9816126a3565b92915050565b600080fd5b6000601f19601f8301169050919050565b7f4e487b7100000000000000000000000000000000000000000000000000000000600052604160045260246000fd5b61271d826126d4565b810181811067ffffffffffffffff8211171561273c5761273b6126e5565b5b80604052505050565b600061274f61264c565b905061275b8282612714565b919050565b600080fd5b6000819050919050565b61277881612765565b811461278357600080fd5b50565b6000813590506127958161276f565b92915050565b600080fd5b600080fd5b600067ffffffffffffffff8211156127c0576127bf6126e5565b5b6127c9826126d4565b9050602081019050919050565b82818337600083830152505050565b60006127f86127f3846127a5565b612745565b905082815260208101848484011115612814576128136127a0565b5b61281f8482856127d6565b509392505050565b600082601f83011261283c5761283b61279b565b5b813561284c8482602086016127e5565b91505092915050565b600067ffffffffffffffff8211156128705761286f6126e5565b5b612879826126d4565b9050602081019050919050565b600061289961289484612855565b612745565b9050828152602081018484840111156128b5576128b46127a0565b5b6128c08482856127d6565b509392505050565b600082601f8301126128dd576128dc61279b565b5b81356128ed848260208601612886565b91505092915050565b600073ffffffffffffffffffffffffffffffffffffffff82169050919050565b6000612921826128f6565b9050919050565b61293181612916565b811461293c57600080fd5b50565b60008135905061294e81612928565b92915050565b6000610120828403121561296b5761296a6126cf565b5b612976610120612745565b9050600061298684828501612786565b600083015250602082013567ffffffffffffffff8111156129aa576129a9612760565b5b6129b684828501612827565b60208301525060406129ca84828501612786565b60408301525060606129de84828501612786565b606083015250608082013567ffffffffffffffff811115612a0257612a01612760565b5b612a0e848285016128c8565b60808301525060a0612a228482850161293f565b60a08301525060c082013567ffffffffffffffff811115612a4657612a45612760565b5b612a52848285016128c8565b60c08301525060e0612a668482850161293f565b60e08301525061010082013567ffffffffffffffff811115612a8b57612a8a612760565b5b612a97848285016128c8565b6101008301525092915050565b60008060008060808587031215612abe57612abd612656565b5b6000612acc87828801612681565b9450506020612add878288016126ba565b9350506040612aee878288016126ba565b925050606085013567ffffffffffffffff811115612b0f57612b0e61265b565b5b612b1b87828801612954565b91505092959194509250565b612b3081612916565b82525050565b6000602082019050612b4b6000830184612b27565b92915050565b600060208284031215612b6757612b66612656565b5b6000612b758482850161293f565b91505092915050565b600060208284031215612b9457612b93612656565b5b6000612ba284828501612681565b91505092915050565b612bb481612916565b82525050565b612bc381612765565b82525050565b60008115159050919050565b612bde81612bc9565b82525050565b7f4e487b7100000000000000000000000000000000000000000000000000000000600052602160045260246000fd5b60028110612c2457612c23612be4565b5b50565b6000819050612c3582612c13565b919050565b6000612c4582612c27565b9050919050565b612c5581612c3a565b82525050565b600081519050919050565b600082825260208201905092915050565b60005b83811015612c95578082015181840152602081019050612c7a565b83811115612ca4576000848401525b50505050565b6000612cb582612c5b565b612cbf8185612c66565b9350612ccf818560208601612c77565b612cd8816126d4565b840191505092915050565b6000819050919050565b612cf681612ce3565b82525050565b60038110612d0d57612d0c612be4565b5b50565b6000819050612d1e82612cfc565b919050565b6000612d2e82612d10565b9050919050565b612d3e81612d23565b82525050565b600060e083016000830151612d5c6000860182612c4c565b5060208301518482036020860152612d748282612caa565b91505060408301518482036040860152612d8e8282612caa565b9150506060830151612da36060860182612bab565b506080830151612db66080860182612bba565b5060a0830151612dc960a0860182612ced565b5060c0830151612ddc60c0860182612d35565b508091505092915050565b606082016000820151612dfd6000850182612bba565b506020820151612e106020850182612bba565b506040820151612e236040850182612bba565b50505050565b60006101a083016000830151612e426000860182612bab565b506020830151612e556020860182612bab565b506040830151612e686040860182612bab565b506060830151612e7b6060860182612bab565b506080830151612e8e6080860182612bba565b5060a0830151612ea160a0860182612bba565b5060c0830151612eb460c0860182612bba565b5060e0830151612ec760e0860182612bab565b50610100830151612edc610100860182612bd5565b50610120830151848203610120860152612ef68282612d44565b915050610140830151612f0d610140860182612de7565b508091505092915050565b60006020820190508181036000830152612f328184612e29565b905092915050565b600080600060608486031215612f5357612f52612656565b5b6000612f6186828701612681565b9350506020612f7286828701612786565b925050604084013567ffffffffffffffff811115612f9357612f9261265b565b5b612f9f86828701612954565b9150509250925092565b612fb281612765565b82525050565b6000602082019050612fcd6000830184612fa9565b92915050565b612fdc81612bc9565b8114612fe757600080fd5b50565b600081359050612ff981612fd3565b92915050565b6002811061300c57600080fd5b50565b60008135905061301e81612fff565b92915050565b61302d81612ce3565b811461303857600080fd5b50565b60008135905061304a81613024565b92915050565b6003811061305d57600080fd5b50565b60008135905061306f81613050565b92915050565b600060e0828403121561308b5761308a6126cf565b5b61309560e0612745565b905060006130a58482850161300f565b600083015250602082013567ffffffffffffffff8111156130c9576130c8612760565b5b6130d584828501612827565b602083015250604082013567ffffffffffffffff8111156130f9576130f8612760565b5b61310584828501612827565b60408301525060606131198482850161293f565b606083015250608061312d84828501612786565b60808301525060a06131418482850161303b565b60a08301525060c061315584828501613060565b60c08301525092915050565b600060608284031215613177576131766126cf565b5b6131816060612745565b9050600061319184828501612786565b60008301525060206131a584828501612786565b60208301525060406131b984828501612786565b60408301525092915050565b60006101a082840312156131dc576131db6126cf565b5b6131e7610160612745565b905060006131f78482850161293f565b600083015250602061320b8482850161293f565b602083015250604061321f8482850161293f565b60408301525060606132338482850161293f565b606083015250608061324784828501612786565b60808301525060a061325b84828501612786565b60a08301525060c061326f84828501612786565b60c08301525060e06132838482850161293f565b60e08301525061010061329884828501612fea565b6101008301525061012082013567ffffffffffffffff8111156132be576132bd612760565b5b6132ca84828501613075565b610120830152506101406132e084828501613161565b6101408301525092915050565b600080fd5b600060c08284031215613308576133076132ed565b5b81905092915050565b6000806040838503121561332857613327612656565b5b600083013567ffffffffffffffff8111156133465761334561265b565b5b613352858286016131c5565b925050602083013567ffffffffffffffff8111156133735761337261265b565b5b61337f858286016132f2565b9150509250929050565b61339281612660565b82525050565b60006040820190506133ad6000830185613389565b6133ba6020830184612fa9565b9392505050565b6133ca81612c3a565b82525050565b60006040820190506133e560008301856133c1565b6133f260208301846133c1565b9392505050565b600060408201905061340e6000830185612fa9565b61341b6020830184612fa9565b9392505050565b7f4e487b7100000000000000000000000000000000000000000000000000000000600052601160045260246000fd5b600061345c82612696565b915061346783612696565b92508260ff0382111561347d5761347c613422565b5b828201905092915050565b600061349b613496846127a5565b612745565b9050828152602081018484840111156134b7576134b66127a0565b5b6134c2848285612c77565b509392505050565b600082601f8301126134df576134de61279b565b5b81516134ef848260208601613488565b91505092915050565b60006020828403121561350e5761350d612656565b5b600082015167ffffffffffffffff81111561352c5761352b61265b565b5b613538848285016134ca565b91505092915050565b60008151905061355081612928565b92915050565b60006020828403121561356c5761356b612656565b5b600061357a84828501613541565b91505092915050565b600061358e82612765565b915061359983612765565b9250817fffffffffffffffffffffffffffffffffffffffffffffffffffffffffffffffff04831182151516156135d2576135d1613422565b5b828202905092915050565b7f4e487b7100000000000000000000000000000000000000000000000000000000600052601260045260246000fd5b600061361782612765565b915061362283612765565b925082613632576136316135dd565b5b828204905092915050565b600082825260208201905092915050565b7f4e6f74206120476f7665726e616e636520416464726573730000000000000000600082015250565b600061368460188361363d565b915061368f8261364e565b602082019050919050565b600060208201905081810360008301526136b381613677565b9050919050565b7f4e487b7100000000000000000000000000000000000000000000000000000000600052602260045260246000fd5b6000600282049050600182168061370157607f821691505b60208210811415613715576137146136ba565b5b50919050565b7f54696d657374616d7020697320302e2045697468657220726f756e644964206960008201527f732077726f6e67206f72206f7261636c6520646f65736e277420776f726b0000602082015250565b6000613777603e8361363d565b91506137828261371b565b604082019050919050565b600060208201905081810360008301526137a68161376a565b9050919050565b60006040820190506137c26000830185612b27565b6137cf6020830184612b27565b9392505050565b6000815190506137e58161276f565b92915050565b60006020828403121561380157613800612656565b5b600061380f848285016137d6565b91505092915050565b600060408201905061382d6000830185612b27565b61383a6020830184612fa9565b9392505050565b60008151905061385081612fd3565b92915050565b60006020828403121561386c5761386b612656565b5b600061387a84828501613841565b91505092915050565b600081519050919050565b600082825260208201905092915050565b60006138aa82613883565b6138b4818561388e565b93506138c4818560208601612c77565b6138cd816126d4565b840191505092915050565b6000610120830160008301516138f16000860182612bba565b50602083015184820360208601526139098282612caa565b915050604083015161391e6040860182612bba565b5060608301516139316060860182612bba565b5060808301518482036080860152613949828261389f565b91505060a083015161395e60a0860182612bab565b5060c083015184820360c0860152613976828261389f565b91505060e083015161398b60e0860182612bab565b506101008301518482036101008601526139a5828261389f565b9150508091505092915050565b600060208201905081810360008301526139cc81846138d8565b905092915050565b60006139df82612ce3565b91506139ea83612ce3565b9250827f800000000000000000000000000000000000000000000000000000000000000001821260008412151615613a2557613a24613422565b5b827f7fffffffffffffffffffffffffffffffffffffffffffffffffffffffffffffff018213600084121615613a5d57613a5c613422565b5b828203905092915050565b6000613a7382612ce3565b9150613a7e83612ce3565b9250827f7fffffffffffffffffffffffffffffffffffffffffffffffffffffffffffffff0482116000841360008413161615613abd57613abc613422565b5b817f80000000000000000000000000000000000000000000000000000000000000000583126000841260008413161615613afa57613af9613422565b5b827f80000000000000000000000000000000000000000000000000000000000000000582126000841360008412161615613b3757613b36613422565b5b827f7fffffffffffffffffffffffffffffffffffffffffffffffffffffffffffffff0582126000841260008412161615613b7457613b73613422565b5b828202905092915050565b600081519050613b8e81613024565b92915050565b600060208284031215613baa57613ba9612656565b5b6000613bb884828501613b7f565b91505092915050565b6000819050919050565b613bdc613bd782612765565b613bc1565b82525050565b60008160601b9050919050565b6000613bfa82613be2565b9050919050565b6000613c0c82613bef565b9050919050565b613c24613c1f82612916565b613c01565b82525050565b6000613c368285613bcb565b602082019150613c468284613c13565b6014820191508190509392505050565b6000606082019050613c6b6000830186612b27565b613c786020830185612b27565b613c856040830184612fa9565b949350505050565b6000613c9c6020840184612786565b905092915050565b600080fd5b600080fd5b600080fd5b60008083356001602003843603038112613cd057613ccf613cae565b5b83810192508235915060208301925067ffffffffffffffff821115613cf857613cf7613ca4565b5b600182023603841315613d0e57613d0d613ca9565b5b509250929050565b6000613d228385612c66565b9350613d2f8385846127d6565b613d38836126d4565b840190509392505050565b6000613d52602084018461293f565b905092915050565b60008083356001602003843603038112613d7757613d76613cae565b5b83810192508235915060208301925067ffffffffffffffff821115613d9f57613d9e613ca4565b5b600182023603841315613db557613db4613ca9565b5b509250929050565b6000613dc9838561388e565b9350613dd68385846127d6565b613ddf836126d4565b840190509392505050565b600060c08301613dfd6000840184613c8d565b613e0a6000860182612bba565b50613e186020840184613cb3565b8583036020870152613e2b838284613d16565b92505050613e3c6040840184613d43565b613e496040860182612bab565b50613e576060840184613d5a565b8583036060870152613e6a838284613dbd565b92505050613e7b6080840184613d43565b613e886080860182612bab565b50613e9660a0840184613d5a565b85830360a0870152613ea9838284613dbd565b925050508091505092915050565b60006020820190508181036000830152613ed18184613dea565b90509291505056fea2646970667358221220d83c4ae61465cfb51f86e4f4827bae70c65394628b9993420b76d0313464288164736f6c634300080a0033",
  "linkReferences": {},
  "deployedLinkReferences": {}
}