{
  "_format": "hh-sol-artifact-1",
  "contractName": "hub",
  "sourceName": "contracts/hub.sol",
  "abi": [
    {
      "inputs": [
        {
          "internalType": "address",
          "name": "_lens",
          "type": "address"
        }
      ],
      "stateMutability": "nonpayable",
      "type": "constructor"
    },
    {
      "inputs": [],
      "name": "NotDispatcher",
      "type": "error"
    },
    {
      "inputs": [],
      "name": "TokenDoesNotExist",
      "type": "error"
    },
    {
      "inputs": [
        {
          "internalType": "string",
          "name": "",
          "type": "string"
        }
      ],
      "name": "UserNotAllowed",
      "type": "error"
    },
    {
      "inputs": [],
      "name": "alreadyResolved",
      "type": "error"
    },
    {
      "inputs": [],
      "name": "amountMustBeGreaterThanZero",
      "type": "error"
    },
    {
      "inputs": [
        {
          "internalType": "enum DataTypes.ResolveTypes",
          "name": "_resolveTypeGiven",
          "type": "uint8"
        },
        {
          "internalType": "enum DataTypes.ResolveTypes",
          "name": "_resolveTypeNeeded",
          "type": "uint8"
        }
      ],
      "name": "cannotUseThisFunctionToResolve",
      "type": "error"
    },
    {
      "inputs": [],
      "name": "executablePostNotFound",
      "type": "error"
    },
    {
      "inputs": [
        {
          "internalType": "uint256",
          "name": "allowance",
          "type": "uint256"
        },
        {
          "internalType": "uint256",
          "name": "required",
          "type": "uint256"
        }
      ],
      "name": "insufficientAllowance",
      "type": "error"
    },
    {
      "inputs": [
        {
          "internalType": "uint256",
          "name": "balance",
          "type": "uint256"
        },
        {
          "internalType": "uint256",
          "name": "required",
          "type": "uint256"
        }
      ],
      "name": "insufficientBalance",
      "type": "error"
    },
    {
      "inputs": [],
      "name": "partyAPlusPartyBIsNot100",
      "type": "error"
    },
    {
      "inputs": [
        {
          "internalType": "address",
          "name": "_ResolverAddress",
          "type": "address"
        }
      ],
      "name": "youAreNotResolverOfExecutablePost",
      "type": "error"
    },
    {
      "inputs": [
        {
          "internalType": "uint256",
          "name": "_currentTimeStamp",
          "type": "uint256"
        },
        {
          "internalType": "uint256",
          "name": "_requiredTimeStamp",
          "type": "uint256"
        }
      ],
      "name": "youTryToResolveTooEarly",
      "type": "error"
    },
    {
      "inputs": [
        {
          "internalType": "address",
          "name": "_treasury",
          "type": "address"
        }
      ],
      "name": "_setTreasuryAddress",
      "outputs": [],
      "stateMutability": "nonpayable",
      "type": "function"
    },
    {
      "inputs": [
        {
          "internalType": "bytes32",
          "name": "_id",
          "type": "bytes32"
        }
      ],
      "name": "getPostById",
      "outputs": [
        {
          "components": [
            {
              "internalType": "address",
              "name": "partyA",
              "type": "address"
            },
            {
              "internalType": "address",
              "name": "partyB",
              "type": "address"
            },
            {
              "internalType": "address",
              "name": "owner",
              "type": "address"
            },
            {
              "internalType": "address",
              "name": "resolver",
              "type": "address"
            },
            {
              "internalType": "uint256",
              "name": "resolveAfter",
              "type": "uint256"
            },
            {
              "internalType": "uint256",
              "name": "automaticallyResolveAfter",
              "type": "uint256"
            },
            {
              "internalType": "uint256",
              "name": "amount",
              "type": "uint256"
            },
            {
              "internalType": "address",
              "name": "currency",
              "type": "address"
            },
            {
              "internalType": "bool",
              "name": "resolved",
              "type": "bool"
            },
            {
              "internalType": "enum DataTypes.ResolveTypes",
              "name": "resolvetype",
              "type": "uint8"
            },
            {
              "components": [
                {
                  "internalType": "uint256",
                  "name": "price",
                  "type": "uint256"
                }
              ],
              "internalType": "struct DataTypes.ResolveByOracleConditions",
              "name": "resolveByOracleConditions",
              "type": "tuple"
            },
            {
              "components": [
                {
                  "internalType": "address",
                  "name": "resolver",
                  "type": "address"
                }
              ],
              "internalType": "struct DataTypes.ResolveByOwnerConditions",
              "name": "resolveByOwnerConditions",
              "type": "tuple"
            },
            {
              "components": [
                {
                  "internalType": "uint256",
                  "name": "profileId",
                  "type": "uint256"
                },
                {
                  "internalType": "uint256",
                  "name": "initialPubId",
                  "type": "uint256"
                },
                {
                  "internalType": "uint256",
                  "name": "resolvingPubId",
                  "type": "uint256"
                }
              ],
              "internalType": "struct DataTypes.LensPostInfo",
              "name": "lensPostInfo",
              "type": "tuple"
            }
          ],
          "internalType": "struct DataTypes.Post",
          "name": "",
          "type": "tuple"
        }
      ],
      "stateMutability": "view",
      "type": "function"
    },
    {
      "inputs": [],
      "name": "governance",
      "outputs": [
        {
          "internalType": "address",
          "name": "",
          "type": "address"
        }
      ],
      "stateMutability": "view",
      "type": "function"
    },
    {
      "inputs": [
        {
          "components": [
            {
              "internalType": "address",
              "name": "partyA",
              "type": "address"
            },
            {
              "internalType": "address",
              "name": "partyB",
              "type": "address"
            },
            {
              "internalType": "address",
              "name": "owner",
              "type": "address"
            },
            {
              "internalType": "address",
              "name": "resolver",
              "type": "address"
            },
            {
              "internalType": "uint256",
              "name": "resolveAfter",
              "type": "uint256"
            },
            {
              "internalType": "uint256",
              "name": "automaticallyResolveAfter",
              "type": "uint256"
            },
            {
              "internalType": "uint256",
              "name": "amount",
              "type": "uint256"
            },
            {
              "internalType": "address",
              "name": "currency",
              "type": "address"
            },
            {
              "internalType": "bool",
              "name": "resolved",
              "type": "bool"
            },
            {
              "internalType": "enum DataTypes.ResolveTypes",
              "name": "resolvetype",
              "type": "uint8"
            },
            {
              "components": [
                {
                  "internalType": "uint256",
                  "name": "price",
                  "type": "uint256"
                }
              ],
              "internalType": "struct DataTypes.ResolveByOracleConditions",
              "name": "resolveByOracleConditions",
              "type": "tuple"
            },
            {
              "components": [
                {
                  "internalType": "address",
                  "name": "resolver",
                  "type": "address"
                }
              ],
              "internalType": "struct DataTypes.ResolveByOwnerConditions",
              "name": "resolveByOwnerConditions",
              "type": "tuple"
            },
            {
              "components": [
                {
                  "internalType": "uint256",
                  "name": "profileId",
                  "type": "uint256"
                },
                {
                  "internalType": "uint256",
                  "name": "initialPubId",
                  "type": "uint256"
                },
                {
                  "internalType": "uint256",
                  "name": "resolvingPubId",
                  "type": "uint256"
                }
              ],
              "internalType": "struct DataTypes.LensPostInfo",
              "name": "lensPostInfo",
              "type": "tuple"
            }
          ],
          "internalType": "struct DataTypes.Post",
          "name": "_post",
          "type": "tuple"
        },
        {
          "components": [
            {
              "internalType": "uint256",
              "name": "profileId",
              "type": "uint256"
            },
            {
              "internalType": "string",
              "name": "contentURI",
              "type": "string"
            },
            {
              "internalType": "address",
              "name": "collectModule",
              "type": "address"
            },
            {
              "internalType": "bytes",
              "name": "collectModuleInitData",
              "type": "bytes"
            },
            {
              "internalType": "address",
              "name": "referenceModule",
              "type": "address"
            },
            {
              "internalType": "bytes",
              "name": "referenceModuleInitData",
              "type": "bytes"
            }
          ],
          "internalType": "struct DataTypes.PostData",
          "name": "_lensPost",
          "type": "tuple"
        }
      ],
      "name": "post",
      "outputs": [
        {
          "internalType": "bytes32",
          "name": "id",
          "type": "bytes32"
        },
        {
          "internalType": "uint256",
          "name": "initialPubId",
          "type": "uint256"
        }
      ],
      "stateMutability": "nonpayable",
      "type": "function"
    },
    {
      "inputs": [
        {
          "internalType": "bytes32",
          "name": "_id",
          "type": "bytes32"
        },
        {
          "internalType": "uint8",
          "name": "_resultPartyA",
          "type": "uint8"
        },
        {
          "internalType": "uint8",
          "name": "_resultPartyB",
          "type": "uint8"
        },
        {
          "components": [
            {
              "internalType": "uint256",
              "name": "profileId",
              "type": "uint256"
            },
            {
              "internalType": "string",
              "name": "contentURI",
              "type": "string"
            },
            {
              "internalType": "uint256",
              "name": "profileIdPointed",
              "type": "uint256"
            },
            {
              "internalType": "uint256",
              "name": "pubIdPointed",
              "type": "uint256"
            },
            {
              "internalType": "bytes",
              "name": "referenceModuleData",
              "type": "bytes"
            },
            {
              "internalType": "address",
              "name": "collectModule",
              "type": "address"
            },
            {
              "internalType": "bytes",
              "name": "collectModuleInitData",
              "type": "bytes"
            },
            {
              "internalType": "address",
              "name": "referenceModule",
              "type": "address"
            },
            {
              "internalType": "bytes",
              "name": "referenceModuleInitData",
              "type": "bytes"
            }
          ],
          "internalType": "struct DataTypes.CommentData",
          "name": "_commentData",
          "type": "tuple"
        }
      ],
      "name": "resolveByOwner",
      "outputs": [],
      "stateMutability": "nonpayable",
      "type": "function"
    },
    {
      "inputs": [],
      "name": "waitForAutomaticResolution",
      "outputs": [
        {
          "internalType": "uint256",
          "name": "",
          "type": "uint256"
        }
      ],
      "stateMutability": "view",
      "type": "function"
    }
  ],
  "bytecode": "0x60806040523480156200001157600080fd5b5060405162002e0238038062002e0283398181016040528101906200003791906200016a565b33600160006101000a81548173ffffffffffffffffffffffffffffffffffffffff021916908373ffffffffffffffffffffffffffffffffffffffff16021790555030600260006101000a81548173ffffffffffffffffffffffffffffffffffffffff021916908373ffffffffffffffffffffffffffffffffffffffff160217905550806000806101000a81548173ffffffffffffffffffffffffffffffffffffffff021916908373ffffffffffffffffffffffffffffffffffffffff160217905550506200019c565b600080fd5b600073ffffffffffffffffffffffffffffffffffffffff82169050919050565b6000620001328262000105565b9050919050565b620001448162000125565b81146200015057600080fd5b50565b600081519050620001648162000139565b92915050565b60006020828403121562000183576200018262000100565b5b6000620001938482850162000153565b91505092915050565b612c5680620001ac6000396000f3fe608060405234801561001057600080fd5b50600436106100625760003560e01c806316d07f00146100675780635aa6e67514610083578063645ac860146100a1578063ae362ff9146100bd578063d6ff4dcd146100ed578063dd92b6901461010b575b600080fd5b610081600480360381019061007c9190611cbf565b61013c565b005b61008b610503565b6040516100989190611d51565b60405180910390f35b6100bb60048036038101906100b69190611d6c565b610529565b005b6100d760048036038101906100d29190611d99565b610662565b6040516100e49190611ffb565b60405180910390f35b6100f561096c565b6040516101029190612026565b60405180910390f35b610125600480360381019061012091906122ca565b610972565b604051610133929190612337565b60405180910390f35b600460008581526020019081526020016000206000808260060154141561018f576040517f7fecbe3f00000000000000000000000000000000000000000000000000000000815260040160405180910390fd5b8060018111156101a2576101a1611dff565b5b8260070160159054906101000a900460ff1660018111156101c6576101c5611dff565b5b1461021b57808260070160159054906101000a900460ff166040517ff548bef500000000000000000000000000000000000000000000000000000000815260040161021292919061236f565b60405180910390fd5b3373ffffffffffffffffffffffffffffffffffffffff168260030160009054906101000a900473ffffffffffffffffffffffffffffffffffffffff1673ffffffffffffffffffffffffffffffffffffffff16146102d3578160030160009054906101000a900473ffffffffffffffffffffffffffffffffffffffff166040517f49261fcc0000000000000000000000000000000000000000000000000000000081526004016102ca9190611d51565b60405180910390fd5b4282600401541115610322574282600401546040517f57f3780e000000000000000000000000000000000000000000000000000000008152600401610319929190612398565b60405180910390fd5b8160070160149054906101000a900460ff161561036b576040517ffd55da1000000000000000000000000000000000000000000000000000000000815260040160405180910390fd5b84846064818361037b91906123f0565b60ff16146103b5576040517fdd55b48000000000000000000000000000000000000000000000000000000000815260040160405180910390fd5b6000600460008a8152602001908152602001600020905061043d60648960ff1683600601546103e49190612427565b6103ee91906124b0565b8260070160009054906101000a900473ffffffffffffffffffffffffffffffffffffffff168360000160009054906101000a900473ffffffffffffffffffffffffffffffffffffffff166112f3565b6104ae60648860ff1683600601546104559190612427565b61045f91906124b0565b8260070160009054906101000a900473ffffffffffffffffffffffffffffffffffffffff168360010160009054906101000a900473ffffffffffffffffffffffffffffffffffffffff166112f3565b6104bb81600a018761137d565b955060006104c8876113aa565b9050807fd2640e56725b8330ec0701927793d7d4dd29e77d607d421aa3e19d3877c7dff760405160405180910390a250505050505050505050565b600160009054906101000a900473ffffffffffffffffffffffffffffffffffffffff1681565b600160009054906101000a900473ffffffffffffffffffffffffffffffffffffffff1673ffffffffffffffffffffffffffffffffffffffff163373ffffffffffffffffffffffffffffffffffffffff16146105b9576040517fd2a4bdfb0000000000000000000000000000000000000000000000000000000081526004016105b09061253e565b60405180910390fd5b80600260006101000a81548173ffffffffffffffffffffffffffffffffffffffff021916908373ffffffffffffffffffffffffffffffffffffffff160217905550600260009054906101000a900473ffffffffffffffffffffffffffffffffffffffff1673ffffffffffffffffffffffffffffffffffffffff167f7437299f2ef95df7185f14c65d2b599b511d11dba6eeeb1fcde77df97f14321e60405160405180910390a250565b61066a611696565b60046000838152602001908152602001600020604051806101a00160405290816000820160009054906101000a900473ffffffffffffffffffffffffffffffffffffffff1673ffffffffffffffffffffffffffffffffffffffff1673ffffffffffffffffffffffffffffffffffffffff1681526020016001820160009054906101000a900473ffffffffffffffffffffffffffffffffffffffff1673ffffffffffffffffffffffffffffffffffffffff1673ffffffffffffffffffffffffffffffffffffffff1681526020016002820160009054906101000a900473ffffffffffffffffffffffffffffffffffffffff1673ffffffffffffffffffffffffffffffffffffffff1673ffffffffffffffffffffffffffffffffffffffff1681526020016003820160009054906101000a900473ffffffffffffffffffffffffffffffffffffffff1673ffffffffffffffffffffffffffffffffffffffff1673ffffffffffffffffffffffffffffffffffffffff1681526020016004820154815260200160058201548152602001600682015481526020016007820160009054906101000a900473ffffffffffffffffffffffffffffffffffffffff1673ffffffffffffffffffffffffffffffffffffffff1673ffffffffffffffffffffffffffffffffffffffff1681526020016007820160149054906101000a900460ff161515151581526020016007820160159054906101000a900460ff16600181111561089557610894611dff565b5b60018111156108a7576108a6611dff565b5b8152602001600882016040518060200160405290816000820154815250508152602001600982016040518060200160405290816000820160009054906101000a900473ffffffffffffffffffffffffffffffffffffffff1673ffffffffffffffffffffffffffffffffffffffff1673ffffffffffffffffffffffffffffffffffffffff16815250508152602001600a82016040518060600160405290816000820154815260200160018201548152602001600282015481525050815250509050919050565b60035481565b6000808360c001518460e00151856040015160018310156109bf576040517f920fcb3900000000000000000000000000000000000000000000000000000000815260040160405180910390fd5b600082905060008173ffffffffffffffffffffffffffffffffffffffff1663dd62ed3e84306040518363ffffffff1660e01b8152600401610a0192919061255e565b602060405180830381865afa158015610a1e573d6000803e3d6000fd5b505050506040513d601f19601f82011682018060405250810190610a42919061259c565b9050610a4d81611450565b84811015610a945780856040517f4c250823000000000000000000000000000000000000000000000000000000008152600401610a8b929190612398565b60405180910390fd5b60008273ffffffffffffffffffffffffffffffffffffffff166370a08231856040518263ffffffff1660e01b8152600401610acf9190611d51565b602060405180830381865afa158015610aec573d6000803e3d6000fd5b505050506040513d601f19601f82011682018060405250810190610b10919061259c565b905085811015610b595780866040517fc7a28c79000000000000000000000000000000000000000000000000000000008152600401610b50929190612398565b60405180910390fd5b886000013560008060009054906101000a900473ffffffffffffffffffffffffffffffffffffffff1673ffffffffffffffffffffffffffffffffffffffff1663ec81d194836040518263ffffffff1660e01b8152600401610bba9190612026565b600060405180830381865afa158015610bd7573d6000803e3d6000fd5b505050506040513d6000823e3d601f19601f82011682018060405250810190610c00919061266c565b9050600081511415610c3e576040517fceea21b600000000000000000000000000000000000000000000000000000000815260040160405180910390fd5b60008060009054906101000a900473ffffffffffffffffffffffffffffffffffffffff1673ffffffffffffffffffffffffffffffffffffffff1663540528b9846040518263ffffffff1660e01b8152600401610c9a9190612026565b602060405180830381865afa158015610cb7573d6000803e3d6000fd5b505050506040513d601f19601f82011682018060405250810190610cdb91906126ca565b90503073ffffffffffffffffffffffffffffffffffffffff168173ffffffffffffffffffffffffffffffffffffffff1614610d42576040517f957fb99f00000000000000000000000000000000000000000000000000000000815260040160405180910390fd5b610d4a6114e9565b9a50610d638d60c001518e60e001518f60400151611519565b610d6c8c6115c7565b99508b600001358d61018001516000018181525050898d610180015160200181815250508c600460008d815260200190815260200160002060008201518160000160006101000a81548173ffffffffffffffffffffffffffffffffffffffff021916908373ffffffffffffffffffffffffffffffffffffffff16021790555060208201518160010160006101000a81548173ffffffffffffffffffffffffffffffffffffffff021916908373ffffffffffffffffffffffffffffffffffffffff16021790555060408201518160020160006101000a81548173ffffffffffffffffffffffffffffffffffffffff021916908373ffffffffffffffffffffffffffffffffffffffff16021790555060608201518160030160006101000a81548173ffffffffffffffffffffffffffffffffffffffff021916908373ffffffffffffffffffffffffffffffffffffffff1602179055506080820151816004015560a0820151816005015560c0820151816006015560e08201518160070160006101000a81548173ffffffffffffffffffffffffffffffffffffffff021916908373ffffffffffffffffffffffffffffffffffffffff1602179055506101008201518160070160146101000a81548160ff0219169083151502179055506101208201518160070160156101000a81548160ff02191690836001811115610f7257610f71611dff565b5b0217905550610140820151816008016000820151816000015550506101608201518160090160008201518160000160006101000a81548173ffffffffffffffffffffffffffffffffffffffff021916908373ffffffffffffffffffffffffffffffffffffffff160217905550505061018082015181600a0160008201518160000155602082015181600101556040820151816002015550509050508c600560003373ffffffffffffffffffffffffffffffffffffffff1673ffffffffffffffffffffffffffffffffffffffff16815260200190815260200160002060008201518160000160006101000a81548173ffffffffffffffffffffffffffffffffffffffff021916908373ffffffffffffffffffffffffffffffffffffffff16021790555060208201518160010160006101000a81548173ffffffffffffffffffffffffffffffffffffffff021916908373ffffffffffffffffffffffffffffffffffffffff16021790555060408201518160020160006101000a81548173ffffffffffffffffffffffffffffffffffffffff021916908373ffffffffffffffffffffffffffffffffffffffff16021790555060608201518160030160006101000a81548173ffffffffffffffffffffffffffffffffffffffff021916908373ffffffffffffffffffffffffffffffffffffffff1602179055506080820151816004015560a0820151816005015560c0820151816006015560e08201518160070160006101000a81548173ffffffffffffffffffffffffffffffffffffffff021916908373ffffffffffffffffffffffffffffffffffffffff1602179055506101008201518160070160146101000a81548160ff0219169083151502179055506101208201518160070160156101000a81548160ff0219169083600181111561121b5761121a611dff565b5b0217905550610140820151816008016000820151816000015550506101608201518160090160008201518160000160006101000a81548173ffffffffffffffffffffffffffffffffffffffff021916908373ffffffffffffffffffffffffffffffffffffffff160217905550505061018082015181600a0160008201518160000155602082015181600101556040820151816002015550509050508a7faf15bed1cac92d3f0429bfb6e9fd1868cc467abf51cfdc1a0ed46e1a29e972c260405160405180910390a25050505050505050509250929050565b60008290508073ffffffffffffffffffffffffffffffffffffffff1663a9059cbb83866040518363ffffffff1660e01b81526004016113339291906126f7565b6020604051808303816000875af1158015611352573d6000803e3d6000fd5b505050506040513d601f19601f820116820180604052508101906113769190612735565b5050505050565b611385611792565b8260000154826040018181525050826001015482606001818152505081905092915050565b60008060009054906101000a900473ffffffffffffffffffffffffffffffffffffffff1673ffffffffffffffffffffffffffffffffffffffff1663b6f32d2b836040518263ffffffff1660e01b815260040161140691906128e6565b6020604051808303816000875af1158015611425573d6000803e3d6000fd5b505050506040513d601f19601f82011682018060405250810190611449919061259c565b9050919050565b6114e6816040516024016114649190612026565b6040516020818303038152906040527ff5b1bba9000000000000000000000000000000000000000000000000000000007bffffffffffffffffffffffffffffffffffffffffffffffffffffffff19166020820180517bffffffffffffffffffffffffffffffffffffffffffffffffffffffff838183161783525050505061166d565b50565b600042326040516020016114fe929190612971565b60405160208183030381529060405280519060200120905090565b60008290508073ffffffffffffffffffffffffffffffffffffffff166323b872dd83600260009054906101000a900473ffffffffffffffffffffffffffffffffffffffff16876040518463ffffffff1660e01b815260040161157d9392919061299d565b6020604051808303816000875af115801561159c573d6000803e3d6000fd5b505050506040513d601f19601f820116820180604052508101906115c09190612735565b5050505050565b60008060009054906101000a900473ffffffffffffffffffffffffffffffffffffffff1673ffffffffffffffffffffffffffffffffffffffff1663963ff141836040518263ffffffff1660e01b81526004016116239190612bfe565b6020604051808303816000875af1158015611642573d6000803e3d6000fd5b505050506040513d601f19601f82011682018060405250810190611666919061259c565b9050919050565b60008151905060006a636f6e736f6c652e6c6f679050602083016000808483855afa5050505050565b604051806101a00160405280600073ffffffffffffffffffffffffffffffffffffffff168152602001600073ffffffffffffffffffffffffffffffffffffffff168152602001600073ffffffffffffffffffffffffffffffffffffffff168152602001600073ffffffffffffffffffffffffffffffffffffffff168152602001600081526020016000815260200160008152602001600073ffffffffffffffffffffffffffffffffffffffff1681526020016000151581526020016000600181111561176557611764611dff565b5b815260200161177261180a565b815260200161177f61181d565b815260200161178c611846565b81525090565b6040518061012001604052806000815260200160608152602001600081526020016000815260200160608152602001600073ffffffffffffffffffffffffffffffffffffffff16815260200160608152602001600073ffffffffffffffffffffffffffffffffffffffff168152602001606081525090565b6040518060200160405280600081525090565b6040518060200160405280600073ffffffffffffffffffffffffffffffffffffffff1681525090565b60405180606001604052806000815260200160008152602001600081525090565b6000604051905090565b600080fd5b600080fd5b6000819050919050565b61188e8161187b565b811461189957600080fd5b50565b6000813590506118ab81611885565b92915050565b600060ff82169050919050565b6118c7816118b1565b81146118d257600080fd5b50565b6000813590506118e4816118be565b92915050565b600080fd5b6000601f19601f8301169050919050565b7f4e487b7100000000000000000000000000000000000000000000000000000000600052604160045260246000fd5b611938826118ef565b810181811067ffffffffffffffff8211171561195757611956611900565b5b80604052505050565b600061196a611867565b9050611976828261192f565b919050565b600080fd5b6000819050919050565b61199381611980565b811461199e57600080fd5b50565b6000813590506119b08161198a565b92915050565b600080fd5b600080fd5b600067ffffffffffffffff8211156119db576119da611900565b5b6119e4826118ef565b9050602081019050919050565b82818337600083830152505050565b6000611a13611a0e846119c0565b611960565b905082815260208101848484011115611a2f57611a2e6119bb565b5b611a3a8482856119f1565b509392505050565b600082601f830112611a5757611a566119b6565b5b8135611a67848260208601611a00565b91505092915050565b600067ffffffffffffffff821115611a8b57611a8a611900565b5b611a94826118ef565b9050602081019050919050565b6000611ab4611aaf84611a70565b611960565b905082815260208101848484011115611ad057611acf6119bb565b5b611adb8482856119f1565b509392505050565b600082601f830112611af857611af76119b6565b5b8135611b08848260208601611aa1565b91505092915050565b600073ffffffffffffffffffffffffffffffffffffffff82169050919050565b6000611b3c82611b11565b9050919050565b611b4c81611b31565b8114611b5757600080fd5b50565b600081359050611b6981611b43565b92915050565b60006101208284031215611b8657611b856118ea565b5b611b91610120611960565b90506000611ba1848285016119a1565b600083015250602082013567ffffffffffffffff811115611bc557611bc461197b565b5b611bd184828501611a42565b6020830152506040611be5848285016119a1565b6040830152506060611bf9848285016119a1565b606083015250608082013567ffffffffffffffff811115611c1d57611c1c61197b565b5b611c2984828501611ae3565b60808301525060a0611c3d84828501611b5a565b60a08301525060c082013567ffffffffffffffff811115611c6157611c6061197b565b5b611c6d84828501611ae3565b60c08301525060e0611c8184828501611b5a565b60e08301525061010082013567ffffffffffffffff811115611ca657611ca561197b565b5b611cb284828501611ae3565b6101008301525092915050565b60008060008060808587031215611cd957611cd8611871565b5b6000611ce78782880161189c565b9450506020611cf8878288016118d5565b9350506040611d09878288016118d5565b925050606085013567ffffffffffffffff811115611d2a57611d29611876565b5b611d3687828801611b6f565b91505092959194509250565b611d4b81611b31565b82525050565b6000602082019050611d666000830184611d42565b92915050565b600060208284031215611d8257611d81611871565b5b6000611d9084828501611b5a565b91505092915050565b600060208284031215611daf57611dae611871565b5b6000611dbd8482850161189c565b91505092915050565b611dcf81611b31565b82525050565b611dde81611980565b82525050565b60008115159050919050565b611df981611de4565b82525050565b7f4e487b7100000000000000000000000000000000000000000000000000000000600052602160045260246000fd5b60028110611e3f57611e3e611dff565b5b50565b6000819050611e5082611e2e565b919050565b6000611e6082611e42565b9050919050565b611e7081611e55565b82525050565b602082016000820151611e8c6000850182611dd5565b50505050565b602082016000820151611ea86000850182611dc6565b50505050565b606082016000820151611ec46000850182611dd5565b506020820151611ed76020850182611dd5565b506040820151611eea6040850182611dd5565b50505050565b6101e082016000820151611f076000850182611dc6565b506020820151611f1a6020850182611dc6565b506040820151611f2d6040850182611dc6565b506060820151611f406060850182611dc6565b506080820151611f536080850182611dd5565b5060a0820151611f6660a0850182611dd5565b5060c0820151611f7960c0850182611dd5565b5060e0820151611f8c60e0850182611dc6565b50610100820151611fa1610100850182611df0565b50610120820151611fb6610120850182611e67565b50610140820151611fcb610140850182611e76565b50610160820151611fe0610160850182611e92565b50610180820151611ff5610180850182611eae565b50505050565b60006101e0820190506120116000830184611ef0565b92915050565b61202081611980565b82525050565b600060208201905061203b6000830184612017565b92915050565b61204a81611de4565b811461205557600080fd5b50565b60008135905061206781612041565b92915050565b6002811061207a57600080fd5b50565b60008135905061208c8161206d565b92915050565b6000602082840312156120a8576120a76118ea565b5b6120b26020611960565b905060006120c2848285016119a1565b60008301525092915050565b6000602082840312156120e4576120e36118ea565b5b6120ee6020611960565b905060006120fe84828501611b5a565b60008301525092915050565b6000606082840312156121205761211f6118ea565b5b61212a6060611960565b9050600061213a848285016119a1565b600083015250602061214e848285016119a1565b6020830152506040612162848285016119a1565b60408301525092915050565b60006101e08284031215612185576121846118ea565b5b6121906101a0611960565b905060006121a084828501611b5a565b60008301525060206121b484828501611b5a565b60208301525060406121c884828501611b5a565b60408301525060606121dc84828501611b5a565b60608301525060806121f0848285016119a1565b60808301525060a0612204848285016119a1565b60a08301525060c0612218848285016119a1565b60c08301525060e061222c84828501611b5a565b60e08301525061010061224184828501612058565b610100830152506101206122578482850161207d565b6101208301525061014061226d84828501612092565b61014083015250610160612283848285016120ce565b610160830152506101806122998482850161210a565b6101808301525092915050565b600080fd5b600060c082840312156122c1576122c06122a6565b5b81905092915050565b60008061020083850312156122e2576122e1611871565b5b60006122f08582860161216e565b9250506101e083013567ffffffffffffffff81111561231257612311611876565b5b61231e858286016122ab565b9150509250929050565b6123318161187b565b82525050565b600060408201905061234c6000830185612328565b6123596020830184612017565b9392505050565b61236981611e55565b82525050565b60006040820190506123846000830185612360565b6123916020830184612360565b9392505050565b60006040820190506123ad6000830185612017565b6123ba6020830184612017565b9392505050565b7f4e487b7100000000000000000000000000000000000000000000000000000000600052601160045260246000fd5b60006123fb826118b1565b9150612406836118b1565b92508260ff0382111561241c5761241b6123c1565b5b828201905092915050565b600061243282611980565b915061243d83611980565b9250817fffffffffffffffffffffffffffffffffffffffffffffffffffffffffffffffff0483118215151615612476576124756123c1565b5b828202905092915050565b7f4e487b7100000000000000000000000000000000000000000000000000000000600052601260045260246000fd5b60006124bb82611980565b91506124c683611980565b9250826124d6576124d5612481565b5b828204905092915050565b600082825260208201905092915050565b7f4e6f74206120476f7665726e616e636520416464726573730000000000000000600082015250565b60006125286018836124e1565b9150612533826124f2565b602082019050919050565b600060208201905081810360008301526125578161251b565b9050919050565b60006040820190506125736000830185611d42565b6125806020830184611d42565b9392505050565b6000815190506125968161198a565b92915050565b6000602082840312156125b2576125b1611871565b5b60006125c084828501612587565b91505092915050565b60005b838110156125e75780820151818401526020810190506125cc565b838111156125f6576000848401525b50505050565b600061260f61260a846119c0565b611960565b90508281526020810184848401111561262b5761262a6119bb565b5b6126368482856125c9565b509392505050565b600082601f830112612653576126526119b6565b5b81516126638482602086016125fc565b91505092915050565b60006020828403121561268257612681611871565b5b600082015167ffffffffffffffff8111156126a05761269f611876565b5b6126ac8482850161263e565b91505092915050565b6000815190506126c481611b43565b92915050565b6000602082840312156126e0576126df611871565b5b60006126ee848285016126b5565b91505092915050565b600060408201905061270c6000830185611d42565b6127196020830184612017565b9392505050565b60008151905061272f81612041565b92915050565b60006020828403121561274b5761274a611871565b5b600061275984828501612720565b91505092915050565b600081519050919050565b600082825260208201905092915050565b600061278982612762565b612793818561276d565b93506127a38185602086016125c9565b6127ac816118ef565b840191505092915050565b600081519050919050565b600082825260208201905092915050565b60006127de826127b7565b6127e881856127c2565b93506127f88185602086016125c9565b612801816118ef565b840191505092915050565b6000610120830160008301516128256000860182611dd5565b506020830151848203602086015261283d828261277e565b91505060408301516128526040860182611dd5565b5060608301516128656060860182611dd5565b506080830151848203608086015261287d82826127d3565b91505060a083015161289260a0860182611dc6565b5060c083015184820360c08601526128aa82826127d3565b91505060e08301516128bf60e0860182611dc6565b506101008301518482036101008601526128d982826127d3565b9150508091505092915050565b60006020820190508181036000830152612900818461280c565b905092915050565b6000819050919050565b61292361291e82611980565b612908565b82525050565b60008160601b9050919050565b600061294182612929565b9050919050565b600061295382612936565b9050919050565b61296b61296682611b31565b612948565b82525050565b600061297d8285612912565b60208201915061298d828461295a565b6014820191508190509392505050565b60006060820190506129b26000830186611d42565b6129bf6020830185611d42565b6129cc6040830184612017565b949350505050565b60006129e360208401846119a1565b905092915050565b600080fd5b600080fd5b600080fd5b60008083356001602003843603038112612a1757612a166129f5565b5b83810192508235915060208301925067ffffffffffffffff821115612a3f57612a3e6129eb565b5b600182023603841315612a5557612a546129f0565b5b509250929050565b6000612a69838561276d565b9350612a768385846119f1565b612a7f836118ef565b840190509392505050565b6000612a996020840184611b5a565b905092915050565b60008083356001602003843603038112612abe57612abd6129f5565b5b83810192508235915060208301925067ffffffffffffffff821115612ae657612ae56129eb565b5b600182023603841315612afc57612afb6129f0565b5b509250929050565b6000612b1083856127c2565b9350612b1d8385846119f1565b612b26836118ef565b840190509392505050565b600060c08301612b4460008401846129d4565b612b516000860182611dd5565b50612b5f60208401846129fa565b8583036020870152612b72838284612a5d565b92505050612b836040840184612a8a565b612b906040860182611dc6565b50612b9e6060840184612aa1565b8583036060870152612bb1838284612b04565b92505050612bc26080840184612a8a565b612bcf6080860182611dc6565b50612bdd60a0840184612aa1565b85830360a0870152612bf0838284612b04565b925050508091505092915050565b60006020820190508181036000830152612c188184612b31565b90509291505056fea26469706673582212209dcde94e7001b77d1e5d122dedc71478f3ea8335e8cdd25d31e98c48f6feff7064736f6c634300080a0033",
  "linkReferences": {},
  "deployedLinkReferences": {}
}