{
  "_format": "hh-sol-artifact-1",
  "contractName": "hub",
  "sourceName": "contracts/hub.sol",
  "abi": [
    {
      "inputs": [
        {
          "internalType": "bytes32",
          "name": "_id",
          "type": "bytes32"
        }
      ],
      "name": "getPostById",
      "outputs": [
        {
          "components": [
            {
              "internalType": "address",
              "name": "partyA",
              "type": "address"
            },
            {
              "internalType": "address",
              "name": "partyB",
              "type": "address"
            },
            {
              "internalType": "address",
              "name": "owner",
              "type": "address"
            },
            {
              "internalType": "uint256",
              "name": "resolveAfter",
              "type": "uint256"
            },
            {
              "internalType": "uint256",
              "name": "automaticallyResolveAfter",
              "type": "uint256"
            },
            {
              "internalType": "uint256",
              "name": "amount",
              "type": "uint256"
            },
            {
              "internalType": "address",
              "name": "currency",
              "type": "address"
            },
            {
              "internalType": "bool",
              "name": "resolved",
              "type": "bool"
            },
            {
              "internalType": "enum DataTypes.ResolveTypes",
              "name": "resolvetype",
              "type": "uint8"
            },
            {
              "components": [
                {
                  "internalType": "uint256",
                  "name": "price",
                  "type": "uint256"
                }
              ],
              "internalType": "struct DataTypes.ResolveByOracleConditions",
              "name": "resolveByOracleConditions",
              "type": "tuple"
            },
            {
              "components": [
                {
                  "internalType": "address",
                  "name": "resolver",
                  "type": "address"
                }
              ],
              "internalType": "struct DataTypes.ResolveByOwnerConditions",
              "name": "resolveByOwnerConditions",
              "type": "tuple"
            },
            {
              "components": [
                {
                  "internalType": "uint256",
                  "name": "profileId",
                  "type": "uint256"
                },
                {
                  "internalType": "uint256",
                  "name": "initialPubId",
                  "type": "uint256"
                },
                {
                  "internalType": "uint256",
                  "name": "resolvingPubId",
                  "type": "uint256"
                }
              ],
              "internalType": "struct DataTypes.LensPostInfo",
              "name": "lensPostInfo",
              "type": "tuple"
            }
          ],
          "internalType": "struct DataTypes.Post",
          "name": "",
          "type": "tuple"
        }
      ],
      "stateMutability": "view",
      "type": "function"
    },
    {
      "inputs": [
        {
          "components": [
            {
              "internalType": "address",
              "name": "partyA",
              "type": "address"
            },
            {
              "internalType": "address",
              "name": "partyB",
              "type": "address"
            },
            {
              "internalType": "address",
              "name": "owner",
              "type": "address"
            },
            {
              "internalType": "uint256",
              "name": "resolveAfter",
              "type": "uint256"
            },
            {
              "internalType": "uint256",
              "name": "automaticallyResolveAfter",
              "type": "uint256"
            },
            {
              "internalType": "uint256",
              "name": "amount",
              "type": "uint256"
            },
            {
              "internalType": "address",
              "name": "currency",
              "type": "address"
            },
            {
              "internalType": "bool",
              "name": "resolved",
              "type": "bool"
            },
            {
              "internalType": "enum DataTypes.ResolveTypes",
              "name": "resolvetype",
              "type": "uint8"
            },
            {
              "components": [
                {
                  "internalType": "uint256",
                  "name": "price",
                  "type": "uint256"
                }
              ],
              "internalType": "struct DataTypes.ResolveByOracleConditions",
              "name": "resolveByOracleConditions",
              "type": "tuple"
            },
            {
              "components": [
                {
                  "internalType": "address",
                  "name": "resolver",
                  "type": "address"
                }
              ],
              "internalType": "struct DataTypes.ResolveByOwnerConditions",
              "name": "resolveByOwnerConditions",
              "type": "tuple"
            },
            {
              "components": [
                {
                  "internalType": "uint256",
                  "name": "profileId",
                  "type": "uint256"
                },
                {
                  "internalType": "uint256",
                  "name": "initialPubId",
                  "type": "uint256"
                },
                {
                  "internalType": "uint256",
                  "name": "resolvingPubId",
                  "type": "uint256"
                }
              ],
              "internalType": "struct DataTypes.LensPostInfo",
              "name": "lensPostInfo",
              "type": "tuple"
            }
          ],
          "internalType": "struct DataTypes.Post",
          "name": "_post",
          "type": "tuple"
        },
        {
          "components": [
            {
              "internalType": "uint256",
              "name": "profileId",
              "type": "uint256"
            },
            {
              "internalType": "string",
              "name": "contentURI",
              "type": "string"
            },
            {
              "internalType": "address",
              "name": "collectModule",
              "type": "address"
            },
            {
              "internalType": "bytes",
              "name": "collectModuleInitData",
              "type": "bytes"
            },
            {
              "internalType": "address",
              "name": "referenceModule",
              "type": "address"
            },
            {
              "internalType": "bytes",
              "name": "referenceModuleInitData",
              "type": "bytes"
            }
          ],
          "internalType": "struct DataTypes.PostData",
          "name": "_lensPost",
          "type": "tuple"
        }
      ],
      "name": "postRBOwner",
      "outputs": [],
      "stateMutability": "nonpayable",
      "type": "function"
    },
    {
      "inputs": [
        {
          "internalType": "address",
          "name": "_address",
          "type": "address"
        }
      ],
      "name": "setIRBOwner",
      "outputs": [],
      "stateMutability": "nonpayable",
      "type": "function"
    }
  ],
  "bytecode": "0x608060405234801561001057600080fd5b506117fc806100206000396000f3fe608060405234801561001057600080fd5b50600436106100415760003560e01c80639341735614610046578063ae362ff914610062578063e2035d0f14610092575b600080fd5b610060600480360381019061005b9190610d6d565b6100ae565b005b61007c60048036038101906100779190610dd0565b610134565b6040516100899190611027565b60405180910390f35b6100ac60048036038101906100a79190611373565b6103e8565b005b806000806101000a81548173ffffffffffffffffffffffffffffffffffffffff021916908373ffffffffffffffffffffffffffffffffffffffff1602179055508073ffffffffffffffffffffffffffffffffffffffff167f7437299f2ef95df7185f14c65d2b599b511d11dba6eeeb1fcde77df97f14321e60405160405180910390a250565b61013c610bbf565b60016000838152602001908152602001600020604051806101800160405290816000820160009054906101000a900473ffffffffffffffffffffffffffffffffffffffff1673ffffffffffffffffffffffffffffffffffffffff1673ffffffffffffffffffffffffffffffffffffffff1681526020016001820160009054906101000a900473ffffffffffffffffffffffffffffffffffffffff1673ffffffffffffffffffffffffffffffffffffffff1673ffffffffffffffffffffffffffffffffffffffff1681526020016002820160009054906101000a900473ffffffffffffffffffffffffffffffffffffffff1673ffffffffffffffffffffffffffffffffffffffff1673ffffffffffffffffffffffffffffffffffffffff1681526020016003820154815260200160048201548152602001600582015481526020016006820160009054906101000a900473ffffffffffffffffffffffffffffffffffffffff1673ffffffffffffffffffffffffffffffffffffffff1673ffffffffffffffffffffffffffffffffffffffff1681526020016006820160149054906101000a900460ff161515151581526020016006820160159054906101000a900460ff16600181111561031157610310610e40565b5b600181111561032357610322610e40565b5b8152602001600782016040518060200160405290816000820154815250508152602001600882016040518060200160405290816000820160009054906101000a900473ffffffffffffffffffffffffffffffffffffffff1673ffffffffffffffffffffffffffffffffffffffff1673ffffffffffffffffffffffffffffffffffffffff16815250508152602001600982016040518060600160405290816000820154815260200160018201548152602001600282015481525050815250509050919050565b60008060008054906101000a900473ffffffffffffffffffffffffffffffffffffffff1673ffffffffffffffffffffffffffffffffffffffff1663e2035d0f85856040518363ffffffff1660e01b815260040161044692919061162c565b60408051808303816000875af1158015610464573d6000803e3d6000fd5b505050506040513d601f19601f820116820180604052508101906104889190611688565b80925081935050506104ce6040518060400160405280600e81526020017f696e697469616c207075622049640000000000000000000000000000000000008152506109cb565b6104d781610a64565b82600001358461016001516000018181525050808461016001516020018181525050836001600084815260200190815260200160002060008201518160000160006101000a81548173ffffffffffffffffffffffffffffffffffffffff021916908373ffffffffffffffffffffffffffffffffffffffff16021790555060208201518160010160006101000a81548173ffffffffffffffffffffffffffffffffffffffff021916908373ffffffffffffffffffffffffffffffffffffffff16021790555060408201518160020160006101000a81548173ffffffffffffffffffffffffffffffffffffffff021916908373ffffffffffffffffffffffffffffffffffffffff160217905550606082015181600301556080820151816004015560a0820151816005015560c08201518160060160006101000a81548173ffffffffffffffffffffffffffffffffffffffff021916908373ffffffffffffffffffffffffffffffffffffffff16021790555060e08201518160060160146101000a81548160ff0219169083151502179055506101008201518160060160156101000a81548160ff0219169083600181111561069357610692610e40565b5b0217905550610120820151816007016000820151816000015550506101408201518160080160008201518160000160006101000a81548173ffffffffffffffffffffffffffffffffffffffff021916908373ffffffffffffffffffffffffffffffffffffffff160217905550505061016082015181600901600082015181600001556020820151816001015560408201518160020155505090505083600260003373ffffffffffffffffffffffffffffffffffffffff1673ffffffffffffffffffffffffffffffffffffffff16815260200190815260200160002060008201518160000160006101000a81548173ffffffffffffffffffffffffffffffffffffffff021916908373ffffffffffffffffffffffffffffffffffffffff16021790555060208201518160010160006101000a81548173ffffffffffffffffffffffffffffffffffffffff021916908373ffffffffffffffffffffffffffffffffffffffff16021790555060408201518160020160006101000a81548173ffffffffffffffffffffffffffffffffffffffff021916908373ffffffffffffffffffffffffffffffffffffffff160217905550606082015181600301556080820151816004015560a0820151816005015560c08201518160060160006101000a81548173ffffffffffffffffffffffffffffffffffffffff021916908373ffffffffffffffffffffffffffffffffffffffff16021790555060e08201518160060160146101000a81548160ff0219169083151502179055506101008201518160060160156101000a81548160ff021916908360018111156108f4576108f3610e40565b5b0217905550610120820151816007016000820151816000015550506101408201518160080160008201518160000160006101000a81548173ffffffffffffffffffffffffffffffffffffffff021916908373ffffffffffffffffffffffffffffffffffffffff160217905550505061016082015181600901600082015181600001556020820151816001015560408201518160020155505090505061099882610afd565b817faf15bed1cac92d3f0429bfb6e9fd1868cc467abf51cfdc1a0ed46e1a29e972c260405160405180910390a250505050565b610a61816040516024016109df9190611750565b6040516020818303038152906040527f41304fac000000000000000000000000000000000000000000000000000000007bffffffffffffffffffffffffffffffffffffffffffffffffffffffff19166020820180517bffffffffffffffffffffffffffffffffffffffffffffffffffffffff8381831617835250505050610b96565b50565b610afa81604051602401610a789190611781565b6040516020818303038152906040527ff5b1bba9000000000000000000000000000000000000000000000000000000007bffffffffffffffffffffffffffffffffffffffffffffffffffffffff19166020820180517bffffffffffffffffffffffffffffffffffffffffffffffffffffffff8381831617835250505050610b96565b50565b610b9381604051602401610b1191906117ab565b6040516020818303038152906040527f27b7cf85000000000000000000000000000000000000000000000000000000007bffffffffffffffffffffffffffffffffffffffffffffffffffffffff19166020820180517bffffffffffffffffffffffffffffffffffffffffffffffffffffffff8381831617835250505050610b96565b50565b60008151905060006a636f6e736f6c652e6c6f679050602083016000808483855afa5050505050565b604051806101800160405280600073ffffffffffffffffffffffffffffffffffffffff168152602001600073ffffffffffffffffffffffffffffffffffffffff168152602001600073ffffffffffffffffffffffffffffffffffffffff168152602001600081526020016000815260200160008152602001600073ffffffffffffffffffffffffffffffffffffffff16815260200160001515815260200160006001811115610c7157610c70610e40565b5b8152602001610c7e610c9e565b8152602001610c8b610cb1565b8152602001610c98610cda565b81525090565b6040518060200160405280600081525090565b6040518060200160405280600073ffffffffffffffffffffffffffffffffffffffff1681525090565b60405180606001604052806000815260200160008152602001600081525090565b6000604051905090565b600080fd5b600080fd5b600073ffffffffffffffffffffffffffffffffffffffff82169050919050565b6000610d3a82610d0f565b9050919050565b610d4a81610d2f565b8114610d5557600080fd5b50565b600081359050610d6781610d41565b92915050565b600060208284031215610d8357610d82610d05565b5b6000610d9184828501610d58565b91505092915050565b6000819050919050565b610dad81610d9a565b8114610db857600080fd5b50565b600081359050610dca81610da4565b92915050565b600060208284031215610de657610de5610d05565b5b6000610df484828501610dbb565b91505092915050565b610e0681610d2f565b82525050565b6000819050919050565b610e1f81610e0c565b82525050565b60008115159050919050565b610e3a81610e25565b82525050565b7f4e487b7100000000000000000000000000000000000000000000000000000000600052602160045260246000fd5b60028110610e8057610e7f610e40565b5b50565b6000819050610e9182610e6f565b919050565b6000610ea182610e83565b9050919050565b610eb181610e96565b82525050565b602082016000820151610ecd6000850182610e16565b50505050565b602082016000820151610ee96000850182610dfd565b50505050565b606082016000820151610f056000850182610e16565b506020820151610f186020850182610e16565b506040820151610f2b6040850182610e16565b50505050565b6101c082016000820151610f486000850182610dfd565b506020820151610f5b6020850182610dfd565b506040820151610f6e6040850182610dfd565b506060820151610f816060850182610e16565b506080820151610f946080850182610e16565b5060a0820151610fa760a0850182610e16565b5060c0820151610fba60c0850182610dfd565b5060e0820151610fcd60e0850182610e31565b50610100820151610fe2610100850182610ea8565b50610120820151610ff7610120850182610eb7565b5061014082015161100c610140850182610ed3565b50610160820151611021610160850182610eef565b50505050565b60006101c08201905061103d6000830184610f31565b92915050565b600080fd5b6000601f19601f8301169050919050565b7f4e487b7100000000000000000000000000000000000000000000000000000000600052604160045260246000fd5b61109182611048565b810181811067ffffffffffffffff821117156110b0576110af611059565b5b80604052505050565b60006110c3610cfb565b90506110cf8282611088565b919050565b6110dd81610e0c565b81146110e857600080fd5b50565b6000813590506110fa816110d4565b92915050565b61110981610e25565b811461111457600080fd5b50565b60008135905061112681611100565b92915050565b6002811061113957600080fd5b50565b60008135905061114b8161112c565b92915050565b60006020828403121561116757611166611043565b5b61117160206110b9565b90506000611181848285016110eb565b60008301525092915050565b6000602082840312156111a3576111a2611043565b5b6111ad60206110b9565b905060006111bd84828501610d58565b60008301525092915050565b6000606082840312156111df576111de611043565b5b6111e960606110b9565b905060006111f9848285016110eb565b600083015250602061120d848285016110eb565b6020830152506040611221848285016110eb565b60408301525092915050565b60006101c0828403121561124457611243611043565b5b61124f6101806110b9565b9050600061125f84828501610d58565b600083015250602061127384828501610d58565b602083015250604061128784828501610d58565b604083015250606061129b848285016110eb565b60608301525060806112af848285016110eb565b60808301525060a06112c3848285016110eb565b60a08301525060c06112d784828501610d58565b60c08301525060e06112eb84828501611117565b60e0830152506101006113008482850161113c565b6101008301525061012061131684828501611151565b6101208301525061014061132c8482850161118d565b61014083015250610160611342848285016111c9565b6101608301525092915050565b600080fd5b600060c0828403121561136a5761136961134f565b5b81905092915050565b6000806101e0838503121561138b5761138a610d05565b5b60006113998582860161122d565b9250506101c083013567ffffffffffffffff8111156113bb576113ba610d0a565b5b6113c785828601611354565b9150509250929050565b60006113e060208401846110eb565b905092915050565b600080fd5b600080fd5b600080fd5b60008083356001602003843603038112611414576114136113f2565b5b83810192508235915060208301925067ffffffffffffffff82111561143c5761143b6113e8565b5b600182023603841315611452576114516113ed565b5b509250929050565b600082825260208201905092915050565b82818337600083830152505050565b6000611486838561145a565b935061149383858461146b565b61149c83611048565b840190509392505050565b60006114b66020840184610d58565b905092915050565b600080833560016020038436030381126114db576114da6113f2565b5b83810192508235915060208301925067ffffffffffffffff821115611503576115026113e8565b5b600182023603841315611519576115186113ed565b5b509250929050565b600082825260208201905092915050565b600061153e8385611521565b935061154b83858461146b565b61155483611048565b840190509392505050565b600060c0830161157260008401846113d1565b61157f6000860182610e16565b5061158d60208401846113f7565b85830360208701526115a083828461147a565b925050506115b160408401846114a7565b6115be6040860182610dfd565b506115cc60608401846114be565b85830360608701526115df838284611532565b925050506115f060808401846114a7565b6115fd6080860182610dfd565b5061160b60a08401846114be565b85830360a087015261161e838284611532565b925050508091505092915050565b60006101e0820190506116426000830185610f31565b8181036101c0830152611655818461155f565b90509392505050565b60008151905061166d81610da4565b92915050565b600081519050611682816110d4565b92915050565b6000806040838503121561169f5761169e610d05565b5b60006116ad8582860161165e565b92505060206116be85828601611673565b9150509250929050565b600081519050919050565b600082825260208201905092915050565b60005b838110156117025780820151818401526020810190506116e7565b83811115611711576000848401525b50505050565b6000611722826116c8565b61172c81856116d3565b935061173c8185602086016116e4565b61174581611048565b840191505092915050565b6000602082019050818103600083015261176a8184611717565b905092915050565b61177b81610e0c565b82525050565b60006020820190506117966000830184611772565b92915050565b6117a581610d9a565b82525050565b60006020820190506117c0600083018461179c565b9291505056fea2646970667358221220af0c88e380c2defe82bed2fe5636c385086dec73cedb959906bc538724e4805c64736f6c634300080a0033",
  "linkReferences": {},
  "deployedLinkReferences": {}
}