{
  "_format": "hh-sol-artifact-1",
  "contractName": "hub",
  "sourceName": "contracts/hub.sol",
  "abi": [
    {
      "inputs": [
        {
          "internalType": "address",
          "name": "_lens",
          "type": "address"
        }
      ],
      "stateMutability": "nonpayable",
      "type": "constructor"
    },
    {
      "inputs": [],
      "name": "NotDispatcher",
      "type": "error"
    },
    {
      "inputs": [],
      "name": "TokenDoesNotExist",
      "type": "error"
    },
    {
      "inputs": [
        {
          "internalType": "string",
          "name": "",
          "type": "string"
        }
      ],
      "name": "UserNotAllowed",
      "type": "error"
    },
    {
      "inputs": [],
      "name": "alreadyResolved",
      "type": "error"
    },
    {
      "inputs": [],
      "name": "amountMustBeGreaterThanZero",
      "type": "error"
    },
    {
      "inputs": [
        {
          "internalType": "enum DataTypes.ResolveTypes",
          "name": "_resolveTypeGiven",
          "type": "uint8"
        },
        {
          "internalType": "enum DataTypes.ResolveTypes",
          "name": "_resolveTypeNeeded",
          "type": "uint8"
        }
      ],
      "name": "cannotUseThisFunctionToResolve",
      "type": "error"
    },
    {
      "inputs": [],
      "name": "executablePostNotFound",
      "type": "error"
    },
    {
      "inputs": [
        {
          "internalType": "uint256",
          "name": "allowance",
          "type": "uint256"
        },
        {
          "internalType": "uint256",
          "name": "required",
          "type": "uint256"
        }
      ],
      "name": "insufficientAllowance",
      "type": "error"
    },
    {
      "inputs": [
        {
          "internalType": "uint256",
          "name": "balance",
          "type": "uint256"
        },
        {
          "internalType": "uint256",
          "name": "required",
          "type": "uint256"
        }
      ],
      "name": "insufficientBalance",
      "type": "error"
    },
    {
      "inputs": [],
      "name": "partyAPlusPartyBIsNot100",
      "type": "error"
    },
    {
      "inputs": [
        {
          "internalType": "address",
          "name": "_ResolverAddress",
          "type": "address"
        }
      ],
      "name": "youAreNotResolverOfExecutablePost",
      "type": "error"
    },
    {
      "inputs": [
        {
          "internalType": "uint256",
          "name": "_currentTimeStamp",
          "type": "uint256"
        },
        {
          "internalType": "uint256",
          "name": "_requiredTimeStamp",
          "type": "uint256"
        }
      ],
      "name": "youTryToResolveTooEarly",
      "type": "error"
    },
    {
      "inputs": [
        {
          "internalType": "address",
          "name": "_treasury",
          "type": "address"
        }
      ],
      "name": "_setTreasuryAddress",
      "outputs": [],
      "stateMutability": "nonpayable",
      "type": "function"
    },
    {
      "inputs": [
        {
          "internalType": "bytes32",
          "name": "_id",
          "type": "bytes32"
        }
      ],
      "name": "getPostById",
      "outputs": [
        {
          "components": [
            {
              "internalType": "address",
              "name": "partyA",
              "type": "address"
            },
            {
              "internalType": "address",
              "name": "partyB",
              "type": "address"
            },
            {
              "internalType": "address",
              "name": "owner",
              "type": "address"
            },
            {
              "internalType": "address",
              "name": "resolver",
              "type": "address"
            },
            {
              "internalType": "uint256",
              "name": "resolveAfter",
              "type": "uint256"
            },
            {
              "internalType": "uint256",
              "name": "automaticallyResolveAfter",
              "type": "uint256"
            },
            {
              "internalType": "uint256",
              "name": "amount",
              "type": "uint256"
            },
            {
              "internalType": "address",
              "name": "currency",
              "type": "address"
            },
            {
              "internalType": "bool",
              "name": "resolved",
              "type": "bool"
            },
            {
              "internalType": "enum DataTypes.ResolveTypes",
              "name": "resolvetype",
              "type": "uint8"
            },
            {
              "components": [
                {
                  "internalType": "uint256",
                  "name": "price",
                  "type": "uint256"
                },
                {
                  "internalType": "enum DataTypes.ResolveOperators",
                  "name": "operator",
                  "type": "uint8"
                }
              ],
              "internalType": "struct DataTypes.ResolveByOracleConditions",
              "name": "resolveByOracleConditions",
              "type": "tuple"
            },
            {
              "components": [
                {
                  "internalType": "address",
                  "name": "resolver",
                  "type": "address"
                }
              ],
              "internalType": "struct DataTypes.ResolveByOwnerConditions",
              "name": "resolveByOwnerConditions",
              "type": "tuple"
            },
            {
              "components": [
                {
                  "internalType": "uint256",
                  "name": "profileId",
                  "type": "uint256"
                },
                {
                  "internalType": "uint256",
                  "name": "initialPubId",
                  "type": "uint256"
                },
                {
                  "internalType": "uint256",
                  "name": "resolvingPubId",
                  "type": "uint256"
                }
              ],
              "internalType": "struct DataTypes.LensPostInfo",
              "name": "lensPostInfo",
              "type": "tuple"
            }
          ],
          "internalType": "struct DataTypes.Post",
          "name": "",
          "type": "tuple"
        }
      ],
      "stateMutability": "view",
      "type": "function"
    },
    {
      "inputs": [],
      "name": "governance",
      "outputs": [
        {
          "internalType": "address",
          "name": "",
          "type": "address"
        }
      ],
      "stateMutability": "view",
      "type": "function"
    },
    {
      "inputs": [
        {
          "components": [
            {
              "internalType": "address",
              "name": "partyA",
              "type": "address"
            },
            {
              "internalType": "address",
              "name": "partyB",
              "type": "address"
            },
            {
              "internalType": "address",
              "name": "owner",
              "type": "address"
            },
            {
              "internalType": "address",
              "name": "resolver",
              "type": "address"
            },
            {
              "internalType": "uint256",
              "name": "resolveAfter",
              "type": "uint256"
            },
            {
              "internalType": "uint256",
              "name": "automaticallyResolveAfter",
              "type": "uint256"
            },
            {
              "internalType": "uint256",
              "name": "amount",
              "type": "uint256"
            },
            {
              "internalType": "address",
              "name": "currency",
              "type": "address"
            },
            {
              "internalType": "bool",
              "name": "resolved",
              "type": "bool"
            },
            {
              "internalType": "enum DataTypes.ResolveTypes",
              "name": "resolvetype",
              "type": "uint8"
            },
            {
              "components": [
                {
                  "internalType": "uint256",
                  "name": "price",
                  "type": "uint256"
                },
                {
                  "internalType": "enum DataTypes.ResolveOperators",
                  "name": "operator",
                  "type": "uint8"
                }
              ],
              "internalType": "struct DataTypes.ResolveByOracleConditions",
              "name": "resolveByOracleConditions",
              "type": "tuple"
            },
            {
              "components": [
                {
                  "internalType": "address",
                  "name": "resolver",
                  "type": "address"
                }
              ],
              "internalType": "struct DataTypes.ResolveByOwnerConditions",
              "name": "resolveByOwnerConditions",
              "type": "tuple"
            },
            {
              "components": [
                {
                  "internalType": "uint256",
                  "name": "profileId",
                  "type": "uint256"
                },
                {
                  "internalType": "uint256",
                  "name": "initialPubId",
                  "type": "uint256"
                },
                {
                  "internalType": "uint256",
                  "name": "resolvingPubId",
                  "type": "uint256"
                }
              ],
              "internalType": "struct DataTypes.LensPostInfo",
              "name": "lensPostInfo",
              "type": "tuple"
            }
          ],
          "internalType": "struct DataTypes.Post",
          "name": "_post",
          "type": "tuple"
        },
        {
          "components": [
            {
              "internalType": "uint256",
              "name": "profileId",
              "type": "uint256"
            },
            {
              "internalType": "string",
              "name": "contentURI",
              "type": "string"
            },
            {
              "internalType": "address",
              "name": "collectModule",
              "type": "address"
            },
            {
              "internalType": "bytes",
              "name": "collectModuleInitData",
              "type": "bytes"
            },
            {
              "internalType": "address",
              "name": "referenceModule",
              "type": "address"
            },
            {
              "internalType": "bytes",
              "name": "referenceModuleInitData",
              "type": "bytes"
            }
          ],
          "internalType": "struct DataTypes.PostData",
          "name": "_lensPost",
          "type": "tuple"
        }
      ],
      "name": "post",
      "outputs": [
        {
          "internalType": "bytes32",
          "name": "id",
          "type": "bytes32"
        },
        {
          "internalType": "uint256",
          "name": "initialPubId",
          "type": "uint256"
        }
      ],
      "stateMutability": "nonpayable",
      "type": "function"
    },
    {
      "inputs": [
        {
          "internalType": "bytes32",
          "name": "_id",
          "type": "bytes32"
        },
        {
          "internalType": "uint8",
          "name": "_resultPartyA",
          "type": "uint8"
        },
        {
          "internalType": "uint8",
          "name": "_resultPartyB",
          "type": "uint8"
        },
        {
          "components": [
            {
              "internalType": "uint256",
              "name": "profileId",
              "type": "uint256"
            },
            {
              "internalType": "string",
              "name": "contentURI",
              "type": "string"
            },
            {
              "internalType": "uint256",
              "name": "profileIdPointed",
              "type": "uint256"
            },
            {
              "internalType": "uint256",
              "name": "pubIdPointed",
              "type": "uint256"
            },
            {
              "internalType": "bytes",
              "name": "referenceModuleData",
              "type": "bytes"
            },
            {
              "internalType": "address",
              "name": "collectModule",
              "type": "address"
            },
            {
              "internalType": "bytes",
              "name": "collectModuleInitData",
              "type": "bytes"
            },
            {
              "internalType": "address",
              "name": "referenceModule",
              "type": "address"
            },
            {
              "internalType": "bytes",
              "name": "referenceModuleInitData",
              "type": "bytes"
            }
          ],
          "internalType": "struct DataTypes.CommentData",
          "name": "_commentData",
          "type": "tuple"
        }
      ],
      "name": "resolveByOwner",
      "outputs": [],
      "stateMutability": "nonpayable",
      "type": "function"
    },
    {
      "inputs": [],
      "name": "waitForAutomaticResolution",
      "outputs": [
        {
          "internalType": "uint256",
          "name": "",
          "type": "uint256"
        }
      ],
      "stateMutability": "view",
      "type": "function"
    }
  ],
  "bytecode": "0x60806040523480156200001157600080fd5b50604051620031533803806200315383398181016040528101906200003791906200016a565b33600160006101000a81548173ffffffffffffffffffffffffffffffffffffffff021916908373ffffffffffffffffffffffffffffffffffffffff16021790555030600260006101000a81548173ffffffffffffffffffffffffffffffffffffffff021916908373ffffffffffffffffffffffffffffffffffffffff160217905550806000806101000a81548173ffffffffffffffffffffffffffffffffffffffff021916908373ffffffffffffffffffffffffffffffffffffffff160217905550506200019c565b600080fd5b600073ffffffffffffffffffffffffffffffffffffffff82169050919050565b6000620001328262000105565b9050919050565b620001448162000125565b81146200015057600080fd5b50565b600081519050620001648162000139565b92915050565b60006020828403121562000183576200018262000100565b5b6000620001938482850162000153565b91505092915050565b612fa780620001ac6000396000f3fe608060405234801561001057600080fd5b50600436106100625760003560e01c806316d07f00146100675780635aa6e67514610083578063645ac860146100a15780639a118c75146100bd578063ae362ff9146100ee578063d6ff4dcd1461011e575b600080fd5b610081600480360381019061007c9190611f7c565b61013c565b005b61008b61070c565b604051610098919061200e565b60405180910390f35b6100bb60048036038101906100b69190612029565b610732565b005b6100d760048036038101906100d29190612324565b61086b565b6040516100e59291906123a0565b60405180910390f35b610108600480360381019061010391906123c9565b61124c565b604051610115919061267a565b60405180910390f35b610126611591565b6040516101339190612696565b60405180910390f35b600460008581526020019081526020016000206000808260060154141561018f576040517f7fecbe3f00000000000000000000000000000000000000000000000000000000815260040160405180910390fd5b8060018111156101a2576101a1612423565b5b8260070160159054906101000a900460ff1660018111156101c6576101c5612423565b5b1461021b57808260070160159054906101000a900460ff166040517ff548bef50000000000000000000000000000000000000000000000000000000081526004016102129291906126c0565b60405180910390fd5b3373ffffffffffffffffffffffffffffffffffffffff168260030160009054906101000a900473ffffffffffffffffffffffffffffffffffffffff1673ffffffffffffffffffffffffffffffffffffffff16146102d3578160030160009054906101000a900473ffffffffffffffffffffffffffffffffffffffff166040517f49261fcc0000000000000000000000000000000000000000000000000000000081526004016102ca919061200e565b60405180910390fd5b4282600401541115610322574282600401546040517f57f3780e0000000000000000000000000000000000000000000000000000000081526004016103199291906126e9565b60405180910390fd5b8160070160149054906101000a900460ff161561036b576040517ffd55da1000000000000000000000000000000000000000000000000000000000815260040160405180910390fd5b84846064818361037b9190612741565b60ff16146103b5576040517fdd55b48000000000000000000000000000000000000000000000000000000000815260040160405180910390fd5b846000015160008060009054906101000a900473ffffffffffffffffffffffffffffffffffffffff1673ffffffffffffffffffffffffffffffffffffffff1663ec81d194836040518263ffffffff1660e01b81526004016104169190612696565b600060405180830381865afa158015610433573d6000803e3d6000fd5b505050506040513d6000823e3d601f19601f8201168201806040525081019061045c919061281b565b905060008151141561049a576040517fceea21b600000000000000000000000000000000000000000000000000000000815260040160405180910390fd5b60008060009054906101000a900473ffffffffffffffffffffffffffffffffffffffff1673ffffffffffffffffffffffffffffffffffffffff1663540528b9846040518263ffffffff1660e01b81526004016104f69190612696565b602060405180830381865afa158015610513573d6000803e3d6000fd5b505050506040513d601f19601f820116820180604052508101906105379190612879565b90503073ffffffffffffffffffffffffffffffffffffffff168173ffffffffffffffffffffffffffffffffffffffff161461059e576040517f957fb99f00000000000000000000000000000000000000000000000000000000815260040160405180910390fd5b6000600460008d8152602001908152602001600020905061062660648c60ff1683600601546105cd91906128a6565b6105d7919061292f565b8260070160009054906101000a900473ffffffffffffffffffffffffffffffffffffffff168360000160009054906101000a900473ffffffffffffffffffffffffffffffffffffffff16611597565b61069760648b60ff16836006015461063e91906128a6565b610648919061292f565b8260070160009054906101000a900473ffffffffffffffffffffffffffffffffffffffff168360010160009054906101000a900473ffffffffffffffffffffffffffffffffffffffff16611597565b6106a481600b018a611621565b985060006106b18a61164e565b905060018260070160146101000a81548160ff021916908315150217905550807fd2640e56725b8330ec0701927793d7d4dd29e77d607d421aa3e19d3877c7dff760405160405180910390a250505050505050505050505050565b600160009054906101000a900473ffffffffffffffffffffffffffffffffffffffff1681565b600160009054906101000a900473ffffffffffffffffffffffffffffffffffffffff1673ffffffffffffffffffffffffffffffffffffffff163373ffffffffffffffffffffffffffffffffffffffff16146107c2576040517fd2a4bdfb0000000000000000000000000000000000000000000000000000000081526004016107b9906129bd565b60405180910390fd5b80600260006101000a81548173ffffffffffffffffffffffffffffffffffffffff021916908373ffffffffffffffffffffffffffffffffffffffff160217905550600260009054906101000a900473ffffffffffffffffffffffffffffffffffffffff1673ffffffffffffffffffffffffffffffffffffffff167f7437299f2ef95df7185f14c65d2b599b511d11dba6eeeb1fcde77df97f14321e60405160405180910390a250565b6000808360c001518460e00151856040015160018310156108b8576040517f920fcb3900000000000000000000000000000000000000000000000000000000815260040160405180910390fd5b600082905060008173ffffffffffffffffffffffffffffffffffffffff1663dd62ed3e84306040518363ffffffff1660e01b81526004016108fa9291906129dd565b602060405180830381865afa158015610917573d6000803e3d6000fd5b505050506040513d601f19601f8201168201806040525081019061093b9190612a1b565b9050610946816116f4565b8481101561098d5780856040517f4c2508230000000000000000000000000000000000000000000000000000000081526004016109849291906126e9565b60405180910390fd5b60008273ffffffffffffffffffffffffffffffffffffffff166370a08231856040518263ffffffff1660e01b81526004016109c8919061200e565b602060405180830381865afa1580156109e5573d6000803e3d6000fd5b505050506040513d601f19601f82011682018060405250810190610a099190612a1b565b905085811015610a525780866040517fc7a28c79000000000000000000000000000000000000000000000000000000008152600401610a499291906126e9565b60405180910390fd5b886000013560008060009054906101000a900473ffffffffffffffffffffffffffffffffffffffff1673ffffffffffffffffffffffffffffffffffffffff1663ec81d194836040518263ffffffff1660e01b8152600401610ab39190612696565b600060405180830381865afa158015610ad0573d6000803e3d6000fd5b505050506040513d6000823e3d601f19601f82011682018060405250810190610af9919061281b565b9050600081511415610b37576040517fceea21b600000000000000000000000000000000000000000000000000000000815260040160405180910390fd5b60008060009054906101000a900473ffffffffffffffffffffffffffffffffffffffff1673ffffffffffffffffffffffffffffffffffffffff1663540528b9846040518263ffffffff1660e01b8152600401610b939190612696565b602060405180830381865afa158015610bb0573d6000803e3d6000fd5b505050506040513d601f19601f82011682018060405250810190610bd49190612879565b90503073ffffffffffffffffffffffffffffffffffffffff168173ffffffffffffffffffffffffffffffffffffffff1614610c3b576040517f957fb99f00000000000000000000000000000000000000000000000000000000815260040160405180910390fd5b610c4361178d565b9a50610c5c8d60c001518e60e001518f604001516117bd565b610c658c61186b565b99508b600001358d61018001516000018181525050898d610180015160200181815250508c600460008d815260200190815260200160002060008201518160000160006101000a81548173ffffffffffffffffffffffffffffffffffffffff021916908373ffffffffffffffffffffffffffffffffffffffff16021790555060208201518160010160006101000a81548173ffffffffffffffffffffffffffffffffffffffff021916908373ffffffffffffffffffffffffffffffffffffffff16021790555060408201518160020160006101000a81548173ffffffffffffffffffffffffffffffffffffffff021916908373ffffffffffffffffffffffffffffffffffffffff16021790555060608201518160030160006101000a81548173ffffffffffffffffffffffffffffffffffffffff021916908373ffffffffffffffffffffffffffffffffffffffff1602179055506080820151816004015560a0820151816005015560c0820151816006015560e08201518160070160006101000a81548173ffffffffffffffffffffffffffffffffffffffff021916908373ffffffffffffffffffffffffffffffffffffffff1602179055506101008201518160070160146101000a81548160ff0219169083151502179055506101208201518160070160156101000a81548160ff02191690836001811115610e6b57610e6a612423565b5b0217905550610140820151816008016000820151816000015560208201518160010160006101000a81548160ff02191690836002811115610eaf57610eae612423565b5b0217905550505061016082015181600a0160008201518160000160006101000a81548173ffffffffffffffffffffffffffffffffffffffff021916908373ffffffffffffffffffffffffffffffffffffffff160217905550505061018082015181600b0160008201518160000155602082015181600101556040820151816002015550509050508c600560003373ffffffffffffffffffffffffffffffffffffffff1673ffffffffffffffffffffffffffffffffffffffff16815260200190815260200160002060008201518160000160006101000a81548173ffffffffffffffffffffffffffffffffffffffff021916908373ffffffffffffffffffffffffffffffffffffffff16021790555060208201518160010160006101000a81548173ffffffffffffffffffffffffffffffffffffffff021916908373ffffffffffffffffffffffffffffffffffffffff16021790555060408201518160020160006101000a81548173ffffffffffffffffffffffffffffffffffffffff021916908373ffffffffffffffffffffffffffffffffffffffff16021790555060608201518160030160006101000a81548173ffffffffffffffffffffffffffffffffffffffff021916908373ffffffffffffffffffffffffffffffffffffffff1602179055506080820151816004015560a0820151816005015560c0820151816006015560e08201518160070160006101000a81548173ffffffffffffffffffffffffffffffffffffffff021916908373ffffffffffffffffffffffffffffffffffffffff1602179055506101008201518160070160146101000a81548160ff0219169083151502179055506101208201518160070160156101000a81548160ff0219169083600181111561114457611143612423565b5b0217905550610140820151816008016000820151816000015560208201518160010160006101000a81548160ff0219169083600281111561118857611187612423565b5b0217905550505061016082015181600a0160008201518160000160006101000a81548173ffffffffffffffffffffffffffffffffffffffff021916908373ffffffffffffffffffffffffffffffffffffffff160217905550505061018082015181600b0160008201518160000155602082015181600101556040820151816002015550509050508a7faf15bed1cac92d3f0429bfb6e9fd1868cc467abf51cfdc1a0ed46e1a29e972c260405160405180910390a25050505050505050509250929050565b61125461193a565b60046000838152602001908152602001600020604051806101a00160405290816000820160009054906101000a900473ffffffffffffffffffffffffffffffffffffffff1673ffffffffffffffffffffffffffffffffffffffff1673ffffffffffffffffffffffffffffffffffffffff1681526020016001820160009054906101000a900473ffffffffffffffffffffffffffffffffffffffff1673ffffffffffffffffffffffffffffffffffffffff1673ffffffffffffffffffffffffffffffffffffffff1681526020016002820160009054906101000a900473ffffffffffffffffffffffffffffffffffffffff1673ffffffffffffffffffffffffffffffffffffffff1673ffffffffffffffffffffffffffffffffffffffff1681526020016003820160009054906101000a900473ffffffffffffffffffffffffffffffffffffffff1673ffffffffffffffffffffffffffffffffffffffff1673ffffffffffffffffffffffffffffffffffffffff1681526020016004820154815260200160058201548152602001600682015481526020016007820160009054906101000a900473ffffffffffffffffffffffffffffffffffffffff1673ffffffffffffffffffffffffffffffffffffffff1673ffffffffffffffffffffffffffffffffffffffff1681526020016007820160149054906101000a900460ff161515151581526020016007820160159054906101000a900460ff16600181111561147f5761147e612423565b5b600181111561149157611490612423565b5b815260200160088201604051806040016040529081600082015481526020016001820160009054906101000a900460ff1660028111156114d4576114d3612423565b5b60028111156114e6576114e5612423565b5b815250508152602001600a82016040518060200160405290816000820160009054906101000a900473ffffffffffffffffffffffffffffffffffffffff1673ffffffffffffffffffffffffffffffffffffffff1673ffffffffffffffffffffffffffffffffffffffff16815250508152602001600b82016040518060600160405290816000820154815260200160018201548152602001600282015481525050815250509050919050565b60035481565b60008290508073ffffffffffffffffffffffffffffffffffffffff1663a9059cbb83866040518363ffffffff1660e01b81526004016115d7929190612a48565b6020604051808303816000875af11580156115f6573d6000803e3d6000fd5b505050506040513d601f19601f8201168201806040525081019061161a9190612a86565b5050505050565b611629611a36565b8260000154826040018181525050826001015482606001818152505081905092915050565b60008060009054906101000a900473ffffffffffffffffffffffffffffffffffffffff1673ffffffffffffffffffffffffffffffffffffffff1663b6f32d2b836040518263ffffffff1660e01b81526004016116aa9190612c37565b6020604051808303816000875af11580156116c9573d6000803e3d6000fd5b505050506040513d601f19601f820116820180604052508101906116ed9190612a1b565b9050919050565b61178a816040516024016117089190612696565b6040516020818303038152906040527ff5b1bba9000000000000000000000000000000000000000000000000000000007bffffffffffffffffffffffffffffffffffffffffffffffffffffffff19166020820180517bffffffffffffffffffffffffffffffffffffffffffffffffffffffff8381831617835250505050611911565b50565b600042326040516020016117a2929190612cc2565b60405160208183030381529060405280519060200120905090565b60008290508073ffffffffffffffffffffffffffffffffffffffff166323b872dd83600260009054906101000a900473ffffffffffffffffffffffffffffffffffffffff16876040518463ffffffff1660e01b815260040161182193929190612cee565b6020604051808303816000875af1158015611840573d6000803e3d6000fd5b505050506040513d601f19601f820116820180604052508101906118649190612a86565b5050505050565b60008060009054906101000a900473ffffffffffffffffffffffffffffffffffffffff1673ffffffffffffffffffffffffffffffffffffffff1663963ff141836040518263ffffffff1660e01b81526004016118c79190612f4f565b6020604051808303816000875af11580156118e6573d6000803e3d6000fd5b505050506040513d601f19601f8201168201806040525081019061190a9190612a1b565b9050919050565b60008151905060006a636f6e736f6c652e6c6f679050602083016000808483855afa5050505050565b604051806101a00160405280600073ffffffffffffffffffffffffffffffffffffffff168152602001600073ffffffffffffffffffffffffffffffffffffffff168152602001600073ffffffffffffffffffffffffffffffffffffffff168152602001600073ffffffffffffffffffffffffffffffffffffffff168152602001600081526020016000815260200160008152602001600073ffffffffffffffffffffffffffffffffffffffff16815260200160001515815260200160006001811115611a0957611a08612423565b5b8152602001611a16611aae565b8152602001611a23611ada565b8152602001611a30611b03565b81525090565b6040518061012001604052806000815260200160608152602001600081526020016000815260200160608152602001600073ffffffffffffffffffffffffffffffffffffffff16815260200160608152602001600073ffffffffffffffffffffffffffffffffffffffff168152602001606081525090565b60405180604001604052806000815260200160006002811115611ad457611ad3612423565b5b81525090565b6040518060200160405280600073ffffffffffffffffffffffffffffffffffffffff1681525090565b60405180606001604052806000815260200160008152602001600081525090565b6000604051905090565b600080fd5b600080fd5b6000819050919050565b611b4b81611b38565b8114611b5657600080fd5b50565b600081359050611b6881611b42565b92915050565b600060ff82169050919050565b611b8481611b6e565b8114611b8f57600080fd5b50565b600081359050611ba181611b7b565b92915050565b600080fd5b6000601f19601f8301169050919050565b7f4e487b7100000000000000000000000000000000000000000000000000000000600052604160045260246000fd5b611bf582611bac565b810181811067ffffffffffffffff82111715611c1457611c13611bbd565b5b80604052505050565b6000611c27611b24565b9050611c338282611bec565b919050565b600080fd5b6000819050919050565b611c5081611c3d565b8114611c5b57600080fd5b50565b600081359050611c6d81611c47565b92915050565b600080fd5b600080fd5b600067ffffffffffffffff821115611c9857611c97611bbd565b5b611ca182611bac565b9050602081019050919050565b82818337600083830152505050565b6000611cd0611ccb84611c7d565b611c1d565b905082815260208101848484011115611cec57611ceb611c78565b5b611cf7848285611cae565b509392505050565b600082601f830112611d1457611d13611c73565b5b8135611d24848260208601611cbd565b91505092915050565b600067ffffffffffffffff821115611d4857611d47611bbd565b5b611d5182611bac565b9050602081019050919050565b6000611d71611d6c84611d2d565b611c1d565b905082815260208101848484011115611d8d57611d8c611c78565b5b611d98848285611cae565b509392505050565b600082601f830112611db557611db4611c73565b5b8135611dc5848260208601611d5e565b91505092915050565b600073ffffffffffffffffffffffffffffffffffffffff82169050919050565b6000611df982611dce565b9050919050565b611e0981611dee565b8114611e1457600080fd5b50565b600081359050611e2681611e00565b92915050565b60006101208284031215611e4357611e42611ba7565b5b611e4e610120611c1d565b90506000611e5e84828501611c5e565b600083015250602082013567ffffffffffffffff811115611e8257611e81611c38565b5b611e8e84828501611cff565b6020830152506040611ea284828501611c5e565b6040830152506060611eb684828501611c5e565b606083015250608082013567ffffffffffffffff811115611eda57611ed9611c38565b5b611ee684828501611da0565b60808301525060a0611efa84828501611e17565b60a08301525060c082013567ffffffffffffffff811115611f1e57611f1d611c38565b5b611f2a84828501611da0565b60c08301525060e0611f3e84828501611e17565b60e08301525061010082013567ffffffffffffffff811115611f6357611f62611c38565b5b611f6f84828501611da0565b6101008301525092915050565b60008060008060808587031215611f9657611f95611b2e565b5b6000611fa487828801611b59565b9450506020611fb587828801611b92565b9350506040611fc687828801611b92565b925050606085013567ffffffffffffffff811115611fe757611fe6611b33565b5b611ff387828801611e2c565b91505092959194509250565b61200881611dee565b82525050565b60006020820190506120236000830184611fff565b92915050565b60006020828403121561203f5761203e611b2e565b5b600061204d84828501611e17565b91505092915050565b60008115159050919050565b61206b81612056565b811461207657600080fd5b50565b60008135905061208881612062565b92915050565b6002811061209b57600080fd5b50565b6000813590506120ad8161208e565b92915050565b600381106120c057600080fd5b50565b6000813590506120d2816120b3565b92915050565b6000604082840312156120ee576120ed611ba7565b5b6120f86040611c1d565b9050600061210884828501611c5e565b600083015250602061211c848285016120c3565b60208301525092915050565b60006020828403121561213e5761213d611ba7565b5b6121486020611c1d565b9050600061215884828501611e17565b60008301525092915050565b60006060828403121561217a57612179611ba7565b5b6121846060611c1d565b9050600061219484828501611c5e565b60008301525060206121a884828501611c5e565b60208301525060406121bc84828501611c5e565b60408301525092915050565b600061020082840312156121df576121de611ba7565b5b6121ea6101a0611c1d565b905060006121fa84828501611e17565b600083015250602061220e84828501611e17565b602083015250604061222284828501611e17565b604083015250606061223684828501611e17565b606083015250608061224a84828501611c5e565b60808301525060a061225e84828501611c5e565b60a08301525060c061227284828501611c5e565b60c08301525060e061228684828501611e17565b60e08301525061010061229b84828501612079565b610100830152506101206122b18482850161209e565b610120830152506101406122c7848285016120d8565b610140830152506101806122dd84828501612128565b610160830152506101a06122f384828501612164565b6101808301525092915050565b600080fd5b600060c0828403121561231b5761231a612300565b5b81905092915050565b600080610220838503121561233c5761233b611b2e565b5b600061234a858286016121c8565b92505061020083013567ffffffffffffffff81111561236c5761236b611b33565b5b61237885828601612305565b9150509250929050565b61238b81611b38565b82525050565b61239a81611c3d565b82525050565b60006040820190506123b56000830185612382565b6123c26020830184612391565b9392505050565b6000602082840312156123df576123de611b2e565b5b60006123ed84828501611b59565b91505092915050565b6123ff81611dee565b82525050565b61240e81611c3d565b82525050565b61241d81612056565b82525050565b7f4e487b7100000000000000000000000000000000000000000000000000000000600052602160045260246000fd5b6002811061246357612462612423565b5b50565b600081905061247482612452565b919050565b600061248482612466565b9050919050565b61249481612479565b82525050565b600381106124ab576124aa612423565b5b50565b60008190506124bc8261249a565b919050565b60006124cc826124ae565b9050919050565b6124dc816124c1565b82525050565b6040820160008201516124f86000850182612405565b50602082015161250b60208501826124d3565b50505050565b60208201600082015161252760008501826123f6565b50505050565b6060820160008201516125436000850182612405565b5060208201516125566020850182612405565b5060408201516125696040850182612405565b50505050565b6102008201600082015161258660008501826123f6565b50602082015161259960208501826123f6565b5060408201516125ac60408501826123f6565b5060608201516125bf60608501826123f6565b5060808201516125d26080850182612405565b5060a08201516125e560a0850182612405565b5060c08201516125f860c0850182612405565b5060e082015161260b60e08501826123f6565b50610100820151612620610100850182612414565b5061012082015161263561012085018261248b565b5061014082015161264a6101408501826124e2565b5061016082015161265f610180850182612511565b506101808201516126746101a085018261252d565b50505050565b600061020082019050612690600083018461256f565b92915050565b60006020820190506126ab6000830184612391565b92915050565b6126ba81612479565b82525050565b60006040820190506126d560008301856126b1565b6126e260208301846126b1565b9392505050565b60006040820190506126fe6000830185612391565b61270b6020830184612391565b9392505050565b7f4e487b7100000000000000000000000000000000000000000000000000000000600052601160045260246000fd5b600061274c82611b6e565b915061275783611b6e565b92508260ff0382111561276d5761276c612712565b5b828201905092915050565b60005b8381101561279657808201518184015260208101905061277b565b838111156127a5576000848401525b50505050565b60006127be6127b984611c7d565b611c1d565b9050828152602081018484840111156127da576127d9611c78565b5b6127e5848285612778565b509392505050565b600082601f83011261280257612801611c73565b5b81516128128482602086016127ab565b91505092915050565b60006020828403121561283157612830611b2e565b5b600082015167ffffffffffffffff81111561284f5761284e611b33565b5b61285b848285016127ed565b91505092915050565b60008151905061287381611e00565b92915050565b60006020828403121561288f5761288e611b2e565b5b600061289d84828501612864565b91505092915050565b60006128b182611c3d565b91506128bc83611c3d565b9250817fffffffffffffffffffffffffffffffffffffffffffffffffffffffffffffffff04831182151516156128f5576128f4612712565b5b828202905092915050565b7f4e487b7100000000000000000000000000000000000000000000000000000000600052601260045260246000fd5b600061293a82611c3d565b915061294583611c3d565b92508261295557612954612900565b5b828204905092915050565b600082825260208201905092915050565b7f4e6f74206120476f7665726e616e636520416464726573730000000000000000600082015250565b60006129a7601883612960565b91506129b282612971565b602082019050919050565b600060208201905081810360008301526129d68161299a565b9050919050565b60006040820190506129f26000830185611fff565b6129ff6020830184611fff565b9392505050565b600081519050612a1581611c47565b92915050565b600060208284031215612a3157612a30611b2e565b5b6000612a3f84828501612a06565b91505092915050565b6000604082019050612a5d6000830185611fff565b612a6a6020830184612391565b9392505050565b600081519050612a8081612062565b92915050565b600060208284031215612a9c57612a9b611b2e565b5b6000612aaa84828501612a71565b91505092915050565b600081519050919050565b600082825260208201905092915050565b6000612ada82612ab3565b612ae48185612abe565b9350612af4818560208601612778565b612afd81611bac565b840191505092915050565b600081519050919050565b600082825260208201905092915050565b6000612b2f82612b08565b612b398185612b13565b9350612b49818560208601612778565b612b5281611bac565b840191505092915050565b600061012083016000830151612b766000860182612405565b5060208301518482036020860152612b8e8282612acf565b9150506040830151612ba36040860182612405565b506060830151612bb66060860182612405565b5060808301518482036080860152612bce8282612b24565b91505060a0830151612be360a08601826123f6565b5060c083015184820360c0860152612bfb8282612b24565b91505060e0830151612c1060e08601826123f6565b50610100830151848203610100860152612c2a8282612b24565b9150508091505092915050565b60006020820190508181036000830152612c518184612b5d565b905092915050565b6000819050919050565b612c74612c6f82611c3d565b612c59565b82525050565b60008160601b9050919050565b6000612c9282612c7a565b9050919050565b6000612ca482612c87565b9050919050565b612cbc612cb782611dee565b612c99565b82525050565b6000612cce8285612c63565b602082019150612cde8284612cab565b6014820191508190509392505050565b6000606082019050612d036000830186611fff565b612d106020830185611fff565b612d1d6040830184612391565b949350505050565b6000612d346020840184611c5e565b905092915050565b600080fd5b600080fd5b600080fd5b60008083356001602003843603038112612d6857612d67612d46565b5b83810192508235915060208301925067ffffffffffffffff821115612d9057612d8f612d3c565b5b600182023603841315612da657612da5612d41565b5b509250929050565b6000612dba8385612abe565b9350612dc7838584611cae565b612dd083611bac565b840190509392505050565b6000612dea6020840184611e17565b905092915050565b60008083356001602003843603038112612e0f57612e0e612d46565b5b83810192508235915060208301925067ffffffffffffffff821115612e3757612e36612d3c565b5b600182023603841315612e4d57612e4c612d41565b5b509250929050565b6000612e618385612b13565b9350612e6e838584611cae565b612e7783611bac565b840190509392505050565b600060c08301612e956000840184612d25565b612ea26000860182612405565b50612eb06020840184612d4b565b8583036020870152612ec3838284612dae565b92505050612ed46040840184612ddb565b612ee160408601826123f6565b50612eef6060840184612df2565b8583036060870152612f02838284612e55565b92505050612f136080840184612ddb565b612f2060808601826123f6565b50612f2e60a0840184612df2565b85830360a0870152612f41838284612e55565b925050508091505092915050565b60006020820190508181036000830152612f698184612e82565b90509291505056fea2646970667358221220e918c1710db314de04db3e3ac978d0e1959b6b690298630744ee6fd3bdb1174f64736f6c634300080a0033",
  "linkReferences": {},
  "deployedLinkReferences": {}
}