{
  "_format": "hh-sol-artifact-1",
  "contractName": "hub",
  "sourceName": "contracts/hub.sol",
  "abi": [
    {
      "inputs": [
        {
          "internalType": "address",
          "name": "_partyA",
          "type": "address"
        },
        {
          "internalType": "address",
          "name": "_partyB",
          "type": "address"
        },
        {
          "internalType": "uint256",
          "name": "_amount",
          "type": "uint256"
        }
      ],
      "name": "postRBOwner",
      "outputs": [],
      "stateMutability": "nonpayable",
      "type": "function"
    },
    {
      "inputs": [
        {
          "internalType": "address",
          "name": "_address",
          "type": "address"
        }
      ],
      "name": "setIRBOwner",
      "outputs": [],
      "stateMutability": "nonpayable",
      "type": "function"
    }
  ],
  "bytecode": "0x608060405234801561001057600080fd5b50610d79806100206000396000f3fe608060405234801561001057600080fd5b50600436106100365760003560e01c80636f84fe841461003b5780639341735614610057575b600080fd5b61005560048036038101906100509190610883565b610073565b005b610071600480360381019061006c91906108d6565b6104d3565b005b600061007d6106f6565b60008054906101000a900473ffffffffffffffffffffffffffffffffffffffff1673ffffffffffffffffffffffffffffffffffffffff16636f84fe848686866040518463ffffffff1660e01b81526004016100da93929190610921565b610140604051808303816000875af11580156100fa573d6000803e3d6000fd5b505050506040513d601f19601f8201168201806040525081019061011e9190610bfe565b8093508192505050806001600084815260200190815260200160002060008201518160000160006101000a81548173ffffffffffffffffffffffffffffffffffffffff021916908373ffffffffffffffffffffffffffffffffffffffff16021790555060208201518160010160006101000a81548173ffffffffffffffffffffffffffffffffffffffff021916908373ffffffffffffffffffffffffffffffffffffffff16021790555060408201518160020160006101000a81548173ffffffffffffffffffffffffffffffffffffffff021916908373ffffffffffffffffffffffffffffffffffffffff160217905550606082015181600301556080820151816004015560a08201518160050160006101000a81548160ff02191690831515021790555060c08201518160050160016101000a81548160ff0219169083600181111561026e5761026d610c40565b5b021790555060e0820151816006016000820151816000015550506101008201518160070160008201518160000160006101000a81548173ffffffffffffffffffffffffffffffffffffffff021916908373ffffffffffffffffffffffffffffffffffffffff160217905550505090505080600260003373ffffffffffffffffffffffffffffffffffffffff1673ffffffffffffffffffffffffffffffffffffffff16815260200190815260200160002060008201518160000160006101000a81548173ffffffffffffffffffffffffffffffffffffffff021916908373ffffffffffffffffffffffffffffffffffffffff16021790555060208201518160010160006101000a81548173ffffffffffffffffffffffffffffffffffffffff021916908373ffffffffffffffffffffffffffffffffffffffff16021790555060408201518160020160006101000a81548173ffffffffffffffffffffffffffffffffffffffff021916908373ffffffffffffffffffffffffffffffffffffffff160217905550606082015181600301556080820151816004015560a08201518160050160006101000a81548160ff02191690831515021790555060c08201518160050160016101000a81548160ff0219169083600181111561045257610451610c40565b5b021790555060e0820151816006016000820151816000015550506101008201518160070160008201518160000160006101000a81548173ffffffffffffffffffffffffffffffffffffffff021916908373ffffffffffffffffffffffffffffffffffffffff16021790555050509050506104cc8183610559565b5050505050565b806000806101000a81548173ffffffffffffffffffffffffffffffffffffffff021916908373ffffffffffffffffffffffffffffffffffffffff1602179055508073ffffffffffffffffffffffffffffffffffffffff167f7437299f2ef95df7185f14c65d2b599b511d11dba6eeeb1fcde77df97f14321e60405160405180910390a250565b6105976040518060400160405280600a81526020017f6166746572706f73743100000000000000000000000000000000000000000000815250610634565b816020015173ffffffffffffffffffffffffffffffffffffffff16826000015173ffffffffffffffffffffffffffffffffffffffff167fd45bb59a90dd54277795b6932c18e671ec7a5de7f471deddbaa5e3aa26248b3960405160405180910390a37faf15bed1cac92d3f0429bfb6e9fd1868cc467abf51cfdc1a0ed46e1a29e972c2816040516106289190610c7e565b60405180910390a15050565b6106ca816040516024016106489190610d21565b6040516020818303038152906040527f41304fac000000000000000000000000000000000000000000000000000000007bffffffffffffffffffffffffffffffffffffffffffffffffffffffff19166020820180517bffffffffffffffffffffffffffffffffffffffffffffffffffffffff83818316178352505050506106cd565b50565b60008151905060006a636f6e736f6c652e6c6f679050602083016000808483855afa5050505050565b604051806101200160405280600073ffffffffffffffffffffffffffffffffffffffff168152602001600073ffffffffffffffffffffffffffffffffffffffff168152602001600073ffffffffffffffffffffffffffffffffffffffff16815260200160008152602001600081526020016000151581526020016000600181111561078457610783610c40565b5b81526020016107916107a4565b815260200161079e6107b7565b81525090565b6040518060200160405280600081525090565b6040518060200160405280600073ffffffffffffffffffffffffffffffffffffffff1681525090565b6000604051905090565b600080fd5b600073ffffffffffffffffffffffffffffffffffffffff82169050919050565b600061081a826107ef565b9050919050565b61082a8161080f565b811461083557600080fd5b50565b60008135905061084781610821565b92915050565b6000819050919050565b6108608161084d565b811461086b57600080fd5b50565b60008135905061087d81610857565b92915050565b60008060006060848603121561089c5761089b6107ea565b5b60006108aa86828701610838565b93505060206108bb86828701610838565b92505060406108cc8682870161086e565b9150509250925092565b6000602082840312156108ec576108eb6107ea565b5b60006108fa84828501610838565b91505092915050565b61090c8161080f565b82525050565b61091b8161084d565b82525050565b60006060820190506109366000830186610903565b6109436020830185610903565b6109506040830184610912565b949350505050565b600080fd5b6000601f19601f8301169050919050565b7f4e487b7100000000000000000000000000000000000000000000000000000000600052604160045260246000fd5b6109a68261095d565b810181811067ffffffffffffffff821117156109c5576109c461096e565b5b80604052505050565b60006109d86107e0565b90506109e4828261099d565b919050565b6000815190506109f881610821565b92915050565b600081519050610a0d81610857565b92915050565b60008115159050919050565b610a2881610a13565b8114610a3357600080fd5b50565b600081519050610a4581610a1f565b92915050565b60028110610a5857600080fd5b50565b600081519050610a6a81610a4b565b92915050565b600060208284031215610a8657610a85610958565b5b610a9060206109ce565b90506000610aa0848285016109fe565b60008301525092915050565b600060208284031215610ac257610ac1610958565b5b610acc60206109ce565b90506000610adc848285016109e9565b60008301525092915050565b60006101208284031215610aff57610afe610958565b5b610b0a6101206109ce565b90506000610b1a848285016109e9565b6000830152506020610b2e848285016109e9565b6020830152506040610b42848285016109e9565b6040830152506060610b56848285016109fe565b6060830152506080610b6a848285016109fe565b60808301525060a0610b7e84828501610a36565b60a08301525060c0610b9284828501610a5b565b60c08301525060e0610ba684828501610a70565b60e083015250610100610bbb84828501610aac565b6101008301525092915050565b6000819050919050565b610bdb81610bc8565b8114610be657600080fd5b50565b600081519050610bf881610bd2565b92915050565b6000806101408385031215610c1657610c156107ea565b5b6000610c2485828601610ae8565b925050610120610c3685828601610be9565b9150509250929050565b7f4e487b7100000000000000000000000000000000000000000000000000000000600052602160045260246000fd5b610c7881610bc8565b82525050565b6000602082019050610c936000830184610c6f565b92915050565b600081519050919050565b600082825260208201905092915050565b60005b83811015610cd3578082015181840152602081019050610cb8565b83811115610ce2576000848401525b50505050565b6000610cf382610c99565b610cfd8185610ca4565b9350610d0d818560208601610cb5565b610d168161095d565b840191505092915050565b60006020820190508181036000830152610d3b8184610ce8565b90509291505056fea26469706673582212202e12d9eb38683e9a0d5aead9cb2d8d0a76b6111c2d3b56911b9a1e1d8888bc5d64736f6c634300080a0033",
  "linkReferences": {},
  "deployedLinkReferences": {}
}