{
  "_format": "hh-sol-artifact-1",
  "contractName": "hub",
  "sourceName": "contracts/hub.sol",
  "abi": [
    {
      "inputs": [
        {
          "internalType": "address",
          "name": "_partyA",
          "type": "address"
        },
        {
          "internalType": "address",
          "name": "_partyB",
          "type": "address"
        },
        {
          "internalType": "uint256",
          "name": "_amount",
          "type": "uint256"
        },
        {
          "internalType": "address",
          "name": "currency",
          "type": "address"
        }
      ],
      "name": "postRBOwner",
      "outputs": [],
      "stateMutability": "nonpayable",
      "type": "function"
    },
    {
      "inputs": [
        {
          "internalType": "address",
          "name": "_address",
          "type": "address"
        }
      ],
      "name": "setIRBOwner",
      "outputs": [],
      "stateMutability": "nonpayable",
      "type": "function"
    }
  ],
  "bytecode": "0x608060405234801561001057600080fd5b50610e61806100206000396000f3fe608060405234801561001057600080fd5b50600436106100365760003560e01c8063934173561461003b578063e3a8e1d214610057575b600080fd5b610055600480360381019061005091906108fd565b610073565b005b610071600480360381019061006c9190610960565b6100f9565b005b806000806101000a81548173ffffffffffffffffffffffffffffffffffffffff021916908373ffffffffffffffffffffffffffffffffffffffff1602179055508073ffffffffffffffffffffffffffffffffffffffff167f7437299f2ef95df7185f14c65d2b599b511d11dba6eeeb1fcde77df97f14321e60405160405180910390a250565b6000610103610789565b60008054906101000a900473ffffffffffffffffffffffffffffffffffffffff1673ffffffffffffffffffffffffffffffffffffffff1663e3a8e1d2878787876040518563ffffffff1660e01b815260040161016294939291906109e5565b610160604051808303816000875af1158015610182573d6000803e3d6000fd5b505050506040513d601f19601f820116820180604052508101906101a69190610ce6565b8093508192505050806001600084815260200190815260200160002060008201518160000160006101000a81548173ffffffffffffffffffffffffffffffffffffffff021916908373ffffffffffffffffffffffffffffffffffffffff16021790555060208201518160010160006101000a81548173ffffffffffffffffffffffffffffffffffffffff021916908373ffffffffffffffffffffffffffffffffffffffff16021790555060408201518160020160006101000a81548173ffffffffffffffffffffffffffffffffffffffff021916908373ffffffffffffffffffffffffffffffffffffffff160217905550606082015181600301556080820151816004015560a08201518160050160006101000a81548173ffffffffffffffffffffffffffffffffffffffff021916908373ffffffffffffffffffffffffffffffffffffffff16021790555060c08201518160050160146101000a81548160ff02191690831515021790555060e08201518160050160156101000a81548160ff0219169083600181111561033d5761033c610d28565b5b0217905550610100820151816006016000820151816000015550506101208201518160070160008201518160000160006101000a81548173ffffffffffffffffffffffffffffffffffffffff021916908373ffffffffffffffffffffffffffffffffffffffff160217905550505090505080600260003373ffffffffffffffffffffffffffffffffffffffff1673ffffffffffffffffffffffffffffffffffffffff16815260200190815260200160002060008201518160000160006101000a81548173ffffffffffffffffffffffffffffffffffffffff021916908373ffffffffffffffffffffffffffffffffffffffff16021790555060208201518160010160006101000a81548173ffffffffffffffffffffffffffffffffffffffff021916908373ffffffffffffffffffffffffffffffffffffffff16021790555060408201518160020160006101000a81548173ffffffffffffffffffffffffffffffffffffffff021916908373ffffffffffffffffffffffffffffffffffffffff160217905550606082015181600301556080820151816004015560a08201518160050160006101000a81548173ffffffffffffffffffffffffffffffffffffffff021916908373ffffffffffffffffffffffffffffffffffffffff16021790555060c08201518160050160146101000a81548160ff02191690831515021790555060e08201518160050160156101000a81548160ff0219169083600181111561056957610568610d28565b5b0217905550610100820151816006016000820151816000015550506101208201518160070160008201518160000160006101000a81548173ffffffffffffffffffffffffffffffffffffffff021916908373ffffffffffffffffffffffffffffffffffffffff16021790555050509050506105e481836105ec565b505050505050565b61062a6040518060400160405280600a81526020017f6166746572706f737431000000000000000000000000000000000000000000008152506106c7565b816020015173ffffffffffffffffffffffffffffffffffffffff16826000015173ffffffffffffffffffffffffffffffffffffffff167fd45bb59a90dd54277795b6932c18e671ec7a5de7f471deddbaa5e3aa26248b3960405160405180910390a37faf15bed1cac92d3f0429bfb6e9fd1868cc467abf51cfdc1a0ed46e1a29e972c2816040516106bb9190610d66565b60405180910390a15050565b61075d816040516024016106db9190610e09565b6040516020818303038152906040527f41304fac000000000000000000000000000000000000000000000000000000007bffffffffffffffffffffffffffffffffffffffffffffffffffffffff19166020820180517bffffffffffffffffffffffffffffffffffffffffffffffffffffffff8381831617835250505050610760565b50565b60008151905060006a636f6e736f6c652e6c6f679050602083016000808483855afa5050505050565b604051806101400160405280600073ffffffffffffffffffffffffffffffffffffffff168152602001600073ffffffffffffffffffffffffffffffffffffffff168152602001600073ffffffffffffffffffffffffffffffffffffffff1681526020016000815260200160008152602001600073ffffffffffffffffffffffffffffffffffffffff1681526020016000151581526020016000600181111561083457610833610d28565b5b8152602001610841610854565b815260200161084e610867565b81525090565b6040518060200160405280600081525090565b6040518060200160405280600073ffffffffffffffffffffffffffffffffffffffff1681525090565b6000604051905090565b600080fd5b600073ffffffffffffffffffffffffffffffffffffffff82169050919050565b60006108ca8261089f565b9050919050565b6108da816108bf565b81146108e557600080fd5b50565b6000813590506108f7816108d1565b92915050565b6000602082840312156109135761091261089a565b5b6000610921848285016108e8565b91505092915050565b6000819050919050565b61093d8161092a565b811461094857600080fd5b50565b60008135905061095a81610934565b92915050565b6000806000806080858703121561097a5761097961089a565b5b6000610988878288016108e8565b9450506020610999878288016108e8565b93505060406109aa8782880161094b565b92505060606109bb878288016108e8565b91505092959194509250565b6109d0816108bf565b82525050565b6109df8161092a565b82525050565b60006080820190506109fa60008301876109c7565b610a0760208301866109c7565b610a1460408301856109d6565b610a2160608301846109c7565b95945050505050565b600080fd5b6000601f19601f8301169050919050565b7f4e487b7100000000000000000000000000000000000000000000000000000000600052604160045260246000fd5b610a7882610a2f565b810181811067ffffffffffffffff82111715610a9757610a96610a40565b5b80604052505050565b6000610aaa610890565b9050610ab68282610a6f565b919050565b600081519050610aca816108d1565b92915050565b600081519050610adf81610934565b92915050565b60008115159050919050565b610afa81610ae5565b8114610b0557600080fd5b50565b600081519050610b1781610af1565b92915050565b60028110610b2a57600080fd5b50565b600081519050610b3c81610b1d565b92915050565b600060208284031215610b5857610b57610a2a565b5b610b626020610aa0565b90506000610b7284828501610ad0565b60008301525092915050565b600060208284031215610b9457610b93610a2a565b5b610b9e6020610aa0565b90506000610bae84828501610abb565b60008301525092915050565b60006101408284031215610bd157610bd0610a2a565b5b610bdc610140610aa0565b90506000610bec84828501610abb565b6000830152506020610c0084828501610abb565b6020830152506040610c1484828501610abb565b6040830152506060610c2884828501610ad0565b6060830152506080610c3c84828501610ad0565b60808301525060a0610c5084828501610abb565b60a08301525060c0610c6484828501610b08565b60c08301525060e0610c7884828501610b2d565b60e083015250610100610c8d84828501610b42565b61010083015250610120610ca384828501610b7e565b6101208301525092915050565b6000819050919050565b610cc381610cb0565b8114610cce57600080fd5b50565b600081519050610ce081610cba565b92915050565b6000806101608385031215610cfe57610cfd61089a565b5b6000610d0c85828601610bba565b925050610140610d1e85828601610cd1565b9150509250929050565b7f4e487b7100000000000000000000000000000000000000000000000000000000600052602160045260246000fd5b610d6081610cb0565b82525050565b6000602082019050610d7b6000830184610d57565b92915050565b600081519050919050565b600082825260208201905092915050565b60005b83811015610dbb578082015181840152602081019050610da0565b83811115610dca576000848401525b50505050565b6000610ddb82610d81565b610de58185610d8c565b9350610df5818560208601610d9d565b610dfe81610a2f565b840191505092915050565b60006020820190508181036000830152610e238184610dd0565b90509291505056fea264697066735822122066f1215f77870039f857fefc7ea6686408ada5d48fba8f1481b315a23a165a7d64736f6c634300080a0033",
  "linkReferences": {},
  "deployedLinkReferences": {}
}