{
  "_format": "hh-sol-artifact-1",
  "contractName": "hub",
  "sourceName": "contracts/hub.sol",
  "abi": [
    {
      "inputs": [
        {
          "internalType": "address",
          "name": "_lens",
          "type": "address"
        }
      ],
      "stateMutability": "nonpayable",
      "type": "constructor"
    },
    {
      "inputs": [],
      "name": "NotDispatcher",
      "type": "error"
    },
    {
      "inputs": [],
      "name": "TokenDoesNotExist",
      "type": "error"
    },
    {
      "inputs": [
        {
          "internalType": "string",
          "name": "",
          "type": "string"
        }
      ],
      "name": "UserNotAllowed",
      "type": "error"
    },
    {
      "inputs": [
        {
          "internalType": "uint256",
          "name": "allowance",
          "type": "uint256"
        },
        {
          "internalType": "uint256",
          "name": "required",
          "type": "uint256"
        }
      ],
      "name": "insufficientAllowance",
      "type": "error"
    },
    {
      "inputs": [
        {
          "internalType": "uint256",
          "name": "balance",
          "type": "uint256"
        },
        {
          "internalType": "uint256",
          "name": "required",
          "type": "uint256"
        }
      ],
      "name": "insufficientBalance",
      "type": "error"
    },
    {
      "inputs": [
        {
          "internalType": "address",
          "name": "_treasury",
          "type": "address"
        }
      ],
      "name": "_setTreasuryAddress",
      "outputs": [],
      "stateMutability": "nonpayable",
      "type": "function"
    },
    {
      "inputs": [
        {
          "internalType": "bytes32",
          "name": "_id",
          "type": "bytes32"
        }
      ],
      "name": "getPostById",
      "outputs": [
        {
          "components": [
            {
              "internalType": "address",
              "name": "partyA",
              "type": "address"
            },
            {
              "internalType": "address",
              "name": "partyB",
              "type": "address"
            },
            {
              "internalType": "address",
              "name": "owner",
              "type": "address"
            },
            {
              "internalType": "uint256",
              "name": "resolveAfter",
              "type": "uint256"
            },
            {
              "internalType": "uint256",
              "name": "automaticallyResolveAfter",
              "type": "uint256"
            },
            {
              "internalType": "uint256",
              "name": "amount",
              "type": "uint256"
            },
            {
              "internalType": "address",
              "name": "currency",
              "type": "address"
            },
            {
              "internalType": "bool",
              "name": "resolved",
              "type": "bool"
            },
            {
              "internalType": "enum DataTypes.ResolveTypes",
              "name": "resolvetype",
              "type": "uint8"
            },
            {
              "components": [
                {
                  "internalType": "uint256",
                  "name": "price",
                  "type": "uint256"
                }
              ],
              "internalType": "struct DataTypes.ResolveByOracleConditions",
              "name": "resolveByOracleConditions",
              "type": "tuple"
            },
            {
              "components": [
                {
                  "internalType": "address",
                  "name": "resolver",
                  "type": "address"
                }
              ],
              "internalType": "struct DataTypes.ResolveByOwnerConditions",
              "name": "resolveByOwnerConditions",
              "type": "tuple"
            },
            {
              "components": [
                {
                  "internalType": "uint256",
                  "name": "profileId",
                  "type": "uint256"
                },
                {
                  "internalType": "uint256",
                  "name": "initialPubId",
                  "type": "uint256"
                },
                {
                  "internalType": "uint256",
                  "name": "resolvingPubId",
                  "type": "uint256"
                }
              ],
              "internalType": "struct DataTypes.LensPostInfo",
              "name": "lensPostInfo",
              "type": "tuple"
            }
          ],
          "internalType": "struct DataTypes.Post",
          "name": "",
          "type": "tuple"
        }
      ],
      "stateMutability": "view",
      "type": "function"
    },
    {
      "inputs": [],
      "name": "governance",
      "outputs": [
        {
          "internalType": "address",
          "name": "",
          "type": "address"
        }
      ],
      "stateMutability": "view",
      "type": "function"
    },
    {
      "inputs": [
        {
          "components": [
            {
              "internalType": "address",
              "name": "partyA",
              "type": "address"
            },
            {
              "internalType": "address",
              "name": "partyB",
              "type": "address"
            },
            {
              "internalType": "address",
              "name": "owner",
              "type": "address"
            },
            {
              "internalType": "uint256",
              "name": "resolveAfter",
              "type": "uint256"
            },
            {
              "internalType": "uint256",
              "name": "automaticallyResolveAfter",
              "type": "uint256"
            },
            {
              "internalType": "uint256",
              "name": "amount",
              "type": "uint256"
            },
            {
              "internalType": "address",
              "name": "currency",
              "type": "address"
            },
            {
              "internalType": "bool",
              "name": "resolved",
              "type": "bool"
            },
            {
              "internalType": "enum DataTypes.ResolveTypes",
              "name": "resolvetype",
              "type": "uint8"
            },
            {
              "components": [
                {
                  "internalType": "uint256",
                  "name": "price",
                  "type": "uint256"
                }
              ],
              "internalType": "struct DataTypes.ResolveByOracleConditions",
              "name": "resolveByOracleConditions",
              "type": "tuple"
            },
            {
              "components": [
                {
                  "internalType": "address",
                  "name": "resolver",
                  "type": "address"
                }
              ],
              "internalType": "struct DataTypes.ResolveByOwnerConditions",
              "name": "resolveByOwnerConditions",
              "type": "tuple"
            },
            {
              "components": [
                {
                  "internalType": "uint256",
                  "name": "profileId",
                  "type": "uint256"
                },
                {
                  "internalType": "uint256",
                  "name": "initialPubId",
                  "type": "uint256"
                },
                {
                  "internalType": "uint256",
                  "name": "resolvingPubId",
                  "type": "uint256"
                }
              ],
              "internalType": "struct DataTypes.LensPostInfo",
              "name": "lensPostInfo",
              "type": "tuple"
            }
          ],
          "internalType": "struct DataTypes.Post",
          "name": "_post",
          "type": "tuple"
        },
        {
          "components": [
            {
              "internalType": "uint256",
              "name": "profileId",
              "type": "uint256"
            },
            {
              "internalType": "string",
              "name": "contentURI",
              "type": "string"
            },
            {
              "internalType": "address",
              "name": "collectModule",
              "type": "address"
            },
            {
              "internalType": "bytes",
              "name": "collectModuleInitData",
              "type": "bytes"
            },
            {
              "internalType": "address",
              "name": "referenceModule",
              "type": "address"
            },
            {
              "internalType": "bytes",
              "name": "referenceModuleInitData",
              "type": "bytes"
            }
          ],
          "internalType": "struct DataTypes.PostData",
          "name": "_lensPost",
          "type": "tuple"
        }
      ],
      "name": "post",
      "outputs": [
        {
          "internalType": "bytes32",
          "name": "id",
          "type": "bytes32"
        },
        {
          "internalType": "uint256",
          "name": "initialPubId",
          "type": "uint256"
        }
      ],
      "stateMutability": "nonpayable",
      "type": "function"
    },
    {
      "inputs": [],
      "name": "waitForAutomaticResolution",
      "outputs": [
        {
          "internalType": "uint256",
          "name": "",
          "type": "uint256"
        }
      ],
      "stateMutability": "view",
      "type": "function"
    }
  ],
  "bytecode": "0x60806040523480156200001157600080fd5b50604051620021e3380380620021e383398181016040528101906200003791906200016a565b33600160006101000a81548173ffffffffffffffffffffffffffffffffffffffff021916908373ffffffffffffffffffffffffffffffffffffffff16021790555030600260006101000a81548173ffffffffffffffffffffffffffffffffffffffff021916908373ffffffffffffffffffffffffffffffffffffffff160217905550806000806101000a81548173ffffffffffffffffffffffffffffffffffffffff021916908373ffffffffffffffffffffffffffffffffffffffff160217905550506200019c565b600080fd5b600073ffffffffffffffffffffffffffffffffffffffff82169050919050565b6000620001328262000105565b9050919050565b620001448162000125565b81146200015057600080fd5b50565b600081519050620001648162000139565b92915050565b60006020828403121562000183576200018262000100565b5b6000620001938482850162000153565b91505092915050565b61203780620001ac6000396000f3fe608060405234801561001057600080fd5b50600436106100575760003560e01c80635aa6e6751461005c578063645ac8601461007a578063ae362ff914610096578063d6ff4dcd146100c6578063de32e5e6146100e4575b600080fd5b610064610115565b60405161007191906112db565b60405180910390f35b610094600480360381019061008f9190611336565b61013b565b005b6100b060048036038101906100ab9190611399565b610274565b6040516100bd91906115f0565b60405180910390f35b6100ce610528565b6040516100db919061161b565b60405180910390f35b6100fe60048036038101906100f99190611966565b61052e565b60405161010c9291906119d3565b60405180910390f35b600160009054906101000a900473ffffffffffffffffffffffffffffffffffffffff1681565b600160009054906101000a900473ffffffffffffffffffffffffffffffffffffffff1673ffffffffffffffffffffffffffffffffffffffff163373ffffffffffffffffffffffffffffffffffffffff16146101cb576040517fd2a4bdfb0000000000000000000000000000000000000000000000000000000081526004016101c290611a59565b60405180910390fd5b80600260006101000a81548173ffffffffffffffffffffffffffffffffffffffff021916908373ffffffffffffffffffffffffffffffffffffffff160217905550600260009054906101000a900473ffffffffffffffffffffffffffffffffffffffff1673ffffffffffffffffffffffffffffffffffffffff167f7437299f2ef95df7185f14c65d2b599b511d11dba6eeeb1fcde77df97f14321e60405160405180910390a250565b61027c61115e565b60046000838152602001908152602001600020604051806101800160405290816000820160009054906101000a900473ffffffffffffffffffffffffffffffffffffffff1673ffffffffffffffffffffffffffffffffffffffff1673ffffffffffffffffffffffffffffffffffffffff1681526020016001820160009054906101000a900473ffffffffffffffffffffffffffffffffffffffff1673ffffffffffffffffffffffffffffffffffffffff1673ffffffffffffffffffffffffffffffffffffffff1681526020016002820160009054906101000a900473ffffffffffffffffffffffffffffffffffffffff1673ffffffffffffffffffffffffffffffffffffffff1673ffffffffffffffffffffffffffffffffffffffff1681526020016003820154815260200160048201548152602001600582015481526020016006820160009054906101000a900473ffffffffffffffffffffffffffffffffffffffff1673ffffffffffffffffffffffffffffffffffffffff1673ffffffffffffffffffffffffffffffffffffffff1681526020016006820160149054906101000a900460ff161515151581526020016006820160159054906101000a900460ff16600181111561045157610450611409565b5b600181111561046357610462611409565b5b8152602001600782016040518060200160405290816000820154815250508152602001600882016040518060200160405290816000820160009054906101000a900473ffffffffffffffffffffffffffffffffffffffff1673ffffffffffffffffffffffffffffffffffffffff1673ffffffffffffffffffffffffffffffffffffffff16815250508152602001600982016040518060600160405290816000820154815260200160018201548152602001600282015481525050815250509050919050565b60035481565b6000808360a001518460c001518560400151600082905060008173ffffffffffffffffffffffffffffffffffffffff1663dd62ed3e84306040518363ffffffff1660e01b8152600401610582929190611a79565b602060405180830381865afa15801561059f573d6000803e3d6000fd5b505050506040513d601f19601f820116820180604052508101906105c39190611ab7565b90506105ce81610de4565b848110156106155780856040517f4c25082300000000000000000000000000000000000000000000000000000000815260040161060c929190611ae4565b60405180910390fd5b60008273ffffffffffffffffffffffffffffffffffffffff166370a08231856040518263ffffffff1660e01b815260040161065091906112db565b602060405180830381865afa15801561066d573d6000803e3d6000fd5b505050506040513d601f19601f820116820180604052508101906106919190611ab7565b9050858110156106da5780866040517fc7a28c790000000000000000000000000000000000000000000000000000000081526004016106d1929190611ae4565b60405180910390fd5b886000013560008060009054906101000a900473ffffffffffffffffffffffffffffffffffffffff1673ffffffffffffffffffffffffffffffffffffffff1663ec81d194836040518263ffffffff1660e01b815260040161073b919061161b565b600060405180830381865afa158015610758573d6000803e3d6000fd5b505050506040513d6000823e3d601f19601f820116820180604052508101906107819190611beb565b90506000815114156107bf576040517fceea21b600000000000000000000000000000000000000000000000000000000815260040160405180910390fd5b60008060009054906101000a900473ffffffffffffffffffffffffffffffffffffffff1673ffffffffffffffffffffffffffffffffffffffff1663540528b9846040518263ffffffff1660e01b815260040161081b919061161b565b602060405180830381865afa158015610838573d6000803e3d6000fd5b505050506040513d601f19601f8201168201806040525081019061085c9190611c49565b90503073ffffffffffffffffffffffffffffffffffffffff168173ffffffffffffffffffffffffffffffffffffffff16146108c3576040517f957fb99f00000000000000000000000000000000000000000000000000000000815260040160405180910390fd5b6108cb610e7d565b9a506108e48d60a001518e60c001518f60400151610ead565b6108ed8c61108f565b99508b600001358d61016001516000018181525050898d610160015160200181815250508c600460008d815260200190815260200160002060008201518160000160006101000a81548173ffffffffffffffffffffffffffffffffffffffff021916908373ffffffffffffffffffffffffffffffffffffffff16021790555060208201518160010160006101000a81548173ffffffffffffffffffffffffffffffffffffffff021916908373ffffffffffffffffffffffffffffffffffffffff16021790555060408201518160020160006101000a81548173ffffffffffffffffffffffffffffffffffffffff021916908373ffffffffffffffffffffffffffffffffffffffff160217905550606082015181600301556080820151816004015560a0820151816005015560c08201518160060160006101000a81548173ffffffffffffffffffffffffffffffffffffffff021916908373ffffffffffffffffffffffffffffffffffffffff16021790555060e08201518160060160146101000a81548160ff0219169083151502179055506101008201518160060160156101000a81548160ff02191690836001811115610aab57610aaa611409565b5b0217905550610120820151816007016000820151816000015550506101408201518160080160008201518160000160006101000a81548173ffffffffffffffffffffffffffffffffffffffff021916908373ffffffffffffffffffffffffffffffffffffffff16021790555050506101608201518160090160008201518160000155602082015181600101556040820151816002015550509050508c600560003373ffffffffffffffffffffffffffffffffffffffff1673ffffffffffffffffffffffffffffffffffffffff16815260200190815260200160002060008201518160000160006101000a81548173ffffffffffffffffffffffffffffffffffffffff021916908373ffffffffffffffffffffffffffffffffffffffff16021790555060208201518160010160006101000a81548173ffffffffffffffffffffffffffffffffffffffff021916908373ffffffffffffffffffffffffffffffffffffffff16021790555060408201518160020160006101000a81548173ffffffffffffffffffffffffffffffffffffffff021916908373ffffffffffffffffffffffffffffffffffffffff160217905550606082015181600301556080820151816004015560a0820151816005015560c08201518160060160006101000a81548173ffffffffffffffffffffffffffffffffffffffff021916908373ffffffffffffffffffffffffffffffffffffffff16021790555060e08201518160060160146101000a81548160ff0219169083151502179055506101008201518160060160156101000a81548160ff02191690836001811115610d0c57610d0b611409565b5b0217905550610120820151816007016000820151816000015550506101408201518160080160008201518160000160006101000a81548173ffffffffffffffffffffffffffffffffffffffff021916908373ffffffffffffffffffffffffffffffffffffffff16021790555050506101608201518160090160008201518160000155602082015181600101556040820151816002015550509050508a7faf15bed1cac92d3f0429bfb6e9fd1868cc467abf51cfdc1a0ed46e1a29e972c260405160405180910390a25050505050505050509250929050565b610e7a81604051602401610df8919061161b565b6040516020818303038152906040527ff5b1bba9000000000000000000000000000000000000000000000000000000007bffffffffffffffffffffffffffffffffffffffffffffffffffffffff19166020820180517bffffffffffffffffffffffffffffffffffffffffffffffffffffffff8381831617835250505050611135565b50565b60004232604051602001610e92929190611cdf565b60405160208183030381529060405280519060200120905090565b600082905060008173ffffffffffffffffffffffffffffffffffffffff1663dd62ed3e84600260009054906101000a900473ffffffffffffffffffffffffffffffffffffffff166040518363ffffffff1660e01b8152600401610f11929190611a79565b602060405180830381865afa158015610f2e573d6000803e3d6000fd5b505050506040513d601f19601f82011682018060405250810190610f529190611ab7565b9050610f5d81610de4565b60008273ffffffffffffffffffffffffffffffffffffffff166370a08231856040518263ffffffff1660e01b8152600401610f9891906112db565b602060405180830381865afa158015610fb5573d6000803e3d6000fd5b505050506040513d601f19601f82011682018060405250810190610fd99190611ab7565b9050610fe481610de4565b8273ffffffffffffffffffffffffffffffffffffffff166323b872dd85600260009054906101000a900473ffffffffffffffffffffffffffffffffffffffff16896040518463ffffffff1660e01b815260040161104393929190611d0b565b6020604051808303816000875af1158015611062573d6000803e3d6000fd5b505050506040513d601f19601f820116820180604052508101906110869190611d57565b50505050505050565b60008060009054906101000a900473ffffffffffffffffffffffffffffffffffffffff1673ffffffffffffffffffffffffffffffffffffffff1663963ff141836040518263ffffffff1660e01b81526004016110eb9190611fdf565b6020604051808303816000875af115801561110a573d6000803e3d6000fd5b505050506040513d601f19601f8201168201806040525081019061112e9190611ab7565b9050919050565b60008151905060006a636f6e736f6c652e6c6f679050602083016000808483855afa5050505050565b604051806101800160405280600073ffffffffffffffffffffffffffffffffffffffff168152602001600073ffffffffffffffffffffffffffffffffffffffff168152602001600073ffffffffffffffffffffffffffffffffffffffff168152602001600081526020016000815260200160008152602001600073ffffffffffffffffffffffffffffffffffffffff168152602001600015158152602001600060018111156112105761120f611409565b5b815260200161121d61123d565b815260200161122a611250565b8152602001611237611279565b81525090565b6040518060200160405280600081525090565b6040518060200160405280600073ffffffffffffffffffffffffffffffffffffffff1681525090565b60405180606001604052806000815260200160008152602001600081525090565b600073ffffffffffffffffffffffffffffffffffffffff82169050919050565b60006112c58261129a565b9050919050565b6112d5816112ba565b82525050565b60006020820190506112f060008301846112cc565b92915050565b6000604051905090565b600080fd5b600080fd5b611313816112ba565b811461131e57600080fd5b50565b6000813590506113308161130a565b92915050565b60006020828403121561134c5761134b611300565b5b600061135a84828501611321565b91505092915050565b6000819050919050565b61137681611363565b811461138157600080fd5b50565b6000813590506113938161136d565b92915050565b6000602082840312156113af576113ae611300565b5b60006113bd84828501611384565b91505092915050565b6113cf816112ba565b82525050565b6000819050919050565b6113e8816113d5565b82525050565b60008115159050919050565b611403816113ee565b82525050565b7f4e487b7100000000000000000000000000000000000000000000000000000000600052602160045260246000fd5b6002811061144957611448611409565b5b50565b600081905061145a82611438565b919050565b600061146a8261144c565b9050919050565b61147a8161145f565b82525050565b60208201600082015161149660008501826113df565b50505050565b6020820160008201516114b260008501826113c6565b50505050565b6060820160008201516114ce60008501826113df565b5060208201516114e160208501826113df565b5060408201516114f460408501826113df565b50505050565b6101c08201600082015161151160008501826113c6565b50602082015161152460208501826113c6565b50604082015161153760408501826113c6565b50606082015161154a60608501826113df565b50608082015161155d60808501826113df565b5060a082015161157060a08501826113df565b5060c082015161158360c08501826113c6565b5060e082015161159660e08501826113fa565b506101008201516115ab610100850182611471565b506101208201516115c0610120850182611480565b506101408201516115d561014085018261149c565b506101608201516115ea6101608501826114b8565b50505050565b60006101c08201905061160660008301846114fa565b92915050565b611615816113d5565b82525050565b6000602082019050611630600083018461160c565b92915050565b600080fd5b6000601f19601f8301169050919050565b7f4e487b7100000000000000000000000000000000000000000000000000000000600052604160045260246000fd5b6116848261163b565b810181811067ffffffffffffffff821117156116a3576116a261164c565b5b80604052505050565b60006116b66112f6565b90506116c2828261167b565b919050565b6116d0816113d5565b81146116db57600080fd5b50565b6000813590506116ed816116c7565b92915050565b6116fc816113ee565b811461170757600080fd5b50565b600081359050611719816116f3565b92915050565b6002811061172c57600080fd5b50565b60008135905061173e8161171f565b92915050565b60006020828403121561175a57611759611636565b5b61176460206116ac565b90506000611774848285016116de565b60008301525092915050565b60006020828403121561179657611795611636565b5b6117a060206116ac565b905060006117b084828501611321565b60008301525092915050565b6000606082840312156117d2576117d1611636565b5b6117dc60606116ac565b905060006117ec848285016116de565b6000830152506020611800848285016116de565b6020830152506040611814848285016116de565b60408301525092915050565b60006101c0828403121561183757611836611636565b5b6118426101806116ac565b9050600061185284828501611321565b600083015250602061186684828501611321565b602083015250604061187a84828501611321565b604083015250606061188e848285016116de565b60608301525060806118a2848285016116de565b60808301525060a06118b6848285016116de565b60a08301525060c06118ca84828501611321565b60c08301525060e06118de8482850161170a565b60e0830152506101006118f38482850161172f565b6101008301525061012061190984828501611744565b6101208301525061014061191f84828501611780565b61014083015250610160611935848285016117bc565b6101608301525092915050565b600080fd5b600060c0828403121561195d5761195c611942565b5b81905092915050565b6000806101e0838503121561197e5761197d611300565b5b600061198c85828601611820565b9250506101c083013567ffffffffffffffff8111156119ae576119ad611305565b5b6119ba85828601611947565b9150509250929050565b6119cd81611363565b82525050565b60006040820190506119e860008301856119c4565b6119f5602083018461160c565b9392505050565b600082825260208201905092915050565b7f4e6f74206120476f7665726e616e636520416464726573730000000000000000600082015250565b6000611a436018836119fc565b9150611a4e82611a0d565b602082019050919050565b60006020820190508181036000830152611a7281611a36565b9050919050565b6000604082019050611a8e60008301856112cc565b611a9b60208301846112cc565b9392505050565b600081519050611ab1816116c7565b92915050565b600060208284031215611acd57611acc611300565b5b6000611adb84828501611aa2565b91505092915050565b6000604082019050611af9600083018561160c565b611b06602083018461160c565b9392505050565b600080fd5b600080fd5b600067ffffffffffffffff821115611b3257611b3161164c565b5b611b3b8261163b565b9050602081019050919050565b60005b83811015611b66578082015181840152602081019050611b4b565b83811115611b75576000848401525b50505050565b6000611b8e611b8984611b17565b6116ac565b905082815260208101848484011115611baa57611ba9611b12565b5b611bb5848285611b48565b509392505050565b600082601f830112611bd257611bd1611b0d565b5b8151611be2848260208601611b7b565b91505092915050565b600060208284031215611c0157611c00611300565b5b600082015167ffffffffffffffff811115611c1f57611c1e611305565b5b611c2b84828501611bbd565b91505092915050565b600081519050611c438161130a565b92915050565b600060208284031215611c5f57611c5e611300565b5b6000611c6d84828501611c34565b91505092915050565b6000819050919050565b611c91611c8c826113d5565b611c76565b82525050565b60008160601b9050919050565b6000611caf82611c97565b9050919050565b6000611cc182611ca4565b9050919050565b611cd9611cd4826112ba565b611cb6565b82525050565b6000611ceb8285611c80565b602082019150611cfb8284611cc8565b6014820191508190509392505050565b6000606082019050611d2060008301866112cc565b611d2d60208301856112cc565b611d3a604083018461160c565b949350505050565b600081519050611d51816116f3565b92915050565b600060208284031215611d6d57611d6c611300565b5b6000611d7b84828501611d42565b91505092915050565b6000611d9360208401846116de565b905092915050565b600080fd5b600080fd5b600080fd5b60008083356001602003843603038112611dc757611dc6611da5565b5b83810192508235915060208301925067ffffffffffffffff821115611def57611dee611d9b565b5b600182023603841315611e0557611e04611da0565b5b509250929050565b600082825260208201905092915050565b82818337600083830152505050565b6000611e398385611e0d565b9350611e46838584611e1e565b611e4f8361163b565b840190509392505050565b6000611e696020840184611321565b905092915050565b60008083356001602003843603038112611e8e57611e8d611da5565b5b83810192508235915060208301925067ffffffffffffffff821115611eb657611eb5611d9b565b5b600182023603841315611ecc57611ecb611da0565b5b509250929050565b600082825260208201905092915050565b6000611ef18385611ed4565b9350611efe838584611e1e565b611f078361163b565b840190509392505050565b600060c08301611f256000840184611d84565b611f3260008601826113df565b50611f406020840184611daa565b8583036020870152611f53838284611e2d565b92505050611f646040840184611e5a565b611f7160408601826113c6565b50611f7f6060840184611e71565b8583036060870152611f92838284611ee5565b92505050611fa36080840184611e5a565b611fb060808601826113c6565b50611fbe60a0840184611e71565b85830360a0870152611fd1838284611ee5565b925050508091505092915050565b60006020820190508181036000830152611ff98184611f12565b90509291505056fea26469706673582212202e3caa3997c66ff2024e9184c19698741efded760bf1f9c8bc21be8648668e4d64736f6c634300080a0033",
  "linkReferences": {},
  "deployedLinkReferences": {}
}